:100000000C9421060C9459060C9459060C9459062C
:100010000C9459060C9459060C9459060C945906E4
:100020000C9459060C9459060C94F5230C94B123A6
:100030000C9448250C9459060C9459060C945906B6
:100040000C9459060C9459060C9459060C945906B4
:100050000C946F250C9424250C9459060C94590685
:100060000C9459060C9459060C9459060C94590694
:100070000C9459060C9459060C9459060C94590684
:100080000C9459060C9459060C9459060C94590674
:100090000C9459060C9459060C9459060C94590664
:1000A0000C9459060C9459060C9459060631FF0914
:1000B00074A1010975150026FF00952075088102BD
:1000C0000976150026FF00952075089102C00501EC
:1000D0000902A10185020901A100050919012908E8
:1000E00015002501950875018102050109300931C6
:1000F0001581257F95027508810609381581257FB0
:10010000950175088106050C0A38021581257F9531
:100110000175088106C0C005010980A10185031988
:10012000012AB700150126B700950175108100C09E
:10013000050C0901A101850419012AA00215012657
:10014000A002950175108100C005010906A10105F5
:100150000719E029E7150025019508750181029529
:1001600001750881010507190029FF150026FF0008
:100170009506750881000508190129059505750181
:100180009102950175039101C06261636B6C6967AF
:1001900068742064656372656173653A2025750A29
:1001A000006261636B6C6967687420696E63726575
:1001B0006173653A2025750A006261636B6C69673B
:1001C00068742064697361626C650A006261636BC4
:1001D0006C6967687420656E61626C650A006261B3
:1001E000636B6C6967687420746F67676C653A202D
:1001F00025750A006261636B6C69676874207374AB
:1002000065703A2025750A006261636B6C696768E6
:100210007420627265617468696E672064697361D5
:10022000626C650A006261636B6C69676874206266
:100230007265617468696E6720656E61626C650ADB
:10024000006261636B6C69676874206272656174D7
:1002500068696E6720746F67676C653A2025750A58
:10026000007267626C696768742064697361626CAC
:1002700065205B454550524F4D5D3A207267626C78
:10028000696768745F636F6E6669672E656E616229
:100290006C65203D2025750A007267626C6967688D
:1002A0007420656E61626C65205B454550524F4D10
:1002B0005D3A207267626C696768745F636F6E662F
:1002C00069672E656E61626C65203D2025750A00A8
:1002D0007267626C6967687420746F67676C652009
:1002E0005B454550524F4D5D3A207267626C6967BD
:1002F00068745F636F6E6669672E656E61626C65B8
:10030000203D2025750A0044454255473A2064693E
:100310007361626C65642E0A0044454255473A2079
:10032000656E61626C65642E0A004F6E6573686F5E
:10033000743A206163746976653A2025640A000A7C
:10034000002530325820006B6579626F6172645FFE
:100350007265706F72743A200029001E021F02201D
:1003600002210222020000000000002302240225D4
:10037000022F003000000035001400070015001A9D
:1003800000050008180F184C050D0009001800138F
:1003900000330034002B00044216430B4417000ABC
:1003A0004150184600E3001C001100080012000C28
:1003B00000280039001D251B23100006001900002D
:1003C00000000000000E000F003600370038004C1F
:1003D00000000000000718E600E5002A00E4000025
:1003E0000021522C00235224520000000000000182
:1003F00000000000000000000000000000000000FD
:1004000000000000000000000000000000000000EC
:1004100000E500E400E6110000000000000000001C
:10042000004B0052004E00000000000100000000E0
:10043000000000000001000000000000004A005021
:100440000051004F004D00010000000100010000BC
:10045000000000000000000000000000001E111F4E
:100460001120110000010000000000010001000146
:100470000001000000000001000100010001000176
:100480000000000000010001000100010001000166
:10049000000000000000000100010001002F0230F8
:1004A000020100010000001E142D1428110000009C
:1004B00000000000001E0235023102310033023517
:1004C0000001000100010001000000010000000027
:1004D0000000002E022D02260227022D000100003E
:1004E0000000000000000000003E000000000000CE
:1004F000002E000100360237023802010000000021
:1005000000010001000100010001000000010001E4
:1005100000010001000100000000000000000000D8
:1005200000000000000000000000000000000000CB
:1005300000000000000000000001000000000000BA
:1005400000000000000000000000001E0224002542
:1005500000260033023402010001000100E5000121
:100560000001000000000000002E022100220023F4
:10057000002D00010000000000000000000000004D
:10058000000000000000002E001E001F00200038A8
:100590000001000000000001000100010001000155
:1005A0000000000100270001000100000000000021
:1005B000000000000000000000000000000000003B
:1005C000000000000000000000000000000000002B
:1005D000000000000000000000000000000000001B
:1005E0000000004000410042000000000001000146
:1005F00000010001000100010000000000000000F7
:10060000003D003E003F0000000000000000000030
:100610000000000000000000000000000000003AA0
:10062000003B003C00000000000000000000000053
:100630000000000000000000000000430001000175
:10064000000000000000007267626C696768745FF8
:10065000636F6E6669672E7370656564203D202543
:10066000640A007267626C696768745F636F6E66C4
:1006700069672E76616C203D2025640A00726762EE
:100680006C696768745F636F6E6669672E73617407
:10069000203D2025640A007267626C696768745F98
:1006A000636F6E6669672E687565203D2025640A54
:1006B000007267686C696768745F636F6E6669670C
:1006C0002E6D6F6465203D2025640A007267626CA0
:1006D000696768745F636F6E6669672E656E6162D5
:1006E0006C65203D2025640A007267626C6967684A
:1006F000745F636F6E66696720454550524F4D3A8F
:100700000A007267626C696768745F696E69742059
:100710007267626C696768745F636F6E6669672E83
:100720006D6F6465203D20302E20577269746520FE
:1007300064656661756C742076616C756573207490
:100740006F20454550524F4D2E0A007267626C690A
:100750006768745F696E6974206565636F6E66694A
:1007600067206973206E6F7420656E61626C6564CA
:100770002E0A007267626C696768745F696E6974DB
:10078000207374617274210A007267626C69676811
:10079000745F696E69742063616C6C65642E0A0015
:1007A0005B735D000A002530313662003A20002577
:1007B000303258000A722F632030313233343536EC
:1007C0003738394142434445460A001E0F050004AC
:1007D0007F3F1F643214643214783C1E1E140A05D5
:1007E0000A0025303258006C65645F7461736B3A9F
:1007F0002000290A002575002F002575005D2800BE
:1008000025640020002564002000256400200025C8
:1008100064007C0025303258006D6F7573656B6520
:1008200079205B62746E7C782079207620685D2860
:100830007265702F61636C293A205B000001010131
:10084000010101010101020202020202020202038D
:10085000030303030303030404040404040405055D
:100860000505050606060606070707070708080820
:1008700008090909090A0A0A0B0B0B0C0C0C0D0DCF
:100880000D0E0E0E0F0F0F10101111111212131367
:100890001414151516161717181819191A1A1B1BE0
:1008A0001C1D1D1E1E1F202021222223242425263C
:1008B00026272829292A2B2C2D2D2E2F3031323274
:1008C000333435363738393A3B3C3D3E3F40414280
:1008D000434445464748494A4C4D4E4F5051535466
:1008E000555658595A5B5D5E5F616264656668691A
:1008F0006B6C6D6F7072737577787A7B7D7E80829A
:10090000838587888A8C8E8F91939596989A9C9EE2
:10091000A0A2A3A5A7A9ABADAFB1B3B5B7BABCBEF2
:10092000C0C2C4C6C9CBCDCFD1D4D6D8DBDDDFE2BF
:10093000E4E7E9EBEEF0F3F5F8FAFDFF7267626CBD
:10094000696768742074696D657220656E61626C98
:1009500065642E0A007267626C69676874206D6F47
:100960006465205B4E4F454550524F4D5D3A202502
:10097000750A007267626C69676874206D6F6465E0
:10098000205B454550524F4D5D3A2025750A007257
:1009900067626C6967687420736574206873762079
:1009A0005B4E4F454550524F4D5D3A2025752C25E5
:1009B000752C25750A007267626C6967687420730C
:1009C000657420687376205B454550524F4D5D3A03
:1009D0002025752C25752C25750A007267626C69B7
:1009E000676874207261696E626F77207365742026
:1009F0006873763A2025642C25642C25642C257593
:100A00000A00FFAA7F55407267626C6967687420AC
:100A100074696D65722064697361626C652E0A0089
:100A20002223252628292A2C2D2F303233353638FB
:100A30003A3B3D3E4042434547494A4C4E50515354
:100A40005557595A5C5E6062646668696B6D6F7178
:100A5000737577797B7D7F81838587898A8C8E907A
:100A6000929496989A9C9E9FA1A3A5A7A8AAACAE83
:100A7000AFB1B3B4B6B8B9BBBCBEBFC1C2C3C5C6C3
:100A8000C7C9CACBCCCDCED0D1D2D2D3D4D5D6D76C
:100A9000D7D8D9D9DADADBDBDBDCDCDCDCDCDDDDAA
:100AA000DDDDDCDCDCDCDCDBDBDBDADAD9D9D8D79A
:100AB000D7D6D5D4D3D2D2D1D0CECDCCCBCAC9C73C
:100AC000C6C5C3C2C1BFBEBCBBB9B8B6B4B3B1AF73
:100AD000AEACAAA8A7A5A3A19F9E9C9A9896949213
:100AE000908E8C8A89878583817F7D7B79777573EA
:100AF000716F6D6B6968666462605E5C5A595755C8
:100B00005351504E4C4A4947454342403E3D3B3A83
:100B10003836353332302F2D2C2A2928262523220A
:100B200000000000000000000000000101020304BA
:100B30000506080A0C0F1114181C2024292E33391D
:100B40003F464C535B626A7179818A929AA2AAB23B
:100B5000B9C1C8CFD5DCE1E7EBF0F4F7FAFCFDFE54
:100B6000FFFEFDFCFAF7F4F0EBE7E1DCD5CFC8C1FE
:100B7000B9B2AAA29A928A8179716A625B534C4691
:100B80003F39332E2924201C1814110F0C0A080693
:100B90000504030201010000000000000000000045
:100BA0005B435D005B445D005B535D005B575D0034
:100BB0005B525D0009025B00030100A0FA0904001A
:100BC0000001030101000921110100012240000779
:100BD0000581030800010904010001030000000968
:100BE0002111010001227B00070582032000010979
:100BF0000402000203000000092111010001222269
:100C000000070583032000010705030320000112EC
:100C10000100020000000864697500010001020083
:100C2000010A03490044003700350000000E034963
:100C30000044004F00420041004F0000000403093F
:100C4000040011241FBECFEFDAE0DEBFCDBF04B633
:100C500003FE18C080910C0390910D03A0910E0328
:100C6000B0910F038730904BA740B04B59F41092CE
:100C70000C0310920D0310920E0310920F03E0E08C
:100C8000F8E3099523E0A0EAB1E001C01D92AC3081
:100C9000B207E1F711E0A0E0B1E0E0E7F9E502C05A
:100CA00005900D92A03AB107D9F70E94E7250C9460
:100CB0005B2C0C940000FF93EF93E091A001F09166
:100CC000A101309709F00995EF91FF910895FC017A
:100CD0008591803011F0EFDFFBCF0895FF27E0E230
:100CE00030E247FF0CC0419597FF09C0EDE26095E7
:100CF000709580959095611D711D811D911D27FF37
:100D000002C0219530E350E2AA27660F771F881FA3
:100D1000991FAA1FA41710F0A41B63955A95A9F751
:100D2000AA3008F0A95FA05DAF93F3956115710536
:100D30008105910541F7ED3211F4EF93F395F21728
:100D400018F43F93F395FBCF8F91B5DFFA95E1F758
:100D50000895E991F9918591803021F0853219F05B
:100D6000AADFF9CF089520E0E89455915532C1F3F8
:100D7000503311F4689455915A3348F4505390F31A
:100D8000220F022E220F220F200D250FF4CF0EF47A
:100D9000219589919991533619F3533729F1533598
:100DA00059F1BC0188279927E8945C3621F4899190
:100DB000999168945591543639F446EF7EF077FF57
:100DC0000DC08FEF9FEF0AC055374AE039F0583514
:100DD00040E121F0523642E009F00895FF93EF938D
:100DE0007DDFEF91FF91B7CFFF93EF93FC018191EE
:100DF0008030B9F360DFFBCFFF93EF9368DFF1CF73
:100E0000DF93CF93CDB7DEB72596A3DFCF91DF91E8
:100E10000895E8EDF0E080818E7F80831092E200FB
:100E20001092DA001092E100A0EEB0E08C918160A7
:100E30008C9380818F77808319BCA7EDB0E08C9173
:100E40008E7F8C9380818F7E80831092F202089532
:100E50002091E4003091E50095E6A9012091EC0095
:100E6000822F817020FF06C08091E80080FF06C0BD
:100E700080E008952091E80022FD1AC08091FF02D1
:100E8000882389F0853089F08091EB0085FD0FC0C3
:100E90002091E4003091E50042175307F9F2915098
:100EA000E1F684E0089582E0089583E0089581E00A
:100EB00008958091010387FF13C08091E80082FFAD
:100EC00006C08091E8008B778093E80004C0809191
:100ED000FF028111F2CF08958091FF028823D9F398
:100EE0008091E80080FFF8CF8091E8008E77ECCF0A
:100EF000982F9093E900242F762F50E0891731F036
:100F00007091EC002091ED005091F00021FD07C0A0
:100F10009F5F973071F78093E90081E008953091E9
:100F2000EB003E7F3093EB003091ED003D7F30933E
:100F3000ED003091EB0031603093EB007093EC00EA
:100F40002093ED005093F0002091EE0027FDE0CFBC
:100F500080E00895B0E0A0E0E0EBF7E00C940D2B0A
:100F6000C8EDD0E088818F7E8883E7EDF0E0808156
:100F70008160808384E082BF81E08093F202888177
:100F80008E7F888302EE10E0F80110821092DA0062
:100F900081EEC82ED12CF601108288818F7788834C
:100FA00088818068888388818F7D888319BC1092AE
:100FB000FF02109200031092FE021092FD0290EECA
:100FC000E92EF12CF70180818B7F808388818160FD
:100FD000888342E060E080E00E947807F60180812B
:100FE0008E7F8083F801808181608083808188602A
:100FF0008083F70180818E7F8083888180618883F0
:10100000CDB7DEB7E8E00C94292BFC0180910703F3
:101010009091080386179707A0F06115710529F4D0
:101020009091E8009E779093E80090E0611571053B
:1010300051F4911108C08091E80082FF34C080E033
:101040000895BC01F2CF8091FF028823C1F1853061
:10105000C1F18091E80083FD30C08091E80082FDFD
:10106000EACF8091E80080FFE1CF8091F3002091EA
:10107000F200382F6115710519F02830310558F04C
:1010800091E02830310509F090E02091E8002E77BA
:101090002093E800CBCF81918093F10061507109DA
:1010A0002F5F3F4FE7CF8091FF02882341F08530CB
:1010B00041F08091E80083FFBECF81E0089582E097
:1010C000089583E008958091F40208959C014FB73C
:1010D000F8948091EB029091EC02A091ED02B09116
:1010E000EE024FBF821B930B08952FB7F8948091A7
:1010F000EB029091EC02A091ED02B091EE022FBFB5
:101100000895A3E0B0E0E7E8F8E00C94132B2091F9
:10111000E8023091E90228173907A1F09093E9021B
:101120008093E802E091E602F091E702309751F0F7
:1011300024E029839B838A830680F781E02DCE01FA
:10114000019609952396E2E00C942F2BA3E0B0E0E2
:10115000ECEAF8E00C94132B2091E4023091E502C4
:1011600028173907A1F09093E5028093E402E091FB
:10117000E602F091E702309751F023E029839B8348
:101180008A830680F781E02DCE010196099523968A
:10119000E2E00C942F2BE091E602F091E702309709
:1011A00029F00190F081E02D0995089580E00895DF
:1011B000B0E0A0E0EEEDF8E00C94092B8C018091FA
:1011C0008600909187006CE070E00E94C62A60174C
:1011D000710758F0C80169E070E00E94C62ACB018F
:1011E000CDB7DEB7ECE00C94252B80918600909172
:1011F0008700E0908600F0908700C0908600D09035
:101200008700C6E0D0E0BE010E94C62A30E020E0A0
:10121000060F171F211D311D4801590185E0880C5B
:10122000991CAA1CBB1C8A95D1F7C701BE010E945C
:10123000C62AF12CE12CA7019601260F371F411D6C
:10124000511DC501B4010E942A2C69017A01E09167
:101250008600F0918700CA01B9010E94AA2A9B0169
:10126000AC01DF010E94172C9B01AC01C701B60144
:101270000E94AA2A2FE096958795779567952A95DB
:10128000D1F7009186001091870030E020E006172A
:1012900017072807390708F0A2CF609186007091E0
:1012A00087009DCF8430F0F481111DC090918000A3
:1012B000977F909380002F98A0918600B09187002F
:1012C000282F30E00E944C2C23E030E040E050E03A
:1012D0000E942A2CC9010E94D80890938D00809307
:1012E0008C00089583E09091800098609093800036
:1012F000E3CFFA01811101C0FB010995089508951A
:101300008091DB02982F9E7F29F481708260809308
:10131000DB0208958635E8F381708465F8CFAF92DB
:10132000BF92DF92EF92FF920F931F93CF93DF93C1
:10133000082F162FE901E42FF0E0E45CF74F61116C
:1013400010C0E4915E2F4E2F4983E8835A83DF91CA
:10135000CF911F910F91FF90EF90DF90BF90AF90D2
:101360000895E62EF12C4491D42EE42FF0E026E0EF
:10137000829FC00111242FEF30E0B9010E94C62ADC
:10138000802F90E0880F991F55E5569FD001579FF9
:10139000B00D11248A1B9B0B982F990F890F5901AF
:1013A000AE18BF08AE9ED001AF9EB00DBE9EB00D70
:1013B00011245B2F189F80011124012F112759013F
:1013C000A01AB10AAE9E8001AF9E100DBE9E100DF8
:1013D00011245901A81AB108AE9CC001AF9C900D10
:1013E000BE9C900D1124892F9927281B390B2E9F05
:1013F000C0012F9F900D3E9F900D1124E92F623068
:101400007105A1F050F46115710509F49DCF6130AB
:10141000710581F0EB2F512F97CF6430710569F082
:1014200080F06630710509F48FCFF4CFE42F4B2F95
:10143000592F8ACFE42F412F87CFEB2F542F492FDD
:1014400083CF4B2F5D2DE12F7FCF8091430280FD15
:1014500016C081FD16C082FD16C08091420288230D
:10146000A1F0883280F428E0829FC001112468E254
:1014700070E00E94DA2A862F672B39F0089582E007
:10148000089584E0089588E0089581E008958091AA
:10149000430280FD14C081FD14C082FD16C08091FE
:1014A0004402882381F08E3180F420E5829FC001C0
:1014B00011246EE170E00E94DA2A862F089584E1FB
:1014C000089588E2089588E0089580E50895F894E5
:1014D000E82FE295EF70F0E031A1282F2F7081E026
:1014E00090E001C0880F2A95EAF7982F90959323F2
:1014F00091A392A1892B82A37894089590912802B8
:1015000092FF06C0282F28712830F9F4877F846065
:1015100093FF06C0282F28712831F1F4877E84615B
:101520002091290220FF06C0382F38713830D9F4B5
:10153000877F816021FF06C0282F28712831D1F4D0
:10154000877E816194FD877E0895282F2471243041
:10155000F9F68B7F8860DCCF282F2471243101F7C6
:101560008B7E8861DDCF382F3171313019F78E7F56
:101570008860E0CF282F2171213121F78E7E88618C
:10158000E1CF972F7530B8F46F30A8F4853098F418
:1015900070E02FE0929F600D711D1124FB019BE410
:1015A000899FE00DF11D1124EE0FFF1FE75AFC4F3C
:1015B00085919491089580E090E00895CF93DF9312
:1015C000EC0182389105B9F108F041C081339105F1
:1015D00009F49FC050F58932910509F48FC08A97AC
:1015E00009F49EC0C11520E5D20708F0BDC0C115A1
:1015F00030E4D30708F00AC1C03ED10508F0A5C009
:10160000CD3CD10508F000C1C83AD10508F08FC023
:10161000C53AD10508F0F0C0C130D10539F12097A5
:1016200029F1C430D10510F546C08533910509F480
:1016300060C0C997B9F680912802837009F044C14F
:101640008091290283FF12C0C9E2D0E00FC0833E1F
:101650009105A1F178F4803E910509F1823E910552
:1016600009F0C0CF8091280282FD21C0CE01DF9118
:10167000CF910895863E910561F1873E910571F104
:10168000843E910509F0AECF8091290281FFEECF13
:1016900080912802C7EED0E084FD0DC0E7CF809195
:1016A000280280FD33C09091290290FFDFCFC3EE66
:1016B000D0E084FFDBCFD0E0C0E0D8CF809128021B
:1016C00082FDFFC09091290290FDFEC084FFCECF25
:1016D000F2CF8091280283FDDDCFC8CF8091280210
:1016E00083FDF5C09091290291FFF0CFC4EED0E0C8
:1016F000BDCF8091280285FFB9CFA6CF8091280267
:1017000085FDE8C08091290283FFB0CFC9E3D0E016
:10171000ADCF8091280286FFA9CFCAE2D0E0A6CF44
:101720008091280286FFA2CFC1E3D0E09FCFC13CC9
:10173000D10508F6C85AD0E0CC0FDD1FC15EDE4FE0
:101740000990D881C02DD46491CFC11540E2D4074F
:1017500008F0AAC0C11581E0D80708F087CFC83EBD
:10176000D10508F483CFA7CFC03622E5D20718F5FC
:10177000C03432E5D30708F053C0C03242E5D40785
:1017800008F047C0C11582E5D80708F47FC02C2FA8
:101790002695269540E2249F900111248C2F83707A
:1017A000C1E0D0E002C0CC0FDD1F8A95E2F7C22B6A
:1017B000D32BDD685BCFC03A22E5D20760F4C03896
:1017C00032E5D30708F441C0CF71D0E0DC2FCC273D
:1017D000C46FD06A4BCFC03C42E5D40708F44AC07E
:1017E000C03E82E5D80708F066CFDC2FCC27CC2797
:1017F000DF71C06FD06A3ACFC55AD0E0C45EDE4F09
:10180000C881D0E0D06432CFD06530CFDF70D06AED
:101810002DCFCF71D0E0DC2FCC27C16FD06A26CF7F
:101820002C2F26952695277080E2289F9001112461
:101830008C2F8370C1E0D0E002C0CC0FDD1F8A95F1
:10184000E2F7C22BD32BDC6811CF2C2F26952695DF
:10185000277040E2249F900111248C2F8370C1E0F7
:10186000D0E002C0CC0FDD1F8A95E2F7C22BD32B4C
:10187000DA68FCCE8C2F8F710E947E0AC82FD0E0D0
:10188000DC2FCC27CC27DF71D062F0CE8C2F8F716C
:101890000E947E0A35E0D695C7953A95E1F7CF705C
:1018A0009C2FEC01D069E2CE8D2F8F710E947E0AB1
:1018B00090E0982F882788279F719C012C2BE901A5
:1018C000E3CFC2EED0E0D2CEC0EED0E0CFCEC6EEB7
:1018D000D0E0CCCEC5E3D0E0C9CE80911602811114
:1018E0001092160208958095909115029823909376
:1018F00015020895E4EAF1E09191891303C0DF0134
:1019000011971C9291E0EA3AF907B1F70895A4EA19
:10191000B1E0EFEF90E02D91821751F0EF3F19F415
:10192000211101C0E92F9F5F9630A9F7EF3F09F41D
:1019300008950E2E000CFF0BEE55FE4F8283089586
:1019400080910A029091D901981301C008958F5F88
:101950008770FACFB0E0A0E0E0EBFCE00C940C2B39
:101960007C0100912602109127028091170290912C
:101970001802082B192BCFE0D0E0CC24C394D12C33
:10198000BC2EC6010C2E02C0880F991F0A94E2F7E4
:1019900080239123892B49F4219790F7B12C8B2D2B
:1019A000CDB7DEB7E9E00C94282BB7018C2F0E944D
:1019B000C10A0E94DE0A019779F3F1CFCF93DF933A
:1019C000EC010E94AA0CBE010E94C10A0E94DE0A1C
:1019D000DF91CF910895953078F58F3068F5E82F35
:1019E000F0E08FE0989FE00DF11D11249E2F97707D
:1019F00083E0F695E7958A95E1F7EE0FFF1FEE0F6E
:101A0000FF1FE555FE4F50E040E080E0219130E0BF
:101A1000092E02C0369527950A94E2F721703327E4
:101A2000042E01C0220F0A94EAF7822B4F5F5F4F0A
:101A30004430510559F7089580E00895953098F5A0
:101A40008F3088F5E82FF0E08FE0989FE00DF11DD2
:101A500011248E2F877041E001C0440F8A95EAF768
:101A600083E0F695E7958A95E1F7EE0FFF1FEE0FFD
:101A7000FF1FE555FE4F30E020E070E05191DF019F
:101A80001197CB01022E02C0969587950A94E2F732
:101A9000817081958527842385278C932F5F3F4F05
:101AA0002430310559F70895909327028093260238
:101AB000089521E030E002C0220F331F8A95E2F73B
:101AC00020953095809126029091270282239323BE
:101AD0000E94540D089590910B0280958923809364
:101AE0000B02282F277091F4282F082E000C330B9F
:101AF0009217130659F09091290292FF07C085951D
:101B0000859585950E94590D10920B02089521E04C
:101B100030E002C0220F331F8A95E2F7809126023F
:101B200090912702822B932B0E94540D089590933D
:101B30001802809317020895FC0183819481892BF8
:101B400029F08081918189238F3F51F480E00895AD
:101B5000843FE1F717C0883EA8F0813FB9F712C073
:101B6000808191810E94DE0C92959F70963099F34E
:101B700058F4925F9F70923048F7803F19F040F719
:101B8000883E20F781E008959A5FF4CF829590E037
:101B90009C01220F331F220F331F2C7C95958795B4
:101BA000959587958373282B30E0C901880F991F7D
:101BB0008A7A359527952575822B08959FB7F894D5
:101BC0001092F0029FBF9091FF02943009F048C03C
:101BD0002091E9002F703091EC00932F917030FD2F
:101BE00090E8922B23E02093E9002091EB0020FF66
:101BF00034C02091EE0027FF30C02091EF02222355
:101C000021F02091E80025FF28C01092EF0226E085
:101C10003091E80035FF14C08093F1008091E80016
:101C200085FD27C08091E80080FFFCCF8091E8000F
:101C30008E778093E8009F709093E90080E008958C
:101C40003091FF02343049F43091EB0035FD05C08E
:101C5000215041F481E08093EF029F709093E9005E
:101C60008FEF0895EFE9FFE03197F1F700C0000032
:101C7000CFCF8FB7F89421E02093F0028FBFDBCF56
:101C80000F931F93CF93DF938B01EA019091FF0293
:101C9000943061F58093E9008FEF9091E8008150D6
:101CA00095FD06C095ED9A95F1F700008111F5CFED
:101CB0008091E80085FF1AC00E942807811111C099
:101CC0008091E80085FD06C08091E8008E778093C2
:101CD000E800F2CFF80181918F018093F100219704
:101CE00079F78091E8008E778093E800DF91CF91BB
:101CF0001F910F91089543E050E0BC0182E00E94E3
:101D0000400E089546E050E0BC0182E00E94400E83
:101D10000895CF93DF93EC0148E050E0BC0181E0EF
:101D20000E94400E88E0FE01A5EFB2E001900D9206
:101D30008A95E1F7DF91CF91089581E08093E000EB
:101D400080E28093D8001092C9008FE19EE4019751
:101D5000F1F700C0000087E090EBDC0180930C03FA
:101D600090930D03A0930E03B0930F0388E19CE0C2
:101D70000FB6F894A895809360000FBE9093600012
:101D8000FFCF8091DB0280FD0AC0EBE5F2E011821B
:101D900010821282339652E0EB38F507C1F7809A31
:101DA00031B33E7F21B321604FB7F8948BE592E0C9
:101DB000FC015191CF0168E021BB000000C057FF3A
:101DC00031BB550F000000C000C000C031BB00C0D7
:101DD0006A9591F7F2E08B389F0751F74FBF8FE577
:101DE00094E00197F1F700C000000895EF92FF9290
:101DF0000F931F93CF93DF938C01CBE5D2E0F12CAF
:101E0000E12CF80194816091DD028091DC02F8E020
:101E1000EF16F104ECF49923E9F09E014091DE0203
:101E20000E948F092FEFE21AF20A239680E1E8164A
:101E3000F10439F70E94C10EF801848190E0019607
:101E4000817099278483CDB7DEB7E6E00C942B2B05
:101E5000992319F39E0140E0E3CFB0E0A0E0E3E373
:101E6000FFE00C94092BEC014C81042F10E0980149
:101E7000D8010E944C2C9B01AC010E94172C4B01F5
:101E80005C01E0E2F0E0E01BF10BA5E5B0E0AC01A5
:101E90009B010E94172C6B017C019F01DF010E94B6
:101EA000F42A9B01AC010E94222C9B01AC01280D5D
:101EB000391D4A1D5B1DC701B6010E942A2CF22E56
:101EC000822F90E039E23F1598F143E0249F900182
:101ED000112435952795122F10959BE5C92E92E078
:101EE000D92E00E085E5E82EEF188E2D01FD8F2D0F
:101EF0009601412F6091DD020E948F090F5F53E030
:101F0000C50ED11C003189F70E94C10E9C8181E071
:101F1000992319F0903219F48FEF80931901809171
:101F20001901890F8C83CDB7DEB7ECE00C94252B1B
:101F300025E530E0A901481B590BCA019A01220F7F
:101F4000331F280F391F37FFC4CF2F5F3F4FC1CF3B
:101F50000F931F93CF93DF93CBE5D2E0FE01118265
:101F600010821282339682E0EB38F807C1F710E056
:101F700000E080915902082E000C990B08171907F0
:101F80008CF180911801082E000C990B8017910795
:101F90004CF19E014091DE026091DD028091DC02F5
:101FA0000E948F090F5F1F4F23960031110509F71B
:101FB0000E94C10E8091170190915902980F909341
:101FC000590220911801280F20931801121614F4B9
:101FD0009F301CF0819580931701DF91CF911F9165
:101FE0000F910895198218821A82DCCFB0E0A0E028
:101FF000ECEFFFE00C940D2BFC018281DD24DA94E0
:1020000080FD02C0DD24D394CBE5D2E010E000E0F7
:10201000198218821A8294E0E92EF12CC12C809149
:1020200058028C0D8131ACF18F70082E000C990B89
:102030008017910791F48091DE028E9DA0018F9D03
:10204000500D112455954795559547959E016091E2
:10205000DD028091DC020E948F09CD0CF1E0EF1AC5
:10206000F108E9F60F5F1F4F23960031110581F645
:102070000E94C10E8091580291E0D91210C08111C6
:102080000CC08FE080935802CDB7DEB7E8E00C9427
:10209000292B87FFCACF805FC8CF8150F3CF90E054
:1020A00001968F709927EECFEF92FF921F93CF93F7
:1020B000DF93EC018BE5E82E82E0F82E10E08C81B6
:1020C00097014091DE026091DD02810F0E948F092D
:1020D000115F83E0E80EF11C103F89F70E94C10EEA
:1020E0009A818C8190FF08C08F5F8C83DF91CF91A4
:1020F0001F91FF90EF9008958150F7CF9091DB02F0
:1021000090FF0CC0EBE5F2E081836083428333965D
:1021100092E0EB38F907C1F70E94C10E0895A3E0E1
:10212000B0E0E5E9F0E10C94112B8C0180915A02AA
:1021300081110AC09E012F5F3F4F4FEF6FEF0E944A
:102140008F098A8180935A02F8016481613069F0B5
:1021500080915A0240E0662361F040E0623011F461
:1021600040915A0280E060E004C060915A0240E071
:1021700080E00E947E10F801848190E0019663E087
:1021800070E00E94DA2A84832396E4E00C942D2BDD
:10219000A3E0B0E0EEECF0E10C94132B9091DB02A5
:1021A00090FF0AC09E012F5F3F4F0E948F094B8115
:1021B00069818A810E947E102396E2E00C942F2B85
:1021C000CF93DF93EC01EBEDF2E0438162818C81F0
:1021D0000E94C8108C818F5F8C83DF91CF9108950E
:1021E000CF93DF93EC01EC81F0E0E05EF54F44919A
:1021F000EBEDF2E0628181810E94C8108C818F5FDB
:102200008C83DF91CF910895682F86E090E00E9443
:10221000C42B0895B0E0A0E0E0E1F1E10C94052BBF
:10222000FC016280448081E08483E0E2FAE0749003
:10223000EFE9FAE0E4910091DE020695015810E022
:10224000000F111F012F1127CBE8D2E02BE5C22E82
:1022500022E0D22E3BED832E32E0932EAA24AA94C4
:10226000B12C55245A94E719EE2EF12C82E08615F4
:1022700030F08091DC0288838091DD0289834110F7
:1022800016C01B821A8296014A81698188810E9448
:102290008F09259683E0C80ED11C8C169D0631F758
:1022A0000E94C10ECDB7DEB7E0E10C94212B8B81EB
:1022B0008823E9F081508B83859DC00111246C81B6
:1022C00070E00E94C62AFB01FF27E05EF54F849173
:1022D000E82FE719E59DC0011124B7010E94C62A25
:1022E0008091DE02689FB00111247A83CCCF0E94D6
:1022F000862BB5010E94DA2A8017910724F682E026
:10230000861588F40E94862BB5010E94DA2A8883FC
:102310000E94862B2091DD022695622F70E00E949C
:10232000DA2A280F29831A828091DE02893C20F064
:1023300088EC8C838B83A7CF8431D8F784E1F9CFE5
:10234000109257028091550280FF08C087E09AE002
:102350009F938F930E9400070F900F900895809194
:10236000550283FF7EC089E198E00E946706809154
:102370004A021F928F9384E198E09F938F930E946B
:10238000000782E198E00E94670680914B02282FA7
:10239000082E000C330B3F938F938FE098E09F93B0
:1023A0008F930E9400078DE098E00E94670680915D
:1023B0004C02282F082E000C330B3F938F938AE09A
:1023C00098E09F938F930E94000788E098E00E9416
:1023D000670680914D02282F082E000C330B3F9387
:1023E0008F9385E098E09F938F930E94000783E08E
:1023F00098E00E94670680914E02282F082E000C5C
:10240000330B3F938F9380E098E09F938F930E94CC
:1024100000078DEF97E00E946706809144021F92AB
:102420008F938AEF97E09F938F930E94000788EF26
:1024300097E00E946706809143021F928F9385EF79
:1024400097E09F938F930E94000782EF97E00E948E
:1024500067068DB79EB74C960FB6F8949EBF0FBE19
:102460008DBF0E9475089C0190914B0280914C0297
:10247000982B21F0309348022093470290914D020F
:1024800080914E02982B21F0309346022093450212
:10249000E091E602F091E702309749F082E0809304
:1024A00049020480F581E02D89E492E009950895C0
:1024B000662309F45DC08D3C41F40E94470A819572
:1024C00080934C020E94AF1108958E3C19F40E9433
:1024D000470AF6CF8F3C31F40E94470A81958093DA
:1024E0004B02F0CF803D19F40E94470AF8CF893D96
:1024F00029F40E94250A80934D02E4CF8A3D21F4FD
:102500000E94250A8195F7CF8B3D31F40E94250A60
:10251000819580934E02D6CF8C3D19F40E94250AF6
:10252000F8CF9FE2980F983070F4815D990B21E00D
:1025300030E001C0220F8A95EAF780914A02822B8F
:1025400080934A02BFCF8D3D31F480914302816078
:1025500080934302B7CF8E3D21F480914302826085
:10256000F7CF8F3D09F0AECF809143028460F0CF6A
:1025700040914B028D3C59F480914C0287FF0DC075
:1025800010924C0241110BC01092440208C08E3CC4
:1025900081F480914C0218169CF3442381F08091C1
:1025A0004D0290914E02892B09F08CCF109242027D
:1025B00089CF8F3C49F447FFF0CF10924B028091B6
:1025C0004C028111ECCFE0CF803D19F41416ACF32E
:1025D000E4CF90914D02893D29F41916F4F610923A
:1025E0004D02DBCF8A3D19F497FFD7CFF8CF9091FA
:1025F0004E028B3D29F497FFD0CF10924E02CDCFE3
:102600008C3D19F41916CCF3C8CF9FE2980F98307F
:1026100090F4815D990B21E030E0B90102C0660FB2
:10262000771F8A95E2F7CB01809590914A02892322
:1026300080934A02B2CF8D3D31F4809143028E7F68
:1026400080934302AACF8E3D21F4809143028D7F77
:10265000F7CF8F3D09F0A1CF809143028B7FF0CF60
:10266000CF92DF92EF92FF926B017C010E94800972
:10267000B701A60188E090E00E94D62BFF90EF9072
:10268000DF90CF900895A5E0B0E0E9E4F3E10C9489
:10269000032B082F362E442E222E9091DB0290FF22
:1026A00045C0E92FE695AE2FB0E0AB59BE4F8C91F7
:1026B000809356029E7F9230E9F59E012F5F3F4F37
:1026C000802F0E948F094B8169818A810E947E1030
:1026D0000093DC023092DD024092DE02222009F4F7
:1026E0008BC06091DB027091DC028091DD029091E1
:1026F000DE020E9430138091550280FF17C0809146
:10270000DE021F928F938091DD021F928F93809142
:10271000DC021F928F9386EB99E09F938F930E9428
:1027200000070FB6F894DEBF0FBECDBF2596E2E1DD
:102730000C941F2B823019F44090DE02C9CF8630F2
:1027400019F40091DC02C4CF8930D9F3893109F042
:10275000BFCFE9512E2F21702C838E2F8095817051
:102760008D83E695F0E0EE5FF54F1491612E712CAC
:102770003BE5C32E32E0D32EB12CA12CF12CE12C61
:102780004BED842E49E0942EC50124E09695879563
:102790002A95E1F72C81502E21112CC0580E8091E2
:1027A000550280FF12C01F921F931F928D818F933D
:1027B0001F925F92FF92EF929F928F920E9400076A
:1027C0000FB6F894DEBF0FBECDBF9601442D632D2A
:1027D000852D0E948F099FEFE91AF90AA60CB71CF4
:1027E00023E0C20ED11C80E1E816F10469F60E94D4
:1027F000C10E6ECF581AD3CF8091550280FF96CF6D
:102800001F924F921F923F921F920F938FE899E071
:1028100084CFEBEDF2E0438128E0421B08F440E076
:1028200021E0628181810E9443130895EBEDF2E083
:10283000438128E0420F08F44FEF21E0628181815B
:102840000E9443130895EBEDF2E0628128E0621BE1
:1028500008F460E021E0438181810E9443130895E0
:10286000EBEDF2E0628128E0620F08F46FEF21E007
:10287000438181810E9443130895EBEDF2E0818151
:1028800021E04381628188500E9443130895EBED5B
:10289000F2E0818121E043816281885F0E944313DD
:1028A00008958091DF02882319F081508093DF0220
:1028B0006091DB027091DC028091DD029091DE027A
:1028C0000E94301308958091DF02833018F48F5FE7
:1028D0008093DF026091DB027091DC028091DD0267
:1028E0009091DE020E94301308959091DB0290FFD8
:1028F00040C0917081113EC092609093DB026623CC
:1029000009F43FC06091DB027091DC028091DD022E
:102910009091DE020E9430138091550280FF0FC01B
:102920008091DB0286951F928F9383E799E09F93B6
:102930008F930E9400070F900F900F900F9060915F
:10294000DB02669570E04BE050E08CE091E00E9485
:10295000962B892B11F10E94A01181E080935202E5
:1029600020E04091DE026091DD028091DC020E9455
:10297000431308958B3210F09465BFCF880F982BC6
:10298000BCCF8091550280FFDACF8091DB02869523
:102990001F928F9385E599E0CACF81E0809357021B
:1029A0000E9475089093500280934F0280915502C7
:1029B00080FFD3CF8CE399E09F938F930E94000711
:1029C0000F900F90CACF8091DB028695815009F459
:1029D0008AE261E00E94751408958091DB02869579
:1029E0008F5F8B3208F081E061E00E9475140895DA
:1029F0009091DB0290FF08C09695981728F09617E3
:102A000018F40E94ED14089561E00E947514089571
:102A1000EBEDF2E083E0808311828FEF828383838A
:102A2000148260817181828193810E9430130895A4
:102A30000F931F93CF93DF9380911502909114020F
:102A4000892B8093A20190911602992391F0892BF2
:102A50008093A20120E084EA91E0FC013191CF0152
:102A600031112F5FF1E08A3A9F07B9F721110E94D7
:102A70006D0C48E050E06CE072E082EA91E00E9468
:102A8000A32B892B09F441C088E0E2EAF1E0ACE035
:102A9000B2E001900D928A95E1F7E091E602F091A3
:102AA000E702309791F10280F381E02D82EA91E014
:102AB00009958091550282FF28C080FF04C087E4F9
:102AC00093E00E946706D0E0C0E001E413E080914B
:102AD000550280FF0EC0FE01EE55FE4F80811F9211
:102AE0008F931F930F930E9400070F900F900F90EA
:102AF0000F902196C830D10551F78091550280FF83
:102B000004C08FE393E00E946706DF91CF911F918D
:102B10000F910895882321F00E94730C0E941815CC
:102B20000895882339F090911502982B90931502FF
:102B30000E9418150895882309F456C0823879F444
:102B40000E94CB0881FF50C089E30E94870C0E943D
:102B5000181589E30E947A0C0E941815089583388D
:102B600059F40E94CB0880FF3FC083E50E94870C88
:102B70000E94181583E5EECF843859F40E94CB08E3
:102B800082FF32C087E40E94870C0E94181587E4F8
:102B9000E1CF9CEF980F913AE8F290E2980F9830CD
:102BA00050F4877091E001C0990F8A95EAF7892F58
:102BB0000E94730CD1CF9BE5980F933028F490E0DE
:102BC00080E00E94A608089598E5980F993128F4AE
:102BD00090E080E00E948108089593E3980F93317C
:102BE00018F460E00E9458120895CF93C82F8823EC
:102BF000C9F08238C9F40E94CB0881FD13C089E373
:102C00000E94870C0E9418152FEF87EE93E0215049
:102C100080409040E1F700C0000089E30E947A0CF8
:102C20000E941815CF9108958338A1F40E94CB0813
:102C300080FDF8CF83E50E94870C0E9418152FEFC6
:102C400081EE94E0215080409040E1F700C0000008
:102C500083E5E4CF8438A1F40E94CB0882FDE2CF63
:102C600087E40E94870C0E9418152FEF81EE94E0F4
:102C7000215080409040E1F700C0000087E4CECFB3
:102C80008CEF8C0F813A68F4E4EAF1E08191C81787
:102C9000E9F121E0EA3AF207C9F78C2F0E94870C8C
:102CA000BFCF80E28C0F883068F4C77021E030E03D
:102CB00001C0220FCA95EAF780911502822B8093FA
:102CC0001502AECFEBE5EC0FE33040F4F0E0E45E4C
:102CD000FE4F808190E00E94A608A4CFE8E5EC0FAB
:102CE000E93150F4F0E0EE0FFF1FE15EFE4F80810E
:102CF00091810E94810896CF83E38C0F833108F085
:102D000091CF61E08C2F0E9458128CCF8C2F0E94A3
:102D10007A0C0E941815C1CF0F931F93CF93DF93A6
:102D2000C62FD42F022FFC0182818823A9F0609343
:102D30000B030E94750890930A0380930903C770E0
:102D400081E001C0880FCA95EAF70E949115DF91D2
:102D5000CF911F910F91089580910B03681335C097
:102D60008091090390910A030E946608883C9105AE
:102D700060F510E21D0FCD17B9F080E28C0F88309E
:102D800040F4C77081E001C0880FCA95EAF70E943D
:102D90008A15183048F481E09D2F977001C0880F84
:102DA0009A95EAF70E949115802F0E94F515802FC1
:102DB0000E949B15183058F6D77081E001C0880F2B
:102DC000DA95EAF70E948A15C2CFC77081E001C088
:102DD000880FCA95EAF7F6CF67EE7EEF90E080E0C5
:102DE0000E94E22B60E082E090E00E94C42B60E051
:102DF00083E090E00E94C42B1092180210921702F8
:102E000060E074E184E090E00E94E22B60E086E004
:102E100090E00E94C42B6FEF87E090E00E94C42BEB
:102E200040E050E0BA0188E090E00E94D62B60E0DC
:102E30008DE090E00E94C42B40E050E0BA0188E1B0
:102E400090E00E94D62B60E087E190E00E94C42BC6
:102E500040E050E0BA018CE190E00E94D62B70E097
:102E600060E080E290E00E94E22B40E050E0BA0196
:102E700088E190E00E94D62B40E050E0BA018FE05C
:102E800090E00E94D62B40E050E0BA0183E190E050
:102E90000E94D62B089590E080E00E94BE2B873ED2
:102EA0009E4F51F00E94EC168091E002847089617F
:102EB0008093E0020E94041186E090E00E94B02B13
:102EC0008093E002803220F0877088618093E00276
:102ED0009091E002892F817090FF04C0892F869520
:102EE000869586950E9452090895CF93C82F8091A8
:102EF000290282FB992790F99C17F9F0C0FB82F90F
:102F000080932902609128027091290284E090E068
:102F10000E94E22B82E00E946B0D8091550280FF9F
:102F20000CC01F92CF938AE293E09F938F930E94ED
:102F300000070F900F900F900F90CF910895CF93AF
:102F400010921502C6E0E4EAF1E0DF018C2F1D9239
:102F50008A95E9F790E080E00E94A60890E080E082
:102F60000E948108109214020E941815E9E4F2E010
:102F7000DF011D92CA95E9F71092440210924202B5
:102F8000109243020E94AF11CF910895AAE2B0E0DF
:102F9000ECECF7E10C94122B81E093E02091F1002E
:102FA000DC012D93CD01B3E089309B07B9F7809107
:102FB0000203833009F470C0B8F4813009F447C0CB
:102FC000823009F4B1C08091E80083FF84C280910F
:102FD0000103909102039A3008F07DC2E92FF0E0DE
:102FE000E35AF34D0C94EE2A8A3009F48CC08B30EE
:102FF00009F46FC0893039F780910103813219F7E4
:1030000080910503909106030297E8F68091E8000D
:10301000877F8093E8008091E80082FF38C090911C
:10302000F3008091F200029731F48091F100813039
:1030300011F0863021F48091F1008093F4028091A8
:10304000E8008B778093E8000E945907BCCF8091FD
:103050000103813A09F0B7CF8091E800877F809320
:10306000E8008091050390910603892B61F468E0E4
:1030700085EF92E070E00E9405088091E8008B7770
:103080008093E800A0CF60E090E080E0F3CF8091F3
:10309000FF028111C0CF97CF80910103813A09F0DF
:1030A00092CF8091050390910603892B09F08BCF75
:1030B0008091E800877F8093E8008091E80080FF9E
:1030C000FCCF80911B018093F1008091E8008E7706
:1030D000B9CF80910103813209F075CF809105034A
:1030E00090910603892B09F06ECF8091E800877FCD
:1030F0008093E8000E9459078091030380931B018D
:103100000E949F1760CF80910103813209F05BCF4D
:103110008091E800877F8093E8000E9459078091A2
:1031200004038093F3024FCF80910103813A09F0A9
:103130004ACF8091E800877F8093E8008091E80083
:1031400080FFFCCF8091F302BECF803899F08238A7
:1031500009F0C1C1809105038F70873008F0BBC1B1
:103160008093E9008091EB0085FB882780F910921D
:10317000E90006C08091FD029091FE0291118260EB
:103180009091E800977F9093E8008093F10010926F
:10319000F1008091E8008E779AC1882309F488C1F4
:1031A000823009F098C18091030381118BC1809115
:1031B00005038F702FEF280F263008F08CC1809305
:1031C000E9002091EB0020FF7DC1933031F4809124
:1031D000EB0080628093EB0075C19091EB009061F1
:1031E0009093EB0021E030E001C0220F8A95EAF7CE
:1031F0002093EA001092EA008091EB008860EACF09
:10320000811169C1109103031F778091E3008078D9
:10321000812B8093E3008091E800877F8093E80012
:103220000E9459078091E80080FFFCCF8091E30065
:1032300080688093E30082E0111183E08093FF02B5
:103240004AC18058823008F046C120910303309172
:1032500004032C3DE3E03E07A1F583E08A838AE284
:1032600089834FB7F894DE01139620E03EE051E2E7
:10327000E32FF0E050935700E49120FF03C0E29564
:10328000EF703F5FEF708E2F90E0EA30C0F0C7968E
:103290008D939D932F5F243159F74FBF8091E800A4
:1032A000877F8093E8006AE270E0CE0101960E9479
:1032B00005088091E8008B778093E8000CC1C096E8
:1032C000E7CF8091050390910603432F55274330A4
:1032D000510509F44AC078F54130510509F47AC026
:1032E0008BE590E0E4EBFBE04230510509F0F3C0E0
:1032F0002091E800277F2093E80020910703309178
:1033000008038217930708F49C0140E0211531055A
:1033100009F065C0411163C08091E80082FDC9CF0A
:103320008091FF02882329F2853019F28091E8000C
:1033300083FFF2CFBECF4132510509F43CC0423287
:10334000510509F0C8C08330910508F0C4C0FC01E4
:10335000EE0FFF1FED56FE4F0190F081E02D8057DC
:103360009E4FDC018C9190E01AC03327213031054B
:10337000D1F02115310561F02230310509F0ABC0E3
:10338000E1E2FCE0E4918E2F90E0E1E2FCE007C096
:10339000EDE3FCE0E4918E2F90E0EDE3FCE000979C
:1033A00009F499C0A5CFEDE2FCE0E4918E2F90E006
:1033B000EDE2FCE0F4CF8330910508F08CC0880F7B
:1033C000991FFC01E756FE4F0190F081E02D89E046
:1033D00090E08ECF82E190E0EFE0FCE089CF809139
:1033E000FF02882309F465CF853009F462CF80910C
:1033F000E80083FD5ECF8091E80082FD8DCF809153
:10340000E80080FF83CF9091F3008091F2002115B6
:10341000310519F08830910550F041E0089709F026
:1034200040E08091E8008E778093E8006FCF449170
:103430004093F1003196215031090196E8CF803850
:1034400009F049C08091E800877F8093E80080916F
:1034500000038093F1009DCE81113DC010910303C4
:103460001230C8F58091E800877F8093E8001093C0
:1034700000030E945907112311F084E005C08091D8
:10348000E30087FDFACF81E08093FF0242E061EC28
:1034900081E00E94780742E261EC82E00E947807B6
:1034A00042E261EC83E00E9478078091FF0213C042
:1034B00080910303813079F481E0933009F080E05A
:1034C0008093FE021092E9008091E800877F80934C
:1034D000E8000E9459078091E80083FF0AC08091AC
:1034E000E800877F8093E8008091EB008062809302
:1034F000EB00AA96E3E00C942E2B0E949F172FEF6F
:1035000084E39CE0215080409040E1F700C000003F
:1035100088E19CE00FB6F894A895809360000FBEF8
:1035200090936000FFCFAAE0B0E0E9E9FAE10C94E3
:10353000052B8E010F5F1F4F8AE0F80111928A95CB
:10354000E9F791E5E92E91E0F92E680126E5422E92
:1035500021E0522E66246394712C45E6842E41E0CE
:10356000942EF70181917F018F3F09F445C0F894B3
:10357000E82FE295EF70F0E021A18F70A30102C067
:10358000440F551F8A95E2F7CA01922F982B91A3F9
:1035900092A18095892382A3789400C0E6E5F1E0AA
:1035A00021E030E0B12CA12C41914F3F09F464C0DF
:1035B000A42FA295AF70B0E090968C9190E04F70E0
:1035C00002C0959587954A95E2F780FD55C0C901DF
:1035D000A82AB92A220F331F8E169F0629F7F70152
:1035E000319780818F3F11F00E94670A50EA5A9507
:1035F000F1F7F601B182A082F2E0CF0ED11C4E1499
:103600005F0409F0AECF4AE050E0B8018CE192E0EF
:103610000E94A32B892B99F18AE0F801ACE1B2E07A
:1036200001900D928A95E1F781E080931B020E9440
:10363000750890931A028093190280911902909153
:103640001A020E9466080597F0F04AE050E06CE12B
:1036500072E08DE292E00E94A32B892BC9F08AE0F0
:10366000ECE1F2E0ADE2B2E001900D928A95E1F773
:1036700081E010921B0208C090E080E0A9CF809109
:103680001B028111DACF80E02A96E0E10C94212B15
:1036900080E0EFCFA5E0B0E0E0E5FBE10C94092B82
:1036A0007C01FC0183819481892B31F0808191819F
:1036B00089238F3F09F057C52596ECE00C94252B04
:1036C0000E94AA0C182F682F89819A810E941E0DD2
:1036D00069817A81812F0E94C10A8C01F701828160
:1036E000F801882309F4F2C5F857E730F10508F02E
:1036F000E2C5E959F34D0C94EE2A8091E0028770FF
:1037000088618093E002887F91E009F490E08091E5
:10371000E00290FB80F98093E00283E00E9452096E
:103720008091E0020E94041180910B02877021F2C7
:10373000F7018281882309F4BFCF8091290282FF9B
:10374000BBCF82E00E946B0DB7CF8091E002877003
:103750008E7F8093E00280E0E1CF8091E002982F9D
:10376000987F79F088508093E002887F91E009F497
:1037700090E08091E00290FB80F98093E0020E944B
:1037800004118091550280FF1DC58091E00286954D
:10379000869586951F928F9389E891E09F938F93EA
:1037A0000E9400070F900F900F900F900BC5809113
:1037B000E002982F969596959695933040F49F5FEA
:1037C000990F990F990F8770892B8093E002809150
:1037D000E00281608093E0020E9404118091550212
:1037E00080FFF0C48091E0028695869586951F92B1
:1037F0008F9381EA91E0D2CF1091E0021170809115
:10380000550280FFC1C41F921F938EED91E09F93DC
:103810008F930E9400070F900F900F900F9011232D
:1038200009F4B4C48091E00280FF7ECF8091E00271
:103830008E7F8093E0020E9404118091550280FFE8
:1038400008C089EB91E09F938F930E9400070F902F
:103850000F9080E00E94520967CF9091E002892F7B
:103860008695869586958F5F8F719770843010F559
:10387000880F880F880F892B8093E0028091E002E7
:10388000887F91E009F490E08091E00290FB80F95C
:103890008093E0020E9404118091550280FF92C43F
:1038A0008091E0028695869586951F928F9384EF8E
:1038B00091E074CF9093E002E1CF1091E002169571
:1038C00011708091550280FF83C41F921F9381E481
:1038D00092E09F938F930E9400070F900F900F909C
:1038E0000F90112309F476C48091E00281FF1CCF70
:1038F0008091E0028D7F8093E0020E94041180910C
:10390000550280FF08C088E092E09F938F930E9449
:1039100000070F900F9080916F008E7F80936F0053
:1039200051C426E241EE61EEC7010E948C16FCCE26
:1039300027E245EE65EEF8CF26E241EE60EEF4CFE9
:1039400027E245EE64EEF0CF26E241EE62EEECCFE8
:1039500027E245EE66EEE8CF28E241E0EBCF109299
:103960000B03C8019057839708F055C484E090E09A
:103970000E94BE2B9093290280932802F801E15007
:10398000F047E232F10520F4E259F34D0C94EE2AAF
:103990008091280281608093280295C0809129023D
:1039A0008860809329028FC0809128028260F3CFC3
:1039B000809128028460EFCF809128028860EBCF4D
:1039C000809129028160EDCF809129028260E9CF48
:1039D000809128028061DFCF809128028062DBCF56
:1039E000809128028064D7CF0E949F17809128027F
:1039F0008068D1CF809128028C60CDCF8091290240
:103A00008360CFCF809128028E7FC5CF809129021D
:103A1000877FC7CF809128028D7FBDCF80912802FC
:103A20008B7FB9CF80912802877FB5CF8091290203
:103A30008E7FB7CF809129028D7FB3CF80912802EE
:103A40008F7EA9CF809128028F7DA5CF80912802FB
:103A50008F7BA1CF0E949F17809128028F779BCFE9
:103A600080912802837F97CF809129028C7F99CF04
:103A70008091280282FB992790F921E0922790FB00
:103A800082F990FB83F987CF80912902982F909536
:103A900091708E7F892B90FB81F983CF90912802C2
:103AA000892F8F7B96FF806476CF0E949F1790911D
:103AB0002802892F97FB87F980586DCF61E08EE04F
:103AC00090E00E94C42B609128027091290284E04A
:103AD00090E00E94E22B0E949F1726CE60E0EFCF7D
:103AE00090912802892F8F7E94FF806154CF90910E
:103AF0002802892F8E7F90FF81604DCF90912902FF
:103B0000892F877F93FF88604CCF85E393C385E33C
:103B1000EBC38091550280FF10C08091DB0280953D
:103B200081701F928F9380ED92E09F938F930E94FC
:103B300000070F900F900F900F908091DB0280FF95
:103B400025C08E7F8093DB026091DB027091DC02E6
:103B50008091DD029091DE020E9430138091550227
:103B600080FF0FC08091DB0281701F928F9381E6EE
:103B700092E09F938F930E9400070F900F900F90F9
:103B80000F900E94A0110E94C10ECECD8160809343
:103B9000DB028091550280FF0DC01F9281E08F9360
:103BA00089E992E09F938F930E9400070F900F90F6
:103BB0000F900F908091DB0261E086950E94751452
:103BC000B3CD43EE54E16DEE74E10E947909ACCDC2
:103BD0004DEE54E163EE74E1F8CF4DE354E167E458
:103BE00074E1F3CF47E454E16DE374E1EECF43E2D7
:103BF00054E160E374E1E9CF40E354E163E274E14E
:103C0000E4CF49E054E166E174E1DFCF46E154E1FD
:103C100069E074E1DACF41E554E163E674E1D5CFC0
:103C200043E654E161E574E1D0CF61E081E0C6CFC5
:103C300065E082E00E94F81477CD68E086E0FACF74
:103C40006EE089E0F7CF64E18FE0F4CF67E185E1D2
:103C5000F1CF61E088E1B2CF62E289E1EBCF61E0D0
:103C600083E2ACCF6AE285E2E5CF90915502892FDD
:103C70008E7F90FF81608093550280FF05C089E1AF
:103C800093E00E94670650CD87E093E0FACF6FEF94
:103C90007FEF90E080E00E94E22B0E947D1A8091ED
:103CA000290282FB882780F991E089270E947517F5
:103CB000F701828100811181882309F443C0C80182
:103CC0000E94AA0CD82E682FC8010E941E0DB801B0
:103CD0008D2D0E94C10A0E94DE0A8C01882EF701F8
:103CE000D280B580B2943FE0B32280910B028770FE
:103CF000C1F0AD2CDD20B1F0812F807F803421F028
:103D000080E2800F883068F08091290282FF09C02C
:103D100082E00E946B0D80910B028770AA24A3940D
:103D20008111A12C912E92942FE09222FBE0F915A3
:103D300008F474C0E92DF0E0E057F34D0C94EE2A3E
:103D400080E0B4CFC8010E94EB0CD82EC0CF212F49
:103D50002F70C22E107F19F0C29490EFC922DD207F
:103D6000B9F0CC2069F080E2800F883010F081102B
:103D700009C080911502C82AC09215020E94181528
:103D8000802F4AC080911402C82AC0921402F6CF34
:103D9000802F0E949B15CC2009F440C0005E0830A3
:103DA00010F0811004C08C2D0E94730C06C0C094CA
:103DB00080911402C822C09214020E9418152EC0CD
:103DC000312F3F70C32E107F103219F0C29480EF54
:103DD000C822882089F081E0881609F47CC0DD20A3
:103DE00009F486C0BB2009F47CC0F701858180FFFF
:103DF000C7CF8F70858375C02091290222FD43C0F3
:103E0000DD20D9F1CC2039F080911502C82AC0926A
:103E100015020E94181580E00E94F515E92DE85062
:103E2000FF0B349710F40E94CB08AA20A9F08091D0
:103E30000B0280FD11C0F70112828595859585954D
:103E40000E94870DC7010E944A1B80910B02859535
:103E5000859585950E94590D85E0F701DE01119643
:103E600001900D928A95E1F709811A81C8010E949B
:103E7000EB0CB8010E94C10A1FCC80E00E949B1588
:103E8000CC2061F290CFDD20A1F090911602892F15
:103E90008C29B11003C00E949115C0CFE1E0BE1281
:103EA000FACF22FFBBCF981709F4B8CF8093160240
:103EB000B5CFB11006C00E946D0C8C2D0E948A15E2
:103EC000ADCFF1E0BF1609F4A9CF8C2D0E948A1561
:103ED0000E946D0CA3CFDD2031F025E02B1508F4F6
:103EE0009DCF8C2DD8CF34E03B1508F497CFE5CF8C
:103EF000BB2019F3F9E38F122FC12FEF37EE83E0C8
:103F0000215030408040E1F700C0000025C1812FE2
:103F100086958695837061F0813009F07FCFC80166
:103F20009370D11002C080E090E00E94810876CFAB
:103F3000C8019370D11002C080E090E00E94A608F2
:103F40006DCF6D2D802F0E94581268CF812F837006
:103F500009F03FC0D11062CF402F4295469547707F
:103F6000440F440F802F8F7090E0042E02C0880F02
:103F7000991F0A94E2F730E020E004FF09C02FE027
:103F800030E002C0220F331F4A95E2F720953095AA
:103F9000169516951370123099F078F44091170227
:103FA00050911802113039F0822B932B84239523E2
:103FB0000E94970D33CF842B952B822B932BF8CF18
:103FC000822B932B2091170230911802822793277E
:103FD000EFCF8695DD2011F0812F8170882309F4C1
:103FE0001DCF402F429546954770440F440F802FB8
:103FF0008F7090E0042E02C0880F991F0A94E2F798
:1040000030E020E004FF09C02FE030E002C0220FC2
:10401000331F4A95E2F72095309516951695137043
:10402000123099F078F44091260250912702113015
:1040300039F0822B932B842395230E94540DEECECE
:10404000842B952B822B932BF8CF822B932B2091B3
:1040500026023091270282279327EFCF1F70DD20A1
:1040600029F0812F0E94870D802F15CF802F0E946D
:104070008A15812F0E94590DD1CE802F92EF89167B
:1040800099F1981570F0E0EF8E16D1F0F1EF8F16E0
:1040900091F0DD2009F45BC0B11072CE812F8F71D9
:1040A00027C023EF821639F134EF8312F2CF8091CB
:1040B000290282FD2EC0812F8F71DD20D9F218C018
:1040C000DD2069F084E08B1508F4A8CE1F7181E033
:1040D00090E002C0880F991F1A95E2F7B8CF95E0DB
:1040E0009B1508F49BCEF2CF812F8F71D110C2CFD8
:1040F0000E94870D93CE90E080E0DD2009F49DCFF3
:104100001F7181E090E002C0880F991F1A95E2F7B5
:1041100094CFDD2089F01F71812F0E94870D80913F
:10412000290282FF07C0E8E01E9FC00111248360BE
:1041300080930B02812FDCCF81E00E946B0DF1E0B8
:10414000FB1508F06BCE82E00E946B0D67CEBB20A2
:1041500039F0893309F4D1CE802F0E949B155ECEB1
:10416000812F8F7187CF85E0DE01119601900D922E
:104170008A95E1F7F701228189819A812111A0CAEC
:104180000E94EB0C182FA4CA111150CB8091E002B1
:1041900080FDCACA81608093E002813019F489E011
:1041A0008093E0028091E0020E9404118091550208
:1041B00080FF08C08CEC91E09F938F930E940007D2
:1041C0000F900F908091E00286958695869542CB60
:1041D00011118ECB8091E00281FDA6CA826080938E
:1041E000E0020E9404118091550280FF08C085E220
:1041F00092E09F938F930E9400070F900F90109270
:10420000E3021092E2021092E10280916F0081605D
:1042100080936F0089CA0631FCE71F0781F4809103
:1042200015028A7A91E009F490E09093AA01811135
:104230006CCC89E20E94870C0E94181575CA033065
:104240003CE7130709F423CDC0F401309CE71907BC
:1042500009F423CD08F009CD01151C4709F028CD3C
:104260000E949F17FFEF24E33CE0F15020403040D4
:10427000E1F700C000000E949D0E0B352CE71207ED
:1042800009F45ECD0C353CE7130709F408CD0A3577
:104290001C4709F00DCD81E009CD80911502827295
:1042A000F801E052F847E531F10508F001CDE45698
:1042B000F34D0C94EE2AF801E851FC47E730F10584
:1042C00008F04DCBEF54F34D0C94EE2AE851FC4727
:1042D000E730F105B8F306312CE71207F1F68091CB
:1042E000AA01811114CC89E20E947A0CA5CF1F93F8
:1042F000CF93DF938091D801807F09F049C08091EE
:10430000D501882309F444C080910A02D091D901D3
:104310006091D3017091D401A091D601B091D701E1
:10432000C62FC72316E0D81799F190E0109711F027
:10433000CF3F19F401968770F6CF189F9001199F0F
:10434000300D1124F901E652FE4F41814713F2CF9F
:1043500040814613EFCF42814111ECCF438154811C
:104360004A1B5B0B483C510528F78091D8018F70A0
:1043700080618093D801F901E152FE4F80818F70F6
:104380008061808383ED91E00E944A1B0E94A00C13
:10439000DF91CF911F910895A1E1B0E0E2EDF1E24C
:1043A0000C940B2B8C0185E0F801DE011D96019029
:1043B0000D928A95E1F7F801E28083EDA82E81E065
:1043C000B82E6091D6017091D7016115710509F47D
:1043D00026C19091D3014091D401892F84238F3F2E
:1043E00009F41DC120813181C380D480F090D501B2
:1043F000F601E61BF70BFF2009F4DCC08091D80121
:10440000582F507FE83CF10508F09FC051116BC058
:10441000FE2C431314C0921312C0E11010C08F7011
:1044200080618093D801C5010E944A1B8091D80108
:10443000F80185838F2D6196EAE00C94272BC11437
:10444000D10429F0822F83238F3F09F003C180E03C
:10445000F82FF170DF2E80FF3CC080910A0240915E
:10446000D90156E0841315C02D873E878D859E8522
:104470000E94DE0C292F22952F702230F0F024307C
:1044800018F59F70F1F0F8019581907FD1F4D12C4F
:104490001EC090E0589FF001599FF00D1124E65284
:1044A000FE4F6181361306C06081261303C062810E
:1044B000E6120FC001968770D5CF9F7011F0882348
:1044C00031F3805E883018F3C8010E944A1BFD2C2E
:1044D000B1CFEE2009F4AECF8091D80181608093F6
:1044E000D801F12CA7CF431306C0921304C0F801E2
:1044F000EE2009F479C0C8010E949C0D882309F1BF
:10450000EE20F9F08091D801803270F02091D30133
:104510003091D40138872F831986DB86CA868C8731
:10452000CE0107960E944A1B86E0F801A3EDB1E098
:1045300001900D928A95E1F70E947721FF24F39470
:1045400079CFC8010E944A1BF9CF51110AC083EDEF
:1045500091E00E944A1B86E0F50111928A95E9F7E5
:10456000C0CF43130FC092130DC0E1100BC0F80170
:104570008583C8010E944A1B86E0F50111928A9545
:10458000E9F758CFC8010E949C0D8823D1F2EE2094
:10459000C1F28091D801803238F22091D30130915C
:1045A000D4013A8329831B82DD82CC828E83CE01A3
:1045B0000196B8CFE83CF105F8F6FE2CEE2009F2A2
:1045C00043131FC092131DC08091D80180FD10C0FD
:1045D000982F907F69F0F8018583903F31F0982FF4
:1045E000907F905F8F70892B8583C8010E944A1B42
:1045F00086E0F801A3EDB1E001900D928A95E1F714
:1046000019CFC8010E949C0D81118ECF8091D801D5
:1046100081608093D801C8010E944A1B0BCFEE2015
:1046200009F48FCFC8010E949C0DF82E882309F44D
:1046300088CF86E0F801A3EDB1E001900D928A9554
:10464000E1F78091D3019091D4010E94DE0C0E9489
:104650007721F0CE81E08E25FBCEA7E1B0E0E3E349
:10466000F3E20C94122B4B8B5C8B6D8B7E8B8F8BC0
:104670006111109214021A8A198A85E0FE0173965C
:10468000DE011D9601900D928A95E1F786E0FE010C
:104690003D96DE01179601900D928A95E1F7CE01C5
:1046A00007960E94CC21811112C086E0FE01379648
:1046B000DE01119601900D928A95E1F78A859B851E
:1046C000892B29F088859F8189238F3F81F516E00A
:1046D00080910A029091D901891317C06796E3E08F
:1046E0000C942E2B96E0929FD001939FB00D112435
:1046F000A652BE4FFE01319601900D929A95E1F7B8
:104700008093D9010E94A00CE2CF819FC0011124A7
:1047100086529E4F0E94CC21882301F380910A0289
:1047200090E001968770992780930A02D1CF20915B
:10473000D90130E0C90101968770992740910A029A
:104740004817190679F60E949F171092D901109206
:104750000A0286E0E3EDF1E0DF011D928A95E9F7B8
:10476000B6CF1F920F920FB60F9211242F933F9343
:104770004F935F936F937F938F939F93AF93BF9369
:10478000CF93DF93EF93FF93D091E900DF70809197
:10479000EC00C82FC17080FDC0E81092E900809144
:1047A000F000877F8093F00078940E94C6171092E3
:1047B000E9008091F00088608093F000CD2BCF70ED
:1047C000C093E900FF91EF91DF91CF91BF91AF913D
:1047D0009F918F917F916F915F914F913F912F9119
:1047E0000F900FBE0F901F9018951F920F920FB64B
:1047F0000F9211242F933F934F935F936F937F9367
:104800008F939F93AF93BF93EF93FF938091E100BA
:1048100082FF15C08091E20082FF11C08091E1000B
:104820008B7F8093E1002091F1022F5F822F62E362
:104830000E94BA2A992309F4C0C02093F102809102
:10484000DA0080FF28C08091D80080FF24C08091CA
:10485000DA008E7F8093DA008091D90080FFE3C078
:1048600080E189BD82E189BD09B400FEFDCF81E010
:104870008093FF0280EA9BE00E9467068091F2022B
:10488000811109C00E9409070E94AA078091E200D5
:1048900084608093E2008091E10080FF1BC08091E2
:1048A000E20080FF17C08091E2008E7F8093E200DB
:1048B0008091E20080618093E2008091D800806264
:1048C0008093D80019BC85E08093FF0288EA9BE0C2
:1048D0000E9467068091E10084FF2FC08091E20072
:1048E00084FF2BC080E189BD82E189BD89B5982F05
:1048F000917080FFFBCF8091D8008F7D8093D8008E
:104900008091E1008F7E8093E1008091E2008F7EB4
:104910008093E2008091E20081608093E2008091C8
:104920000003882309F489C084E08093FF028CEAA5
:104930009BE00E9467068091FF028091E10083FF67
:104940002BC08091E20083FF27C08091E100877F28
:104950008093E10082E08093FF0210920003809137
:10496000E1008E7F8093E1008091E2008E7F809352
:10497000E2008091E20080618093E20042E060E02A
:1049800080E00E9478078091F00088608093F000BA
:1049900080EB9BE00E946706FF91EF91BF91AF9182
:1049A0009F918F917F916F915F914F913F912F9147
:1049B0000F900FBE0F901F9018951092F1028091EA
:1049C000F002882309F43BCF8091FF028430C1F4C8
:1049D0009091E9009F702091EC00822F817020FD62
:1049E00080E8892B93E09093E9009091EB0090FF91
:1049F00004C09091EE0097FD08C08F708093E9008D
:104A00001092F0021CCF1092F1009091E80095FDF9
:104A1000FACF9091E80090FFF0CF9091E8009E7758
:104A20009093E800EACF19BC1092FF0284EA9BE061
:104A30000E9467061092F2022ECF8091E30087FD5C
:104A400093E09093FF0273CF78941F921FB61F924A
:104A500011248F939F93AF93BF938091EB0290911A
:104A6000EC02A091ED02B091EE020196A11DB11DE4
:104A70008093EB029093EC02A093ED02B093EE02D0
:104A8000BF91AF919F918F911F901FBE1F9018955E
:104A90001F921FB61F9211248F939F93AF93BF93C2
:104AA0008091EA02811113C08091EB029091EC0297
:104AB000A091ED02B091EE024196A11DB11D80932F
:104AC000EB029093EC02A093ED02B093EE02BF9143
:104AD000AF919F918F911F901FBE1F9018951F92AD
:104AE0000F920FB60F9211242F933F934F935F9322
:104AF0006F937F938F939F93AF93BF93EF93FF93A6
:104B000080911A018230A1F08F5F80931A01FF918A
:104B1000EF91BF91AF919F918F917F916F915F9135
:104B20004F913F912F910F900FBE0F901F901895AE
:104B300081E080931A018091E2029091E302019654
:104B400060ED72E00E94C62A9093E3028093E20235
:104B500065E070E00E94C62A67FD6FE78091E10280
:104B6000823041F4603451F480916F008E7F8093E5
:104B70006F0004C0813011F46F37B1F3E62FF0E01D
:104B8000E05EF44F2491A0918600B091870030E060
:104B90000E944C2C2FEF30E040E050E00E942A2C85
:104BA000C90163E070E00E94C62A8091E002869508
:104BB00086958695282F269FC001279F900D11244A
:104BC0000E94D80890938D0080938C00A0CFCDB721
:104BD000DEB760970FB6F894DEBF0FBECDBF85B7C6
:104BE000806885BF85B7806885BF84B7877F84BFAD
:104BF0000FB6F894A895809160008861809360005A
:104C0000109260000FBE80E890E00FB6F894809399
:104C10006100909361000FBE8EED9DE09093A10125
:104C20008093A0010E9409070E94AA078091E200D8
:104C300084608093E20078948091FF028823A1F041
:104C40001091E9001F709091EC00892F817090FD08
:104C500080E8182B1092E9008091E80083FD0E9403
:104C6000C6171F701093E90082E084BD93E095BDE4
:104C70009AEF97BD80936E0001E511E066E5E62EA0
:104C800061E0F62ED8018D918D018F3F11F00E94C9
:104C9000670AE016F106B1F706E511E055E6E52EE4
:104CA00051E0F52EF80181918F018F3F11F00E94A4
:104CB000670AE016F106B1F78AE0EDE2F2E0DF0103
:104CC000282F1D922A95E9F7ECE1F2E0DF011D9211
:104CD0008A95E9F790E080E00E94BE2B873E9E4FC8
:104CE00011F00E94EC1682E090E00E94B02B8093BD
:104CF000550284E090E00E94BE2B9093290280939D
:104D000028020E94931AEFE3FCE93197F1F700C003
:104D100000000E94931A80912D0280FF08C06FEF5F
:104D20007FEF90E080E00E94E22B0E949D0E83E0E6
:104D300090E00E94B02B90E00E94970D279A2F9848
:104D40008AE08093800089E1809381008FEF9FEF5C
:104D500090938700809386000E944B178091E00219
:104D600081FF0BC01092E3021092E2021092E10266
:104D700080916F00816080936F000E944B1780913B
:104D80002A028111E0C08091550280FF14C089E899
:104D900097E09F938F930E940007809155020F9098
:104DA0000F9080FF08C083E797E09F938F930E9446
:104DB00000070F900F9090E080E00E94BE2B873E8E
:104DC0009E4F81F08091550280FF08C08BE497E0F0
:104DD0009F938F930E9400070F900F900E94EC16F4
:104DE0000E94081588E090E00E94B82B6093DB02D7
:104DF0007093DC028093DD029093DE026E7FD1F42B
:104E00008091550280FF08C082E097E09F938F93C6
:104E10000E9400070F900F900E94081588E090E014
:104E20000E94B82B6093DB027093DC028093DD025A
:104E30009093DE020E9480098091550280FF76C027
:104E400089EE96E09F938F930E9400078091550210
:104E50000F900F9080FF6AC08091DB0281701F92DB
:104E60008F938CEC96E09F938F930E940007809124
:104E700055020F900F900F900F9080FF57C08091B8
:104E8000DB0286951F928F9381EB96E09F938F9321
:104E90000E940007809155020F900F900F900F9085
:104EA00080FF44C08091DC021F928F9387E996E0D7
:104EB0009F938F930E940007809155020F900F904F
:104EC0000F900F9080FF32C08091DD021F928F9370
:104ED0008DE796E09F938F930E9400078091550283
:104EE0000F900F900F900F9080FF20C08091DE02F6
:104EF0001F928F9383E696E09F938F930E94000703
:104F0000809155020F900F900F900F9080FF0EC070
:104F10008091DF021F928F9387E496E09F938F9397
:104F20000E9400070F900F900F900F901092570261
:104F30008091DB0280FF04C060E086950E947514BA
:104F400081E080932A0284E091E09093E7028093CD
:104F5000E60241E4442E42E0542E8091FF02853067
:104F600089F480EA97E00E94670600E112E18091EF
:104F7000FF02853009F468C00E949F170E944B17FA
:104F80000E94CB080E94931A27E3C22E22E0D22E61
:104F90003DE2632E32E0732ED301F601219131916F
:104FA0008D919D914E165F0609F48DC02817390723
:104FB000A9F38091550281FDEFC1912CD3010D9190
:104FC0001D913D01F601A190B1906F01A016B106AF
:104FD00059F1812CEE24E394F12CA026B126C501D1
:104FE0008E219F21892BB1F08C869D8621E0C801FE
:104FF0008E219F21892B09F420E02E870E947508BD
:105000008160782F988B8F874C855D856E85888928
:105010000E942D238394EE0CFF1CFFE08F12DFCF44
:10502000F601329711830083939425E09212C6CF44
:105030008FB7F8944091EB025091EC026091ED0231
:105040007091EE028FBF61C08091FF02843039F110
:1050500080E00E9452091092EA0288E190E0A0E408
:105060000FB6F894A895809360000FBEA0936000DF
:1050700083B7817F846083BF83B7816083BF789467
:10508000889583B78E7F83BF0FB6F894A8958091DB
:105090006000886180936000109260000FBE809174
:1050A000FE02882309F463CF0E94931AEDE2F2E036
:1050B00081919191892B09F02DC287E392E08E179F
:1050C0009F07B1F754CF2817390709F072CF0E9414
:1050D00075088C0180912B0290912C0208171907FA
:1050E000A1F08FEF8F83888719860E9475088160F1
:1050F000782F9B878A874F81588569858B850E9489
:105100002D2310932C0200932B02809157028823A9
:10511000D1F180915602E091DB02E695E81BE09325
:105120005102823009F076C1F0E0E452F84FE49188
:105130000E2F10E0F0EFEF2EF0E1FF2E80915202E3
:10514000882361F0109252020E94750890935002D9
:1051500080934F0210925402109253020E947508DD
:10516000E0914F02F09150028E1B9F0B8F3F9F47A3
:1051700050F4E00FF11FF0935002E0934F028FE4E0
:1051800092E0F701099586E0E9E4F2E0DE0111968C
:1051900001900D928A95E1F710924B0210924C0209
:1051A00010924D0210924E028B819C81892B09F442
:1051B0004AC080914702909148020E9466089C0173
:1051C00090914402992309F4C0C125313105D8F1E9
:1051D0009F3F19F09F5F909344021B81112359F068
:1051E0000E94470A9FEF11160CF491E0899F802DD1
:1051F000112480934B021C81112359F00E94470A0D
:105200009FEF11160CF491E0899F802D112480935B
:105210004C0230914B023323B1F020914C022223F7
:1052200091F045EB3403C0011124992309F462C1C4
:1052300090934B0245EB240390011124332309F48E
:105240005DC130934C028D819E81892B09F44AC047
:1052500080914502909146020E9466089C019091BF
:105260004202992309F46CC121353105D8F19F3FE1
:1052700019F09F5F909342021D81112359F00E9403
:10528000250A9FEF11160CF491E0899F802D1124BF
:1052900080934D021E81112359F00E94250A9FEF31
:1052A00011160CF491E0899F802D112480934E02F9
:1052B00030914D023323B1F020914E02222391F020
:1052C00045EB3403C0011124992309F41BC19093C9
:1052D0004D0245EB240390011124332309F416C138
:1052E00030934E0246E050E0BE016F5F7F4F89E48D
:1052F00092E00E94A32B892B61F480914B02909144
:105300004C02892B90914D02892B90914E02892B52
:1053100011F00E94AF1186E0FE013196A9E4B2E0DF
:1053200001900D928A95E1F70E94CB08182F809189
:105330004102181709F411CE109341028FB7F89467
:105340004091EB025091EC026091ED027091EE02FF
:105350008FBF8091550282FF00CE80FFFECD87EE89
:1053600097E00E9467068091550280FFF6CD1F925C
:105370001F9382EE97E09F938F930E940007809186
:1053800055020F900F900F900F9080FFE6CD80EEAA
:1053900097E00E946706E1CD84EB97E00E946706E4
:1053A0001DE2E12E12E0F12E10E000E08FEA882EDF
:1053B00087E0982E96EAA92E97E0B92E1F930F93B7
:1053C0009F928F920E9400078CEA97E00E946706E6
:1053D000D7018C9111962C90B2E0EB0EF11C0E943B
:1053E000C60D382E822D0E94C60D3F928F93BF921C
:1053F000AF920E94000784EA97E00E9467060F5F61
:105400001F4F0FB6F894DEBF0FBECDBF053011059C
:10541000A9F6D3CD863059F4F0E0E752F84FE49185
:105420000E2F10E0E0EEEE2EE0E1FE2E87CE89306A
:1054300061F4E695F0E0EA52F84FE4910E2F10E0A7
:1054400074E5E72E70E1F72E79CE8F3061F4E695A2
:10545000F0E0ED52F84FE4910E2F10E066EFE62EEB
:105460006FE0F62E6BCE853159F4F0E0E053F84F43
:10547000E4910E2F10E058EAE52E5FE0F52E5ECEA7
:1054800008E210E02DE2E22E2FE0F22E883109F43E
:1054900055CE833249F4EEECF7E0059114914FE8D4
:1054A000E42E40E1F42E4ACE04EF11E096EFE92E0F
:1054B0009EE0F92E843209F441CE8532A1F48BEAC4
:1054C000E89F812D11248695982F990F890FE81B4D
:1054D000F0E0E553F84FE4910E2F10E03AE0E32EB0
:1054E00031E1F32E2BCE00ED17E08FE7E82E89E0B7
:1054F000F82E24CE81E080934B029CCE81E08093F5
:105500004C02A1CE81E080934D02E3CE81E08093F6
:105510004E02E8CE09BD19BD09B400FEFDCF809151
:10552000D8008F7D8093D8008091E00082608093C6
:10553000E0008091E00081FDFCCF0E949F1717CD15
:105540002B30310508F095CECDCE2B30310508F04B
:1055500041CE79CEDB018F939F930E94172CBF9190
:10556000AF91A29F800D911DA39F900DB29F900DB2
:1055700011240895991B79E004C0991F961708F02B
:10558000961B881F7A95C9F780950895AA1BBB1BA7
:1055900051E107C0AA1FBB1FA617B70710F0A61B33
:1055A000B70B881F991F5A95A9F780959095BC0154
:1055B000CD01089597FB072E16F4009407D077FDD0
:1055C00009D00E94C62A07FC05D03EF4909581952B
:1055D0009F4F0895709561957F4F0895EE0FFF1FBF
:1055E0000590F491E02D09940E944C2C332312F481
:1055F0008A1B9B0B0C94FE2A0E944C2CB7FF08952B
:10560000821B930B08952F923F924F925F926F925D
:105610007F928F929F92AF92BF92CF92DF92EF9242
:10562000FF920F931F93CF93DF93CDB7DEB7CA1BC3
:10563000DB0B0FB6F894DEBF0FBECDBF09942A88EE
:10564000398848885F846E847D848C849B84AA8496
:10565000B984C884DF80EE80FD800C811B81AA8123
:10566000B981CE0FD11D0FB6F894DEBF0FBECDBFEE
:10567000ED0108958F929F92AF92BF92CF92DF92E9
:10568000EF92FF92CF93DF93EC01688179818A8159
:105690009B81611571058105910521F464E279ED25
:1056A0008BE597E02DE133EF41E050E00E94F82BCD
:1056B00049015A019B01AC01A7EAB1E40E94172CF1
:1056C0006B017C01ACEEB4EFA50194010E94252C86
:1056D000DC01CB018C0D9D1DAE1DBF1DB7FF03C0AE
:1056E0000197A109B04888839983AA83BB839F77D8
:1056F000DF91CF91FF90EF90DF90CF90BF90AF9070
:105700009F908F9008950E943A2B089580E091E039
:105710000E943A2B0895B0E0A0E08093000190939E
:105720000101A0930201B09303010895FC014150CF
:10573000504030F001900616D1F73197CF0108950F
:10574000882799270895FB01DC0104C08D91019001
:10575000801921F441505040C8F7881B990B0895D7
:10576000F999FECF92BD81BDF89A992780B5089529
:10577000A6E1B0E044E050E00C94EA2BA8E1B0E0F0
:1057800042E050E00C94EA2B262FF999FECF92BD0F
:1057900081BDF89A019700B4021639F01FBA20BDF6
:1057A0000FB6F894FA9AF99A0FBE08950396272F28
:1057B0000E94C52B0E94C42B252F0E94C52B242F8D
:1057C0000C94C52B0196272F0E94C52B0C94C42B3B
:1057D000DC01CB01FC01F999FECF06C0F2BDE1BDB1
:1057E000F89A319600B40D9241505040B8F70895A0
:1057F000052E97FB1EF400940E940F2C57FD07D036
:105800000E942A2C07FC03D04EF40C940F2C5095C8
:105810004095309521953F4F4F4F5F4F089590959C
:105820008095709561957F4F8F4F9F4F08950E948F
:105830004C2CA59F900DB49F900DA49F800D911DA1
:1058400011240895B7FF0C94172C0E94172C821B6B
:10585000930B0895A1E21A2EAA1BBB1BFD010DC0DC
:10586000AA1FBB1FEE1FFF1FA217B307E407F50710
:1058700020F0A21BB30BE40BF50B661F771F881FEC
:10588000991F1A9469F760957095809590959B0182
:10589000AC01BD01CF010895A29FB001B39FC0012B
:1058A000A39F700D811D1124911DB29F700D811D4C
:1058B0001124911D0895F894FFCFA518CD186B1AE7
:1058C000CD186B1A001921196B1A1F1A2C1A7D1B7F
:1058D000A51BFC1BAD1BD71B2D1C5D1C021D771DC2
:1058E0000A1DD41CD81C0E1DDC1C121D1E1DE81C1C
:1058F000701DEC1C221DF01C261D4E1DF41C2A1DC3
:10590000551DFA1C301D381DE01C161DE41C1A1D07
:10591000FE1C341D441D5E1D6E1DCE1C061D7E1D0D
:10592000A71EA71EE01EE01E871FA11F0E1F0E1F31
:10593000A61F2E203D203D20891DE11DE81DED1DE7
:10594000F21DF71DFC1D011E061E0B1E101E151E4E
:10595000181E1D1E201E231E261E291E2C1E2F1E35
:10596000321E9C1CA01C911C981CA41CA81CAC1CC6
:10597000010000006308890E820E7B0E01191A1BBC
:105980001C1D1E1F2021220102010101818283E2D0
:1059900000E900EA00B500B600B700CD008301CCF5
:1059A000008A019201940121022302240225022689
:1059B0000227022A02B300B4006F0070009F01CBDF
:1059C000013033673666F6F5F4F1C69593929190FF
:1059D0009496973435000102020202060606090970
:1059E000090909090F0F0F0F0F0F151515181919B0
:1059F00019191919191919192324252525252525BA
:105A0000407B224901CE00AC00C60BDF0BF80B0037
:00000001FF
