:100000000C9421060C9459060C9459060C9459062C
:100010000C9459060C9459060C9459060C945906E4
:100020000C9459060C9459060C94CB240C948724F8
:100030000C941E260C9459060C9459060C945906DF
:100040000C9459060C9459060C9459060C945906B4
:100050000C9445260C94FA250C9459060C945906D8
:100060000C9459060C9459060C9459060C94590694
:100070000C9459060C9459060C9459060C94590684
:100080000C9459060C9459060C9459060C94590674
:100090000C9459060C9459060C9459060C94590664
:1000A0000C9459060C9459060C9459060631FF0914
:1000B00074A1010975150026FF00952075088102BD
:1000C0000976150026FF00952075089102C00501EC
:1000D0000902A10185020901A100050919012908E8
:1000E00015002501950875018102050109300931C6
:1000F0001581257F95027508810609381581257FB0
:10010000950175088106050C0A38021581257F9531
:100110000175088106C0C005010980A10185031988
:10012000012AB700150126B700950175108100C09E
:10013000050C0901A101850419012AA00215012657
:10014000A002950175108100C005010906A10105F5
:100150000719E029E7150025019508750181029529
:1001600001750881010507190029FF150026FF0008
:100170009506750881000508190129059505750181
:100180009102950175039101C06261636B6C6967AF
:1001900068742064656372656173653A2025750A29
:1001A000006261636B6C6967687420696E63726575
:1001B0006173653A2025750A006261636B6C69673B
:1001C00068742064697361626C650A006261636BC4
:1001D0006C6967687420656E61626C650A006261B3
:1001E000636B6C6967687420746F67676C653A202D
:1001F00025750A006261636B6C69676874207374AB
:1002000065703A2025750A006261636B6C696768E6
:100210007420627265617468696E672064697361D5
:10022000626C650A006261636B6C69676874206266
:100230007265617468696E6720656E61626C650ADB
:10024000006261636B6C69676874206272656174D7
:1002500068696E6720746F67676C653A2025750A58
:10026000007267626C696768742064697361626CAC
:1002700065205B454550524F4D5D3A207267626C78
:10028000696768745F636F6E6669672E656E616229
:100290006C65203D2025750A007267626C6967688D
:1002A0007420656E61626C65205B454550524F4D10
:1002B0005D3A207267626C696768745F636F6E662F
:1002C00069672E656E61626C65203D2025750A00A8
:1002D0007267626C6967687420746F67676C652009
:1002E0005B454550524F4D5D3A207267626C6967BD
:1002F00068745F636F6E6669672E656E61626C65B8
:10030000203D2025750A0044454255473A2064693E
:100310007361626C65642E0A0044454255473A2079
:10032000656E61626C65642E0A004F6E6573686F5E
:10033000743A206163746976653A2025640A000A7C
:10034000002530325820006B6579626F6172645FFE
:100350007265706F72743A200029001E021F02201D
:1003600002210222020000000000002302240225D4
:10037000022F003000000035001400070015001A9D
:1003800000050008180F184C050D0009001800138F
:1003900000330034002B00044216430B4417000ABC
:1003A0004150184600E3001C001100080012000C28
:1003B00000280039001D251B23100006001900002D
:1003C00000000000000E000F003600370038004C1F
:1003D00000000000000718E600E5002A00E4000025
:1003E0000021522C00235224520000000000000182
:1003F00000000000000000000000000000000000FD
:1004000000000000000000000000000000000000EC
:1004100000E500E400E6110000000000000000001C
:10042000004B0052004E00000000000100000000E0
:10043000000000000001000000000000004A005021
:100440000051004F004D00010000000100010000BC
:10045000000000000000000000000000001E111F4E
:100460001120110000010000000000010001000146
:100470000001000000000001000100010001000176
:100480000000000000010001000100010001000166
:10049000000000000000000100010001002F0230F8
:1004A000020100010000001E142D140000000000D5
:1004B00000000000001E0235023102310033023517
:1004C00000010001000100010028110100000000EE
:1004D0000000002E022D02260227022D000100003E
:1004E0000000000000000000003E000000000000CE
:1004F000002E000100360237023802010000000021
:1005000000010001000100010001000000010001E4
:1005100000010001000100000000000000000000D8
:1005200000000000000000000000000000000000CB
:1005300000000000000000000001000000000000BA
:1005400000000000000000000000001E0224002542
:1005500000260033023402010001000100E5000121
:100560000001000000000000002E022100220023F4
:10057000002D00010000000000000000000000004D
:10058000000000000000002E001E001F00200038A8
:100590000001000000000001000100010001000155
:1005A0000000000100270001000100000000000021
:1005B000000000000000000000000000000000003B
:1005C000000000000000000000000000000000002B
:1005D000000000000000000000000000000000001B
:1005E0000000004000410042000000000001000146
:1005F00000010001000100010000000000000000F7
:10060000003D003E003F0000000000000000000030
:100610000000000000000000000000000000003AA0
:10062000003B003C00000000000000000000000053
:100630000000000000000000000000430001000175
:10064000000000000000007267626C696768745FF8
:10065000636F6E6669672E7370656564203D202543
:10066000640A007267626C696768745F636F6E66C4
:1006700069672E76616C203D2025640A00726762EE
:100680006C696768745F636F6E6669672E73617407
:10069000203D2025640A007267626C696768745F98
:1006A000636F6E6669672E687565203D2025640A54
:1006B000007267686C696768745F636F6E6669670C
:1006C0002E6D6F6465203D2025640A007267626CA0
:1006D000696768745F636F6E6669672E656E6162D5
:1006E0006C65203D2025640A007267626C6967684A
:1006F000745F636F6E66696720454550524F4D3A8F
:100700000A007267626C696768745F696E69742059
:100710007267626C696768745F636F6E6669672E83
:100720006D6F6465203D20302E20577269746520FE
:1007300064656661756C742076616C756573207490
:100740006F20454550524F4D2E0A007267626C690A
:100750006768745F696E6974206565636F6E66694A
:1007600067206973206E6F7420656E61626C6564CA
:100770002E0A007267626C696768745F696E6974DB
:10078000207374617274210A007267626C69676811
:10079000745F696E69742063616C6C65642E0A0015
:1007A0005B735D000A002530313662003A20002577
:1007B000303258000A722F632030313233343536EC
:1007C0003738394142434445460A001E0F050004AC
:1007D0007F3F1F643214643214783C1E1E140A05D5
:1007E0000A0025303258006C65645F7461736B3A9F
:1007F0002000290A002575002F002575005D2800BE
:1008000025640020002564002000256400200025C8
:1008100064007C0025303258006D6F7573656B6520
:1008200079205B62746E7C782079207620685D2860
:100830007265702F61636C293A205B000001010131
:10084000010101010101020202020202020202038D
:10085000030303030303030404040404040405055D
:100860000505050606060606070707070708080820
:1008700008090909090A0A0A0B0B0B0C0C0C0D0DCF
:100880000D0E0E0E0F0F0F10101111111212131367
:100890001414151516161717181819191A1A1B1BE0
:1008A0001C1D1D1E1E1F202021222223242425263C
:1008B00026272829292A2B2C2D2D2E2F3031323274
:1008C000333435363738393A3B3C3D3E3F40414280
:1008D000434445464748494A4C4D4E4F5051535466
:1008E000555658595A5B5D5E5F616264656668691A
:1008F0006B6C6D6F7072737577787A7B7D7E80829A
:10090000838587888A8C8E8F91939596989A9C9EE2
:10091000A0A2A3A5A7A9ABADAFB1B3B5B7BABCBEF2
:10092000C0C2C4C6C9CBCDCFD1D4D6D8DBDDDFE2BF
:10093000E4E7E9EBEEF0F3F5F8FAFDFF7267626CBD
:10094000696768742074696D657220656E61626C98
:1009500065642E0A007267626C69676874206D6F47
:100960006465205B4E4F454550524F4D5D3A202502
:10097000750A007267626C69676874206D6F6465E0
:10098000205B454550524F4D5D3A2025750A007257
:1009900067626C6967687420736574206873762079
:1009A0005B4E4F454550524F4D5D3A2025752C25E5
:1009B000752C25750A007267626C6967687420730C
:1009C000657420687376205B454550524F4D5D3A03
:1009D0002025752C25752C25750A007267626C69B7
:1009E000676874207261696E626F77207365742026
:1009F0006873763A2025642C25642C25642C257593
:100A00000A00FFAA7F55407267626C6967687420AC
:100A100074696D65722064697361626C652E0A0089
:100A20002223252628292A2C2D2F303233353638FB
:100A30003A3B3D3E4042434547494A4C4E50515354
:100A40005557595A5C5E6062646668696B6D6F7178
:100A5000737577797B7D7F81838587898A8C8E907A
:100A6000929496989A9C9E9FA1A3A5A7A8AAACAE83
:100A7000AFB1B3B4B6B8B9BBBCBEBFC1C2C3C5C6C3
:100A8000C7C9CACBCCCDCED0D1D2D2D3D4D5D6D76C
:100A9000D7D8D9D9DADADBDBDBDCDCDCDCDCDDDDAA
:100AA000DDDDDCDCDCDCDCDBDBDBDADAD9D9D8D79A
:100AB000D7D6D5D4D3D2D2D1D0CECDCCCBCAC9C73C
:100AC000C6C5C3C2C1BFBEBCBBB9B8B6B4B3B1AF73
:100AD000AEACAAA8A7A5A3A19F9E9C9A9896949213
:100AE000908E8C8A89878583817F7D7B79777573EA
:100AF000716F6D6B6968666462605E5C5A595755C8
:100B00005351504E4C4A4947454342403E3D3B3A83
:100B10003836353332302F2D2C2A2928262523220A
:100B200000000000000000000000000101020304BA
:100B30000506080A0C0F1114181C2024292E33391D
:100B40003F464C535B626A7179818A929AA2AAB23B
:100B5000B9C1C8CFD5DCE1E7EBF0F4F7FAFCFDFE54
:100B6000FFFEFDFCFAF7F4F0EBE7E1DCD5CFC8C1FE
:100B7000B9B2AAA29A928A8179716A625B534C4691
:100B80003F39332E2924201C1814110F0C0A080693
:100B90000504030201010000000000000000000045
:100BA0005B435D005B445D005B535D005B575D0034
:100BB0005B525D0009025B00030100A0FA0904001A
:100BC0000001030101000921110100012240000779
:100BD0000581030800010904010001030000000968
:100BE0002111010001227B00070582032000010979
:100BF0000402000203000000092111010001222269
:100C000000070583032000010705030320000112EC
:100C10000100020000000864697500010001020083
:100C2000010A03490044003700350000000E034963
:100C30000044004F00420041004F0000000403093F
:100C4000040011241FBECFEFDAE0DEBFCDBF04B633
:100C500003FE18C080911D0390911E03A0911F03F5
:100C6000B09120038730904BA740B04B59F41092BD
:100C70001D0310921E0310921F0310922003E0E048
:100C8000F8E3099523E0A4EAB1E001C01D92AD317B
:100C9000B207E1F711E0A0E0B1E0ECEFFBE502C044
:100CA00005900D92A43AB107D9F70E94BD260C9485
:100CB000A12D0C940000FF93EF93E091A401F0911B
:100CC000A501309709F00995EF91FF910895FC0176
:100CD0008591803011F0EFDFFBCF0895FF27E0E230
:100CE00030E247FF0CC0419597FF09C0EDE26095E7
:100CF000709580959095611D711D811D911D27FF37
:100D000002C0219530E350E2AA27660F771F881FA3
:100D1000991FAA1FA41710F0A41B63955A95A9F751
:100D2000AA3008F0A95FA05DAF93F3956115710536
:100D30008105910541F7ED3211F4EF93F395F21728
:100D400018F43F93F395FBCF8F91B5DFFA95E1F758
:100D50000895E991F9918591803021F0853219F05B
:100D6000AADFF9CF089520E0E89455915532C1F3F8
:100D7000503311F4689455915A3348F4505390F31A
:100D8000220F022E220F220F200D250FF4CF0EF47A
:100D9000219589919991533619F3533729F1533598
:100DA00059F1BC0188279927E8945C3621F4899190
:100DB000999168945591543639F446EF7EF077FF57
:100DC0000DC08FEF9FEF0AC055374AE039F0583514
:100DD00040E121F0523642E009F00895FF93EF938D
:100DE0007DDFEF91FF91B7CFFF93EF93FC018191EE
:100DF0008030B9F360DFFBCFFF93EF9368DFF1CF73
:100E0000DF93CF93CDB7DEB72596A3DFCF91DF91E8
:100E10000895482F209119039091E00257E029137B
:100E200002C080E0089530E0529FF001539FF00D22
:100E30001124EF51FD4F8181681306C08081481352
:100E400003C085818111EECF2F5F3F4F2770E7CF21
:100E5000E8EDF0E080818E7F80831092E2001092B6
:100E6000DA001092E100A0EEB0E08C9181608C93EA
:100E700080818F77808319BCA7EDB0E08C918E7F45
:100E80008C9380818F7E80831092C9020895209177
:100E9000E4003091E50095E6A9012091EC00822F55
:100EA000817020FF06C08091E80080FF06C080E0CE
:100EB00008952091E80022FD1AC08091D60288236F
:100EC00089F0853089F08091EB0085FD0FC020917D
:100ED000E4003091E50042175307F9F29150E1F632
:100EE00084E0089582E0089583E0089581E0089504
:100EF0008091D80287FF13C08091E80082FF06C06E
:100F00008091E8008B778093E80004C08091D6023E
:100F10008111F2CF08958091D6028823D9F3809170
:100F2000E80080FFF8CF8091E8008E77ECCF982F13
:100F30009093E900242F762F50E0891731F07091BB
:100F4000EC002091ED005091F00021FD07C09F5F63
:100F5000973071F78093E90081E008953091EB00BC
:100F60003E7F3093EB003091ED003D7F3093ED00FC
:100F70003091EB0031603093EB007093EC002093E4
:100F8000ED005093F0002091EE0027FDE0CF80E0CF
:100F90000895B0E0A0E0EFECF7E00C940D2CC8ED64
:100FA000D0E088818F7E8883E7EDF0E080818160EA
:100FB000808384E082BF81E08093C90288818E7F34
:100FC000888302EE10E0F80110821092DA0081EEC0
:100FD000C82ED12CF601108288818F778883888172
:100FE0008068888388818F7D888319BC1092D6029F
:100FF0001092D7021092D5021092D40290EEE92EF0
:10100000F12CF70180818B7F8083888181608883C8
:1010100042E060E080E00E949707F60180818E7FC9
:101020008083F801808181608083808188608083F3
:10103000F70180818E7F8083888180618883CDB72E
:10104000DEB7E8E00C94292CFC018091DE0290913F
:10105000DF0286179707A0F06115710529F49091BA
:10106000E8009E779093E80090E06115710551F4D7
:10107000911108C08091E80082FF34C080E008959B
:10108000BC01F2CF8091D6028823C1F18530C1F135
:101090008091E80083FD30C08091E80082FDEACFB6
:1010A0008091E80080FFE1CF8091F3002091F20071
:1010B000382F6115710519F02830310558F091E08D
:1010C0002830310509F090E02091E8002E77209338
:1010D000E800CBCF81918093F100615071092F5FBF
:1010E0003F4FE7CF8091D602882341F0853041F011
:1010F0008091E80083FFBECF81E0089582E00895EB
:1011000083E008958091CB0208959C014FB7F89435
:101110008091C2029091C302A091C402B091C50215
:101120004FBF821B930B08952FB7F8948091C20292
:101130009091C302A091C402B091C5022FBF08953F
:10114000A3E0B0E0E6EAF8E00C94132C2091BF0293
:101150003091C00228173907A1F09093C002809304
:10116000BF02E091BD02F091BE02309751F024E041
:1011700029839B838A830680F781E02DCE01019627
:1011800009952396E2E00C942F2CA3E0B0E0EBEC61
:10119000F8E00C94132C2091BB023091BC0228176C
:1011A0003907A1F09093BC028093BB02E091BD028D
:1011B000F091BE02309751F023E029839B838A830C
:1011C0000680F781E02DCE01019609952396E2E095
:1011D0000C942F2CE091BD02F091BE02309729F0C3
:1011E0000190F081E02D0995089580E00895B0E028
:1011F000A0E0EDEFF8E00C94092C8C0180918600C2
:10120000909187006CE070E00E94C62B6017710718
:1012100058F0C80169E070E00E94C62BCB01CDB741
:10122000DEB7ECE00C94252C80918600909187002D
:10123000E0908600F0908700C0908600D0908700F4
:10124000C6E0D0E0BE010E94C62B30E020E0060FD1
:10125000171F211D311D4801590185E0880C991C7B
:10126000AA1CBB1C8A95D1F7C701BE010E94C62BE0
:10127000F12CE12CA7019601260F371F411D511DAE
:10128000C501B4010E94702D69017A01E0918600C8
:10129000F0918700CA01B9010E94AA2B9B01AC0101
:1012A000DF010E945D2D9B01AC01C701B6010E94C8
:1012B000AA2B2FE096958795779567952A95D1F774
:1012C000009186001091870030E020E00617170794
:1012D0002807390708F0A2CF609186007091870037
:1012E0009DCF8430F0F481111DC090918000977FD4
:1012F000909380002F98A0918600B0918700282FAE
:1013000030E00E94922D23E030E040E050E00E9467
:10131000702DC9010E94F70890938D0080938C0076
:10132000089583E090918000986090938000E3CFCF
:10133000FA01811101C0FB0109950895089580917A
:10134000AF02982F9E7F29F4817082608093AF0254
:1013500008958635E8F381708465F8CFAF92BF9227
:10136000DF92EF92FF920F931F93CF93DF93082F9B
:10137000162FE901E42FF0E0E45CF74F611110C093
:10138000E4915E2F4E2F4983E8835A83DF91CF91FA
:101390001F910F91FF90EF90DF90BF90AF90089555
:1013A000E62EF12C4491D42EE42FF0E026E0829F2B
:1013B000C00111242FEF30E0B9010E94C62B802F0D
:1013C00090E0880F991F55E5569FD001579FB00DAB
:1013D00011248A1B9B0B982F990F890F5901AE1866
:1013E000BF08AE9ED001AF9EB00DBE9EB00D1124C1
:1013F0005B2F189F80011124012F11275901A01A7A
:10140000B10AAE9E8001AF9E100DBE9E100D11243C
:101410005901A81AB108AE9CC001AF9C900DBE9CAA
:10142000900D1124892F9927281B390B2E9FC0015D
:101430002F9F900D3E9F900D1124E92F6230710572
:10144000A1F050F46115710509F49DCF613071056B
:1014500081F0EB2F512F97CF6430710569F080F048
:101460006630710509F48FCFF4CFE42F4B2F592F3D
:101470008ACFE42F412F87CFEB2F542F492F83CFD3
:101480004B2F5D2DE12F7FCF8091170280FD16C07D
:1014900081FD16C082FD16C0809116028823A1F03E
:1014A000883280F428E0829FC001112468E270E055
:1014B0000E94DA2B862F672B39F0089582E0089579
:1014C00084E0089588E0089581E0089580911702EE
:1014D00080FD14C081FD14C082FD16C080911802E9
:1014E000882381F08E3180F420E5829FC001112491
:1014F0006EE170E00E94DA2B862F089584E1089552
:1015000088E2089588E0089580E50895F894E82F2A
:10151000E295EF70F0E031A1282F2F7081E090E08C
:1015200001C0880F2A95EAF7982F9095932391A3ED
:1015300092A1892B82A3789408959091FE0192FF45
:1015400006C0282F28712830F9F4877F846093FF24
:1015500006C0282F28712831F1F4877E84612091FC
:10156000FF0120FF06C0382F38713830D9F4877F4B
:10157000816021FF06C0282F28712831D1F4877E91
:10158000816194FD877E0895282F24712430F9F617
:101590008B7F8860DCCF282F2471243101F78B7E6C
:1015A0008861DDCF382F3171313019F78E7F886037
:1015B000E0CF282F2171213121F78E7E8861E1CF84
:1015C00082389105B9F1B0F48133910509F47DC0F9
:1015D00048F48932910509F46DC08A32910509F405
:1015E0007BC008958533910509F45FC08933910567
:1015F00009F10895833E9105D9F138F4803E9105B3
:1016000029F1823E910579F10895863E9105D9F13F
:10161000873E910509F43EC0843E910541F5209135
:10162000FF0121FF24C08091FE0184FD19C087EED7
:1016300090E008952091FE01237009F05AC0209196
:10164000FF0123FF14C089E290E008952091FE017C
:1016500020FD38C03091FF0130FF09C024FF43C096
:1016600090E080E008952091FE0122FDF7CF0895DB
:101670002091FE0122FD3AC03091FF0130FD39C0BA
:1016800024FFF5CFEDCF2091FE0123FFF0CF24FD05
:10169000E7CFCDCF2091FE0123FD2EC03091FF0179
:1016A00031FFEECF84EE90E008952091FE0125FFFA
:1016B000DECFC9CF2091FE0125FD21C02091FF0181
:1016C00023FFD5CF89E390E0D2CF2091FE0126FF02
:1016D000CECF8AE290E008952091FE0126FFC7CF89
:1016E00081E390E0089583EE90E0089582EE90E02B
:1016F000089580EE90E0089586EE90E0089585E3E9
:1017000090E00895972F7530B8F46F30A8F48530C5
:10171000B0F470E02FE0929F600D711D1124FB0169
:101720009BE4899FE00DF11D1124EE0FFF1FE75A86
:10173000FC4F85919491089580E090E0089581E0B8
:10174000FCCF1F93CF93DF930E94E00AEC01C115F9
:1017500080E5D807F0F5C11580E4D80708F09CC0F3
:10176000C03ED10520F5CD3CD10508F082C0C83A75
:10177000D10578F4C53AD10508F073C0C130D10560
:1017800019F1209709F1C430D105F0F4D0E0C0E0A0
:101790001BC0C33CD105D0F7C85AD0E0CC0FDD1F29
:1017A000C15EDE4F0990D881C02DD4640DC0C11533
:1017B00080E2D80708F0D1C0C11581E0D80708F051
:1017C0005AC0C83ED10510F7CE01DF91CF911F91CD
:1017D0000895C03682E5D80718F5C03482E5D807E9
:1017E00008F06BC0C03282E5D80708F05FC0C115B1
:1017F00082E5D80708F497C02C2F2695269580E21D
:10180000289F900111248C2F8370C1E0D0E002C08A
:10181000CC0FDD1F8A95E2F7C22BD32BDD68D4CF26
:10182000C03A82E5D80760F4C03882E5D80708F4EA
:1018300059C0CF71D0E0DC2FCC27C46FD06AC4CFA1
:10184000C03C82E5D80708F462C0C03E82E5D807F4
:1018500008F09CCFDC2FCC27CC27DF71C06FD06A7B
:10186000B3CFC55AD0E0C45EDE4FC881D0E0D064AB
:10187000ABCFD065A9CF8D2F0E949D0A182FCE0126
:1018800099270E94E00AC12FD0E0DC2FCC27CC277B
:10189000DF71C82BD92B98CFCE0199270E94E00A7F
:1018A000CC27DF70C82BD92BD06A8ECFCF71D0E078
:1018B000DC2FCC27C16FD06A87CF2C2F2695269599
:1018C000277080E2289F900111248C2F8370C1E043
:1018D000D0E002C0CC0FDD1F8A95E2F7C22BD32BDC
:1018E000DC6872CF2C2F26952695277080E2289FE2
:1018F000900111248C2F8370C1E0D0E002C0CC0F86
:10190000DD1F8A95E2F7C22BD32BDA685DCF8C2FCF
:101910008F710E949D0AC82FD0E0DC2FCC27CC27E6
:10192000DF71D06251CF8C2F8F710E949D0A55E0DC
:10193000D695C7955A95E1F7CF70D0E0DC2FCC272C
:10194000282F30E084FF05C044E0220F331F4A9562
:10195000E1F7C22BD32BD06937CF8D2F8F710E9427
:101960009D0A182FCE0199270E94E00AC12FD0E0CE
:10197000DC2FCC27CC27DF71C82BD92BD2CF809579
:101980009091EA0198239093EA010895E8EAF1E042
:101990009191891303C0DF0111971C9291E0EE3AF7
:1019A000F907B1F70895A8EAB1E0EFEF90E02D91C3
:1019B000821751F0EF3F19F4211101C0E92F9F5F09
:1019C0009630A9F7EF3F09F408950E2E000CFF0B97
:1019D000EA55FE4F82830895809119039091E002A9
:1019E000981301C008958F5F8770FACFB0E0A0E030
:1019F000ECEFFCE00C940C2C7C010091FC011091AC
:101A0000FD018091EB019091EC01082B192BCFE0A7
:101A1000D0E0CC24C394D12CBC2EC6010C2E02C025
:101A2000880F991F0A94E2F780239123892B49F4A8
:101A3000219790F7B12C8B2DCDB7DEB7E9E00C9450
:101A4000282CB7018C2F0E94820B0E94A10B0197BA
:101A500079F3F1CFCF93DF93EC010E94F60CBE0136
:101A60000E94820B0E94A10BDF91CF9108959530C7
:101A700078F58F3068F5E82FF0E08FE0989FE00D63
:101A8000F11D11249E2F977083E0F695E7958A95B6
:101A9000E1F7EE0FFF1FEE0FFF1FE055FE4F50E086
:101AA00040E080E0219130E0092E02C03695279574
:101AB0000A94E2F721703327042E01C0220F0A9402
:101AC000EAF7822B4F5F5F4F4430510559F7089575
:101AD00080E00895953098F58F3088F5E82FF0E094
:101AE0008FE0989FE00DF11D11248E2F877041E04B
:101AF00001C0440F8A95EAF783E0F695E7958A9549
:101B0000E1F7EE0FFF1FEE0FFF1FE055FE4F30E035
:101B100020E070E05191DF011197CB01022E02C04D
:101B2000969587950A94E2F781708195852784239D
:101B300085278C932F5F3F4F2430310559F7089547
:101B40009093FD018093FC01089521E030E002C0F4
:101B5000220F331F8A95E2F7209530958091FC0182
:101B60009091FD01822393230E94A00D08959091EE
:101B7000DF01809589238093DF01282F277069F486
:101B8000891759F09091FF0192FF07C086958695BD
:101B900086950E94A50D1092DF01089521E030E0A6
:101BA00002C0220F331F8A95E2F78091FC019091C9
:101BB000FD01822B932B0E94A00D08959093EC01C0
:101BC0008093EB010895FC0124812223C1F08081E0
:101BD00091810E942A0D92959F70963091F058F451
:101BE000925F9F70923058F4803F19F030F4883E35
:101BF00030F481E008959A5FF4CF843FD1F380E020
:101C00000895883EB0F3813FD1F7F3CF829590E0FD
:101C10009C01220F331F220F331F2C7C9595879533
:101C2000959587958373282B30E0C901880F991FFC
:101C30008A7A359527952575822B0895A6E0B0E020
:101C4000E4E2FEE00C94122C49835A8349815A81C4
:101C50009923A1F0222391F0CA010E94F60C182FBB
:101C6000682F89819A810E946A0D69817A81812F0A
:101C70000E94820B2696E3E00C942E2CCA010E944F
:101C8000370D182FF2CF9FB7F8941092C7029FBF5D
:101C90009091D602943009F048C02091E9002F704D
:101CA0003091EC00932F917030FD90E8922B23E05F
:101CB0002093E9002091EB0020FF34C02091EE003A
:101CC00027FF30C02091C602222321F02091E80096
:101CD00025FF28C01092C60226E03091E80035FFAB
:101CE00014C08093F1008091E80085FD27C08091A9
:101CF000E80080FFFCCF8091E8008E778093E800B9
:101D00009F709093E90080E008953091D6023430BE
:101D100049F43091EB0035FD05C0215041F481E0DC
:101D20008093C6029F709093E9008FEF0895EFE9CA
:101D3000FFE03197F1F700C00000CFCF8FB7F894E4
:101D400021E02093C7028FBFDBCF0F931F93CF9368
:101D5000DF938B01EA019091D602943061F5809374
:101D6000E9008FEF9091E800815095FD06C095ED58
:101D70009A95F1F700008111F5CF8091E80085FF79
:101D80001AC00E944707811111C08091E80085FDAB
:101D900006C08091E8008E778093E800F2CFF801CA
:101DA00081918F018093F100219779F78091E8006C
:101DB0008E778093E800DF91CF911F910F91089566
:101DC00043E050E0BC0182E00E94A50E089546E089
:101DD00050E0BC0182E00E94A50E0895CF93DF93EE
:101DE000EC0148E050E0BC0181E00E94A50E88E0D3
:101DF000FE01ACECB2E001900D928A95E1F7DF9123
:101E0000CF91089581E08093E00080E28093D80034
:101E10001092C9008FE19EE40197F1F700C0000025
:101E200087E090EBDC0180931D0390931E03A09349
:101E30001F03B093200388E19CE00FB6F894A895A7
:101E4000809360000FBE90936000FFCF8091AF023F
:101E500080FD0AC0EFE2F2E0118210821282339616
:101E600052E0EF35F507C1F7809A31B33E7F21B3D9
:101E700021604FB7F8948FE292E0FC015191CF01BD
:101E800068E021BB000000C057FF31BB550F0000C8
:101E900000C000C000C031BB00C06A9591F7F2E0FD
:101EA0008F359F0751F74FBF8FE594E00197F1F70A
:101EB00000C000000895EF92FF920F931F93CF93FD
:101EC000DF938C01CFE2D2E0F12CE12CF801948178
:101ED0006091B1028091B002F8E0EF16F104ECF4E9
:101EE0009923E9F09E014091B2020E94AE092FEFC2
:101EF000E21AF20A239680E1E816F10439F70E940B
:101F0000260FF801848190E00196817099278483DF
:101F1000CDB7DEB7E6E00C942B2C992319F39E0184
:101F200040E0E3CFB0E0A0E0E8E9FFE00C94092C4A
:101F3000EC014C81042F10E09801D8010E94922DF1
:101F40009B01AC010E945D2D4B015C01E0E2F0E0E1
:101F5000E01BF10BA5E5B0E0AC019B010E945D2DFB
:101F60006B017C019F01DF010E94F42B9B01AC01FE
:101F70000E94682D9B01AC01280D391D4A1D5B1D77
:101F8000C701B6010E94702DF22E822F90E039E237
:101F90003F1598F143E0249F900111243595279532
:101FA000122F10959FE2C92E92E0D92E00E085E510
:101FB000E82EEF188E2D01FD8F2D9601412F609197
:101FC000B1020E94AE090F5F53E0C50ED11C003173
:101FD00089F70E94260F9C8181E0992319F09032A5
:101FE00019F48FEF8093190180911901890F8C8367
:101FF000CDB7DEB7ECE00C94252C25E530E0A90147
:10200000481B590BCA019A01220F331F280F391F91
:1020100037FFC4CF2F5F3F4FC1CF0F931F93CF9395
:10202000DF93CFE2D2E0FE0111821082128233965A
:1020300082E0EF35F807C1F710E000E080912D0253
:10204000082E000C990B081719078CF180911801C4
:10205000082E000C990B801791074CF19E014091BE
:10206000B2026091B1028091B0020E94AE090F5F8E
:102070001F4F23960031110509F70E94260F80910A
:10208000170190912D02980F90932D022091180125
:10209000280F20931801121614F49F301CF081951C
:1020A00080931701DF91CF911F910F9108951982AD
:1020B00018821A82DCCFB0E0A0E0E1E6F0E10C94F7
:1020C0000D2CFC018281DD24DA9480FD02C0DD2428
:1020D000D394CFE2D2E010E000E0198218821A8295
:1020E00094E0E92EF12CC12C80912C028C0D8131D1
:1020F000ACF18F70082E000C990B8017910791F4AA
:102100008091B2028E9DA0018F9D500D1124559596
:102110004795559547959E016091B1028091B00217
:102120000E94AE09CD0CF1E0EF1AF108E9F60F5F5D
:102130001F4F23960031110581F60E94260F8091D2
:102140002C0291E0D91210C081110CC08FE0809355
:102150002C02CDB7DEB7E8E00C94292C87FFCACF5C
:10216000805FC8CF8150F3CF90E001968F709927A0
:10217000EECFEF92FF921F93CF93DF93EC018FE2AC
:10218000E82E82E0F82E10E08C8197014091B20297
:102190006091B102810F0E94AE09115F83E0E80EE9
:1021A000F11C103F89F70E94260F9A818C8190FFC5
:1021B00008C08F5F8C83DF91CF911F91FF90EF90CC
:1021C00008958150F7CF9091AF0290FF0CC0EFE2DD
:1021D000F2E0818360834283339692E0EF35F90722
:1021E000C1F70E94260F0895A3E0B0E0EAEFF0E106
:1021F0000C94112C8C0180912E0281110AC09E0139
:102200002F5F3F4F4FEF6FEF0E94AE098A8180939F
:102210002E02F8016481613069F080912E0240E065
:10222000662361F040E0623011F440912E0280E0BC
:1022300060E004C060912E0240E080E00E94E31064
:10224000F801848190E0019663E070E00E94DA2B4F
:1022500084832396E4E00C942D2CA3E0B0E0E3E328
:10226000F1E10C94132C9091AF0290FF0AC09E01F3
:102270002F5F3F4F0E94AE094B8169818A810E9486
:10228000E3102396E2E00C942F2CCF93DF93EC0124
:10229000EFEAF2E0438162818C810E942D118C81F2
:1022A0008F5F8C83DF91CF910895CF93DF93EC0103
:1022B000EC81F0E0E05EF54F4491EFEAF2E06281FC
:1022C00081810E942D118C818F5F8C83DF91CF9152
:1022D0000895682F86E090E00E940A2D0895B0E0EE
:1022E000A0E0E5E7F1E10C94052CFC01628044805C
:1022F00081E08483E0E2FAE07490EFE9FAE0E491AF
:102300000091B2020695015810E0000F111F012F35
:102310001127CFE5D2E02FE2C22E22E0D22E3FEAF3
:10232000832E32E0932EAA24AA94B12C55245A94D9
:10233000E719EE2EF12C82E0861530F08091B00284
:1023400088838091B1028983411016C01B821A8252
:1023500096014A81698188810E94AE09259683E0B1
:10236000C80ED11C8C169D0631F70E94260FCDB7E2
:10237000DEB7E0E10C94212C8B818823E9F08150B9
:102380008B83859DC00111246C8170E00E94C62B57
:10239000FB01FF27E05EF54F8491E82FE719E59DEB
:1023A000C0011124B7010E94C62B8091B202689F20
:1023B000B00111247A83CCCF0E94BC2CB5010E94BD
:1023C000DA2B8017910724F682E0861588F40E94A4
:1023D000BC2CB5010E94DA2B88830E94BC2C209172
:1023E000B1022695622F70E00E94DA2B280F298314
:1023F0001A828091B202893C20F088EC8C838B8316
:10240000A7CF8431D8F784E1F9CF10922B028091C5
:10241000290280FF08C087E09AE09F938F930E9473
:1024200000070F900F9008958091290283FF7EC0CE
:1024300089E198E00E94670680911E021F928F93A7
:1024400084E198E09F938F930E94000782E198E0D7
:102450000E94670680911F02282F082E000C330B64
:102460003F938F938FE098E09F938F930E94000794
:102470008DE098E00E94670680912002282F082EA8
:10248000000C330B3F938F938AE098E09F938F93D8
:102490000E94000788E098E00E9467068091210270
:1024A000282F082E000C330B3F938F9385E098E084
:1024B0009F938F930E94000783E098E00E94670635
:1024C00080912202282F082E000C330B3F938F930C
:1024D00080E098E09F938F930E9400078DEF97E034
:1024E0000E946706809118021F928F938AEF97E0EF
:1024F0009F938F930E94000788EF97E00E946706E2
:10250000809117021F928F9385EF97E09F938F938F
:102510000E94000782EF97E00E9467068DB79EB782
:102520004C960FB6F8949EBF0FBE8DBF0E949408C4
:102530009C0190911F0280912002982B21F03093F2
:102540001C0220931B029091210280912202982B61
:1025500021F030931A0220931902E091BD02F0910C
:10256000BE02309749F082E080931D020480F5811D
:10257000E02D8DE192E009950895662309F45DC090
:102580008D3C41F40E94660A8195809320020E944E
:10259000141208958E3C19F40E94660AF6CF8F3CFF
:1025A00031F40E94660A819580931F02F0CF803D2E
:1025B00019F40E94660AF8CF893D29F40E94440A62
:1025C00080932102E4CF8A3D21F40E94440A819540
:1025D000F7CF8B3D31F40E94440A8195809322020B
:1025E000D6CF8C3D19F40E94440AF8CF9FE2980F91
:1025F000983070F4815D990B21E030E001C0220F2A
:102600008A95EAF780911E02822B80931E02BFCF2B
:102610008D3D31F480911702816080931702B7CF0E
:102620008E3D21F4809117028260F7CF8F3D09F033
:10263000AECF809117028460F0CF40911F028D3C95
:1026400059F48091200287FF0DC0109220024111A1
:102650000BC01092180208C08E3C81F480912002B9
:1026600018169CF3442381F080912102909122025C
:10267000892B09F08CCF1092160289CF8F3C49F438
:1026800047FFF0CF10921F02809120028111ECCF02
:10269000E0CF803D19F41416ACF3E4CF9091210201
:1026A000893D29F41916F4F610922102DBCF8A3DF8
:1026B00019F497FFD7CFF8CF909122028B3D29F4E0
:1026C00097FFD0CF10922202CDCF8C3D19F419166E
:1026D000CCF3C8CF9FE2980F983090F4815D990BAE
:1026E00021E030E0B90102C0660F771F8A95E2F75A
:1026F000CB01809590911E02892380931E02B2CF58
:102700008D3D31F4809117028E7F80931702AACFFE
:102710008E3D21F4809117028D7FF7CF8F3D09F018
:10272000A1CF809117028B7FF0CFB0E0A0E0EBE962
:10273000F3E10C94092C49015A016B017C010E94C0
:102740009F098401A4016A2D7B2D88E090E00E94FE
:102750001C2D94014A2D5B2DB601C70100E20E9499
:10276000552C622F84E290E00E940A2DCDB7DEB78F
:10277000ECE00C94252CA5E0B0E0E1ECF3E10C9446
:10278000032C082F362E542E222E9091AF0290FF4C
:102790004BC0E92FE695AE2FB0E0A759BE4F8C9104
:1027A00080932A029E7F923009F042C09E012F5FE3
:1027B0003F4F802F0E94AE094B8169818A810E9420
:1027C000E3100093B0023092B1025092B202222084
:1027D00009F490C02091AF026091B3027091B402ED
:1027E000302F432D552D8091B5029091B6020E9455
:1027F00095138091290280FF17C08091B2021F9229
:102800008F938091B1021F928F938091B0021F929B
:102810008F9386EB99E09F938F930E9400070FB6EA
:10282000F894DEBF0FBECDBF2596E2E10C941F2CBD
:10283000823019F45090B202C4CF863019F400915E
:10284000B002BFCF8930D9F3893109F0BACFE9514D
:102850002E2F21702C838E2F809581708D83E6958D
:10286000F0E0EE5FF54F1491612E712C3FE2C32E24
:1028700032E0D32EB12CA12CF12CE12C4BED842E87
:1028800049E0942EC50124E0969587952A95E1F7B5
:102890002C81402E21112CC0480E8091290280FFEE
:1028A00012C01F921F931F928D818F931F924F9280
:1028B000FF92EF929F928F920E9400070FB6F894BA
:1028C000DEBF0FBECDBF9601452D632D842D0E9426
:1028D000AE099FEFE91AF90AA60CB71C23E0C20E55
:1028E000D11C80E1E816F10469F60E94260F69CF39
:1028F000481AD3CF8091290280FF96CF1F925F9212
:102900001F923F921F920F938FE899E084CFEFEAD6
:10291000F2E0438128E0421B08F440E021E06281BC
:1029200081810E94BB130895EFEAF2E0438128E021
:10293000420F08F44FEF21E0628181810E94BB13B6
:102940000895EFEAF2E0628128E0621B08F460E09B
:1029500021E0438181810E94BB130895EFEAF2E0F8
:10296000628128E0620F08F46FEF21E043818181EA
:102970000E94BB130895EFEAF2E0818121E04381D8
:10298000628188500E94BB130895EFEAF2E08181D2
:1029900021E043816281885F0E94BB13089580918A
:1029A000B302882319F081508093B3022091AF02C3
:1029B0003091B0024091B1025091B2026091B302E5
:1029C0007091B4028091B5029091B6020E94951365
:1029D00008958091B302833018F48F5F8093B3021F
:1029E0002091AF023091B0024091B1025091B202F9
:1029F0006091B3027091B4028091B5029091B602D9
:102A00000E94951308959091AF0290FF48C0917075
:102A1000811146C092609093AF022091AF0266236D
:102A200009F445C03091B0024091B1025091B20218
:102A30006091B3027091B4028091B5029091B60298
:102A40000E9495138091290280FF0FC08091AF02F0
:102A500086951F928F9383E799E09F938F930E94AF
:102A600000070F900F900F900F906091AF02669546
:102A700070E04BE050E08CE091E00E94CC2C892B80
:102A800001F10E94051281E08093260220E040912E
:102A9000B2026091B1028091B0020E94BB1308950E
:102AA0008B3210F09465B7CF880F982BB4CF8091FC
:102AB000290280FFDACF26951F922F9385E599E0B2
:102AC000CCCF81E080932B020E9494089093240243
:102AD000809323028091290280FFD5CF8CE399E077
:102AE0009F938F930E9400070F900F90CCCF8091FF
:102AF000AF028695815009F48AE261E00E940315D5
:102B000008958091AF0286958F5F8B3208F081E047
:102B100061E00E94031508959091AF0290FF08C0F4
:102B20009695981728F0961718F40E948115089525
:102B300061E00E9403150895EFEAF2E083E08083EC
:102B400011828FEF828383831482758123E030E0CA
:102B50004FEF5FEF60E0868197810E9495130895A3
:102B60000F931F93CF93DF938091EA019091E90136
:102B7000892B8093A6019091E801992391F0892BEC
:102B80008093A60120E088EA91E0FC013191CF0119
:102B900031112F5FF1E08E3A9F07B9F721111092A2
:102BA000E80148E050E060EE71E086EA91E00E94C2
:102BB000D92C892B09F441C088E0E6EAF1E0A0EEC7
:102BC000B1E001900D928A95E1F7E091BD02F0919C
:102BD000BE02309791F10280F381E02D86EA91E008
:102BE00009958091290282FF28C080FF04C087E4F4
:102BF00093E00E946706D0E0C0E001E413E080911A
:102C0000290280FF0EC0FE01EA55FE4F80811F920F
:102C10008F931F930F930E9400070F900F900F90B8
:102C20000F902196C830D10551F78091290280FF7D
:102C300004C08FE393E00E946706DF91CF911F915C
:102C40000F910895882321F00E94BF0C0E94B015B7
:102C50000895882339F09091EA01982B9093EA0126
:102C60000E94B0150895882309F456C0823879F47B
:102C70000E94EA0881FF50C089E30E94D30C0E94A1
:102C8000B01589E30E94C60C0E94B01508958338E0
:102C900059F40E94EA0880FF3FC083E50E94D30CEC
:102CA0000E94B01583E5EECF843859F40E94EA08FB
:102CB00082FF32C087E40E94D30C0E94B01587E4E3
:102CC000E1CF9CEF980F913AE8F290E2980F98309C
:102CD00050F4877091E001C0990F8A95EAF7892F27
:102CE0000E94BF0CD1CF9BE5980F933028F490E061
:102CF00080E00E94C508089598E5980F9B3128F45C
:102D000090E080E00E94A008089593E3980F93312B
:102D100018F460E00E94BD120895CF93C82F882355
:102D2000C9F08238C9F40E94EA0881FD13C089E322
:102D30000E94D30C0E94B0152FEF87EE93E0215034
:102D400080409040E1F700C0000089E30E94C60C7B
:102D50000E94B015CF9108958338A1F40E94EA082B
:102D600080FDF8CF83E50E94D30C0E94B0152FEFB1
:102D700081EE94E0215080409040E1F700C00000D7
:102D800083E5E4CF8438A1F40E94EA0882FDE2CF13
:102D900087E40E94D30C0E94B0152FEF81EE94E0DF
:102DA000215080409040E1F700C0000087E4CECF82
:102DB0008CEF8C0F813A68F4E8EAF1E08191C81752
:102DC000E9F121E0EE3AF207C9F78C2F0E94D30C0B
:102DD000BFCF80E28C0F883068F4C77021E030E00C
:102DE00001C0220FCA95EAF78091EA01822B8093F5
:102DF000EA01AECFEBE5EC0FE33040F4F0E0E45E47
:102E0000FE4F808190E00E94C508A4CFE8E5EC0F5A
:102E1000EB3150F4F0E0EE0FFF1FE15EFE4F8081DA
:102E200091810E94A00896CF83E38C0F833108F034
:102E300091CF61E08C2F0E94BD128CCF8C2F0E940D
:102E4000C60C0E94B015C1CF0F931F93CF93DF9391
:102E5000C62FD42F022FFC0185818823A9F060930F
:102E60001C030E94940890931B0380931A03C7705D
:102E700081E001C0880FCA95EAF70E942916DF9108
:102E8000CF911F910F91089580911C03681335C055
:102E900080911A0390911B030E948508883C91053C
:102EA00060F510E21D0FCD17B9F080E28C0F88306D
:102EB00040F4C77081E001C0880FCA95EAF70E940C
:102EC0002216183048F481E09D2F977001C0880FBA
:102ED0009A95EAF70E942916802F0E948D16802F5E
:102EE0000E943316183058F6D77081E001C0880F61
:102EF000DA95EAF70E942216C2CFC77081E001C0BE
:102F0000880FCA95EAF7F6CFCF93C82F8091FF01BB
:102F100082FB992790F99C17F9F0C0FB82F9809306
:102F2000FF016091FE017091FF0184E090E00E943A
:102F3000282D82E00E94B70D8091290280FF0CC0ED
:102F40001F92CF938AE293E09F938F930E94000792
:102F50000F900F900F900F90CF910895CF931092F4
:102F6000EA01C6E0E8EAF1E0DF018C2F1D928A95C4
:102F7000E9F790E080E00E94C50890E080E00E94C0
:102F8000A0081092E9010E94B015EDE1F2E0DF0126
:102F90001D92CA95E9F7109218021092160210922B
:102FA00017020E941412CF910895AAE2B0E0EBED4F
:102FB000F7E10C94122C88ED92E02091F100DC01F5
:102FC0002D93CD01B2E0803E9B07B9F78091D902E5
:102FD000833009F470C0B8F4813009F447C08230FE
:102FE00009F4B1C08091E80083FF84C28091D802C7
:102FF0009091D9029A3008F07DC2E92FF0E0ED55AA
:10300000F24D0C94EE2B8A3009F48CC08B3009F40D
:103010006FC0893039F78091D802813219F78091D9
:10302000DC029091DD020297E8F68091E800877F4C
:103030008093E8008091E80082FF38C09091F3000F
:103040008091F200029731F48091F100813011F00B
:10305000863021F48091F1008093CB028091E800CA
:103060008B778093E8000E947807BCCF8091D802CC
:10307000813A09F0B7CF8091E800877F8093E8001C
:103080008091DC029091DD02892B61F468E08CEC88
:1030900092E070E00E9424088091E8008B77809392
:1030A000E800A0CF60E090E080E0F3CF8091D6020E
:1030B0008111C0CF97CF8091D802813A09F092CF89
:1030C0008091DC029091DD02892B09F08BCF8091F9
:1030D000E800877F8093E8008091E80080FFFCCFC4
:1030E00080911B018093F1008091E8008E77B9CF29
:1030F0008091D802813209F075CF8091DC029091E5
:10310000DD02892B09F06ECF8091E800877F8093E4
:10311000E8000E9478078091DA0280931B010E94E8
:10312000AE1760CF8091D802813209F05BCF8091D9
:10313000E800877F8093E8000E9478078091DB0297
:103140008093CA024FCF8091D802813A09F04ACFCA
:103150008091E800877F8093E8008091E80080FFFD
:10316000FCCF8091CA02BECF803899F0823809F036
:10317000C1C18091DC028F70873008F0BBC18093A1
:10318000E9008091EB0085FB882780F91092E90027
:1031900006C08091D4029091D502911182609091E5
:1031A000E800977F9093E8008093F1001092F1007F
:1031B0008091E8008E779AC1882309F488C1823013
:1031C00009F098C18091DA0281118BC18091DC02F3
:1031D0008F702FEF280F263008F08CC18093E90004
:1031E0002091EB0020FF7DC1933031F48091EB0002
:1031F00080628093EB0075C19091EB009061909399
:10320000EB0021E030E001C0220F8A95EAF720931D
:10321000EA001092EA008091EB008860EACF811109
:1032200069C11091DA021F778091E3008078812BC9
:103230008093E3008091E800877F8093E8000E94FC
:1032400078078091E80080FFFCCF8091E3008068E0
:103250008093E30082E0111183E08093D6024AC19B
:103260008058823008F046C12091DA023091DB02AA
:103270002C3DE3E03E07A1F583E08A838AE289835F
:103280004FB7F894DE01139620E03EE051E2E32FC1
:10329000F0E050935700E49120FF03C0E295EF70F7
:1032A0003F5FEF708E2F90E0EA30C0F0C7968D93AD
:1032B0009D932F5F243159F74FBF8091E800877F9E
:1032C0008093E8006AE270E0CE0101960E94240833
:1032D0008091E8008B778093E8000CC1C096E7CF1F
:1032E0008091DC029091DD02432F55274330510538
:1032F00009F44AC078F54130510509F47AC08BE5EC
:1033000090E0E4EBFBE04230510509F0F3C020917E
:10331000E800277F2093E8002091DE023091DF0251
:103320008217930708F49C0140E02115310509F04C
:1033300065C0411163C08091E80082FDC9CF8091D2
:10334000D602882329F2853019F28091E80083FFA4
:10335000F2CFBECF4132510509F43CC04232510593
:1033600009F0C8C08330910508F0C4C0FC01EE0F1D
:10337000FF1FE956FE4F0190F081E02D8C569E4FC5
:10338000DC018C9190E01AC0332721303105D1F057
:103390002115310561F02230310509F0ABC0E1E2C1
:1033A000FCE0E4918E2F90E0E1E2FCE007C0EDE369
:1033B000FCE0E4918E2F90E0EDE3FCE0009709F44F
:1033C00099C0A5CFEDE2FCE0E4918E2F90E0EDE214
:1033D000FCE0F4CF8330910508F08CC0880F991F72
:1033E000FC01E356FE4F0190F081E02D89E090E072
:1033F0008ECF82E190E0EFE0FCE089CF8091D602B1
:10340000882309F465CF853009F462CF8091E80004
:1034100083FD5ECF8091E80082FD8DCF8091E80032
:1034200080FF83CF9091F3008091F2002115310548
:1034300019F08830910550F041E0089709F040E01C
:103440008091E8008E778093E8006FCF449140939D
:10345000F1003196215031090196E8CF803809F00A
:1034600049C08091E800877F8093E8008091D7026F
:103470008093F1009DCE81113DC01091DA0212308F
:10348000C8F58091E800877F8093E8001093D70209
:103490000E947807112311F084E005C08091E300B9
:1034A00087FDFACF81E08093D60242E061EC81E0B3
:1034B0000E94970742E261EC82E00E94970742E295
:1034C00061EC83E00E9497078091D60213C080913F
:1034D000DA02813079F481E0933009F080E0809362
:1034E000D5021092E9008091E800877F8093E80080
:1034F0000E9478078091E80083FF0AC08091E8006D
:10350000877F8093E8008091EB0080628093EB00DE
:10351000AA96E3E00C942E2C0E94AE172FEF84E3C2
:103520009CE0215080409040E1F700C0000088E11D
:103530009CE00FB6F894A895809360000FBE90931E
:103540006000FFCFB0E0A0E0E8EAFAE10C940B2CB9
:103550008C01FC018481882309F43EC021E0408174
:1035600051816281738195810E941E0EEC01F801E8
:103570008581FE01882309F4F2C5F857E730F1058B
:1035800008F0E2C5E355F24D0C94EE2B8091B702A2
:10359000877088618093B702887F91E009F490E09A
:1035A0008091B70290FB80F98093B70283E00E947C
:1035B00071098091B7020E9469118091DF018770C3
:1035C00059F0F8018581882339F08091FF0182FF4D
:1035D00003C082E00E94B70DCDB7DEB7EAE00C94DD
:1035E000272C8091B70287708E7F8093B70280E08E
:1035F000DECF8091B702982F987F79F08850809322
:10360000B702887F91E009F490E08091B70290FBC7
:1036100080F98093B7020E9469118091290280FF8E
:1036200028C58091B7028695869586951F928F93BF
:1036300089E891E09F938F930E9400070F900F906D
:103640000F900F9016C58091B702982F969596957A
:103650009695933040F49F5F990F990F990F87705B
:10366000892B8093B7028091B70281608093B70263
:103670000E9469118091290280FFFBC48091B702EA
:103680008695869586951F928F9381EA91E0D2CF99
:10369000C091B702C1708091290280FFCCC41F92F3
:1036A000CF938EED91E09F938F930E9400070F9030
:1036B0000F900F900F90CC2309F4BFC48091B702F4
:1036C00080FF7BCF8091B7028E7F8093B7020E94EC
:1036D00069118091290280FF08C089EB91E09F93D6
:1036E0008F930E9400070F900F9080E00E94710955
:1036F00064CF9091B702892F8695869586958F5FC6
:103700008F719770843010F5880F880F880F892B80
:103710008093B7028091B702887F91E009F490E02E
:103720008091B70290FB80F98093B7020E946911E3
:103730008091290280FF9DC48091B702869586956D
:1037400086951F928F9384EF91E074CF9093B70288
:10375000E1CFC091B702C695C1708091290280FF68
:103760008EC41F92CF9381E492E09F938F930E9427
:1037700000070F900F900F900F90CC2309F481C495
:103780008091B70281FF19CF8091B7028D7F80931E
:10379000B7020E9469118091290280FF08C088E069
:1037A00092E09F938F930E9400070F900F9080915B
:1037B0006F008E7F80936F005CC426E241EE61EE65
:1037C000C8010E942417F9CE27E245EE65EEF8CF36
:1037D00026E241EE60EEF4CF27E245EE64EEF0CF54
:1037E00026E241EE62EEECCF27E245EE66EEE8CF50
:1037F00028E241E0EBCF10921C03CE019057839753
:1038000008F060C484E090E00E94F42C9093FF01E3
:103810008093FE01FE01E150F047E232F10520F411
:10382000EC54F24D0C94EE2B8091FE01816080935C
:10383000FE0195C08091FF0188608093FF018FC0D9
:103840008091FE018260F3CF8091FE018460EFCF12
:103850008091FE018860EBCF8091FF018160EDCF08
:103860008091FF018260E9CF8091FE018061DFCF0E
:103870008091FE018062DBCF8091FE018064D7CF12
:103880000E94AE178091FE018068D1CF8091FE0129
:103890008C60CDCF8091FF018360CFCF8091FE01FE
:1038A0008E7FC5CF8091FF01877FC7CF8091FE01BA
:1038B0008D7FBDCF8091FE018B7FB9CF8091FE01BE
:1038C000877FB5CF8091FF018E7FB7CF8091FF01B9
:1038D0008D7FB3CF8091FE018F7EA9CF8091FE01B5
:1038E0008F7DA5CF8091FE018F7BA1CF0E94AE1767
:1038F0008091FE018F779BCF8091FE01837F97CFD0
:103900008091FF018C7F99CF8091FE0182FB9927E6
:1039100090F921E0922790FB82F990FB83F987CF01
:103920008091FF01982F909591708E7F892B90FB4D
:1039300081F983CF9091FE01892F8F7B96FF806460
:1039400076CF0E94AE179091FE01892F97FB87F9E1
:1039500080586DCF61E08EE090E00E940A2D60916A
:10396000FE017091FF0184E090E00E94282D0E94EA
:10397000AE1723CE60E0EFCF9091FE01892F8F7EAE
:1039800094FF806154CF9091FE01892F8E7F90FF2C
:1039900081604DCF9091FF01892F877F93FF8860D1
:1039A0004CCF85E39EC38091AE01811104C089E2B2
:1039B0000E94C60C98C385E3FBCF8091290280FF4B
:1039C00010C08091AF02809581701F928F9380ED1F
:1039D00092E09F938F930E9400070F900F900F909B
:1039E0000F902091AF0220FF2BC02E7F2093AF02BB
:1039F0003091B0024091B1025091B2026091B30295
:103A00007091B4028091B5029091B6020E94951314
:103A10008091290280FF0FC08091AF0281701F92B8
:103A20008F9381E692E09F938F930E9400070F90FF
:103A30000F900F900F900E9405120E94260FBDCD8F
:103A400021602093AF028091290280FF0DC01F9258
:103A500081E08F9389E992E09F938F930E94000702
:103A60000F900F900F900F908091AF0261E08695BC
:103A70000E940315A2CD47E755E161E875E10E9478
:103A800098099BCD41E855E167E775E1F8CF4BEB2D
:103A900054E165EC74E1F3CF45EC54E16BEB74E178
:103AA000EECF41EA54E16EEA74E1E9CF4EEA54E127
:103AB00061EA74E1E4CF47E854E164E974E1DFCFFF
:103AC00044E954E167E874E1DACF4FEC54E169EE80
:103AD00074E1D5CF49EE54E16FEC74E1D0CF61E0F1
:103AE00081E0C6CF65E082E00E948C1566CD68E07B
:103AF00086E0FACF6EE089E0F7CF64E18FE0F4CFA3
:103B000067E185E1F1CF61E088E1B2CF62E289E16E
:103B1000EBCF61E083E2ACCF6AE285E2E5CF909142
:103B20002902892F8E7F90FF81608093290280FF78
:103B300005C089E193E00E9467063FCD87E093E0EE
:103B4000FACF6FEF7FEF90E080E00E94282D0E9477
:103B50008C1A8091FF0182FB882780F991E08927E8
:103B60000E948417F8018581C081D181882309F4DE
:103B70004AC0CE010E94F60CF82E682FCE010E949A
:103B80006A0DBE018F2D0E94820B0E94A10BD82FBF
:103B9000C92FA82EF801C580B680B2943FE0B322A9
:103BA0008091DF018770F1F0FC2CCC20E1F0892FAF
:103BB000807F803451F080E28D0F883098F0B11012
:103BC00004C0892F807E803269F08091FF0182FFDE
:103BD00009C082E00E94B70D8091DF018770FF2449
:103BE000F3948111F12CEC2EE2942FE0E222FBE021
:103BF000FE1508F46DC0EE2DF0E0EA52F24D0C9483
:103C0000EE2B80E0ADCFCE010E94370DF82EB9CF5C
:103C10002C2F2F70D22EC07F19F0D29490EFD92282
:103C2000CC20B9F0DD2069F080E28D0F883010F0F3
:103C3000A11009C08091EA01D82AD092EA010E941D
:103C4000B0158D2F43C08091E901D82AD092E901A7
:103C5000F6CF8D2F0E943316DD20D1F1D05ED83003
:103C600010F0A11004C08D2D0E94BF0C06C0D0948E
:103C70008091E901D822D092E9010E94B01528C0B4
:103C80003C2F3F70D32EC07FC03219F0D29480EF0A
:103C9000D822AA2059F081E0A81609F479C0CC20D6
:103CA00009F485C0BB2009F447C0CBCF8091FF0148
:103CB00082FD3EC0CC20B1F1DD2039F08091EA01D7
:103CC000D82AD092EA010E94B01580E00E948D1699
:103CD0002E2D2850330B2430310510F40E94EA08B1
:103CE000FF20A9F08091DF0180FD11C0F80115824D
:103CF0008695869586950E94CE0DC8010E94A21ACF
:103D00008091DF018695869586950E94A50D20E01D
:103D1000F8014081518162817381848195810E9483
:103D20001E0E5ACC80E00E943316DD2089F29BCF14
:103D3000CC20A1F0B11004C08D2D0E942916C8CF4F
:103D400091E0B912C5CF8091E8019D2D9823D91635
:103D500009F4BECFD82AD092E801BACFB110B8CFBB
:103D60008D2D0E9422169091E8018D2D892329F036
:103D70008D2D809589238093E8018091AF019D2D41
:103D8000982309F4A5CFD094D822D092AF01A0CF28
:103D9000CC2029F0E5E0EB1508F49ACFCDCFF4E084
:103DA000FB1508F495CF8D2D0E94221691CFBB20D4
:103DB000D1F329E3A21209C03FEF87EE93E031501F
:103DC00080409040E1F700C000008D2F0E94331624
:103DD0007FCF8C2F86958695837069F0813009F0AE
:103DE00077CF8D2F9C2F9370C11002C080E090E0A0
:103DF0000E94A0086DCF8D2F9C2F9370C11002C020
:103E000080E090E00E94C50863CF6C2D8D2F0E944A
:103E1000BD125ECF8C2F837009F03FC0C11058CF08
:103E20004D2F429546954770440F440F2D2F2F700C
:103E300030E0042E02C0220F331F0A94E2F790E014
:103E400080E0D4FF09C08FE090E002C0880F991F86
:103E50004A95E2F780959095C695C695C370C23095
:103E600099F078F44091EB015091EC01C13039F0B8
:103E7000822B932B842395230E94DE0D29CF242BA4
:103E8000352B822B932BF8CF822B932B2091EB0198
:103E90003091EC0182279327EFCF8695CC2011F04B
:103EA0008C2F8170882309F413CF4D2F42954695AE
:103EB0004770440F440F2D2F2F7030E0042E02C0A6
:103EC000220F331F0A94E2F790E080E0D4FF09C08C
:103ED0008FE090E002C0880F991F4A95E2F7809525
:103EE0009095C695C695C370C23099F078F440910C
:103EF000FC015091FD01C13039F0822B932B8423BA
:103F000095230E94A00DE4CE242B352B822B932BDE
:103F1000F8CF822B932B2091FC013091FD01822759
:103F20009327EFCFCF70CC2029F08C2F0E94CE0D9D
:103F30008D2F03CF8D2F0E9422168C2F0E94A50D4E
:103F4000C7CE8D2FE2EFAE1699F1EA1570F0F0EFC3
:103F5000AF16D1F021EFA21691F0CC2009F45BC08E
:103F6000B1106FCE8C2F8F7127C033EFA31639F1AC
:103F700094EFA912F2CF8091FF0182FD2EC08C2F09
:103F80008F71CC20D9F218C0CC2069F0E4E0EB1599
:103F900008F49ECECF7181E090E002C0880F991F97
:103FA000CA95E2F7B8CFF5E0FB1508F491CEF2CF51
:103FB0008C2F8F71C110C2CF0E94CE0D89CE90E0A0
:103FC00080E0CC2009F49DCFCF7181E090E002C069
:103FD000880F991FCA95E2F794CFCC2089F0CF7152
:103FE0008C2F0E94CE0D8091FF0182FF07C028E038
:103FF000C29FC001112483608093DF018C2FDCCF2E
:1040000081E00E94B70D31E03B1508F061CE82E0FF
:104010000E94B70D5DCEBB2059F0893309F0D5CE93
:104020008FEF97EEE3E081509040E040E1F7CBCE98
:104030008C2F8F7183CFC11145CB8091B70280FD4A
:10404000BCCA81608093B702813019F489E0809303
:10405000B7028091B7020E9469118091290280FF06
:1040600008C08CEC91E09F938F930E9400070F9003
:104070000F908091B70286958695869537CBC111B2
:1040800083CB8091B70281FD98CA82608093B7028A
:104090000E9469118091290280FF08C085E292E0A8
:1040A0009F938F930E9400070F900F901092BA0277
:1040B0001092B9021092B80280916F0081608093D3
:1040C0006F007BCAC631FCE7DF0781F48091EA010B
:1040D0008A7A91E009F490E09093AE01811161CC6D
:1040E00089E20E94D30C0E94B01567CAC3303CE736
:1040F000D30709F426CDC0F4C1309CE7D90709F4F1
:1041000026CD08F00CCDC115DC4709F02BCD0E945F
:10411000AE17FFEF24E33CE0F15020403040E1F7E0
:1041200000C000000E94020FCB352CE7D20709F433
:1041300068CDCC353CE7D30709F40BCDCA35DC4755
:1041400009F010CD81E00CCDFE01E851FC47E730CD
:10415000F10508F050CBEE51F24D0C94EE2BE851E6
:10416000FC47E730F105B8F3C6312CE7D20709F474
:104170001ACC8091EA018272FE01E052F847E531E3
:10418000F10508F0EFCCE751F24D0C94EE2BCF93F4
:10419000DF938091DE01807F09F04DC08091DD01C9
:1041A000882309F448C0E09119035091E002C091BE
:1041B000D901D091D8016091DA017091DB0147E01B
:1041C0005E17C9F18E2F90E0E49FF0011124EF51AA
:1041D000FD4F2481222391F1489FF001499FF00D6A
:1041E0001124DF01AF51BD4F11962C9111972C1363
:1041F00025C02C912D1322C015962C9115972111B5
:104200001DC012962D913C91261B370B283C310581
:10421000A8F48091DE018F7080618093DE01E95106
:10422000FD4F80818F708061808388ED91E00E94D6
:10423000A21A0E94EC0CDF91CF910895FC013196F7
:10424000E770BECFA4E1B0E0E8E2F1E20C94092C03
:104250008C0186E0F801DE011F9601900D928A958F
:10426000E1F7F8018481E58098EDA92E91E0B92E5F
:104270009091DC01911128C0882319F1EE20F1F012
:10428000C8010E94E30DF82E8823C1F087E0F801F1
:10429000D50101900D928A95E1F78091DC01813082
:1042A00031F48091D8019091D9010E942A0D0E9489
:1042B000C7208F2D6496ECE00C94252CC8010E9439
:1042C000A21AFF24F394F5CFD080C180828093801E
:1042D000F090DD012091DA013091DB01A401421B55
:1042E000530BFF2009F4D9C0483C510508F092C097
:1042F0008823F9F29091D9018091DE01282F207F47
:1043000009F056C0C91214C09091D801D91210C03A
:10431000E11048C08F7080618093DE0188ED91E0EC
:104320000E94A21A8091DE01F8018683F12CC1CF90
:10433000E11038C06C2D8D2D0E9409076C2D8D2D3C
:104340000E940907E82E8111F1CFDF86C88A8F8588
:1043500098890E942A0D292F22952F70243058F415
:104360009F70223088F0992399F0F8019681907F10
:1043700079F4FE2C9ECF2A5F2F70223068F0C8019E
:104380000E94A21AEF2CF5CF992311F0882389F30C
:10439000805E883070F3F3CF803F58F3815F8330C5
:1043A00070F7E7CF8091DE0181608093DE01BECFA0
:1043B000C91207C09091D801D91203C0EE2009F4A8
:1043C0008DC0C8010E94E30D882309F477CFEE2049
:1043D00009F474CF8091DE01803288F02091D801F9
:1043E0003091D901398728879B868A869091DC0194
:1043F0009C871D868E87CE0108960E94A21A87E0B0
:10440000F801A8EDB1E001900D928A95E1F70E94C4
:10441000C72057CF9091DE01292F207F51F488EDDE
:1044200091E00E94A21A87E0F50111928A95E9F7BE
:104430007DCF882309F43DCF8091D9018C1110C024
:104440008091D801D8120CC0E1100AC09683C8012F
:104450000E94A21A87E0F50111928A95E9F729CF07
:10446000C8010E94E30D882309F428CFEE2009F447
:1044700025CF8091DE01803210F22091D801309159
:10448000D9013A8329839C828B829091DC019D83A0
:104490001E828F83CE010196B0CF483C5105D0F6E5
:1044A000882309F40ECFFE2CEE2009F407CF80916B
:1044B000D9018C1120C08091D801D8121CC08091E4
:1044C000DE0180FD0FC0982F907F61F08683903FC2
:1044D00031F0982F907F905F8F70892B8683C80171
:1044E0000E94A21A87E0F801A8EDB1E001900D92B8
:1044F0008A95E1F7DECEC8010E94E30D81117FCFDE
:104500008091DE0181608093DE01C8010E94A21AC1
:10451000D0CEABE1B0E0EFE8F2E20C94112C4E8B80
:104520005F8B688F798F8A8F9B8F192F91111092D3
:10453000E9011D8A86E0FE017696DE011F96019054
:104540000D928A95E1F70A8D002341F021E04F8515
:10455000588969897A89C8010E941E0E0B8B1C8BB1
:1045600087E0FE013F96DE01189601900D928A9534
:10457000E1F7CE0108960E94222181112AC087E02E
:10458000FE013896DE01119601900D928A95E1F7B1
:104590008C858823F1F02091E00230E0C90101967A
:1045A000877099274091190348171906E9F097E099
:1045B000929FD001939FB00D1124AF51BD4FFE01CA
:1045C000319601900D929A95E1F78093E0020E9456
:1045D000EC0C17E0809119039091E002891312C04E
:1045E0006B96E4E00C942D2C0E94AE171092E00222
:1045F0001092190387E0E8EDF1E0DF011D928A9542
:10460000E9F7E7CF819FC00111248F519D4F0E9490
:104610002221882329F38091190390E00196877065
:10462000992780931903D6CFA6E0B0E0EAE1F3E240
:104630000C94112C0E9494088C018091ED019091B2
:10464000EE018017910781F019821A820E94940866
:10465000682F49815A81792F80E090E00E94892259
:104660001093EE010093ED012696E4E00C942D2CBE
:10467000AAE0B0E0EEE3F3E20C94052C8E010F5FAC
:104680001F4F8AE0F80111928A95E9F795E5E92E26
:1046900091E0F92E68012AE5422E21E0522E66248F
:1046A0006394712C49E6842E41E0942EF7018191A8
:1046B0007F018F3F09F445C0F894E82FE295EF7031
:1046C000F0E021A18F70A30102C0440F551F8A950D
:1046D000E2F7CA01922F982B91A392A1809589238A
:1046E00082A3789400C0EAE5F1E021E030E0B12C4B
:1046F000A12C41914F3F09F464C0A42FA295AF7043
:10470000B0E090968C9190E04F7002C0959587959F
:104710004A95E2F780FD55C0C901A82AB92A220F9F
:10472000331F8E169F0629F7F701319780818F3F3F
:1047300011F00E94860A50EA5A95F1F7F601B1820B
:10474000A082F2E0CF0ED11C4E145F0409F0AECF70
:104750004AE050E0B80182EF91E00E94D92C892B09
:1047600099F18AE0F801A2EFB1E001900D928A95EB
:10477000E1F781E08093F1010E9494089093F001A9
:104780008093EF018091EF019091F0010E948508E4
:104790000597F0F04AE050E062EF71E081E092E0CE
:1047A0000E94D92C892BC9F08AE0E2EFF1E0A1E068
:1047B000B2E001900D928A95E1F781E01092F1014B
:1047C00008C090E080E0A9CF8091F1018111DACF9B
:1047D00080E02A96E0E10C94212C80E0EFCFA8E065
:1047E000B0E0E5EFF3E20C94132C66EE7EEF90E080
:1047F00080E00E94282D60E082E090E00E940A2D77
:1048000060E083E090E00E940A2D1092EC0110928B
:10481000EB0160E074E184E090E00E94282D60E00C
:1048200086E090E00E940A2D6FEF87E090E00E9402
:104830000A2D40E050E0BA0188E090E00E941C2D73
:1048400060E084E290E00E940A2D60E087E190E061
:104850000E940A2D60E08CE090E00E940A2D60E04A
:104860008DE090E00E940A2D19821A821B821C8220
:104870001D821E821F82188648E050E068E170E0C9
:10488000CE0101960E94FA2C40E050E0BA0180E28D
:1048900090E00E941C2D40E050E0BA018FE090E0D3
:1048A0000E941C2D40E050E0BA0183E190E00E949C
:1048B0001C2D2896E2E00C942F2C90E080E00E94C2
:1048C000F42C863E9E4F51F00E94EF238091B70258
:1048D000847089618093B7020E94691186E090E03C
:1048E0000E94E62C8093B702803220F087708861A6
:1048F0008093B7029091B702892F817090FF04C016
:10490000892F8695869586950E94710908951F9234
:104910000F920FB60F9211242F933F934F935F93F3
:104920006F937F938F939F93AF93BF93CF93DF93B7
:10493000EF93FF93D091E900DF708091EC00C82FD6
:10494000C17080FDC0E81092E9008091F000877F7F
:104950008093F00078940E94D5171092E90080911E
:10496000F00088608093F000CD2BCF70C093E900F9
:10497000FF91EF91DF91CF91BF91AF919F918F9177
:104980007F916F915F914F913F912F910F900FBE4B
:104990000F901F9018951F920F920FB60F9211242F
:1049A0002F933F934F935F936F937F938F939F9337
:1049B000AF93BF93EF93FF938091E10082FF15C007
:1049C0008091E20082FF11C08091E1008B7F809393
:1049D000E1002091C8022F5F822F62E30E94BA2B70
:1049E000992309F4C0C02093C8028091DA0080FFA7
:1049F00028C08091D80080FF24C08091DA008E7F8B
:104A00008093DA008091D90080FFE3C080E189BD06
:104A100082E189BD09B400FEFDCF81E08093D6021A
:104A200080EA9BE00E9467068091C902811109C05B
:104A30000E9428070E94C9078091E2008460809349
:104A4000E2008091E10080FF1BC08091E20080FFC6
:104A500017C08091E2008E7F8093E2008091E20097
:104A600080618093E2008091D80080628093D800BA
:104A700019BC85E08093D60288EA9BE00E94670615
:104A80008091E10084FF2FC08091E20084FF2BC061
:104A900080E189BD82E189BD89B5982F917080FF41
:104AA000FBCF8091D8008F7D8093D8008091E1006A
:104AB0008F7E8093E1008091E2008F7E8093E20000
:104AC0008091E20081608093E2008091D702882388
:104AD00009F489C084E08093D6028CEA9BE00E94AE
:104AE00067068091D6028091E10083FF2BC0809100
:104AF000E20083FF27C08091E100877F8093E1007F
:104B000082E08093D6021092D7028091E1008E7FDE
:104B10008093E1008091E2008E7F8093E20080919B
:104B2000E20080618093E20042E060E080E00E9469
:104B300097078091F00088608093F00080EB9BE005
:104B40000E946706FF91EF91BF91AF919F918F9166
:104B50007F916F915F914F913F912F910F900FBE79
:104B60000F901F9018951092C8028091C702882359
:104B700009F43BCF8091D6028430C1F49091E900D2
:104B80009F702091EC00822F817020FD80E8892B9E
:104B900093E09093E9009091EB0090FF04C0909116
:104BA000EE0097FD08C08F708093E9001092C70255
:104BB0001CCF1092F1009091E80095FDFACF9091F2
:104BC000E80090FFF0CF9091E8009E779093E80086
:104BD000EACF19BC1092D60284EA9BE00E946706D5
:104BE0001092C9022ECF8091E30087FD93E090934D
:104BF000D60273CF78941F921FB61F9211248F9301
:104C00009F93AF93BF938091C2029091C302A091F2
:104C1000C402B091C5020196A11DB11D8093C202CC
:104C20009093C302A093C402B093C502BF91AF9109
:104C30009F918F911F901FBE1F9018951F921FB6B6
:104C40001F9211248F939F93AF93BF938091C102C2
:104C5000811113C08091C2029091C302A091C4023D
:104C6000B091C5024196A11DB11D8093C2029093DF
:104C7000C302A093C402B093C502BF91AF919F91AC
:104C80008F911F901FBE1F9018951F920F920FB605
:104C90000F9211242F933F934F935F936F937F93C2
:104CA0008F939F93AF93BF93EF93FF9380911A01DC
:104CB0008230A1F08F5F80931A01FF91EF91BF9135
:104CC000AF919F918F917F916F915F914F913F91A4
:104CD0002F910F900FBE0F901F90189581E0809339
:104CE0001A018091B9029091BA02019660ED72E0CA
:104CF0000E94C62B9093BA028093B90265E070E0DF
:104D00000E94C62B67FD6FE78091B802823041F4A4
:104D1000603451F480916F008E7F80936F0004C0E7
:104D2000813011F46F37B1F3E62FF0E0E05EF44F1D
:104D30002491A0918600B091870030E00E94922DCE
:104D40002FEF30E040E050E00E94702DC90163E099
:104D500070E00E94C62B8091B70286958695869555
:104D6000282F269FC001279F900D11240E94F7082D
:104D700090938D0080938C00A0CFCDB7DEB72C9799
:104D80000FB6F894DEBF0FBECDBF85B7806885BF74
:104D900085B7806885BF84B7877F84BF0FB6F894D6
:104DA000A8958091600088618093600010926000F7
:104DB0000FBE80E890E00FB6F89480936100909366
:104DC00061000FBE83E49EE09093A5018093A4014F
:104DD0000E9428070E94C9078091E20084608093A6
:104DE000E20078948091D6028823A1F01091E90026
:104DF0001F709091EC00892F817090FD80E8182B36
:104E00001092E9008091E80083FD0E94D5171F7081
:104E10001093E90082E084BD93E095BD9AEF97BDC1
:104E200080936E0005E511E06AE5E62E61E0F62E5E
:104E3000D8018D918D018F3F11F00E94860AE016F6
:104E4000F106B1F70AE511E059E6E52E51E0F52E3D
:104E5000F80181918F018F3F11F00E94860AE016C0
:104E6000F106B1F78AE0E1E0F2E0DF01282F1D92C0
:104E70002A95E9F7E2EFF1E0DF011D928A95E9F763
:104E800090E080E00E94F42C863E9E4F11F00E943C
:104E9000EF2382E090E00E94E62C8093290284E0D8
:104EA00090E00E94F42C9093FF018093FE010E94F9
:104EB0003823EFEFF6E721E0E150F0402040E1F742
:104EC00000C000000E9438238091010280FF08C0CA
:104ED0006FEF7FEF90E080E00E94282D0E94020F8C
:104EE00083E090E00E94E62C90E00E94DE0D279A7D
:104EF0002F988AE08093800089E1809381008FEF72
:104F00009FEF90938700809386000E945D2480919C
:104F1000B70281FF0BC01092BA021092B902109230
:104F2000B80280916F00816080936F000E945D24C1
:104F300080910002811121C18091290280FF14C05B
:104F400089E897E09F938F930E9400078091290240
:104F50000F900F9080FF08C083E797E09F938F9397
:104F60000E9400070F900F9090E080E00E94F42CC8
:104F7000863E9E4F81F08091290280FF08C08BE41D
:104F800097E09F938F930E9400070F900F900E94CD
:104F9000EF230E949C1588E090E00E94EE2C4B01CC
:104FA0005C0184E290E00E94E62C282F30E040E093
:104FB00050E060E070E080E090E000E20E943A2C77
:104FC000282939294A295B292093AF023093B0025E
:104FD0004093B1025093B2026093B3027093B40253
:104FE0008093B5029093B6022E7FF1F5809129024D
:104FF00080FF08C082E097E09F938F930E94000794
:105000000F900F900E949C1588E090E00E94EE2C7B
:105010006B017C0184E290E00E94E62C282F30E0B6
:1050200040E050E060E070E080E090E000E20E944C
:105030003A2CB22FA32FF42FE52F5B0197018601A5
:10504000BC29A12BFE29E32BB093AF02A093B002A1
:10505000F093B102E093B2026093B302B092B40253
:105060008093B5029093B6020E949F098091290215
:1050700080FF76C089EE96E09F938F930E94000791
:10508000809129020F900F9080FF6AC08091AF023B
:1050900081701F928F938CEC96E09F938F930E9468
:1050A0000007809129020F900F900F900F9080FFC2
:1050B00057C08091AF0286951F928F9381EB96E047
:1050C0009F938F930E940007809129020F900F9069
:1050D0000F900F9080FF44C08091B0021F928F9379
:1050E00087E996E09F938F930E94000780912902A1
:1050F0000F900F900F900F9080FF32C08091B102FF
:105100001F928F938DE796E09F938F930E940007E5
:10511000809129020F900F900F900F9080FF20C078
:105120008091B2021F928F9383E696E09F938F93B4
:105130000E940007809129020F900F900F900F900E
:1051400080FF0EC08091B3021F928F9387E496E098
:105150009F938F930E9400070F900F900F900F90D6
:1051600010922B028091AF0280FF04C060E0869510
:105170000E94031581E08093000284E091E0909307
:10518000BE028093BD0245E1442E42E0542E809140
:10519000D602853089F480EA97E00E94670600E134
:1051A00012E18091D602853009F46AC00E94AE17E0
:1051B0000E945D240E94EA080E9438232BE0C22E40
:1051C00022E0D22E31E0632E32E0732ED301F601BD
:1051D000219131918D919D914E165F0609F48FC0FA
:1051E00028173907A9F38091290281FDD5C1912C97
:1051F00033243394D3010D911D913D01F601A1900B
:10520000B1906F01A016B10659F1812CEE24E39400
:10521000F12CA026B126C5018E219F21892BB1F04A
:105220008F8298860E9494089A8789873B8691E0AE
:1052300098012E213F21232B09F490E09C874F8178
:10524000588569857A858B850E9489228394EE0C26
:10525000FF1CFFE08F12DFCFF6013297118300832E
:10526000939425E09212C6CF8FB7F8944091C20272
:105270005091C3026091C4027091C5028FBF45C0B6
:105280008091D602843039F180E00E947109109239
:10529000C10288E190E0A0E40FB6F894A89580934D
:1052A00060000FBEA093600083B7817F846083BFDE
:1052B00083B7816083BF7894889583B78E7F83BFDF
:1052C0000FB6F894A8958091600088618093600083
:1052D000109260000FBE8091D502882309F461CF3F
:1052E0000E943823E1E0F2E081919191892B09F04D
:1052F00011C28BE092E08E179F07B1F752CF2817AB
:10530000390709F070CF0E94142380912B02882363
:10531000D1F180912A02E091AF02E695E81BE0937B
:105320002502823009F076C1F0E0E452F84FE491B2
:105330000E2F10E0F5E5EF2EF1E1FF2E8091260211
:10534000882361F0109226020E9494089093240210
:105350008093230210922802109227020E94940840
:10536000E0912302F09124028E1B9F0B8F3F9F47F9
:1053700050F4E00FF11FF0932402E093230283E244
:1053800092E0F701099586E0EDE1F2E0DE01119689
:1053900001900D928A95E1F710921F02109220025F
:1053A00010922102109222028B819C81892B09F498
:1053B0004AC080911B0290911C020E9485089C01AA
:1053C00090911802992309F4C0C125313105D8F113
:1053D0009F3F19F09F5F909318021B81112359F092
:1053E0000E94660A9FEF11160CF491E0899F802DB0
:1053F000112480931F021C81112359F00E94660A18
:105400009FEF11160CF491E0899F802D1124809359
:10541000200230911F023323B1F020912002222379
:1054200091F045EB3403C0011124992309F462C1C2
:1054300090931F0245EB240390011124332309F4B8
:105440005DC1309320028D819E81892B09F44AC071
:105450008091190290911A020E9485089C019091F6
:105460001602992309F46CC121353105D8F19F3F0B
:1054700019F09F5F909316021D81112359F00E942D
:10548000440A9FEF11160CF491E0899F802D11249E
:10549000809321021E81112359F00E94440A9FEF3C
:1054A00011160CF491E0899F802D11248093220223
:1054B000309121023323B1F020912202222391F076
:1054C00045EB3403C0011124992309F41BC19093C7
:1054D000210245EB240390011124332309F416C162
:1054E0003093220246E050E0BE016F5F7F4F8DE1B6
:1054F00092E00E94D92C892B61F480911F02909137
:105500002002892B90912102892B90912202892BD4
:1055100011F00E94141286E0FE013196ADE1B2E076
:1055200001900D928A95E1F70E94EA08182F809168
:105530001502181709F42BCE109315028FB7F894A3
:105540004091C2025091C3026091C4027091C502A1
:105550008FBF8091290282FF16CE80FF14CE87EE86
:1055600097E00E9467068091290280FF0CCE1F926F
:105570001F9382EE97E09F938F930E940007809184
:1055800029020F900F900F900F9080FFFCCD80EEBE
:1055900097E00E946706F7CD84EB97E00E946706CC
:1055A00011E0E12E12E0F12E10E000E08FEA882EEB
:1055B00087E0982E96EAA92E97E0B92E1F930F93B5
:1055C0009F928F920E9400078CEA97E00E946706E4
:1055D000D7018C9111962C90B2E0EB0EF11C0E9439
:1055E000060E382E822D0E94060E3F928F93BF9298
:1055F000AF920E94000784EA97E00E9467060F5F5F
:105600001F4F0FB6F894DEBF0FBECDBF053011059A
:10561000A9F6EDCD863059F4F0E0E752F84FE49169
:105620000E2F10E0E5E4EE2EE1E1FE2E87CE89306C
:1056300061F4E695F0E0EA52F84FE4910E2F10E0A5
:1056400079EBE72E70E1F72E79CE8F3061F4E69595
:10565000F0E0ED52F84FE4910E2F10E06BE5E62EEE
:1056600060E1F62E6BCE853159F4F0E0E053F84F4F
:10567000E4910E2F10E05DE0E52E50E1F52E5ECEB8
:1056800008E210E022E9E22E2FE0F22E883109F440
:1056900055CE833249F4EEECF7E00591149144EFD6
:1056A000E42E40E1F42E4ACE04EF11E09BE5E92E12
:1056B0009FE0F92E843209F441CE8532A1F48BEAC1
:1056C000E89F812D11248695982F990F890FE81B4B
:1056D000F0E0E553F84FE4910E2F10E03FE6E32EA3
:1056E00031E1F32E2BCE00ED17E08EE9E82E89E0B4
:1056F000F82E24CE81E080931F029CCE81E080931F
:105700002002A1CE81E080932102E3CE81E080934C
:105710002202E8CE09BD19BD09B400FEFDCF80917B
:10572000D8008F7D8093D8008091E00082608093C4
:10573000E0008091E00081FDFCCF0E94AE1731CDEA
:105740002B30310508F095CECDCE2B30310508F049
:1057500041CE79CEDB018F939F930E945D2DBF9147
:10576000AF91A29F800D911DA39F900DB29F900DB0
:1057700011240895991B79E004C0991F961708F029
:10578000961B881F7A95C9F780950895AA1BBB1BA5
:1057900051E107C0AA1FBB1FA617B70710F0A61B31
:1057A000B70B881F991F5A95A9F780959095BC0152
:1057B000CD01089597FB072E16F4009407D077FDCE
:1057C00009D00E94C62B07FC05D03EF49095819528
:1057D0009F4F0895709561957F4F0895EE0FFF1FBD
:1057E0000590F491E02D09940E94922D332312F438
:1057F0008A1B9B0B0C94FE2B0E94922DB7FF0895E1
:10580000821B930B08952F923F924F925F926F925B
:105810007F928F929F92AF92BF92CF92DF92EF9240
:10582000FF920F931F93CF93DF93CDB7DEB7CA1BC1
:10583000DB0B0FB6F894DEBF0FBECDBF09942A88EC
:10584000398848885F846E847D848C849B84AA8494
:10585000B984C884DF80EE80FD800C811B81AA8121
:10586000B981CE0FD11D0FB6F894DEBF0FBECDBFEC
:10587000ED010895002E083090F0982F872F762F95
:10588000652F542F432F322F22270850F4CF220F99
:10589000331F441F551F661F771F881F991F0A95C6
:1058A000B2F7002D089597FD1094002E083098F05F
:1058B0000850232F342F452F562F672F782F892FED
:1058C000912DF4CF15949795879577956795579572
:1058D0004795379527950A95AAF71124002D089525
:1058E0008F929F92AF92BF92CF92DF92EF92FF92F0
:1058F000CF93DF93EC01688179818A819B81611567
:1059000071058105910521F464E279ED8BE597E05D
:105910002DE133EF41E050E00E943E2D49015A0154
:105920009B01AC01A7EAB1E40E945D2D6B017C01F3
:10593000ACEEB4EFA50194010E946B2DDC01CB010C
:105940008C0D9D1DAE1DBF1DB7FF03C00197A109A2
:10595000B04888839983AA83BB839F77DF91CF91D7
:10596000FF90EF90DF90CF90BF90AF909F908F907F
:1059700008950E94702C089580E091E00E94702CA0
:105980000895B0E0A0E08093000190930101A093FE
:105990000201B09303010895FC014150504030F0E2
:1059A00001900616D1F73197CF01089588279927DE
:1059B0000895FB01DC0104C08D910190801921F450
:1059C00041505040C8F7881B990B0895F999FECFB4
:1059D00092BD81BDF89A992780B50895A6E1B0E0FF
:1059E00044E050E00C94302DA8E1B0E042E050E0FB
:1059F0000C94302DDC01A40FB51F4150504048F0ED
:105A0000CB01840F951F2E910E940B2D41505040C9
:105A1000D0F70895262FF999FECF92BD81BDF89A4F
:105A2000019700B4021639F01FBA20BD0FB6F894E2
:105A3000FA9AF99A0FBE08950396272F0E940B2D0C
:105A40000E940A2D252F0E940B2D242F0C940B2D24
:105A50000196272F0E940B2D0C940A2DDC01CB01FF
:105A6000FC01F999FECF06C0F2BDE1BDF89A31966E
:105A700000B40D9241505040B8F70895052E97FBA1
:105A80001EF400940E94552D57FD07D00E94702DE2
:105A900007FC03D04EF40C94552D5095409530954D
:105AA00021953F4F4F4F5F4F08959095809570958A
:105AB00061957F4F8F4F9F4F08950E94922DA59F14
:105AC000900DB49F900DA49F800D911D11240895F9
:105AD000B7FF0C945D2D0E945D2D821B930B0895E2
