:100000000C9487060C94BF060C94BF060C94BF0694
:100010000C94BF060C94BF060C94BF060C94BF064C
:100020000C94BF060C94BF060C94D9240C94152490
:100030000C949B280C94BF060C94BF060C94BF062E
:100040000C94BF060C94BF060C94BF060C94BF061C
:100050000C94AE290C945A280C94BF060C94BF063D
:100060000C94BF060C94BF060C94BF060C94BF06FC
:100070000C94BF060C94BF060C94BF060C94BF06EC
:100080000C94BF060C94BF060C94BF060C94BF06DC
:100090000C94BF060C94BF060C94BF060C94BF06CC
:1000A0000C94BF060C94BF060C94BF067B088D0809
:1000B0009B08C408F6083F0970096C0C6C0C9E0C78
:1000C0009E0C100D2C0DC30EC30E370D150E260EF3
:1000D000260E2C225322F7235322F7239F22C222DB
:1000E000F723B823C7236261636B6C696768742068
:1000F00064656372656173653A2025750A00626103
:10010000636B6C6967687420696E6372656173659F
:100110003A2025750A006261636B6C696768742018
:1001200064697361626C650A006261636B6C696724
:10013000687420656E61626C650A006261636B6C55
:100140006967687420746F67676C653A2025750A63
:10015000006261636B6C6967687420737465703AE0
:100160002025750A006261636B6C696768742062A0
:100170007265617468696E672064697361626C6539
:100180000A006261636B6C69676874206272656102
:100190007468696E6720656E61626C650A006261F1
:1001A000636B6C6967687420627265617468696EFC
:1001B0006720746F67676C653A2025750A0072675F
:1001C000626C696768742064697361626C65205B46
:1001D000454550524F4D5D3A207267626C696768C1
:1001E000745F636F6E6669672E656E61626C652011
:1001F0003D2025750A007267626C69676874206526
:100200006E61626C65205B454550524F4D5D3A20F2
:100210007267626C696768745F636F6E6669672E88
:10022000656E61626C65203D2025750A007267620B
:100230006C6967687420746F67676C65205B4545FF
:1002400050524F4D5D3A207267626C696768745F07
:10025000636F6E6669672E656E61626C65203D2016
:1002600025750A0044454255473A20646973616226
:100270006C65642E0A0044454255473A20656E611C
:10028000626C65642E0A0029001E021F02200221F2
:100290000222020000000000002302240225022F97
:1002A0000030000000350014001A00080015001787
:1002B000000E1810184C051C0018000C001200133A
:1002C0000034002B0004431644074509000A42503D
:1002D000184600E3000B000D000E000F003300284D
:1002E0000039001D651B63060019000500000000B1
:1002F000000000110010003600370038004C0000EC
:100300000000001A18E600E5002A00E400000002E0
:10031000512C00045105510153000000000100015F
:1003200000010001000100010001000100010001C5
:1003300000010001000100010001000100010007AF
:100340000015001A00050008180F1801000D00091B
:100350000018001300330001000100010001000B30
:1003600045170001000100010001001C00110008F8
:100370000012000C00010001000100010010000645
:100380000019000100010001000E000F0001000132
:100390000001000100010001000718010001000137
:1003A0000001000100010001000100010001000145
:1003B000000100010000000000000000000000003B
:1003C000000000000000000000000000000000002D
:1003D0000000000000E500E400E61100000000005D
:1003E00000000000004B0052004E00000000000121
:1003F00000000000000000000001000000000000FC
:10040000004A00500051004F004D00010000000163
:1004100000010000000000000000000000000000DB
:10042000001E111F1120110000010000000000003B
:1004300000010001000100000000000000010001B7
:1004400000010001000000000001000100010001A6
:100450000001000100000000000000010001000197
:10046000002F0230020100010000001E142D14288C
:100470001100000000000000001E023502310231B0
:10048000001312350001000100010001000000010D
:10049000000000000000002E022D02260227025656
:1004A000000100000000000000000000003E00000D
:1004B00000000000002E0001003602370238020161
:1004C0000000000000010001000100010001000027
:1004D0000001000100010001000100000000000017
:1004E000000000000000000000000000000000000C
:1004F00000000000000000000000000000010000FB
:1005000000000000000000000000000000000000EB
:10051000002400250026001312340201000100010E
:1005200000E500055101000000000000002E12212E
:1005300000220023002D0001000000000000000048
:1005400000000000000000000000002E001E001F40
:100550000020003800010000000000000001000140
:10056000000100010000000100270001000100005F
:10057000000000000000000000000000000000007B
:10058000000000000000000000000000000000006B
:10059000000000000000000000000000000000005B
:1005A0000000000000000040004100420000000088
:1005B0000001000100010001000100010000000035
:1005C00000000000003D003E003F00000000000071
:1005D000000000000000000000000000000000001B
:1005E0000000003A003B003C00000000000000005A
:1005F00000000000000000000000000000000043B8
:1006000000010001000000000000004F6E657368EB
:100610006F743A206163746976653A2025640A0034
:100620000A002530325820006B6579626F61726470
:100630005F7265706F72743A2000290A0025750098
:100640002F002575005D280025640020002564002A
:10065000200025640020002564007C0025303258ED
:10066000006D6F7573656B6579205B62746E7C7865
:100670002079207620685D287265702F61636C296F
:100680003A205B00000101010101010101010202A8
:100690000202020202020203030303030303030430
:1006A00004040404040405050505050606060606FB
:1006B000070707070708080808090909090A0A0AB5
:1006C0000B0B0B0C0C0C0D0D0D0E0E0E0F0F0F1057
:1006D00010111111121213131414151516161717E1
:1006E000181819191A1A1B1B1C1D1D1E1E1F20204D
:1006F000212222232424252626272829292A2B2C97
:100700002D2D2E2F30313232333435363738393AB9
:100710003B3C3D3E3F404142434445464748494AB1
:100720004C4D4E4F50515354555658595A5B5D5E7F
:100730005F616264656668696B6C6D6F707273751A
:1007400077787A7B7D7E8082838587888A8C8E8F7E
:1007500091939596989A9C9EA0A2A3A5A7A9ABADAC
:10076000AFB1B3B5B7BABCBEC0C2C4C6C9CBCDCF9A
:10077000D1D4D6D8DBDDDFE2E4E7E9EBEEF0F3F548
:10078000F8FAFDFF7267626C696768742074696DBE
:10079000657220656E61626C65642E0A0072676224
:1007A0006C69676874206D6F6465205B4E4F4545CA
:1007B00050524F4D5D3A2025750A007267626C6990
:1007C000676874206D6F6465205B454550524F4DDE
:1007D0005D3A2025750A007267626C69676874204B
:1007E00073657420687376205B4E4F454550524FB9
:1007F0004D5D3A2025752C25752C25750A007267EC
:10080000626C696768742073657420687376205B16
:10081000454550524F4D5D3A2025752C25752C25A8
:10082000750A007267626C69676874207261696E2C
:10083000626F7720736574206873763A2025642C84
:1008400025642C25642C25750A00FFAA7F5540726B
:1008500067626C696768742074696D657220646989
:100860007361626C652E0A002223252628292A2C12
:100870002D2F3032333536383A3B3D3E40424345EA
:1008800047494A4C4E5051535557595A5C5E606225
:10089000646668696B6D6F71737577797B7D7F8135
:1008A000838587898A8C8E90929496989A9C9E9F35
:1008B000A1A3A5A7A8AAACAEAFB1B3B4B6B8B9BB53
:1008C000BCBEBFC1C2C3C5C6C7C9CACBCCCDCED0C2
:1008D000D1D2D2D3D4D5D6D7D7D8D9D9DADADBDBAF
:1008E000DBDCDCDCDCDCDDDDDDDDDCDCDCDCDCDB46
:1008F000DBDBDADAD9D9D8D7D7D6D5D4D3D2D2D18F
:10090000D0CECDCCCBCAC9C7C6C5C3C2C1BFBEBC81
:10091000BBB9B8B6B4B3B1AFAEACAAA8A7A5A3A1F2
:100920009F9E9C9A98969492908E8C8A89878583B4
:10093000817F7D7B79777573716F6D6B6968666494
:1009400062605E5C5A5957555351504E4C4A494764
:10095000454342403E3D3B3A3836353332302F2D09
:100960002C2A2928262523227267626C69676874FD
:100970005F636F6E6669672E7370656564203D20E6
:1009800025640A007267626C696768745F636F6EE2
:100990006669672E76616C203D2025640A007267C7
:1009A000626C696768745F636F6E6669672E7361F6
:1009B00074203D2025640A007267626C6967687460
:1009C0005F636F6E6669672E687565203D202564DC
:1009D0000A007267686C696768745F636F6E666946
:1009E000672E6D6F6465203D2025640A0072676282
:1009F0006C696768745F636F6E6669672E656E61A8
:100A0000626C65203D2025640A007267626C69672C
:100A100068745F636F6E66696720454550524F4D3D
:100A20003A0A007267626C696768745F696E69741C
:100A3000207267626C696768745F636F6E6669676E
:100A40002E6D6F6465203D20302E205772697465CD
:100A50002064656661756C742076616C75657320C1
:100A6000746F20454550524F4D2E0A007267626CDC
:100A7000696768745F696E6974206565636F6E6627
:100A80006967206973206E6F7420656E61626C65A2
:100A9000642E0A007267626C696768745F696E69C8
:100AA00074207374617274210A007267626C6967E2
:100AB00068745F696E69742063616C6C65642E0A8A
:100AC000005B735D000A002530313662003A200079
:100AD00025303258000A722F6320303132333435DA
:100AE000363738394142434445460A0000047F3FC7
:100AF0001F643214643214783C1E1E140A050A0066
:100B000025303258006C65645F7461736B3A200065
:100B10000631FF0974A1010975150026FF00952013
:100B2000750881020976150026FF00952075089149
:100B300002C005010902A10185020901A100050900
:100B40001901290815002501950875018102050183
:100B5000093009311581257F95027508810609380C
:100B60001581257F950175088106050C0A38021547
:100B700081257F950175088106C0C005010980A106
:100B800001850319012AB700150126B700950175E3
:100B9000108100C0050C0901A101850419012AA0DA
:100BA00002150126A002950175108100C0050109FA
:100BB00006A101050719E029E7150025019508752B
:100BC0000181029501750881010507190029FF15AA
:100BD0000026FF0095067508810005081901290502
:100BE000950575019102950175039101C05B435D07
:100BF000005B445D005B535D005B575D005B525DD5
:100C00000009025B00030100A0FA090400000103CF
:100C100001010009211101000122400007058103A3
:100C2000080001090401000103000000092111016D
:100C30000001227B00070582032000010904020055
:100C40000203000000092111010001222200070512
:100C500083032000010705030320000112010002A5
:100C600000000008646975000100010200010A0328
:100C7000490044003700350000000E0349004400DD
:100C80004F00420041004F0000000403090400002F
:100C9000000000000000000000010102030405063E
:100CA000080A0C0F1114181C2024292E33393F4632
:100CB0004C535B626A7179818A929AA2AAB2B9C1D5
:100CC000C8CFD5DCE1E7EBF0F4F7FAFCFDFEFFFE60
:100CD000FDFCFAF7F4F0EBE7E1DCD5CFC8C1B9B21F
:100CE000AAA29A928A8179716A625B534C463F3913
:100CF000332E2924201C1814110F0C0A0806050491
:100D000003020101000000000000000000001124A7
:100D10001FBECFEFDAE0DEBFCDBF04B603FE18C0C2
:100D20008091C1029091C202A091C302B091C4020D
:100D30008730904BA740B04B59F41092C1021092EB
:100D4000C2021092C3021092C402E0E0F8E30995D7
:100D500011E0A0E0B1E0ECE9FDE502C005900D92E4
:100D6000A639B107D9F722E0A6E9B1E001C01D928A
:100D7000A13CB207E1F70E949C1C0C94CC2E0C9471
:100D80000000FF93EF93E0919601F0919701309767
:100D900009F00995EF91FF910895FC01859180304C
:100DA00011F0EFDFFBCF0895FF27E0E230E247FFCD
:100DB0000CC0419597FF09C0EDE260957095809554
:100DC0009095611D711D811D911D27FF02C0219508
:100DD00030E350E2AA27660F771F881F991FAA1FCA
:100DE000A41710F0A41B63955A95A9F7AA3008F030
:100DF000A95FA05DAF93F39561157105810591051C
:100E000041F7ED3211F4EF93F395F21718F43F9395
:100E1000F395FBCF8F91B5DFFA95E1F70895E9914E
:100E2000F9918591803021F0853219F0AADFF9CF50
:100E3000089520E0E89455915532C1F3503311F4F0
:100E4000689455915A3348F4505390F3220F022E70
:100E5000220F220F200D250FF4CF0EF4219589913A
:100E60009991533619F3533729F1533559F1BC0190
:100E700088279927E8945C3621F4899199916894A0
:100E80005591543639F446EF7EF077FF0DC08FEF61
:100E90009FEF0AC055374AE039F0583540E121F05C
:100EA000523642E009F00895FF93EF937DDFEF9112
:100EB000FF91B7CFFF93EF93FC0181918030B9F39D
:100EC00060DFFBCFFF93EF9368DFF1CFDF93CF932A
:100ED000CDB7DEB72596A3DFCF91DF9108951F939D
:100EE000CF93DF93CDB7DEB767970FB6F894DEBF29
:100EF0000FBECDBF4B8B5C8B6D8B7E8B8F8B61114F
:100F00001092E20186E09E01235F3F4FD901E82F56
:100F10001D92EA95E9F795E0FE017396D9010190DB
:100F20000D929A95E1F79C894E895F897B897D872F
:100F30009E876F87598B488BF901DE0117960190C8
:100F40000D928A95E1F7CE0107960E940315811153
:100F50003EC086E0FE013796DE01119601900D92AB
:100F60008A95E1F7FF81E8856A857B8561157105C2
:100F700031F0EF3F31F481E0FF3F19F403C081E02D
:100F800001C080E080FD23C02091A70130E0C901AD
:100F90000196877099274091D80150E084179507F2
:100FA00079F1F983EA837D836C8396E0929FD00187
:100FB000939FB00D1124A855BE4FFE0131960190AC
:100FC0000D929A95E1F78093A7010E94711416E0A3
:100FD0008091D8019091A7018917F9F0189FC0015D
:100FE000112488559E4F0E9403158823B1F08091EB
:100FF000D80190E00196877099278093D801E8CFB7
:101000000E94992B1092A7011092D801E1EAF1E019
:1010100086E0DF011D928A95E9F767960FB6F8948E
:10102000DEBF0FBECDBFDF91CF911F9108958F928C
:101030009F92AF92BF92CF92DF92EF92FF920F9367
:101040001F93CF93DF93CDB7DEB72A970FB6F894EF
:10105000DEBF0FBECDBFFC010081D18083819481B2
:10106000892B39F01FEFD11206C091E00F3F19F420
:1010700003C091E001C090E090FF02C00C942810E2
:101080007F0185E0DE01169601900D928A95E1F7C9
:10109000F70122818E819F81222349F00E946F2ACD
:1010A000182F682F8E819F810E94F42A03C00E940E
:1010B000C82A182F2BE4129FF00111243FE0D39E81
:1010C000E00DF11D1124E00FF11DEE0FFF1FE95798
:1010D000FD4F05911491F7018281882309F455C1D0
:1010E000F801EC5BFC45E730F10508F04EC1EA5A27
:1010F000FF4F0C947B2E80917802877088618093DB
:101100007802887F91E009F490E08091780290FB6A
:1011100080F98093780283E007C08091780287701D
:101120008E7F8093780280E00E94212A809178024D
:101130000E944F2A7CC680917802982F96959695AA
:101140009695A1F0915E990F990F990F8770892B51
:1011500080937802887F91E009F490E08091780292
:1011600090FB80F9809378020E944F2A8091FE01C3
:1011700080FFE6C0809178028695869586951F92BD
:101180008F9386EE90E029C020917802822F869579
:1011900086958695482F50E04330510554F48F5F73
:1011A000982F990F990F990F822F8770892B809311
:1011B0007802809178028160809378020E944F2AA1
:1011C0008091FE0180FFBCC0809178028695869553
:1011D00086951F928F938EEF90E09F938F930E943E
:1011E00066070F900F900F900F90AAC01091780291
:1011F00011708091FE0180FF0CC01F921F938BE342
:1012000091E09F938F930E9466070F900F900F902D
:101210000F90809178021123B9F080FF08C68E7F6D
:10122000809378020E944F2A8091FE0180FF08C0BF
:1012300086E191E09F938F930E9466070F900F9035
:1012400080E00E94212AF3C580FDF1C58160809372
:101250007802813019F489E08093780280917802D5
:101260000E944F2A8091FE0180FF6AC089E291E0CE
:101270009F938F930E9466070F900F9061C080919B
:101280007802282F2695269526952F5F2F71922F6D
:10129000990F990F990F8770892B809378022430CA
:1012A00018F087708093780280917802887F91E0AF
:1012B00009F490E08091780290FB80F980937802A5
:1012C0000E944F2A8091FE0180FF3AC080917802EF
:1012D0008695869586951F928F9381E591E07DCFC7
:1012E00010917802169511708091FE0180FF0CC05C
:1012F0001F921F938EE991E09F938F930E94660740
:101300000F900F900F900F90809178021123F1F0C1
:1013100081FF8DC58D7F809378020E944F2A809136
:10132000FE0180FF08C085E691E09F938F930E94A5
:1013300066070F900F9080916F008E7F80936F00F3
:10134000809178028695869586957BCF81FD6FC5C5
:101350008260809378020E944F2A8091FE0180FF74
:1013600008C082E891E09F938F930E9466070F90D8
:101370000F9010927B0210927A0210927902809163
:101380006F00816080936F0052C5043F2CE5120707
:1013900099F406E221EE40EE64EF7CE509C0083DD9
:1013A000FCE51F0711F506E221EE41EE68ED7CE554
:1013B000C7010E9423293BC5053F3CE5130708F000
:1013C0005CC1093D9CE5190731F407E225EE45EEC5
:1013D00069ED7CE5EDCF0A3DECE51E0701F708E27B
:1013E00021E045EE6AED7CE5E3CF882309F47AC17C
:1013F00010927E020430FDE51F0758F40B3F2CE5E8
:10140000120780F4C80182509C45449708F054C1EB
:1014100009C002363DE5130729F0063A8DE51807A5
:1014200009F04AC10E942213909348028093470218
:1014300001319CE5190709F4C6C008F042C0093023
:10144000FCE51F0709F49BC000F505303CE51307D8
:1014500009F485C078F403309CE5190709F478C0D5
:1014600008F07AC002301C4509F0F7C080914702AD
:101470008160F1C007302CE5120709F478C008F04C
:101480007AC0809147028061E6C00D308CE5180774
:1014900009F487C058F40B30ECE51E0709F479C055
:1014A00008F07BC08091470288606FC00F302CE548
:1014B000120709F480C008F082C080914702877F3C
:1014C000CAC00E3F8CE5180709F471C000F505315C
:1014D000ECE51E0709F485C068F403312CE512071A
:1014E00009F475C008F095C00E94992B80914702BD
:1014F0008F77B1C00C3F8CE51807A9F108F054C0F4
:101500000B3F1C4509F0A9C08091480240C0023041
:10151000FDE51F0709F489C058F401153DE51307DF
:1015200009F45AC008F069C08091480282602FC057
:1015300002369DE5190709F47EC0063AEDE51E075F
:1015400009F483C003301D4509F087C060E06EC018
:101550008091470282607FC08091470216C08091CF
:101560004702886078C08091480282604FC08091B5
:101570004702806270C08091470280646CC00E9404
:10158000992B80914702806866C0846064C0816046
:101590003DC0809147028E7F5EC0809147028D7F63
:1015A0005AC08091470216C08091480218C08091AD
:1015B00048028D7F2BC0809147028F7E4CC0809166
:1015C00047028F7D48C0809147028F7B44C0809145
:1015D0004702877F8B7F3FC0809148028D7F8E7F3F
:1015E00015C08091470282FB222720F991E09227C3
:1015F00090FB82F990FB83F92EC080914802982FCE
:10160000909591708E7F892B90FB81F98093480291
:1016100024C00E94992B8091470287FB222720F942
:1016200091E0922790FB87F916C061E08EE090E090
:101630000E94E12D12C08091470284FB222720F9ED
:1016400091E0922790FB84F906C080914702982F81
:10165000909590FB80F9809347026091470210912A
:10166000480284E090E00E94E12D612F82E290E048
:101670000E94E12D0E94992BDAC3063F2CE5120748
:1016800031F406E221EE42EE66EF7CE591CE063FB4
:101690003CE5130730F407E225EE44EE65EF7CE508
:1016A00087CE073F9CE5190709F09FCE07E225EE9C
:1016B00046EE67EF7CE57CCE0631ECE51E0721F5B2
:1016C0008091E3018A7A91E009F490E09093980187
:1016D000882311F065E301C069E289E991E00E9485
:1016E000D1280FC00631FCE51F0709F07DC08091AD
:1016F0009801882309F4BEC365E389E991E00E945B
:10170000C4280E94AB1393C30F3D3CE5130709F4B3
:101710005CC048F401159CE51907A9F001301C458F
:1017200009F440C07DC00C35FDE51F0709F458C021
:101730000D352DE5120709F44BC00B351D4509F099
:101740006FC081E04EC00E94992B8FEF94E3ECE0D4
:1017500081509040E040E1F700C0000081E08093BC
:10176000E00080E28093D8001092C9008FE19EE4EF
:101770000197F1F700C0000087E090EBDC01809357
:10178000C1029093C202A093C302B093C4029CE032
:1017900088E10FB6F894A895809360000FBE9093EF
:1017A0006000FFCF8091FE01982F9095917090FB83
:1017B00080F98093FE01992319F086E792E002C038
:1017C00084E692E00E94CD0632C30E9433132FC3F9
:1017D0008091480282FB882780F991E0892701C027
:1017E00080E00E9442141CC08091E30182720D3C93
:1017F0002CE5120709F40CC408F002C3073C9CE571
:10180000190709F4F1C308F045C3043CFCE51F07C0
:1018100009F4E0C308F030C3033C1C4509F47BC362
:10182000F70182810081D180882359F0802F9D2D7E
:101830000E946F2A182F682F802F9D2D0E94F42A56
:1018400005C0802F9D2D0E94C82A182F2BE4129FBF
:10185000F00111243FE0D39EE00DF11D1124E00FB3
:10186000F11DEE0FFF1FE957FD4F859194910E94E6
:1018700088118C01982EF701D280A580A2943FE0B8
:10188000A3228091D9018770B9F0DD20A9F0812FC2
:10189000807F803421F080E2800F883068F0809172
:1018A000480282FD09C082E00E9425148091D9017E
:1018B0008770CC24C3948111C12CB12EB2949FE0C7
:1018C000B9228B2D90E08C30910508F05CC2FC01B0
:1018D000E35AFF4F0C947B2E812F807F1F7088234B
:1018E00011F01295107FDD20B9F0112309F438C2F0
:1018F00080E2800F883010F0911006C08091E301E3
:10190000182B1093E30105C08091E201182B10936E
:10191000E2010E94AB1324C2802F0E94B52B112339
:1019200009F431C2005E083078F1992069F1109510
:101930008091E20118231093E20129C0812F807F5A
:101940001F70803211F01295107F992021F0F1E084
:101950009F16D9F149C08091480282FF1BC0DD204B
:1019600069F0112339F08091E301182B1093E30102
:101970000E94AB1380E00E94152C05C280E00E94FB
:10198000B52B112309F4FFC1812F0E94A4130E94DB
:10199000AB13F9C1DD2081F08091E401AA2051F060
:1019A00001E0A01207C0182B181709F4ECC110931E
:1019B000E401E9C1812B10C0AA2021F021E0A21688
:1019C00009F4E1C10E949E1327C0DD2041F035E0FB
:1019D0003A1508F4D8C1812F0E94AB2BD4C184E002
:1019E0008A1508F4D0C118C0DD2049F0AA2099F367
:1019F000F701858180FFB4C18F708583ECCFAA2069
:101A000059F0093309F0BCC1FFEF17EE23E0F150A4
:101A100010402040E1F7B2C1812F0E94A42BB3C136
:101A2000812F86958695837019F0813059F0ABC16E
:101A3000DD2019F0C801937002C080E090E00E94A0
:101A40000129A7C1DD2019F0C801937002C080E010
:101A500090E00E94EB289DC1802FDD2019F00E94AC
:101A6000722D02C00E94B92C0E94F01B92C1812FDE
:101A7000837009F069C0D1108AC1902F9295969514
:101A80009770990F990F802F8F70882E912CA12C11
:101A9000B12C092E04C0880C991CAA1CBB1C0A94EA
:101AA000D2F704FF12C04FE050E060E070E004C0E5
:101AB000440F551F661F771F9A95D2F7DB01CA01A5
:101AC00080959095A095B09503C080E090E0DC01F2
:101AD00016951695412F4370423019F1C8F40091C4
:101AE000E5011091E6012091E7013091E8014130D4
:101AF00059F088299929AA29BB29BC01CD01602365
:101B00007123822393230AC0802A912AA22AB32A0E
:101B1000BC01CD01682979298A299B290E946F2B54
:101B200036C188299929AA29BB290091E50110917C
:101B3000E6012091E7013091E801BC01CD01602769
:101B4000712782279327EACFDD2019F0812F81703A
:101B500001C08695882309F41AC1902F9295969515
:101B60009770990F990F802F8F70882E912CA12C30
:101B7000B12C092E04C0880C991CAA1CBB1C0A9409
:101B8000D2F704FF12C04FE050E060E070E004C004
:101B9000440F551F661F771F9A95D2F7DB01CA01C4
:101BA00080959095A095B09503C080E090E0DC0111
:101BB00016951695412F43704230D9F068F5009183
:101BC0004302109144022091450230914602413077
:101BD00059F088299929AA29BB29BC01CD01602384
:101BE0007123822393231EC0802A912AA22AB32A1A
:101BF00013C088299929AA29BB2900914302109171
:101C000044022091450230914602BC01CD0160277B
:101C100071278227932706C0BC01CD016829792945
:101C20008A299B290E941F2BB2C01F70DD2039F02A
:101C3000812F0E944E2B802F0E94AB2BA8C0802F9B
:101C40000E94A42B812F0E94292BA1C0802F32EF4C
:101C5000931609F443C0391538F090EF991659F0EE
:101C6000E1EF9E16B1F177C0F3EF9F16F1F124EF8B
:101C7000921659F170C0DD2019F134E03A1508F4DC
:101C800082C01F7181E090E0A0E0B0E0AC01BD0136
:101C900004C0440F551F661F771F1A95D2F7809115
:101CA000430290914402A0914502B09146028A01FC
:101CB0009B01082719272A273B27C901B80129C0FA
:101CC00025E02A1508F45FC0DCCF8091480282FF2E
:101CD00023C0DD2029F0812F8F7130C0DD20D9F3A2
:101CE000812F8F710E94292B4EC0DD2079F01F714A
:101CF00081E090E0A0E0B0E0BC01CD0104C0660F3F
:101D0000771F881F991F1A95D2F703C060E070E013
:101D1000CB010E941F2B37C0DD2099F01F71812F4E
:101D20000E944E2B8091480282FD07C038E0139F2D
:101D3000C001112483608093D901812F0E944E2B12
:101D400022C081E00E94251481E08A15E0F482E03F
:101D50000E94251418C0DD2029F0AA2009F4BBCF69
:101D6000802F09CEAA2009F4BBCF893349F49FEF15
:101D7000E7EEF3E09150E040F040E1F700C00000F2
:101D8000802F0E94B52B88EF8B0D843010F40E94B9
:101D90001729CC20A9F08091D90180FD11C0F7014D
:101DA00012828595859585950E944E2BC7010E94CC
:101DB00017088091D9018595859585950E94292BD5
:101DC00085E0F701DE01119601900D928A95E1F709
:101DD00089819A810E94C82A9A810BE4809FF00130
:101DE00011241FE0919FE00DF11D11248981E80F5E
:101DF000F11DEE0FFF1FE957FD4F8591949128C10A
:101E0000023D2CE5120709F413C108F465C0053D35
:101E10002CE5120709F412C108F471C0063DECE587
:101E20001E0709F410C10E351D4509F0F9CC80914B
:101E3000D901877009F40CC1F7018281882309F464
:101E400007C18091480282FD03C182E02A960FB645
:101E5000F894DEBF0FBECDBFDF91CF911F910F91E0
:101E6000FF90EF90DF90CF90BF90AF909F908F90BA
:101E70000C94251469E241CC053C9CE5190709F452
:101E8000AEC0063C1C4509F0CBCC4BE15BE164E203
:101E90007BE1C2C00A3CFCE51F0709F4AFC070F447
:101EA000083C3CE5130709F4A4C0093C1C4509F0B3
:101EB000B7CC4FE05BE163E07BE1AEC00B3CECE50F
:101EC0001E0709F4A0C00C3C1C4509F0A9CC4DE24A
:101ED0005BE16EE37BE1A0C00F3C8CE5180709F4E1
:101EE000A1C008F49CC0003DECE51E0709F49DC0AC
:101EF000013D1C4509F094CC6EE089E0A1C0033D92
:101F00008CE5180709F497C0043D1C4509F088CCFE
:101F100061E088E19AC08091FE0180FF10C080914D
:101F20003402809581701F928F938DE292E09F938F
:101F30008F930E9466070F900F900F900F908091E3
:101F4000340280FF2EC08E7F809334026091340271
:101F50007091350280913602909137020E94F519F6
:101F60008091FE0180FF0FC08091340281701F922A
:101F70008F938EEB91E09F938F930E9466070F9053
:101F80000F900F900F900E946F170FEF10E722E055
:101F9000015010402040E1F700C000000E947E1771
:101FA00046CF8160809334028091FE0180FF0DC096
:101FB0001F9281E08F9386EF91E09F938F930E9411
:101FC00066070F900F900F900F908091340261E0A0
:101FD00086953BC04CEB5BE165EC7BE11DC045ECBD
:101FE0005BE16CEB7BE118C044E25BE16BE17BE120
:101FF00013C043E05BE16FE07BE10EC04BEE5AE1C2
:1020000067EF7AE109C047EF5AE16BEE7AE104C06D
:102010004EE35BE16DE27BE10E94691708CF61E06E
:1020200081E013C065E082E00BC068E086E008C094
:1020300064E18FE005C067E185E102C062E289E109
:102040000E94CF1BF4CE61E083E20E944F1BEFCED3
:102050002A960FB6F894DEBF0FBECDBFDF91CF91A9
:102060001F910F91FF90EF90DF90CF90BF90AF90B6
:102070009F908F9008958295982F937344E0949F3A
:10208000900111248C7C86958695282B822F85754E
:10209000880F2A7A2695822B08959091470292FF05
:1020A0000DC0282F2871283019F4877F846006C05E
:1020B000282F2471243011F48B7F886093FF0DC08A
:1020C000282F2871283119F4877E846106C0282FB3
:1020D0002471243111F48B7E88612091480220FF05
:1020E0000DC0382F3871383019F4877F816006C0F1
:1020F000382F3171313011F48E7F886021FF0DC08F
:10210000282F2871283119F4877E816106C0282F75
:102110002171213111F48E7E886194FD877E0895AE
:10212000F894E82FE295EF70F0E031A1282F2F709E
:1021300081E090E001C0880F2A95EAF7982F9095EA
:10214000932391A392A1892B82A3789408958F92CF
:102150009F92AF92BF92CF92DF92EF92FF920F9336
:102160001F93CF93DF93CDB7DEB72A970FB6F894BE
:10217000DEBF0FBECDBFAE014F5F5F4F7A018AE079
:10218000FA0111928A95E9F702E711E06A01AA249F
:10219000A394B12CF80180818F3F09F447C0F894D3
:1021A000E82FE295EF70F0E021A18F70A50102C049
:1021B000440F551F8A95E2F7CA01922F982B91A3DD
:1021C00092A18095892382A3789400C0E7E7F1E08B
:1021D00021E030E0812C912C41914F3F89F0A42FD8
:1021E000A295AF70B0E090968C9190E04F7002C0D5
:1021F000959587954A95E2F780FD02C0C90102C016
:1022000080E090E0882A992A220F331F51E0E638B7
:10221000F50711F7F80180818F3F11F00E949010AF
:10222000F0EAFA95F1F7F601918280820F5F1F4F75
:10223000F2E0CF0ED11C41E00737140709F0AACF16
:102240004AE050E0B70189E392E00E94BF2E11E01E
:10225000009709F410E0892B89F08AE0F701A9E3DF
:10226000B2E001900D928A95E1F781E08093EB0155
:102270000E948F289093EA018093E9018091EB01FD
:10228000882391F18091E9019091EA010E948028D0
:10229000059750F18091390290913A0290934B0248
:1022A00080934A0280913B0290913C0290934D02B0
:1022B00080934C0280913D0290913E0290934F0298
:1022C00080934E0280913F02909140029093510280
:1022D0008093500280914102909142029093530268
:1022E000809352021092EB01812F2A960FB6F89438
:1022F000DEBF0FBECDBFDF91CF911F910F91FF9039
:10230000EF90DF90CF90BF90AF909F908F90089507
:10231000CF93DF938238910569F1B0F48133910551
:1023200009F46FC048F48932910509F465C08A3216
:10233000910509F46BC08AC08533910509F457C033
:1023400089339105B9F082C0833E910571F138F46B
:10235000803E9105B1F0823E910511F177C0863E35
:102360009105B9F1873E9105C9F1843E910509F0C7
:102370006DC024C02091470220FD53C021FD51C0F3
:1023800065C08091470280FD46C08091480280FF71
:1023900048C08091470284FD50C183EE90E04FC158
:1023A0008091470282FF3AC0F4CF8091470282FDBC
:1023B00035C08091480280FD34C0EBCF8091480247
:1023C00081FF35C08091470284FD37C187EE90E0E0
:1023D00036C18091470283FF27C0F4CF8091470226
:1023E00083FD22C08091480281FD21C0EBCF809106
:1023F000470285FD1FC021C08091470285FD1DC099
:1024000019C08091470286FD1BC01DC08091470204
:1024100086FD19C015C089E390E011C182EE90E0FD
:102420000EC180EE90E00BC186EE90E008C184EE14
:1024300090E005C189E290E002C185E390E0FFC031
:102440008AE290E0FCC081E390E0F9C0811531E5BB
:10245000930708F069C0811540E59407F0F09C01EE
:1024600074E0369527957A95E1F7922F9370482F6F
:10247000437021E030E002C0220F331F4A95E2F79B
:102480003C68392B982F9F709695969540E2949FC3
:10249000C0011124822B932BD2C0883E910568F590
:1024A000803E910508F0CBC0883A9105B8F4853A92
:1024B000910548F0855AE82FF0E0E45EFE4F8081F8
:1024C00090E09064BCC08130910509F4B3C008F479
:1024D000B4C08430910508F4B0C0B1C08F3B910501
:1024E00008F0ABC0885AE82FF0E0EE0FFF1FE15E66
:1024F000FE4F808191819464A2C0811520E29207F1
:1025000058F4811531E0930708F099C08D3E91058C
:1025100008F493C0906593C0811540E4940708F4D3
:102520008CC09F70906A8BC0811525E5920708F0DA
:1025300042C0811534E5930728F0982F8827846FCF
:10254000906A7DC0811543E59407B0F09C0123702B
:10255000332741E050E002C0440F551F2A95E2F7AF
:10256000282F2695269580E2289F90011124CA01E4
:10257000822B932B9A6863C0811522E5920728F479
:10258000982F8827816F906A5AC09C012370332747
:1025900041E050E002C0440F551F2A95E2F7282F72
:1025A0002695269580E2289F90011124CA01822B4E
:1025B000932B9C6844C0EC01811539E59307A8F47E
:1025C0008115984528F09C2F8827806F906A37C026
:1025D000C11586E5D80788F58C2F0E944D108F71A4
:1025E00090E0982F882790622AC081152AE59207EB
:1025F00090F48C2F8F700E944D1094E0D695C79563
:102600009A95E1F7CF70D0E0DC2FCC27D0699E01FE
:10261000282BC90114C090568115904270F48D2F5B
:102620008F710E944D10282F2F71CE019927906233
:10263000922B05C081E090E002C080E090E0DF9145
:10264000CF910895CF9384E090E00E94CD2DC82FC4
:1026500082E290E00E94CD2D2C2F30E0A901582B72
:10266000CA01CF91089569EE7EEF80E090E00E946C
:10267000FF2D60E082E090E00E94E12D60E083E0C9
:1026800090E00E94E12D1092E5011092E601109277
:10269000E7011092E80160E084E090E00E94E12D03
:1026A00060E082E290E00E94E12D60E085E090E051
:1026B0000E94E12D60E086E090E00E94E12D6FEF46
:1026C00087E090E00E94E12D40E050E0BA0188E010
:1026D00090E00E94F32D60E08DE090E00E94E12DFB
:1026E00040E050E0BA0188E190E00E94F32D60E004
:1026F00087E190E00E94E12D40E050E0BA018CE1DA
:1027000090E00E94F32D60E070E080E290E00E9493
:10271000FF2D40E050E0BA0188E190E00E94F32DE7
:1027200040E050E0BA018FE090E00E94F32D40E0DD
:1027300050E0BA0183E190E00C94F32D8091E40124
:1027400081111092E401089580959091E30189230D
:102750008093E3010895EF92FF920F931F93CF931D
:102760009091E3018091E201982B909399018091DF
:10277000E401882389F0892B80939901EBE9F1E04A
:1027800097E080E0915029F021912223D9F38F5FC7
:10279000F9CF81110E949E1348E050E06AED71E08C
:1027A00089E991E00E94BF2E892B09F448C088E096
:1027B000E9E9F1E0AAEDB1E001900D928A95E1F727
:1027C000E0918102F09182023097C9F10280F38199
:1027D000E02D89E991E009958091FE0182FF2FC0EB
:1027E00080FF04C088E296E00E94CD0609E911E06E
:1027F000C8E082E2E82E86E0F82E8091FE0180FF9C
:102800000CC0F80180811F928F93FF92EF920E947B
:1028100066070F900F900F900F90C1500F5F1F4FE2
:10282000C111EBCF8091FE0180FF09C080E296E0EC
:10283000CF911F910F91FF90EF900C94CD06CF9107
:102840001F910F91FF90EF9008952091D9018095ED
:1028500082238093D901982F977099F430E0482F04
:10286000082E000C550B2417350759F0909148029B
:1028700092FD07C08595859585950E94292B10921C
:10288000D9010895CF93DF93C0914802C2FB9927E5
:1028900090F9981719F1D82F80FBC2F9C09348021C
:1028A0006091470284E090E00E94E12D6C2F82E26B
:1028B00090E00E94E12D82E00E9425148091FE01AB
:1028C00080FF0CC01F92DF938BE096E09F938F9365
:1028D0000E9466070F900F900F900F90DF91CF919D
:1028E00008958091D8019091A701891719F08F5F01
:1028F0008770FBCF08950F931F93CF93DF93809141
:10290000A60182958F7009F05DC08091A301882394
:1029100009F458C08091D8011091A7016091A101DC
:102920007091A201C091A401D091A50191E06F3FE7
:1029300009F090E0292F06E0811709F443C02097A1
:1029400021F07F3F21F030E003C031E001C0322FA1
:1029500090E030FD34C0089FF001099FF00D112474
:10296000DF01A855BE4F11963C911197371327C030
:102970003C91361324C012963C91129731111FC01E
:1029800013964D915C9114974C1B5D0B483C51057F
:10299000B0F48091A6018F7080618093A601E35509
:1029A000FE4F80818F708061808381EA91E00E9478
:1029B0001708DF91CF911F910F910C94711401961C
:1029C0008770BACFDF91CF911F910F910895CF9368
:1029D000DF93EC010E946F2A2BE4829FC001112437
:1029E000FC012FE0D29FE00DF11D1124EC0FF11D31
:1029F000EE0FFF1FE957FD4F859194910E948811BA
:102A0000DF91CF9108959F92AF92BF92CF92DF92C4
:102A1000EF92FF920F931F93CF93DF93CDB7DEB763
:102A200061970FB6F894DEBF0FBECDBF8C0185E075
:102A3000F801DE011D9601900D928A95E1F7F801EB
:102A4000E2809091A1016091A2014091A401509176
:102A5000A5014115510531F06F3F31F481E09F3FF1
:102A600019F403C081E001C080E0F82FF1709F2EBF
:102A700080FD1AC1F80130812181C380D48081EAB0
:102A8000A82E81E0B82EF090A301F601E41BF50B0F
:102A9000FF2009F4C6C08091A601E83CF10508F0CA
:102AA00091C0482F407F09F050C0621311C09313AA
:102AB0000FC0FE2CE1100CC08F7080618093A601C6
:102AC000C5010E9417088091A601F801858329C1DC
:102AD000CD2831F02F3F31F481E03F3F19F403C09E
:102AE00081E001C080E080FD03C081E08E2502C04E
:102AF00080E090E0F82FF170FF2E80FF1CC08091E5
:102B0000D8014091A70156E0841709F4E8C090E08D
:102B1000589FF001599FF00D1124E855FE4F618137
:102B2000261306C06081631303C06281E61203C0EE
:102B300001968770E9CFFE2CEE2009F4F2C0809157
:102B4000A60181608093A60149C0621306C0931359
:102B500004C0E11002C0F80186C0C8010E94792BB0
:102B6000882351F1EE2041F12091A601822F829518
:102B70008F7090E0029774F08091A1019091A20172
:102B800098878F831986DB86CA862C87CE010796A5
:102B90000E94170886E0F801A1EAB1E001900D92C9
:102BA0008A95E1F70E947B140AC06217C9F0C80138
:102BB0000E94792B81111EC0C8010E941708FF24B2
:102BC000F394AFC0482F407F81F781EA91E00E94E3
:102BD000170886E0F50111928A95E9F7F12CA1C05A
:102BE0009313E5CFE110E3CFF8018583C8010E947C
:102BF000170854C0EE2001F32091A601822F829580
:102C00008F7090E0029734F28091A1019091A2011F
:102C10009A8389831B82DD82CC822E83CE0101962A
:102C2000B7CFE83CF105D0F5FE2CEE2029F2621377
:102C300027C0931325C02091A60120FD18C0822F24
:102C400082958F70482F50E04115510581F0F801B1
:102C500025834F30510541F08F5F982F9295907FDB
:102C6000822F8F70892B8583C8010E94170886E008
:102C7000F801A1EAB1E001900D928A95E1F751C007
:102C8000C8010E94792B811185CF8091A6018160B6
:102C90008093A601C8010E94170843C086E0F50191
:102CA00011928A95E9F73DC0EE2009F485CFC8015D
:102CB0000E94792BF82E882309F47ECF86E0F80154
:102CC000A1EAB1E001900D928A95E1F78091A1010E
:102CD0009091A2010E94E7140E947B1422C03D87BC
:102CE0002E878D859E850E94E714292F22952F70AF
:102CF000223028F49F7039F0811105C00BC02430B8
:102D000028F49F7049F4805E883020F0C8010E944A
:102D100017089F2CF92C05C0F8019581907F99F731
:102D2000F9CF8F2D61960FB6F894DEBF0FBECDBFE1
:102D3000DF91CF911F910F91FF90EF90DF90CF9097
:102D4000BF90AF909F9008950895AF92BF92CF9299
:102D5000DF92EF92FF920F931F93CF93DF93E82EB2
:102D6000F62EE901E42FF0E0611106C0EC57F94FAF
:102D7000E4914E2F2E2F71C0062F10E0EC57F94F23
:102D80004491F42FC42ED12C26E0829FC00111243F
:102D90002FEF30E0B9010E94312E5BEA5603C001EB
:102DA000579F900D11248E0D911D8E0D911D582F42
:102DB000550F580FD901A01BB10BAC9DC001AD9DA3
:102DC000900DBC9D900D1124E92FF59ED00111248A
:102DD000AB2FBB277901EA1AFB0AEC9CD001ED9CD2
:102DE000B00DFC9CB00D11245901A51AB108A09E8C
:102DF0007001A19EF00CB09EF00C1124EF2CFF246A
:102E00002E193F092C9D80012D9D100D3C9D100D0C
:102E10001124212F6230710591F048F4611571057C
:102E2000E1F061307105B9F4242F4B2F16C06430E6
:102E3000710569F040F06630710579F00CC0242FFF
:102E4000492FE12F0AC0492FEF2F2B2F06C0292F22
:102E5000E42F412F02C0292FEB2F49832883EA83D7
:102E6000DF91CF911F910F91FF90EF90DF90CF9066
:102E7000BF90AF90089580E090E00E94DB2D893EE6
:102E80009E4F51F00E9433138091780284708961C3
:102E9000809378020E944F2A86E090E00E94CD2D18
:102EA00080937802282F26952695269530E02430A9
:102EB000310524F0877088618093780280917802D0
:102EC00080FF04C086958695869501C080E00C94AD
:102ED000212A882311F0FA0101C0FB010994109204
:102EE00000028091FE0180FF08C08FE498E09F936C
:102EF0008F930E9466070F900F900895809134027F
:102F000080FF0AC0809A81B38E7F91B391602FB702
:102F1000F894E4E0F2E00BC0E4E0F2E01182108209
:102F20001282339632E0E433F307C1F7EBCF32E09D
:102F3000E433F30789F0319148E091BB000000C011
:102F400037FF81BB330F000000C000C000C081BB51
:102F500000C04A9591F7EBCF2FBF8FE594E0019722
:102F6000F1F700C000000895EF92FF920F931F93B6
:102F7000CF93DF938C01C4E0D2E0E12CF12CF80177
:102F80008481F8E0EF16F1041CF4882339F002C0C4
:102F9000811104C09E014091370202C09E0140E0B1
:102FA00060913602809135020E94A5168FEFE81AD3
:102FB000F80A239690E1E916F10409F70E947E17BA
:102FC000F801848190E00196817099278483DF91D4
:102FD000CF911F910F91FF90EF9008958F929F9244
:102FE000AF92BF92CF92DF92EF92FF920F931F9317
:102FF000CF93DF93EC014C81042F10E09801D801AE
:103000000E94892E9B01AC010E949F2E6B017C01C6
:10301000E0E2F0E0E01BF10BA5E5B0E09B01AC01C4
:103020000E949F2E4B015C019F01DF010E94812EB7
:103030009B01AC010E94AA2E9B01AC012C0D3D1DF1
:103040004E1D5F1DC501B4010E94592E822FF22E24
:1030500099E2921728F093E0299F900111240DC066
:1030600025E530E0281B3109C901880F991F280F79
:10307000391F37FF02C02F5F3F4F35952795122F1D
:10308000109594E0C92E92E0D92E00E085E5E82E57
:10309000EF1801FD02C08E2D01C08F2D9601412F2A
:1030A000609136020E94A5160F5F83E0C80ED11C06
:1030B000003179F70E947E178C81811102C091E066
:1030C00003C0803219F49FEF90930D0190910D0190
:1030D000890F8C83DF91CF911F910F91FF90EF901B
:1030E000DF90CF90BF90AF909F908F9008950F93F7
:1030F0001F93CF93DF93C4E0D2E0FE0111821082D0
:103100001282339682E0E433F807C1F700E010E062
:1031100080910202082E000C990B0817190794F0F1
:1031200080910C01082E000C990B8017910754F028
:103130009E014091370260913602809135020E94D3
:10314000A51603C0198218821A820F5F1F4F23969B
:1031500000311105E9F60E947E1780910B019091D4
:103160000202980F9093020220910C01280F2093E5
:103170000C01121614F49F301CF0819580930B0102
:10318000DF91CF911F910F910895CF92DF92EF922F
:10319000FF920F931F93CF93DF93FC01828180FFF7
:1031A00003C0DD24DA9402C0DD24D394C4E0D2E06D
:1031B00000E010E0198218821A8294E0E92EF12CC6
:1031C000C12C809101028C0D813114F08F7002C0EE
:1031D00087FD805F082E000C990B0817190791F4E2
:1031E000809137028E9DA0018F9D500D1124559521
:1031F0004795559547959E0160913602809135021D
:103200000E94A516CD0CF1E0EF1AF108D1F60F5F80
:103210001F4F23960031110569F60E947E17809199
:10322000010291E0D91206C0811102C08FE006C0F0
:10323000815004C090E001968F709927809301021D
:10324000DF91CF911F910F91FF90EF90DF90CF9082
:103250000895EF92FF921F93CF93DF93EC0184E0E8
:10326000E82E82E0F82E10E08C8197014091370221
:1032700060913602810F0E94A516115F83E0E80E6F
:10328000F11C103F89F70E947E179A818C8190FF74
:1032900002C08F5F01C081508C83DF91CF911F915D
:1032A000FF90EF9008959091340290FF0CC0E4E0FD
:1032B000F2E0818360834283339692E0E433F9073E
:1032C000C1F70C947E1708950F931F93CF93DF934C
:1032D00000D01F92CDB7DEB78C018091030281111F
:1032E0000AC09E012F5F3F4F4FEF6FEF0E94A51660
:1032F0008A8180930302F8018481813051F028F0A3
:10330000823061F4409103020AC08091030240E0E0
:1033100007C06091030240E080E003C040E080E02D
:1033200060E00E945319F801848190E0019663E007
:1033300070E00E94452E84830F900F900F90DF91D4
:10334000CF911F910F910895CF93DF9300D01F92DB
:10335000CDB7DEB79091340290FF0AC09E012F5F77
:103360003F4F0E94A5164B8169818A810E945319A3
:103370000F900F900F90DF91CF910895CF93DF932F
:10338000EC01E4E3F2E0438162818C810E94A419A4
:103390008C818F5F8C83DF91CF910895CF93DF93E2
:1033A000EC01EC81F0E0E859F74F4491E4E3F2E0FE
:1033B000628181810E94A4198C818F5F8C83DF914F
:1033C000CF91089580913402282F269530E0211561
:1033D000310519F48170826005C02532310524F071
:1033E00081708864809334020895CF92DF92EF92C7
:1033F000FF926B017C010E94E219B701A60188E0EF
:1034000090E0FF90EF90DF90CF900C94F32D3F92DF
:103410004F925F926F927F928F929F92AF92BF92E4
:10342000CF92DF92EF92FF920F931F93CF93DF9390
:1034300000D01F92CDB7DEB7182F762E042F422E64
:103440009091340290FFB2C0E92FE695AE2FB0E024
:10345000A35BBE4F8C918093FF019E7F923061F4FD
:103460009E012F5F3F4F812F0E94A5164B816981DE
:103470008A810E94531960C0823019F4009137028A
:103480005BC0863019F41091350256C08930D9F3EB
:10349000893109F051C0E9518E2F8170582E81E099
:1034A000652C6826E695F0E0E65BF74FC590D49072
:1034B00034E0A32E32E0B32EE12CF12CDD2443E2E4
:1034C000842E48E0942EEC9CC001ED9C900DFC9C59
:1034D000900D112424E0969587952A95E1F7312ED9
:1034E000511002C0380E01C0381A8091FE0180FFD1
:1034F00011C0DF92CF921F926F921F923F92FF9264
:10350000EF929F928F920E9466070FB6F894DEBFEB
:103510000FBECDBF9501402F672D832D0E94A516AC
:103520009FEFE91AF90A83E0A80EB11C90E1E916B1
:10353000F10449F60E947E1710933502709236020C
:10354000009337024420E9F0609134027091350213
:1035500080913602909137020E94F5198091FE0108
:1035600080FF24C0809137021F928F938091360292
:103570001F928F93809135021F928F938EEF97E069
:103580000CC08091FE0180FF11C01F920F931F920B
:103590007F921F921F9387ED97E09F938F930E94D6
:1035A00066070FB6F894DEBF0FBECDBF0F900F9029
:1035B0000F90DF91CF911F910F91FF90EF90DF90CF
:1035C000CF90BF90AF909F908F907F906F905F90C3
:1035D0004F903F900895E4E3F2E0438128E0421BDE
:1035E00008F440E021E0628181810C94071AE4E351
:1035F000F2E0438128E0420F08F44FEF21E06281BE
:1036000081810C94071AE4E3F2E0628128E0621BF6
:1036100008F460E021E0438181810C94071AE4E31F
:10362000F2E0628128E0620F08F46FEF21E043814D
:1036300081810C94071AE4E3F2E0818121E0438167
:10364000628188500C94071AE4E3F2E0818121E062
:1036500043816281885F0C94071A80913802882325
:1036600019F08150809338026091340270913502D4
:1036700080913602909137020C94F51980913802AE
:10368000833018F48F5F8093380260913402709118
:10369000350280913602909137020C94F519909181
:1036A000340290FF68C09170811102C0926006C020
:1036B000853210F0986402C0880F982B90933402E2
:1036C0006623B1F060913402709135028091360228
:1036D000909137020E94F5198091FE0180FF1BC076
:1036E0008091340286951F928F938BEB97E00BC0ED
:1036F0008091FE0180FF0FC08091340286951F9259
:103700008F938DE997E09F938F930E9466070F90A8
:103710000F900F900F9060913402669570E04BE02F
:1037200050E080E091E00E94B22E892B19F00E94B7
:103730006F1715C081E0809300020E948F2890933C
:10374000F9018093F8018091FE0180FF08C084E8B0
:1037500097E09F938F930E9466070F900F9081E0F0
:103760008093FB0120E04091370260913602809106
:1037700035020C94071A0895809134028695815081
:1037800009F484E261E00C944F1B80913402869529
:103790008F5F853208F081E061E00C944F1B9091BF
:1037A000340290FF04C09695981740F003C0811131
:1037B00005C090E0961710F40C94C51B61E00C94C2
:1037C0004F1BE4E3F2E083E0808311828FEF82837A
:1037D0008383148260817181828193810C94F519B5
:1037E0008091FE0183FF7EC081E696E00E94CD06B7
:1037F0008091F3011F928F938CE596E09F938F93B6
:103800000E9466078AE596E00E94CD068091F40149
:10381000282F082E000C330B3F938F9387E596E0FB
:103820009F938F930E94660785E596E00E94CD06E0
:103830008091F501282F082E000C330B3F938F93B6
:1038400082E596E09F938F930E94660780E596E05D
:103850000E94CD068091F601282F082E000C330B14
:103860003F938F938DE496E09F938F930E9466071A
:103870008BE496E00E94CD068091F701282F082E58
:10388000000C330B3F938F9388E496E09F938F93C4
:103890000E94660785E496E00E94CD068091ED01C6
:1038A0001F928F9382E496E09F938F930E94660706
:1038B00080E496E00E94CD068091EC011F928F93E8
:1038C0008DE396E09F938F930E9466078AE396E0CC
:1038D0000E94CD068DB79EB74C960FB6F8949EBF4A
:1038E0000FBE8DBF0E948F282091F401211104C0CA
:1038F0002091F501222321F09093F1018093F001B2
:103900002091F601211104C02091F701222321F01A
:103910009093EF018093EE01E0918102F091820299
:10392000309749F082E08093F2010480F581E02D28
:1039300082EF91E009940895CF93DF93CDB7DEB77E
:1039400061970FB6F894DEBF0FBECDBF84B7877FF7
:1039500084BF0FB6F894A895809160008861809329
:103960006000109260000FBE90E080E80FB6F894FF
:1039700080936100909361000FBE85B7806885BF1A
:1039800085B7806885BF84E996E29093970180931C
:1039900096010E9459240E9478248091E20084605C
:1039A0008093E200789480916E028823A1F01091B8
:1039B000E9001F709091EC00892F817090FD80E8E4
:1039C000182B1092E9008091E80083FD0E944721A6
:1039D0001F701093E90082E084BD93E095BD9AEFDB
:1039E00097BD80936E0002E711E057E7E52E51E0A6
:1039F000F52ED8018D918D018F3F11F00E9490100E
:103A0000E016F106B1F707E711E0F80181918F01A7
:103A10008F3F11F00E949010F1E006381F07A9F7C0
:103A20008AE0EAE4F2E0DF01282F1D922A95E9F707
:103A3000E9E3F2E0DF011D928A95E9F780E090E08A
:103A40000E94DB2D893E9E4F11F00E94331382E0CD
:103A500090E00E94CD2D8093FE010E94221390934E
:103A600048028093470283E090E00E94CD2D682FAA
:103A700070E080E090E00E946F2B279A2F988AE0F8
:103A80008093800089E1809381008FEF9FEF909376
:103A90008700809386000E943B178091780281FF07
:103AA0000BC010927B0210927A02109279028091E0
:103AB0006F00816080936F000E943B1780914902E4
:103AC0008111E0C08091FE0180FF08C08AEA9AE07F
:103AD0009F938F930E9466070F900F908091FE0135
:103AE00080FF08C084E99AE09F938F930E94660745
:103AF0000F900F9080E090E00E94DB2D893E9E4F5A
:103B000081F08091FE0180FF08C08CE69AE09F93CF
:103B10008F930E9466070F900F900E9433130E94AC
:103B2000E11B88E090E00E94D52D609334027093F1
:103B3000350280933602909337026E7FD1F48091E4
:103B4000FE0180FF08C083E29AE09F938F930E945A
:103B500066070F900F900E94E11B88E090E00E94A2
:103B6000D52D609334027093350280933602909382
:103B700037020E94E2198091FE0180FF08C08AE0AE
:103B80009AE09F938F930E9466070F900F90809109
:103B9000FE0180FF0FC08091340281701F928F93CD
:103BA0008DEE99E09F938F930E9466070F900F9080
:103BB0000F900F908091FE0180FF0FC08091340222
:103BC00086951F928F9382ED99E09F938F930E9429
:103BD00066070F900F900F900F908091FE0180FF6D
:103BE0000EC0809135021F928F9388EB99E09F93CE
:103BF0008F930E9466070F900F900F900F90809107
:103C0000FE0180FF0EC0809136021F928F938EE9D5
:103C100099E09F938F930E9466070F900F900F90EB
:103C20000F908091FE0180FF0EC0809137021F929D
:103C30008F9384E899E09F938F930E9466070F907B
:103C40000F900F900F908091FE0180FF0EC0809129
:103C500038021F928F9388E699E09F938F930E947A
:103C600066070F900F900F900F90109200028091B6
:103C7000340280FF04C060E086950E944F1B81E003
:103C8000809349028EE091E09093820280938102BA
:103C900080916E02853009F051C081EC9AE00E945B
:103CA000CD0640E4F42E00E112E180916E028530F1
:103CB00009F03EC080916E02843031F180E00E94B4
:103CC000212A1092850228E130E00FB6F894A895D9
:103CD000209360000FBEF092600083B7817F846004
:103CE00083BF83B7816083BF7894889583B78E7FC5
:103CF00083BF0FB6F894A895809160008861809387
:103D00006000109260000FBE80916D02882309F45C
:103D1000CCCF0E94A710EAE4F2E081919191892B27
:103D200009F069C244E552E04E175F07B1F7BDCF15
:103D30000E94992B0E943B170E9417290E94A710EE
:103D4000882359F08FB7F8944091860250918702EA
:103D500060918802709189028FBF24E5422E22E093
:103D6000522E3AE4632E32E0732E00E010E0098B0D
:103D7000D301AD90BD903D01F201C190D1902F01D2
:103D8000CA24DB24C114D104B1F40F5F1F4F0530E6
:103D9000110569F78FEF8C878D871E860E948F280B
:103DA0008160782F988B8F874C855D856E8588899B
:103DB0000E946F0778C08091FE0181FD05C080E000
:103DC000EE24E394F12C49C085ED9AE00E94CD06E3
:103DD0008AE4882E82E0982EE12CF12CFF92EF925B
:103DE00020ED3AE03F932F930E9466078DEC9AE016
:103DF0000E94CD06D4018C9111962C90B2E08B0ECE
:103E0000911C0E943B10382E822D0E943B10232DC6
:103E100030E0322F2227F901E82BCF019F938F93B7
:103E200027EC3AE03F932F930E94660785EC9AE0D7
:103E30000E94CD065FEFE51AF50A0FB6F894DEBFD3
:103E40000FBECDBF95E0E916F10441F6B8CF8F5F04
:103E5000EE0CFF1C8F3009F498CF97012C213D21E7
:103E6000232BA9F38F83A989A887AE20BF2081E0E7
:103E7000AB2809F480E089870E948F288160782F21
:103E80009B878A874F81588569858B850E946F073C
:103E9000000F111FF801EC5AFD4F80819181E82637
:103EA000F926F182E08280910002882309F493C010
:103EB0008091FF01E0913402E695E81BE093FA015E
:103EC000823059F4F0E0E650F54FE4910E2F10E007
:103ED000EEECEE2EE9E1FE2E59C0863059F4F0E00A
:103EE000E950F54FE4910E2F10E07EEBE72E79E1DB
:103EF000F72E4CC0893061F4E695F0E0EC50F54FB8
:103F0000E4910E2F10E069E2E62E69E1F62E3EC044
:103F10008F3061F4E695F0E0EF50F54FE4910E2F0D
:103F200010E055ECE52E58E1F52E30C0853159F4FE
:103F3000F0E0E251F54FE4910E2F10E047E7E42E58
:103F400048E1F42E23C08831A1F0833249F4ECEE2D
:103F5000FAE00591149134E6E32E39E1F32E16C010
:103F6000843271F404EF11E024EBE22E27E1F22E0B
:103F70000DC008E210E09EEEE92E97E1F92E06C092
:103F800000ED17E084EAE82E86E1F82E8091FB012F
:103F9000882361F01092FB010E948F289093F90111
:103FA0008093F8011092FD011092FC010E948F286D
:103FB000E091F801F091F9018E1B9F0B8F3F9F4715
:103FC00050F40E0F1F1F1093F9010093F80188EFB2
:103FD00091E0F701099586E0E2EFF1E0DE0111964C
:103FE00001900D928A95E1F7E090F401F090F501CF
:103FF0000091F6011091F7011092F4011092F50171
:104000001092F6011092F701E11003C0FF2009F4AD
:1040100051C08091F0019091F1010E9480289C0193
:104020009091ED01992309F4FCC02531310508F484
:1040300041C09F3F19F09F5F9093ED01EE2061F02A
:104040000E94522D1E1414F09FEF01C091E0899F31
:10405000802D11248093F401FF2061F00E94522DE5
:104060001F1414F09FEF01C091E0899F802D11244F
:104070008093F5013091F4013323E1F02091F501B3
:104080002223C1F045EB3403C0011124992319F018
:104090009093F40103C081E08093F40155EB250374
:1040A000C0011124992319F09093F50103C081E018
:1040B0008093F501011103C0112309F451C08091CF
:1040C000EE019091EF010E9480289C019091C00226
:1040D000992309F4ABC02135310508F441C09F3F55
:1040E00019F09F5F9093C002002361F00E94302D71
:1040F000101614F09FEF01C091E0899F802D1124CC
:104100008093F601112361F00E94302D111614F0F6
:104110009FEF01C091E0899F802D11248093F701CA
:104120003091F6013323E1F02091F7012223C1F011
:1041300045EB3403C0011124992319F09093F60143
:1041400003C081E08093F60155EB2503C0011124E3
:10415000992319F09093F70103C081E08093F70150
:104160008091F40181110BC08091F501811107C08C
:104170008091F601811103C08091F70181110E94A5
:10418000F01BEB82FC820D831E8386E0FE013196DC
:10419000A2EFB1E001900D928A95E1F70E941729F4
:1041A000182F80915E02181709F472CD10935E02E9
:1041B0008091FE0182FF6CCD80FF04C085E09BE012
:1041C0000E94CD068091FE0180FF0CC01F921F93BC
:1041D00080E09BE09F938F930E9466070F900F9063
:1041E0000F900F908091FE0180FF52CD8EEF9AE0EC
:1041F0000E94CD064DCD09BD19BD09B400FEFDCF0D
:104200008091D8008F7D8093D8008091E0008260FB
:104210008093E0008091E00081FDFCCF0E94992B0B
:1042200044CD2B30310508F006CF44CF2B3031057B
:1042300008F057CF95CFEF92FF920F931F93CF9334
:10424000DF937C018B010E947527811119C0E70162
:1042500001151105A1F08091E80085FD0AC080914B
:10426000E8008E778093E8000E947527882381F309
:1042700007C089918093F10001501109E9CF80E0D6
:10428000DF91CF911F910F91FF90EF9008951F93B1
:10429000CF93DF93CDB7DEB7AA970FB6F894DEBF02
:1042A0000FBECDBFE0E7F2E08091F100819342E0E4
:1042B000E837F407C9F780917102833009F461C0CF
:1042C00030F4813071F0823009F49BC0B2C08A3082
:1042D00009F487C08B3009F46CC0893009F0A9C09B
:1042E00020C080917002813A09F0A3C08091E8005B
:1042F000877F8093E8008091740290917502892BEA
:1043000021F468E084E692E003C060E080E090E0A1
:1043100070E00E94FC278091E8008B778093E80092
:1043200088C080917002813209F083C0809174024C
:1043300090917502029708F07CC08091E800877F19
:104340008093E8008091E80082FD05C080916E02B4
:104350008111F8CF6EC02091F3008091F20090E0BF
:10436000922B029731F48091F100813011F0863068
:1043700021F48091F100809363028091E8008B77B3
:1043800054C080917002813A09F053C08091740248
:1043900090917502892B09F04CC08091E800877FCD
:1043A0008093E8008091E80080FFFCCF80911A01A3
:1043B00037C0809170028132E1F580917402909152
:1043C0007502892BB1F58091E800877F8093E80022
:1043D0000E94A8278091720280931A010E94992B53
:1043E00028C080917002813221F58091E800877F9A
:1043F0008093E8000E94A827809173028093620254
:1044000018C080917002813AA1F48091E800877F02
:104410008093E8008091E80080FFFCCF80916202E9
:104420008093F1008091E8008E778093E8000E94ED
:10443000A8278091E80083FFDAC1809170029091F3
:104440007102492F50E04A30510508F0D0C1FA01FD
:10445000E759FF4F0C947B2E803821F0823809F009
:10446000C6C108C080916C0290916D02992389F0B9
:1044700082600FC0809174028F70873008F0B7C1DE
:104480008093E9008091EB0085FB882780F91092EA
:10449000E9009091E800977F9093E8008093F10005
:1044A0001092F10070C1282F2D7F09F0A0C1882340
:1044B00019F0823061F09BC180917202813009F065
:1044C00096C1933009F080E080936D022EC08091F8
:1044D000720281112AC0809174028F702FEF280F11
:1044E000263008F084C18093E9002091EB0020FF82
:1044F0001CC0933021F48091EB00806214C0909135
:10450000EB0090619093EB0021E030E0A90102C044
:10451000440F551F8A95E2F74093EA001092EA0093
:104520008091EB0088608093EB001092E90080910D
:10453000E800877F8093E8000E94A82758C1811176
:1045400056C1109172021F778091E3008078812B11
:104550008093E3008091E800877F8093E8000E94C9
:10456000A8278091E80080FFFCCF8091E30080685D
:104570008093E300111102C082E001C083E08093C8
:104580006E0235C18058823008F031C1209172022C
:10459000309173022C3D53E0350779F583E08A832F
:1045A0008AE289834FB7F894DE01139620E03EE05B
:1045B00051E2E32FF0E050935700E49120FF03C055
:1045C000E295EF703F5FEF708E2F90E0EA3010F0D1
:1045D000C79601C0C0968D939D932F5F243149F7F4
:1045E0004FBF8091E800877F8093E8006AE270E027
:1045F000CE0101960E94FC27B5C080917402909173
:104600007502432F552743305105A9F068F4413016
:10461000510509F4FBC04230510509F0E8C08BE5B3
:1046200090E0E1E0FCE04BC04132510529F142321B
:10463000510589F1DCC0C901992781309105A1F0AC
:1046400058F0029709F0D3C0EEE6FCE0E4918E2F1B
:1046500090E0EEE6FCE030C0EAE8FCE0E4918E2F6A
:1046600090E0EAE8FCE028C0EAE7FCE0E4918E2F65
:1046700090E0EAE7FCE020C08330910508F0B7C085
:10468000880F991FFC01E157FE4F0190F081E02D4A
:1046900089E090E014C08330910508F0A8C0FC01C7
:1046A000EE0FFF1FE757FE4F0190F081E02DDC0178
:1046B000AA57BE4F8C9190E0009709F498C02091C2
:1046C000E800277F2093E80020917602309177025E
:1046D0008217930708F49C0140E02115310589F108
:1046E00080916E02882309F43DC08530D9F1809114
:1046F000E80083FD37C08091E80082FD2FC08091E3
:10470000E80080FFEACF4091F3008091F20090E052
:10471000942B2115310559F08830910540F44491CE
:104720004093F1003196215031090196F2CF41E0DA
:10473000089709F040E08091E8008E778093E800C8
:10474000CCCF4111CDCF0AC080916E02882351F0A9
:10475000853041F08091E80083FD04C08091E8003D
:1047600082FFF2CF8091E8008B778093E8003FC012
:104770008038E9F58091E800877F8093E800809198
:104780006F028093F1008091E8008E77D3CE811183
:104790002EC08091720290917302992702973CF586
:1047A0008091E800877F8093E80010917202109357
:1047B0006F020E94A827111106C08091E30087FDB7
:1047C00002C081E001C084E080936E0242E061ECAF
:1047D00081E00E94C72742E261EC82E00E94C72785
:1047E00042E261EC83E00E94C72780916E028091D3
:1047F000E80083FF10C08091E800877F8093E80085
:104800008091EB0080628093EB0005C082E190E034
:10481000ECE5FCE054CFAA960FB6F894DEBF0FBECD
:10482000CDBFDF91CF911F9108951F920F920FB6C8
:104830000F9211242F933F934F935F936F937F9326
:104840008F939F93AF93BF93CF93DF93EF93FF9398
:10485000C091E900CF708091EC00D82FD17080FD1D
:10486000D0E81092E9008091F000877F8093F000FB
:1048700078940E9447211092E9008091F0008860AE
:104880008093F000CD2BCF70C093E900FF91EF91A2
:10489000DF91CF91BF91AF919F918F917F916F9158
:1048A0005F914F913F912F910F900FBE0F901F90EE
:1048B0001895E8EDF0E080818E7F80831092E20011
:1048C0001092DA001092E100A0EEB0E08C918160CD
:1048D0008C9380818F77808319BCA7EDB0E08C9199
:1048E0008E7F8C9380818F7E8083109261020895E9
:1048F000CF92DF92EF92FF920F931F93CF93DF93AC
:10490000C8EDD0E088818F7E8883E7EDF0E080817C
:104910008160808384E082BF81E08093610288812E
:104920008E7F888302EE10E0F80110821092DA0088
:1049300081EEC82ED12CF601108288818F77888372
:1049400088818068888388818F7D888319BC1092D4
:104950006E0210926F0210926D0210926C0290EE35
:10496000E92EF12CF70180818B7F80838881816023
:10497000888342E060E080E00E94C727F6018081E2
:104980008E7F8083F8018081816080838081886050
:104990008083F70180818E7F808388818061888316
:1049A000DF91CF911F910F91FF90EF90DF90CF900B
:1049B00008951F920F920FB60F9211242F933F93D9
:1049C0004F935F936F937F938F939F93AF93BF9317
:1049D000EF93FF938091E10082FF49C08091E20054
:1049E00082FF45C08091E1008B7F8093E1002091A0
:1049F00060022F5F822F62E30E94252E992319F017
:104A00002093600234C01092600280915F0288237C
:104A100071F180916E02843041F58091E9008F70D0
:104A20002091EC00922F917020FD90E8892B93E06B
:104A30009093E9009091EB0090FF14C09091EE00EC
:104A400097FF10C09091E80095FF03C01092F1000D
:104A5000F9CF9091E80090FF05C09091E8009E7713
:104A60009093E8008F708093E90010925F0280912C
:104A7000DA0080FF32C08091D80080FF2EC0809184
:104A8000DA008E7F8093DA008091D90080FF1CC00D
:104A900080E189BD82E189BD09B400FEFDCF81E0DE
:104AA00080936E028DEE9BE00E94CD0680916102A4
:104AB000811113C00E9459240E9478248091E20041
:104AC00084608093E20009C019BC10926E0281EFED
:104AD0009BE00E94CD06109261028091E10080FF70
:104AE0001BC08091E20080FF17C08091E2008E7FA2
:104AF0008093E2008091E20080618093E2008091E7
:104B0000D80080628093D80019BC85E080936E0243
:104B100085EF9BE00E94CD068091E10084FF34C0C8
:104B20008091E20084FF30C080E189BD82E189BDCF
:104B300009B400FEFDCF8091D8008F7D8093D8000E
:104B40008091E1008F7E8093E1008091E2008F7E72
:104B50008093E2008091E20081608093E200809186
:104B60006F02882311F084E007C08091E30087FD85
:104B700002C081E001C083E080936E0289EF9BE078
:104B80000E94CD0680916E028091E10083FF2BC0D0
:104B90008091E20083FF27C08091E100877F8093AE
:104BA000E10082E080936E0210926F028091E1003A
:104BB0008E7F8093E1008091E2008E7F8093E200FF
:104BC0008091E20080618093E20042E060E080E05A
:104BD0000E94C7278091F00088608093F0008DEFDD
:104BE0009BE00E94CD06FF91EF91BF91AF919F9105
:104BF0008F917F916F915F914F913F912F910F9086
:104C00000FBE0F901F90189508958091630208952C
:104C10008F929F92AF92BF92CF92DF92EF92FF92CC
:104C20000F931F93CF93DF938C0180918600909117
:104C300087006CE070E00E94312E6017710730F041
:104C4000C80169E070E00E94312E60C0809186004A
:104C500090918700E0908600F0908700E0918600B8
:104C6000F0918700C6E0D0E0BE010E94312E20E026
:104C700030E0060F171F211D311D4801590185E045
:104C8000880C991CAA1CBB1C8A95D1F7C701BE01D0
:104C90000E94312E6F01E12CF12CA7019601260F05
:104CA000371F411D511DC501B4010E94592E6901D4
:104CB0007A01E0918600F0918700CA01B9010E9453
:104CC000152E9B01AC01DF010E949F2E9B01AC01C0
:104CD000C701B6010E94152EDC01CB012FE0B6956D
:104CE000A795979587952A95D1F700918600109101
:104CF000870020E030E0081719072A073B0728F44F
:104D00006091860070918700CB01BC01CB01DF91DF
:104D1000CF911F910F91FF90EF90DF90CF90BF90B8
:104D2000AF909F908F9008959FB7F89410925F0274
:104D30009FBF90916E02943009F057C09091E900A6
:104D40009F703091EC00232F217030FD20E8922BD2
:104D500023E02093E9002091EB0020FF43C0209145
:104D6000EE0027FF3FC020918D02222321F02091E9
:104D7000E80025FF37C010928D0226E03091E80050
:104D800035FD15C030916E02343061F53091EB0085
:104D900035FD28C0215021F481E080938D0222C08E
:104DA000EFE9FFE03197F1F700C00000E7CF809313
:104DB000F1008091E80085FD0AC08091E80080FF45
:104DC000FCCF8091E8008E778093E80006C08FB713
:104DD000F89421E020935F028FBF9F709093E900C9
:104DE00080E008959F709093E9008FEF089580937D
:104DF0008A0270938C0260938B0280916E028430E1
:104E000001F582E08093E9008FEF9091E8008150F6
:104E100095FD06C095ED9A95F1F700008111F5CF4B
:104E20008091E80085FF0DC040E050E063E070E055
:104E30008AE892E00E941B218091E8008E7780939F
:104E4000E8000895BC0184E00C94F726BC0183E0DF
:104E50000C94F72622E02093E9002FEF3091E80030
:104E6000215035FD06C035ED3A95F1F700002111CE
:104E7000F5CF2091E80025FF0BC040E050E066E050
:104E800070E00E941B218091E8008E778093E800FB
:104E90000895CF93DF9321E02093E9002FEF309125
:104EA000E800215035FD06C035ED3A95F1F70000D8
:104EB0002111F5CF2091E80025FF14C0EC0140E05E
:104EC00050E068E070E00E941B218091E8008E773E
:104ED0008093E80088E0FE01A4E6B2E001900D9224
:104EE0008A95E1F7DF91CF9108952091E400309108
:104EF000E50095E64091EC00842F817040FF23C0CF
:104F00008091E80080FD1DC080916E02882399F099
:104F1000853099F08091EB0085FD11C04091E4004F
:104F20005091E5002417350729F3915011F09A01AB
:104F3000E1CF84E0089582E0089583E0089581E060
:104F4000089580E008954091E80042FFDDCF089584
:104F50008091700287FF11C08091E80082FD05C03A
:104F600080916E028111F8CF11C08091E8008B779B
:104F70000BC080916E02882349F08091E80080FF89
:104F8000F8CF8091E8008E778093E8000895982FFD
:104F9000973068F59093E900981739F07091EC001C
:104FA0002091ED005091F00003C0242F762F50E0A7
:104FB00021FD02C09F5FECCF3091EB003E7F30932C
:104FC000EB003091ED003D7F3093ED003091EB0030
:104FD00031603093EB007093EC002093ED00509320
:104FE000F0002091EE0027FDE5CF80E008958F705E
:104FF0008093E90081E00895209176023091770254
:105000002617370748F06115710539F42091E8003B
:105010002E772093E80001C0B901FC0120E0611562
:10502000710579F180916E028823F1F18530F1F1FB
:105030008091E80083FD3CC08091E80082FD2EC095
:105040008091E80080FFEBCF2091F3008091F20087
:1050500090E0922B6115710551F08830910538F47C
:1050600021912093F100615071090196F3CF21E065
:10507000089709F020E08091E8008E778093E8009F
:10508000CECF2111CFCF0AC080916E02882361F06C
:10509000853061F08091E80083FD0AC08091E800CE
:1050A00082FFF2CF80E0089582E0089583E00895C2
:1050B00081E0089578941F920F920FB60F921124F9
:1050C0008F939F93AF93BF938091860290918702B5
:1050D000A0918802B09189020196A11DB11D809313
:1050E000860290938702A0938802B0938902BF91B1
:1050F000AF919F918F910F900FBE0F901F901895B9
:105100009C014FB7F8948091860290918702A091FC
:105110008802B09189024FBF821B930B08952FB76D
:10512000F8948091860290918702A0918802B091B4
:1051300089022FBF08951F920F920FB60F9211246C
:105140008F939F93AF93BF9380918502811113C07A
:105150008091860290918702A0918802B091890285
:105160004196A11DB11D8093860290938702A09362
:105170008802B0938902BF91AF919F918F910F9058
:105180000FBE0F901F9018959C012A5F3F4FFC01A6
:105190004281461301C01282019682179307B9F724
:1051A00008959C01FC0132969FEF80E041914617E3
:1051B00089F09F3F19F4411101C0982F8F5F86300D
:1051C000A9F79F3F39F0F901E90FF11D97FDFA9515
:1051D00062830895089520918302309184022817F4
:1051E000390771F09093840280938302E0918102E9
:1051F000F0918202309721F00084F185E02D09942E
:10520000089520917F02309180022817390771F0AC
:105210009093800280937F02E0918102F09182025C
:10522000309721F00680F781E02D09940895E091F0
:105230008102F0918202309721F00190F081E02DFF
:10524000099480E00895EF92FF920F93CF93DF933C
:10525000C42FD22FFC0182818823D1F040937E029B
:105260000E948F2890937D0280937C0280E28C0FB5
:10527000883008F06DC0C77081E001C0880FCA9502
:10528000EAF7DF91CF910F91FF90EF900C94AB2B49
:1052900080917E0248134BC080917C0290917D02E8
:1052A0000E948028883C910508F041C0CD17C9F0C4
:1052B00080E28C0F883040F4C77081E001C0880F15
:1052C000CA95EAF70E94A42B80E28D0F883048F43B
:1052D00081E09D2F977001C0880F9A95EAF70E9490
:1052E000AB2B093319F0E12CF12C03C080E5E82E3B
:1052F000F12C802F0E94152CE114F10451F08FE95C
:105300009FE00197F1F700C0000091E0E91AF10871
:10531000F3CF802F0E94B52B80E28D0F8830C0F430
:10532000D77081E001C0880FDA95EAF70AC080E201
:105330008C0F883068F4C77081E001C0880FCA956F
:10534000EAF7DF91CF910F91FF90EF900C94A42B8F
:10535000DF91CF910F91FF90EF9008951F920F92E0
:105360000FB60F9211242F933F934F935F936F9338
:105370007F938F939F93AF93BF93EF93FF9380910E
:105380001B0191E0980F823019F090931B0148C0E7
:1053900081E080931B0180917A0290917B020196BB
:1053A00060ED72E00E94312E90937B0280937A022E
:1053B00065E070E00E94312E6F7780917902823033
:1053C00019F4603451F404C0813039F46F3729F492
:1053D00080916F008E7F80936F00E62FF0E0E257A0
:1053E000F34FE4912091860030918700E29FC00145
:1053F000E39F900D11246DEF72E00E94312E809199
:105400007802869586958695282F269FC001279F2E
:10541000900D11240E94082690938D0080938C009B
:10542000FF91EF91BF91AF919F918F917F916F917C
:105430005F914F913F912F910F900FBE0F901F9052
:105440001895843048F4811108C090918000977FAE
:10545000909380002F9806C083E090918000986020
:1054600090938000A0918600B0918700282F30E0B3
:105470000E94892E23E030E040E050E00E94592E47
:10548000B42FA32F922F8827892F9A2FAB2FBB27BA
:105490000E94082690938D0080938C000895682FB9
:1054A00086E090E00C94E12D80E090E00E940129DC
:1054B00080E090E00E94EB281092E2010E94AB1382
:1054C000E2EFF1E086E0DF011D928A95E9F71092A4
:1054D000ED011092C0021092EC010C94F01B8F921F
:1054E0009F92AF92BF92DF92EF92FF920F931F9322
:1054F000CF93DF938090430290904402A0904502A6
:10550000B09046024091E5015091E6016091E701BB
:105510007091E801842A952AA62AB72ACFE1D0E023
:105520002FE0929F700111249BE4D92E082F10E0E8
:10553000D501C4010C2E04C0B695A7959795879503
:105540000A94D2F780FD04C0219790F780E014C040
:10555000DC9EF001DD9EF00D1124EE0DFF1DE00F2D
:10556000F11FEE0FFF1FE957FD4F859194910E94A7
:105570008811019749F38C2FDF91CF911F910F91E3
:10558000FF90EF90DF90BF90AF909F908F90089525
:105590002FE0929F800D1124682F66956695669581
:1055A000982F977085E0689FB001112440E050E08B
:1055B00080E0FB01E40FF51FE257FD4F208130E052
:1055C000092E02C0369527950A94E2F721703327F9
:1055D000042E01C0220F0A94EAF7822B4F5F5F4F1F
:1055E0004530510531F708952FE0929F800D112429
:1055F000E82FE695E695E695877051E001C0550FD6
:105600008A95EAF785E0E89FF0011124E257FD4F03
:1056100020E030E070E04081CB01022E02C0969580
:1056200087950A94E2F781708195842785238427E2
:1056300081932F5F3F4F2530310569F708956093BF
:1056400043027093440280934502909346020C9467
:10565000542A0F931F9341E050E060E070E004C0D3
:10566000440F551F661F771F8A95D2F740955095B6
:10567000609570958091430290914402A0914502FB
:10568000B09146028A019B01082319232A233B2358
:10569000C901B8011F910F910C941F2B0F931F93F9
:1056A00041E050E060E070E004C0440F551F661F09
:1056B000771F8A95D2F78091430290914402A0917E
:1056C0004502B09146028A019B01082B192B2A2B17
:1056D0003B2BC901B8011F910F910C941F2B6093B4
:1056E000E5017093E6018093E7019093E8010C9443
:1056F000542AFC01808191810E94E71492959F7049
:10570000963079F010F4925001C09A50923068F4BB
:10571000803F69F018F4883E40F409C0843F29F4C2
:1057200006C0883E20F0813F11F080E0089581E0BE
:1057300008951092E30186E0EBE9F1E0DF011D92AC
:105740008A95E9F70C94542A882321F00E94A41327
:105750000C94AB130895882339F09091E301892BC1
:105760008093E3010C94AB130895882309F45CC083
:10577000823869F40E94172981FF56C069E389E9DC
:1057800091E00E94D1280E94AB1369E30EC08338D8
:1057900091F40E94172980FF47C063E589E991E0F1
:1057A0000E94D1280E94AB1363E589E991E00E9431
:1057B000C4280C94AB13843869F40E94172982FF23
:1057C00033C067E489E991E00E94D1280E94AB13BD
:1057D00067E4EBCF9CEF980F913A10F4682FE5CF78
:1057E00090E2980F983050F4877091E001C0990FC3
:1057F0008A95EAF7892F0E94A413DBCF9BE5980FC7
:10580000933020F480E090E00C94012998E5980F03
:10581000973120F480E090E00C94EB288D3E20F04E
:105820000E94B92C0C94F01B0895CF93882309F49F
:105830009EC0C82F8238B1F40E94172981FD97C0FD
:1058400069E389E991E00E94D1280E94AB132FEF10
:1058500081EE94E0215080409040E1F700C00000CC
:1058600069E317C08338E1F40E94172980FD7FC0E7
:1058700063E589E991E00E94D1280E94AB132FEFE4
:1058800081EE94E0215080409040E1F700C000009C
:1058900063E589E991E00E94C428CF910C94AB1391
:1058A0008438B1F40E94172982FD61C067E489E958
:1058B00091E00E94D1280E94AB132FEF81EE94E07B
:1058C000215080409040E1F700C0000067E4E1CF44
:1058D0008CEF8C0F813A80F4EBE9F1E081EA91E002
:1058E0002191C217E1F18E179F07D1F76C2F89E93B
:1058F00091E00E94D128D1CF80E28C0F883068F4EB
:10590000C77081E090E001C0880FCA95EAF79091D6
:10591000E301892B8093E301C0CFEBE5EC0FE3308B
:1059200040F4F0E0E45EFE4F808190E0CF910C9473
:105930000129E8E5EC0FE73150F4F0E0EE0FFF1F2E
:10594000E15EFE4F80819181CF910C94EB28CD3E9A
:1059500070F08C2F0E94722DCF910C94F01B6C2F45
:1059600089E991E00E94C4280E94AB13BFCFCF9178
:1059700008958D3E39F49091F50197FF35C010924E
:10598000F50159C08E3E29F49091F5011916BCF32A
:105990002BC09091F4018F3E29F497FF25C01092FF
:1059A000F40149C0803F19F41916CCF31DC0909141
:1059B000F601893F29F41916BCF41092F6013BC098
:1059C0008A3F19F497FF10C0F8CF8B3F39F49091BC
:1059D000F70197FF09C01092F7012DC08C3F21F409
:1059E0009091F7011916BCF39FE0980F983080F45E
:1059F00021E030E0A90102C0440F551F9A95E2F75B
:105A0000CA0180959091F30189238093F30113C01B
:105A10008D3F21F48091EC018E7F0BC08E3F21F4ED
:105A20008091EC018D7F05C08F3F29F48091EC01BE
:105A30008B7F8093EC018091F401811106C08091ED
:105A4000F501811102C01092ED018091F6018111E2
:105A500006C08091F701811102C01092C002089522
:105A60008091EC0180FD16C081FD16C082FD18C03A
:105A70008091C002882391F0883290F428E0829FC0
:105A8000C001112468E270E00E94452E862F672B2A
:105A900029F007C082E0089584E0089581E0089528
:105AA00088E008958091EC0180FD14C081FD14C050
:105AB00082FD16C08091ED01882381F08E3180F443
:105AC00020E5829FC00111246EE170E00E94452E06
:105AD000862F089584E1089588E2089588E0089566
