:100000000C94F2050C9439060C9439060C943906BC
:100010000C9439060C9439060C9439060C94390664
:100020000C9439060C9439060C94751E0C94B11D71
:100030000C94AD270C9439060C9439060C943906AF
:100040000C9439060C9439060C9439060C94390634
:100050000C9439060C946C270C9439060C943906D0
:100060000C9439060C9439060C9439060C94390614
:100070000C9439060C9439060C9439060C94390604
:100080000C9439060C9439060C9439060C943906F4
:100090000C9439060C9439060C9439060C943906E4
:1000A0000C9439060C9439060C943906D00AD00AFF
:1000B0000A0B0A0B610B7D0B130D130D880B660CDD
:1000C000770C770CCB1BF21B931DF21B931D3E1C70
:1000D000611C931D561D651DB01FB01FC31FC31F9C
:1000E000B91FC31FC31FC31FB01FB01FBE1FC31F35
:1000F000C31FBE1F7267626C69676874206469738E
:1001000061626C65205B454550524F4D5D3A2072EF
:1001100067626C696768745F636F6E6669672E6596
:100120006E61626C65203D2025750A007267626C05
:100130006967687420656E61626C65205B45455037
:10014000524F4D5D3A207267626C696768745F63F5
:100150006F6E6669672E656E61626C65203D202555
:10016000750A007267626C6967687420746F6767EC
:100170006C65205B454550524F4D5D3A2072676279
:100180006C696768745F636F6E6669672E656E6120
:10019000626C65203D2025750A0044454255473A6A
:1001A0002064697361626C65642E0A00444542559F
:1001B000473A20656E61626C65642E0A0035001E48
:1001C000021F022002210222020000000000002380
:1001D00002240225022F0030003100290014001AE9
:1001E000000800150017002F0210184C051C0018FD
:1001F000000C001200130034002B000443164407C7
:100200004509000A4226020E1846000B000D000E9A
:10021000000F003300280039001D651B630600191C
:100220000005002F005018E30011001000360037C1
:100230000038004C00000000001A18E600E1002A17
:1002400000E000000004512C000551025101530050
:100250000000000100010001000100010001000197
:100260000001000100010001000100010001000186
:100270000001000100070015001A00050001000F31
:100280001801000D000900180013003300010001DF
:1002900000010001000B45170001000100081801D2
:1002A000001C001100080012000C000100010001F8
:1002B0000001001000060019000100501801000E96
:1002C000000F000100010001000100010001000712
:1002D00018010001000100010001000100010001FE
:1002E000000100010001000100000000000000000A
:1002F00000000000000000000000000000000000FE
:10030000000000000000000100E200E500E400E65B
:1003100011000001000100000000004B0052004EDF
:1003200000000000000100010000000000000001CA
:10033000000100010000004A00500051004F004D34
:1003400000010000000100010000000000000001A9
:10035000000100000019050C050C110C1300000130
:100360000000000000010001000100010001000187
:100370000001000100010001000100000000000078
:10038000000000000000000000000000000000006D
:10039000000000000000000000000000000100005C
:1003A000001E142D1428110000300200000000006F
:1003B0000000002F0230021312350001000100017D
:1003C0000001000000010027020000000000002DD5
:1003D0000226022702560001000000000000000073
:1003E0000000003E00300000000000000000002F70
:1003F00000300001000100000000000100010001C8
:1004000000010001000100010001000100010001E4
:1004100000000000000000000000000000000000DC
:1004200000000000000000000000000000000000CC
:1004300000000001000000000000000000000000BB
:1004400000000000000000240025002600131234E4
:1004500002010001000100E50000000100000000B1
:100460000000002E122100220023002D00010000B8
:10047000000000000000000000000000000000007C
:10048000002E001E001F00200038000100000000A8
:10049000000000010001000100010001000100272F
:1004A000000100010000000000000000000000004A
:1004B000000000000000000000000000000000003C
:1004C000000000000000000000000000000000002C
:1004D000000000000000000000000000004000419B
:1004E00000420000000000010001000100010001C5
:1004F00000010000000000000000003D003E003F41
:1005000000000000000000000000000000000000EB
:100510000000000000000000003A003B003C00002A
:1005200000000000000000000000000000000000CB
:100530000000000000430001000100000000000076
:1005400000290A002575002F002575005D2800256B
:10055000640020002564002000256400200025643C
:10056000007C0025303258006D6F7573656B6579BE
:10057000205B62746E7C782079207620685D28721A
:1005800065702F61636C293A205B00000101010155
:10059000010101010102020202020202020203033E
:1005A000030303030303040404040404040505050E
:1005B00005050606060606070707070708080808D0
:1005C000090909090A0A0A0B0B0B0C0C0C0D0D0D7D
:1005D0000E0E0E0F0F0F1010111111121213131413
:1005E00014151516161717181819191A1A1B1B1C8B
:1005F0001D1D1E1E1F2020212222232424252626E5
:10060000272829292A2B2C2D2D2E2F303132323319
:100610003435363738393A3B3C3D3E3F4041424322
:100620004445464748494A4C4D4E4F505153545506
:100630005658595A5B5D5E5F616264656668696BB6
:100640006C6D6F7072737577787A7B7D7E80828334
:100650008587888A8C8E8F91939596989A9C9EA078
:10066000A2A3A5A7A9ABADAFB1B3B5B7BABCBEC085
:10067000C2C4C6C9CBCDCFD1D4D6D8DBDDDFE2E44E
:10068000E7E9EBEEF0F3F5F8FAFDFF7267626C69EB
:100690006768742074696D657220656E61626C654F
:1006A000642E0A007267626C69676874206D6F64FB
:1006B00065205B4E4F454550524F4D5D3A202575A4
:1006C0000A007267626C69676874206D6F646520E8
:1006D0005B454550524F4D5D3A2025750A007267C3
:1006E000626C696768742073657420687376205B38
:1006F0004E4F454550524F4D5D3A2025752C25757E
:100700002C25750A007267626C69676874207365CE
:100710007420687376205B454550524F4D5D3A20FA
:1007200025752C25752C25750A007267626C696722
:100730006874207261696E626F77207365742068D7
:1007400073763A2025642C25642C25642C25750AA3
:1007500000FFAA7F55407267626C696768745F63C7
:100760006F6E6669672E7370656564203D20256431
:100770000A007267626C696768745F636F6E6669AE
:10078000672E76616C203D2025640A007267626CDA
:10079000696768745F636F6E6669672E7361742042
:1007A0003D2025640A007267626C696768745F6344
:1007B0006F6E6669672E687565203D2025640A00A6
:1007C0007267686C696768745F636F6E6669672ECD
:1007D0006D6F6465203D2025640A007267626C6954
:1007E0006768745F636F6E6669672E656E61626CC1
:1007F00065203D2025640A007267626C6967687431
:100800005F636F6E66696720454550524F4D3A0AE7
:10081000007267626C696768745F696E69742072E0
:1008200067626C696768745F636F6E6669672E6D77
:100830006F6465203D20302E2057726974652064F6
:10084000656661756C742076616C75657320746F74
:1008500020454550524F4D2E0A007267626C696701
:1008600068745F696E6974206565636F6E66696739
:10087000206973206E6F7420656E61626C65642EF2
:100880000A007267626C696768745F696E697420D8
:100890007374617274210A007267626C69676874AC
:1008A0005F696E69742063616C6C65642E0A000A6E
:1008B000002530313662003A200025303258000AD7
:1008C000722F632030313233343536373839414274
:1008D000434445460A001E0F0500047F3F1F643253
:1008E00014643214783C1E1E140A050A00253032A6
:1008F00058006B6579626F6172645F7365745F6CD9
:1009000065643A20005B735D004B6579626F6172CC
:10091000642073746172742E0A000631FF0974A199
:10092000010975150026FF009520750881020976DA
:10093000150026FF00952075089102C005010902E7
:10094000A10185020901A100050919012908150065
:1009500025019508750181020501093009311581CC
:10096000257F95027508810609381581257F950137
:1009700075088106050C0A38021581257F950175D9
:10098000088106C0C005010980A101850319012A5B
:10099000B700150126B700950175108100C0050C40
:1009A0000901A101850419012AA002150126A0024E
:1009B000950175108100C005010906A101050719FF
:1009C000E029E7150025019508750181029501755B
:1009D0000881010507190029FF150026FF0095066B
:1009E0007508810005081901290595057501910211
:1009F000950175039101C05B435D005B445D005B45
:100A0000535D005B575D005B525D0009025B0003B4
:100A10000100A0FA090400000103010100092111ED
:100A20000100012240000705810308000A090401B2
:100A3000000103000000092111010001227B0007D1
:100A400005820320000A09040200020300000009D5
:100A50002111010001222200070583032000010764
:100A60000503032000011201100100000008646961
:100A700075000100010200010C03490064006F00D1
:100A800062006F0000001003470065006E00650003
:100A90007200690063000000040309047267626C5D
:100AA000696768742074696D657220646973616236
:100AB0006C652E0A002223252628292A2C2D2F306A
:100AC00032333536383A3B3D3E4042434547494A4A
:100AD0004C4E5051535557595A5C5E60626466687B
:100AE000696B6D6F71737577797B7D7F8183858786
:100AF000898A8C8E90929496989A9C9E9FA1A3A589
:100B0000A7A8AAACAEAFB1B3B4B6B8B9BBBCBEBFB0
:100B1000C1C2C3C5C6C7C9CACBCCCDCED0D1D2D233
:100B2000D3D4D5D6D7D7D8D9D9DADADBDBDBDCDC3E
:100B3000DCDCDCDDDDDDDDDCDCDCDCDCDBDBDBDAF6
:100B4000DAD9D9D8D7D7D6D5D4D3D2D2D1D0CECD61
:100B5000CCCBCAC9C7C6C5C3C2C1BFBEBCBBB9B86E
:100B6000B6B4B3B1AFAEACAAA8A7A5A3A19F9E9CF3
:100B70009A98969492908E8C8A89878583817F7DBE
:100B80007B79777573716F6D6B6968666462605E9F
:100B90005C5A5957555351504E4C4A494745434268
:100BA000403E3D3B3A3836353332302F2D2C2A2902
:100BB00028262523224F6E6573686F743A2061637F
:100BC000746976653A2025640A000A002530325897
:100BD00020006B6579626F6172645F7265706F721D
:100BE000743A200011241FBECFEFDAE0DEBFCDBF84
:100BF00004B603FE27C08091090390910A03A091D7
:100C00000B03B0910C038730904BA740B04BD1F44D
:100C10001092090310920A0310920B0310920C0316
:100C200014BE84B7877F84BF0FB6F894A8958091CF
:100C30006000886180936000109260000FBEE0E069
:100C4000F8E3099511E0A0E0B1E0EAE0F8E502C0C0
:100C500005900D92AC39B107D9F723E0ACE9B1E0CA
:100C600001C01D92A930B207E1F70E9452160C9400
:100C7000032C0C940000FF93EF93E0919C01F09102
:100C80009D01309709F00995EF91FF910895FC01BE
:100C90008591803011F0EFDFFBCF0895FF27E0E270
:100CA00030E247FF0CC0419597FF09C0EDE2609527
:100CB000709580959095611D711D811D911D27FF77
:100CC00002C0219530E350E2AA27660F771F881FE4
:100CD000991FAA1FA41710F0A41B63955A95A9F792
:100CE000AA3008F0A95FA05DAF93F3956115710577
:100CF0008105910541F7ED3211F4EF93F395F21769
:100D000018F43F93F395FBCF8F91B5DFFA95E1F798
:100D10000895E991F9918591803021F0853219F09B
:100D2000AADFF9CF089520E0E89455915532C1F338
:100D3000503311F4689455915A3348F4505390F35A
:100D4000220F022E220F220F200D250FF4CF0EF4BA
:100D5000219589919991533619F3533729F15335D8
:100D600059F1BC0188279927E8945C3621F48991D0
:100D7000999168945591543639F446EF7EF077FF97
:100D80000DC08FEF9FEF0AC055374AE039F0583554
:100D900040E121F0523642E009F00895FF93EF93CD
:100DA0007DDFEF91FF91B7CFFF93EF93FC0181912E
:100DB0008030B9F360DFFBCFFF93EF9368DFF1CFB3
:100DC000DF93CF93CDB7DEB72596A3DFCF91DF9129
:100DD00008958F929F92AF92BF92CF92DF92EF923F
:100DE000FF920F931F93CF93DF93CDB7DEB72A9770
:100DF0000FB6F894DEBF0FBECDBFFC010081D180DD
:100E000083819481892B39F01FEFD11206C091E0C4
:100E10000F3F19F403C091E001C090E090FD42C67D
:100E20007F0185E0DE01169601900D928A95E1F72B
:100E3000F70122818E819F81222349F00E9415298A
:100E4000182F682F8E819F810E948E2903C00E94D7
:100E50006229182F2BE4129FF00111243FE0D39E4A
:100E6000E00DF11D1124E00FF11DEE0FFF1FE35403
:100E7000FE4F05911491043F8CE5180759F190F449
:100E8000093DECE51E07E9F00A3DFCE51F07A1F16D
:100E9000083D2CE51207B1F506E221EE41EE68EDC2
:100EA0007CE514C0063F3CE5130701F1C8F0073F9D
:100EB0009CE5190739F507E225EE46EE67EF7CE57C
:100EC00005C007E225EE45EE69ED7CE5C7010E940D
:100ED000392601C306E221EE40EE64EF7CE5F6CF51
:100EE00007E225EE44EE65EF7CE5F0CF06E221EE69
:100EF00042EE66EF7CE5EACF08E221E045EE6AEDDE
:100F00007CE5E4CFF7018281882309F43EC1109289
:100F10009E010230FCE51F0708F421C106312CE5D3
:100F2000120730F0C8018B5F9C45099708F017C184
:100F30000E94FD279093A9018093A80100313CE510
:100F4000130709F4C3C008F041C008309CE5190735
:100F500009F49AC0F0F40430FCE51F0709F487C0D7
:100F600068F402303CE5130709F477C003301C45F0
:100F700009F0E5C08091A801826076C006309CE54A
:100F8000190709F46EC008F07BC08091A801886041
:100F90006BC00C30FCE51F0709F485C068F40A300B
:100FA0003CE5130709F474C008F079C00E9493214E
:100FB0008091A801806858C00E309CE5190709F49B
:100FC00076C008F07FC08091A8018BC00C3FFCE583
:100FD0001F0709F44FC018F503313CE5130709F466
:100FE0007DC078F401319CE5190709F473C0023122
:100FF0001C4509F0A4C00E9493218091A8018F771D
:1010000033C00531FCE51F0709F472C008F486C03F
:101010000B3F1C4509F093C08091A9013EC001150A
:101020008DE5180709F45FC058F40E3FECE51E0784
:1010300009F444C008F43FC08091A90182602DC02A
:1010400002302DE5120709F475C008F45DC00330C5
:101050001D4509F074C060E06EC08091A8018160F8
:1010600003C08091A80180618093A80168C080912D
:10107000A80111C08091A90182608093A9015FC07D
:101080008091A8018062F0CF8091A8018064ECCFAC
:101090008091A80188608460E7CF8160EECF809165
:1010A000A8018E7FE1CF8091A8018D7FDDCF809157
:1010B000A801877FD9CF8091A90118C08091A9018B
:1010C0008D7FDBCF8091A8018F7ECECF8091A8014C
:1010D0008F7DCACF8091A8018F7BC6CF8091A80158
:1010E000877F8B7FC1CF8091A9018D7F8E7FC5CFF8
:1010F0008091A80182FB222720F991E0922790FBA2
:1011000082F990FB83F9B0CF8091A901982F909537
:1011100091708E7F892B90FB81F9AFCF0E94932134
:101120008091A80187FB222720F991E0922790FB6C
:1011300087F99ACF61E08EE090E00E94162B6091D3
:10114000A8011091A90184E090E00E94162B612F64
:1011500082E290E00E94162B0E949321BCC18091F4
:10116000030306312CE5120709F58A7A91E009F4A8
:1011700090E090939F01882311F065E301C069E23C
:101180008EE892E00E94E3270EC006311C4509F06C
:10119000C1C180919F01882309F482C465E38EE870
:1011A00092E00E94D6270E947F2895C182720D3C52
:1011B0009CE5190709F4FEC008F045C0073CFCE5B2
:1011C0001F0709F4E3C0D8F4043C3CE5130709F415
:1011D000D3C030F4033CECE51E0709F46EC00BC12C
:1011E000053CFCE51F0709F4CCC0063C2CE51207C2
:1011F00009F001C149E050E162E170E1DFC00A3C61
:101200003CE5130709F4CCC078F4083CECE51E0774
:1012100009F4C1C0093CFCE51F0709F0ECC04DEF23
:101220005FE061EF7FE0CAC00B3C2CE5120709F4D8
:10123000BCC00C3C3CE5130709F0DDC044E15EE0B6
:1012400065E27EE0BBC0023D8CE5180709F4C2C030
:10125000A0F40F3CECE51E0709F4B6C008F4B1C0D9
:10126000003D2CE5120709F4B2C0013D3CE513072F
:1012700009F0C1C06EE089E0BBC0053D8CE51807F0
:1012800009F4AEC068F4033DECE51E0709F4A5C0FF
:10129000043DFCE51F0709F0AEC061E088E1A5C090
:1012A000063D2CE5120709F49EC00E353DE51307F7
:1012B00009F0A1C06AE285E29BC08091E00180FF55
:1012C00010C08091CC01809581701F928F9383E62E
:1012D00091E09F938F930E94E0060F900F900F90E4
:1012E0000F908091CC0180FF2EC08E7F8093CC0127
:1012F0006091CC017091CD018091CE019091CF0190
:101300000E94020E8091E00180FF0FC08091CC010D
:1013100081701F928F9384EF90E09F938F930E9430
:10132000E0060F900F900F900F900E94DC268FEF39
:1013300090E7E2E081509040E040E1F700C000001B
:101340000E94A80DC8C081608093CC018091E0010B
:1013500080FF0DC01F9281E08F938CE291E09F93FC
:101360008F930E94E0060F900F900F900F90809146
:10137000CC0161E0869539C048E850E161E970E14F
:101380001DC041E950E168E870E118C042E150E158
:1013900069E070E113C041EF5FE06DEF7FE00EC0E8
:1013A00049ED5FE065EE7FE009C045EE5FE069ED85
:1013B0007FE004C045E25EE064E17EE00E94D62664
:1013C0008AC061E081E011C065E082E011C068E0A0
:1013D00086E00EC064E18FE00BC067E185E108C0E4
:1013E00062E289E105C061E083E20E941B1073C0E4
:1013F0000E94C42670C00F3DFCE51F0709F45CC0C5
:1014000048F401153CE51307A9F001301C4509F427
:1014100040C080C00C359DE5190709F458C00D3552
:10142000EDE51E0709F44BC00B351D4509F072C0F0
:1014300081E04EC00E9493210FEF14E32CE0015095
:1014400010402040E1F700C0000081E08093E00000
:1014500080E28093D8001092C9008FE19EE401974A
:10146000F1F700C0000087E090EBDC0180930903F6
:1014700090930A03A0930B03B0930C039CE088E1C4
:101480000FB6F894A895809360000FBE909360000B
:10149000FFCF8091E001982F9095917090FB80F99B
:1014A0008093E001992319F08CEA91E002C08AE967
:1014B00091E00E9447060FC00E940E280CC0809148
:1014C000A90182FB882780F991E0892701C080E08B
:1014D0000E94E9281FC080910003877009F4E2C2CE
:1014E000F7018281882309F4DDC282E02A960FB6D3
:1014F000F894DEBF0FBECDBFDF91CF911F910F914A
:10150000FF90EF90DF90CF90BF90AF909F908F9023
:101510000C94E829F701828100811181882349F028
:10152000C8010E941529D82E682FC8010E948E2953
:1015300004C0C8010E946229D82EB8018D2D0E94D6
:1015400032138C01982EF701D280A580A2942FE04F
:10155000A22280910003877099F0DD2089F0812F0D
:10156000807F803421F080E2800F883048F082E074
:101570000E94E829809100038770CC24C3948111D4
:10158000C12CB12EB2949FE0B9228B2D90E08C300B
:10159000910508F048C2FC01EA5AFF4F0C94E12B78
:1015A000812F807F1F70882311F01295107FDD201E
:1015B000B9F0112309F422C280E2800F883010F0C4
:1015C000911006C080910303182B1093030305C0EC
:1015D00080910203182B109302030E947F280EC2F1
:1015E000802F0E94B321112309F41DC2005E1095C3
:1015F000083010F0911006C0809103031823109357
:10160000030305C0809102031823109302030E9474
:101610007F2809C2812F807F1F70803211F01295C0
:10162000107F992021F0F1E09F1601F12EC0DD20FE
:10163000A1F080910403AA2071F001E0A0120BC078
:10164000182B9091A90192FDEEC1181709F4EBC176
:1016500010930403E8C1812B10C0AA2021F021E0DF
:10166000A21609F4E0C10E94792827C0DD2041F0CC
:1016700035E03A1508F4D7C1812F0E94A921D3C1C2
:1016800084E08A1508F4CFC118C0DD2049F0AA20F3
:1016900099F3F701858180FFB1C18F708583ECCF0D
:1016A000AA2059F0093309F0BBC1FFEF17EE23E080
:1016B000F15010402040E1F7B1C1812F0E949E21DE
:1016C000B2C1812F86958695837019F0813059F0CB
:1016D000AAC1DD2019F0C801937002C080E090E03B
:1016E0000E941726A6C1DD2019F0C801937002C020
:1016F00080E090E00E9401269CC1802FDD2019F03F
:101700000E94001202C00E9447110E949B1091C1CA
:10171000812F837009F069C0D11089C1902F9295F3
:1017200096959770990F990F802F8F70882E912C16
:10173000A12CB12C092E04C0880C991CAA1CBB1C1E
:101740000A94D2F704FF12C04FE050E060E070E06E
:1017500004C0440F551F661F771F9A95D2F7DB010F
:10176000CA0180959095A095B09503C080E090E067
:10177000DC0116951695412F4370423019F1C8F4DB
:10178000009105031091060320910703309108038F
:10179000413059F088299929AA29BB29BC01CD01DA
:1017A00060237123822393230AC0802A912AA22ACC
:1017B000B32ABC01CD01682979298A299B290E9475
:1017C000262A35C188299929AA29BB290091050310
:1017D000109106032091070330910803BC01CD014D
:1017E0006027712782279327EACFDD2019F0812F08
:1017F000817001C08695882309F419C1902F9295B4
:1018000096959770990F990F802F8F70882E912C35
:10181000A12CB12C092E04C0880C991CAA1CBB1C3D
:101820000A94D2F704FF12C04FE050E060E070E08D
:1018300004C0440F551F661F771F9A95D2F7DB012E
:10184000CA0180959095A095B09503C080E090E086
:10185000DC0116951695412F43704230D9F068F59A
:101860000091A4011091A5012091A6013091A7013A
:10187000413059F088299929AA29BB29BC01CD01F9
:1018800060237123822393231EC0802A912AA22AD7
:10189000B32A13C088299929AA29BB290091A40138
:1018A0001091A5012091A6013091A701BC01CD01A5
:1018B000602771278227932706C0BC01CD016829C4
:1018C00079298A299B290E94B929B1C01F70DD207E
:1018D00039F0812F0E94052A802F0E94A921A7C0DC
:1018E000802F0E949E21812F0E94C329A0C0802F9B
:1018F00032EF931609F440C0391538F090EF99167D
:1019000061F0E1EF9E1699F174C0F3EF9F16D9F1E3
:1019100024EF921609F44EC06CC0DD2019F134E0BA
:101920003A1508F480C01F7181E090E0A0E0B0E0BB
:10193000AC01BD0104C0440F551F661F771F1A95E7
:10194000D2F78091A4019091A501A091A601B09138
:10195000A7018A019B01082719272A273B27C901CC
:10196000B80125C025E02A1508F45DC0DCCFDD20D4
:1019700029F0812F8F7130C0DD20D9F3812F8F7135
:101980000E94C32950C0DD2079F01F7181E090E0F2
:10199000A0E0B0E0BC01CD0104C0660F771F881F36
:1019A000991F1A95D2F703C060E070E0CB010E9446
:1019B000B92939C0DD2099F01F71812F0E94052AB5
:1019C0008091A90182FD07C038E0139FC001112456
:1019D000836080930003812F0E94052A24C081E048
:1019E0000E94E82981E08A15F0F482E00E94E8294B
:1019F0001AC0DD2039F0AA2009F4BBCF802F0E9445
:101A00001A2211C0AA2009F4B9CF893349F49FEFF3
:101A1000E7EEF3E09150E040F040E1F700C0000055
:101A2000802F0E94B32188EF8B0D843010F40E9428
:101A30002D26CC20A9F08091000380FD11C0F70174
:101A400012828595859585950E94052AC7010E9479
:101A5000E906809100038595859585950E94C329A7
:101A600085E0F701DE01119601900D928A95E1F76C
:101A700089819A810E9462299A810BE4809FF001FA
:101A800011241FE0919FE00DF11D11248981E80FC1
:101A9000F11DEE0FFF1FE354FE4F8591949102C09C
:101AA00069E27DCB2A960FB6F894DEBF0FBECDBF9C
:101AB000DF91CF911F910F91FF90EF90DF90CF902A
:101AC000BF90AF909F908F9008959091A80192FF42
:101AD0000DC0282F2871283019F4877F846006C034
:101AE000282F2471243011F48B7F886093FF0DC060
:101AF000282F2871283119F4877E846106C0282F89
:101B00002471243111F48B7E88612091A90120FF7A
:101B10000DC0382F3871383019F4877F816006C0C6
:101B2000382F3171313011F48E7F886021FF0DC064
:101B3000282F2871283119F4877E816106C0282F4B
:101B40002171213111F48E7E886194FD877E089584
:101B50008091CC0180FF0AC0809A81B38E7F91B3BF
:101B600091602FB7F894E8E0F2E00BC0E8E0F2E013
:101B7000118210821282339632E0E833F307C1F704
:101B8000EBCF32E0E833F30789F0319148E091BBC5
:101B9000000000C037FF81BB330F000000C000C051
:101BA00000C081BB00C04A9591F7EBCF2FBF8FE5F6
:101BB00094E00197F1F700C0000008959091CC01E6
:101BC00090FF0CC0E8E0F2E08183608342833396AB
:101BD00092E0E833F907C1F70C94A80D08958091BD
:101BE000CC01282F269530E02115310519F481709C
:101BF000826005C02B32310524F0817084658093AA
:101C0000CC010895CF92DF92EF92FF926B017C019D
:101C10000E94EF0DB701A60188E090E0FF90EF90E1
:101C2000DF90CF900C94282B8091D001882319F05D
:101C300081508093D0016091CC017091CD01809151
:101C4000CE019091CF010C94020E8091D00183308F
:101C500018F48F5F8093D0016091CC017091CD0119
:101C60008091CE019091CF010C94020EECECF1E04A
:101C700083E0808311828FEF82838383148260816B
:101C80007181828193810C94020EAF92BF92CF92A8
:101C9000DF92EF92FF920F931F93CF93DF93E82E83
:101CA000F62EE901E42FF0E0611106C0E557FA4F86
:101CB000E4914E2F2E2F71C0062F10E0E557FA4FFA
:101CC0004491F42FC42ED12C26E0829FC001112410
:101CD0002FEF30E0B9010E94B92B5BEA5603C00137
:101CE000579F900D11248E0D911D8E0D911D582F13
:101CF000550F580FD901A01BB10BAC9DC001AD9D74
:101D0000900DBC9D900D1124E92FF59ED00111245A
:101D1000AB2FBB277901EA1AFB0AEC9CD001ED9CA2
:101D2000B00DFC9CB00D11245901A51AB108A09E5C
:101D30007001A19EF00CB09EF00C1124EF2CFF243A
:101D40002E193F092C9D80012D9D100D3C9D100DDD
:101D50001124212F6230710591F048F4611571054D
:101D6000E1F061307105B9F4242F4B2F16C06430B7
:101D7000710569F040F06630710579F00CC0242FD0
:101D8000492FE12F0AC0492FEF2F2B2F06C0292FF3
:101D9000E42F412F02C0292FEB2F49832883EA83A8
:101DA000DF91CF911F910F91FF90EF90DF90CF9037
:101DB000BF90AF900895CF93DF9300D01F92CDB71F
:101DC000DEB79091CC0190FF0AC09E012F5F3F4F7C
:101DD0000E94450E4B8169818A810E94DE0D0F9021
:101DE0000F900F90DF91CF9108953F924F925F92A5
:101DF0006F927F928F929F92AF92BF92CF92DF921B
:101E0000EF92FF920F931F93CF93DF9300D01F9217
:101E1000CDB7DEB7182F762E042F422E9091CC012D
:101E200090FFB2C0E92FE695AE2FB0E0A35EBE4FA3
:101E30008C918093D1019E7F923061F49E012F5F3F
:101E40003F4F812F0E94450E4B8169818A810E94FC
:101E5000DE0D60C0823019F40091CF015BC0863086
:101E600019F41091CD0156C08930D9F3893109F0A8
:101E700051C0E9518E2F8170582E81E0652C682663
:101E8000E695F0E0EF5AF84FC590D49038E0A32ED5
:101E900032E0B32EE12CF12CDD244AE2842E47E01F
:101EA000942EEC9CC001ED9C900DFC9C900D112497
:101EB00024E0969587952A95E1F7312E511002C0BE
:101EC000380E01C0381A8091E00180FF11C0DF9206
:101ED000CF921F926F921F923F92FF92EF929F922A
:101EE0008F920E94E0060FB6F894DEBF0FBECDBF02
:101EF0009501402F672D832D0E94450E9FEFE91A13
:101F0000F90A83E0A80EB11C90E1E916F10449F644
:101F10000E94A80D1093CD017092CE010093CF01C5
:101F20004420E9F06091CC017091CD018091CE0107
:101F30009091CF010E94020E8091E00180FF24C0A9
:101F40008091CF011F928F938091CE011F928F932A
:101F50008091CD011F928F9385E097E00CC0809116
:101F6000E00180FF11C01F920F931F927F921F927A
:101F70001F938EED96E09F938F930E94E0060FB61D
:101F8000F894DEBF0FBECDBF0F900F900F90DF9182
:101F9000CF911F910F91FF90EF90DF90CF90BF9066
:101FA000AF909F908F907F906F905F904F903F90F9
:101FB0000895ECECF1E0438128E0421B08F440E096
:101FC00021E0628181810C94F50EECECF1E043811B
:101FD00028E0420F08F44FEF21E0628181810C94E8
:101FE000F50EECECF1E0628128E0621B08F460E0A1
:101FF00021E0438181810C94F50EECECF1E06281EB
:1020000028E0620F08F46FEF21E0438181810C9496
:10201000F50EECECF1E0818121E043816281885092
:102020000C94F50EECECF1E0818121E043816281BA
:10203000885F0C94F50E9091CC0190FF68C0917070
:10204000811102C0926006C08B3210F0946502C00C
:10205000880F982B9093CC016623B1F06091CC014E
:102060007091CD018091CE019091CF010E94020E1E
:102070008091E00180FF1BC08091CC0186951F926A
:102080008F9382EC96E00BC08091E00180FF0FC03F
:102090008091CC0186951F928F9384EA96E09F935E
:1020A0008F930E94E0060F900F900F900F90609119
:1020B000CC01669570E04BE050E084E091E00E9436
:1020C000F62B892B19F00E94DC2615C081E0809345
:1020D000D2010E94A1279093C7018093C6018091ED
:1020E000E00180FF08C08BE896E09F938F930E94E9
:1020F000E0060F900F9081E08093C90120E04091AD
:10210000CF016091CE018091CD010C94F50E089520
:102110008091CC018695815009F48AE261E00C94AB
:102120001B108091CC0186958F5F8B3208F081E087
:1021300061E00C941B108091E00183FF7EC088E673
:1021400095E00E9447068091DA011F928F9383E603
:1021500095E09F938F930E94E00681E695E00E94B0
:1021600047068091DB01282F082E000C330B3F938C
:102170008F938EE595E09F938F930E94E0068CE508
:1021800095E00E9447068091DC01282F082E000C64
:10219000330B3F938F9389E595E09F938F930E9434
:1021A000E00687E595E00E9447068091DD01282F33
:1021B000082E000C330B3F938F9384E595E09F939B
:1021C0008F930E94E00682E595E00E944706809189
:1021D000DE01282F082E000C330B3F938F938FE4E2
:1021E00095E09F938F930E94E0068CE495E00E9417
:1021F00047068091D6011F928F9389E495E09F93C3
:102200008F930E94E00687E495E00E944706809144
:1022100004021F928F9384E495E09F938F930E9412
:10222000E00681E495E00E9447068DB79EB74C9684
:102230000FB6F8949EBF0FBE8DBF0E94A1272091BC
:10224000DB01211104C02091DC01222321F09093B5
:10225000D8018093D7012091DD01211104C0209184
:10226000DE01222321F09093D5018093D401E091E7
:10227000B501F091B601309749F082E08093D90121
:102280000480F581E02D89ED91E0099408958D3E5B
:1022900039F49091DC0197FF35C01092DC0159C0F0
:1022A0008E3E29F49091DC011916BCF32BC090915D
:1022B000DB018F3E29F497FF25C01092DB0149C056
:1022C000803F19F41916CCF31DC09091DD01893FB0
:1022D00029F41916BCF41092DD013BC08A3F19F4B1
:1022E00097FF10C0F8CF8B3F39F49091DE0197FF34
:1022F00009C01092DE012DC08C3F21F49091DE01C7
:102300001916BCF39FE0980F983080F421E030E07C
:10231000A90102C0440F551F9A95E2F7CA018095A2
:102320009091DA0189238093DA0113C08D3F21F463
:10233000809104028E7F0BC08E3F21F480910402B5
:102340008D7F05C08F3F29F4809104028B7F80939D
:1023500004028091DB01811106C08091DC018111B2
:1023600002C01092D6018091DD01811106C08091DA
:10237000DE01811102C01092D30108958091040200
:1023800080FD16C081FD16C082FD18C08091D3016A
:10239000882391F0883290F428E0829FC0011124B4
:1023A00068E270E00E94CD2B862F672B29F007C0D2
:1023B00082E0089584E0089581E0089588E008951A
:1023C0008091040280FD14C081FD14C082FD16C0FE
:1023D0008091D601882381F0843180F422E3829FAA
:1023E000C001112464E170E00E94CD2B862F089576
:1023F0008CE0089589E1089585E0089582E30895C9
:102400008D3E21F40E94E011819504C08E3E29F496
:102410000E94E0118093DC0108958F3E21F40E9418
:10242000E011819504C0803F29F40E94E01180935F
:10243000DB010895893F19F40E94BE1105C08A3F4F
:1024400031F40E94BE1181958093DD0108958B3F88
:1024500021F40E94BE11819504C08C3F29F40E9492
:10246000BE118093DE0108959FE0980F983078F4B4
:1024700021E030E0A90102C0440F551F9A95E2F710
:10248000CA019091DA01892B8093DA0108958D3F7A
:1024900021F48091040281600BC08E3F21F4809171
:1024A0000402826005C08F3F29F480910402846099
:1024B000809304020895F894E82FE295EF70F0E01D
:1024C00031A1282F2F7081E090E001C0880F2A955C
:1024D000EAF7982F9095932391A392A1892B82A339
:1024E000789408959F92AF92BF92CF92DF92EF922D
:1024F000FF920F931F93CF93DF9308E411E0CAEA92
:10250000D1E084EBE82E81E0F82E912CCC24C3940A
:10251000D12CB801D8018C91F894E82FE295EF7096
:10252000F0E021A18F70A60102C0440F551F8A95CB
:10253000E2F7CA01922F982B91A392A1809589234B
:1025400082A3789400C0EDE4F1E020E030E0A12C1B
:10255000B12C4191842F82958F7090E0DC01909690
:102560008C9190E04F7002C0959587954A95E2F75F
:1025700080FD08C0C601022E02C0880F991F0A9470
:10258000E2F702C080E090E0A82AB92A2F5F3F4F0F
:102590002F303105F1F60F5F1F4FFB0180810E9444
:1025A0005B12F0EAFA95F1F788819981A816B906CD
:1025B00021F0B982A88281E001C080E0982A2296A9
:1025C000EC16FD0609F0A5CF992049F081E0809333
:1025D000A2010E94A1279093A1018093A001809164
:1025E000A201882391F18091A0019091A1010E9404
:1025F0009227069750F18091AA019091AB01909398
:10260000BD018093BC018091AC019091AD0190938C
:10261000BF018093BE018091AE019091AF01909374
:10262000C1018093C0018091B0019091B10190935C
:10263000C3018093C2018091B2019091B301909344
:10264000C5018093C4011092A201892DDF91CF9121
:102650001F910F91FF90EF90DF90CF90BF90AF90C0
:102660009F900895CF93DF932BE4829FC0011124A4
:10267000FC013FE0739FE00DF11D1124E60FF11DF9
:10268000EE0FFF1FE354FE4FC591D491CE01C23827
:10269000D10569F1B0F4C133D10509F475C048F42E
:1026A000C932D10509F469C0CA32D10509F473C031
:1026B00085C0C533D10509F459C0C933D105B9F076
:1026C0007DC0C33ED10571F138F4C03ED105B1F0F3
:1026D000C23ED10511F172C0C63ED105B9F1C73E67
:1026E000D105C9F1C43ED10509F068C024C02091CC
:1026F000A80120FD5DC021FD5BC060C02091A80144
:1027000020FD50C02091A90120FF67C18091A80140
:1027100084FD61C183EE90E060C12091A80122FF99
:102720005CC1F4CF8091A80182FD3FC08091A901D6
:1027300080FD3EC0EBCF2091A90121FF4EC18091C9
:10274000A80184FD48C187EE90E047C12091A8010F
:1027500023FF43C1F4CF8091A80183FD2CC0809159
:10276000A90181FFECCF84EE90E037C12091A80150
:1027700025FF33C189E290E030C12091A80125FFF7
:102780002CC185E390E029C12091A80126FF25C135
:102790008AE290E022C12091A80126FF1EC181E3B8
:1027A00090E01BC189E390E018C182EE90E015C172
:1027B00080EE90E012C186EE90E00FC1C11530E5C9
:1027C000D30708F067C0C11540E4D40720F0CE015C
:1027D0009F70906A02C1C83ED105B8F5C03ED105D0
:1027E00008F0FBC0C83AD105B8F4C53AD10550F09D
:1027F0008C2F855AE82FF0E0E559FE4F808190E05C
:102800009064EBC0C130D10509F4E7C008F4E3C01F
:10281000249708F4E0C0E1C0CF3BD10560F48C2FD1
:10282000885AE82FF0E0EE0FFF1FE259FE4F80813B
:1028300091819464D2C0C03CD10508F4CCC0FE01A3
:10284000EE0FFF1FEF53FC4F0EC0C11520E2D20761
:1028500068F0C11540E3D407A8F4FE01FF70EE0F45
:10286000FF1FEF5BFA4F85919491B7C0C11531E01E
:10287000D30708F0B2C0CD3ED10508F4ACC0CE01FC
:102880009065ABC0CE019927D3FF02C0986CA5C05C
:10289000906CA3C0C11585E5D80708F05BC0C115D1
:1028A00024E5D20728F09C2F8827846F906A95C072
:1028B000C11532E5D30738F5C11541E5D407F0F469
:1028C000CE0174E0969587957A95E1F7282F2370CD
:1028D0003C2F337081E090E002C0880F991F3A9539
:1028E000E2F79C68922BEC2FEF70E695E69540E2BC
:1028F000E49FF00111248E2B9F2B6FC09C2F882703
:10290000816F906A6AC0AE01437055272C2F2695BF
:102910002695C115D34578F481E090E002C0880F78
:10292000991F4A95E2F740E2249F90011124822BDF
:10293000932B9C6852C081E090E002C0880F991FE1
:102940004A95E2F740E2249F90011124822B932BB9
:102950009A6843C0C11529E5D207B0F4C11538E51E
:10296000D30728F09C2F8827806F906A36C0C11546
:1029700046E5D40780F58C2F0E94650D8F7190E09D
:10298000982F8827906229C0C1158AE5D80790F44E
:102990008C2F8F700E94650DFE0194E0F695E795EF
:1029A0009A95E1F7EF70F0E0FE2FEE27F0699F01B6
:1029B000282B0FC0CE0190568115904260F48D2FC8
:1029C0008F710E94650DFE01FF27F0628F719F01DC
:1029D000382BC90102C080E090E0DF91CF910895CB
:1029E0008295982F937344E0949F900111248C7CDE
:1029F00086958695282B822F8575880F2A7A2695AD
:102A0000822B08959FB7F8941092EB019FBF90918D
:102A1000FA01943009F057C09091E9009F7030910D
:102A2000EC00232F217030FD20E8922B23E020932F
:102A3000E9002091EB0020FF43C02091EE0027FF2A
:102A40003FC02091A301222321F02091E80025FF1F
:102A500037C01092A30126E03091E80035FD15C083
:102A60003091FA01343061F53091EB0035FD28C02A
:102A7000215021F481E08093A30122C0EFE9FFE01F
:102A80003197F1F700C00000E7CF8093F10080910B
:102A9000E80085FD0AC08091E80080FFFCCF8091AE
:102AA000E8008E778093E80006C08FB7F89421E0A5
:102AB0002093EB018FBF9F709093E90080E0089511
:102AC0009F709093E9008FEF0895BC0184E00C940F
:102AD0003927BC0183E00C9439272091E400309120
:102AE000E50095E64091EC00842F817040FF23C003
:102AF0008091E80080FD1DC08091FA01882399F043
:102B0000853099F08091EB0085FD11C04091E40083
:102B10005091E5002417350729F3915011F09A01DF
:102B2000E1CF84E0089582E0089583E0089581E094
:102B3000089580E008954091E80042FFDDCF0895B8
:102B40008091FC0187FF11C08091E80082FD05C0E3
:102B50008091FA018111F8CF11C08091E8008B7744
:102B60000BC08091FA01882349F08091E80080FF32
:102B7000F8CF8091E8008E778093E8000895982F31
:102B8000973068F59093E900981739F07091EC0050
:102B90002091ED005091F00003C0242F762F50E0DB
:102BA00021FD02C09F5FECCF3091EB003E7F309360
:102BB000EB003091ED003D7F3093ED003091EB0064
:102BC00031603093EB007093EC002093ED00509354
:102BD000F0002091EE0027FDE5CF80E008958F7092
:102BE0008093E90081E00895209102023091030270
:102BF0002617370748F06115710539F42091E80070
:102C00002E772093E80001C0B901FC0120E0611596
:102C1000710579F18091FA018823F1F18530F1F1A4
:102C20008091E80083FD3CC08091E80082FD2EC0C9
:102C30008091E80080FFEBCF2091F3008091F200BB
:102C400090E0922B6115710551F08830910538F4B0
:102C500021912093F100615071090196F3CF21E099
:102C6000089709F020E08091E8008E778093E800D3
:102C7000CECF2111CFCF0AC08091FA01882361F015
:102C8000853061F08091E80083FD0AC08091E80002
:102C900082FFF2CF80E0089582E0089583E00895F6
:102CA00081E00895CF93DF93CDB7DEB761970FB67C
:102CB000F894DEBF0FBECDBF84B7877F84BF0FB649
:102CC000F894A895809160008861809360001092CC
:102CD00060000FBE90E080E80FB6F894809361002A
:102CE000909361000FBE85B7806885BF85B7806807
:102CF00085BF82E095E190939D0180939C010E94A5
:102D0000F51D0E94141E8091E20084608093E20011
:102D100078948091FA018823A1F01091E9001F7046
:102D20009091EC00892F817090FD80E8182B109213
:102D3000E9008091E80083FD0E94E61A1F7010935D
:102D4000E90082E084BD93E095BD9AEF97BD809342
:102D50006E0080E30E945B1283E30E945B1287E6B1
:102D60000E945B1286E30E945B1286E60E945B1261
:102D70000DE411E0F80181918F010E945B12F1E0F6
:102D80000C351F07B9F7EAEAF1E084EB91E0ACEB10
:102D9000B1E0119211921D921D928E179F07C9F7F3
:102DA00080E090E00E94102B8A3E9E4F11F00E941E
:102DB0000E2882E090E00E94022B8093E0010E94A6
:102DC000FD279093A9018093A80183E090E00E94E1
:102DD000022B682F70E080E090E00E94262A80910C
:102DE000B4018111E0C08091E00180FF08C088E952
:102DF00098E09F938F930E94E0060F900F90809130
:102E0000E00180FF08C082E898E09F938F930E94C2
:102E1000E0060F900F9080E090E00E94102B8A3E19
:102E20009E4F81F08091E00180FF08C08AE598E024
:102E30009F938F930E94E0060F900F900E940E28A0
:102E40000E94360E88E090E00E940A2B6093CC012D
:102E50007093CD018093CE019093CF016E7FD1F41A
:102E60008091E00180FF08C081E198E09F938F93FB
:102E70000E94E0060F900F900E94360E88E090E0CE
:102E80000E940A2B6093CC017093CD018093CE01F8
:102E90009093CF010E94EF0D8091E00180FF08C068
:102EA00088EF97E09F938F930E94E0060F900F901A
:102EB0008091E00180FF0FC08091CC0181701F9252
:102EC0008F938BED97E09F938F930E94E0060F9076
:102ED0000F900F900F908091E00180FF0FC08091C4
:102EE000CC0186951F928F9380EC97E09F938F93F0
:102EF0000E94E0060F900F900F900F908091E001DC
:102F000080FF0EC08091CD011F928F9386EA97E0DB
:102F10009F938F930E94E0060F900F900F900F9059
:102F20008091E00180FF0EC08091CE011F928F93AF
:102F30008CE897E09F938F930E94E0060F900F908C
:102F40000F900F908091E00180FF0EC08091CF0123
:102F50001F928F9382E797E09F938F930E94E006E2
:102F60000F900F900F900F908091E00180FF0EC0A6
:102F70008091D0011F928F9386E597E09F938F9366
:102F80000E94E0060F900F900F900F901092D201C8
:102F90008091CC0180FF04C060E086950E941B10E8
:102FA00081E08093B4018FE091E09093B60180932B
:102FB000B50189E099E00E9447068091FA018530C9
:102FC00009F04AC085E099E00E94470600E112E15D
:102FD0008091FA01853009F03BC08091FA0184307C
:102FE00021F11092B70148E150E080E40FB6F89467
:102FF000A895409360000FBE8093600083B7817FE7
:10300000846083BF83B7816083BF7894889583B7DA
:103010008E7F83BF0FB6F894A89580916000886179
:1030200080936000109260000FBE8091F9018823A8
:1030300009F4CECF0E947212ECEBF1E081919191F4
:10304000892B09F077C291E0E63CF907B9F7C0CFC8
:103050000E9493210E942D260E947212882359F00B
:103060008FB7F8944091B8015091B9016091BA01BD
:103070007091BB018FBF41EE442E41E0542E5CEBBA
:10308000652E51E0752E00E010E0098BF301A19050
:10309000B1903F01F201C190D1902F01CA24DB24ED
:1030A000C114D104B1F40F5F1F4F0530110569F74A
:1030B0008FEF8C878D871E860E94A1278160782FD5
:1030C000988B8F874C855D856E8588890E946325E6
:1030D00077C08091E00181FD05C080E0EE24E3949B
:1030E000F12C48C08FEB98E00E9447062CEB822E13
:1030F00021E0922EE12CF12CFF92EF922AEB38E0A6
:103100003F932F930E94E00687EB98E00E944706CA
:10311000F40180812180F2E08F0E911C0E94F01456
:10312000382E822D0E94F014232D30E0322F2227DA
:10313000A901482BCA019F938F9381EB98E09F933D
:103140008F930E94E0068FEA98E00E944706FFEF07
:10315000EF1AFF0A0FB6F894DEBF0FBECDBF35E001
:10316000E316F10449F6B9CF8F5FEE0CFF1C8F30E8
:1031700009F499CF96012E213F21232BA9F38F83A8
:1031800049894887AE20BF2081E0AB2809F480E060
:1031900089870E94A1278160782F9B878A874F812A
:1031A000588569858B850E946325000F111FF801E2
:1031B000EF51FE4F80819181E826F926F182E0826D
:1031C0008091D201882309F4A5C08091D101E091BA
:1031D000CC01E695E81BE093C801823059F4F0E099
:1031E000E951F74FE4910E2F10E0FFE4EF2EF5E2E6
:1031F000FF2E6BC0863059F4F0E0EC51F74FE491AC
:103200000E2F10E0EFE3EE2EE5E2FE2E5EC08930D9
:1032100061F4E695F0E0EF51F74FE4910E2F10E0E6
:1032200075EDE72E74E2F72E50C08F3061F4E6950D
:10323000F0E0E252F74FE4910E2F10E061E7E62E46
:1032400064E2F62E42C0853159F4F0E0E552F74FC2
:10325000E4910E2F10E053E2E52E54E2F52E35C036
:103260008831F9F0833249F4E9EDF8E005911491E1
:103270004FEFE42E44E2F42E28C08432C9F08532A8
:10328000F1F48E2F63E00E94AD2BE92FF0E0EA52BB
:10329000F74FE4910E2F10E03FEBE32E32E2F32ED6
:1032A00014C008E210E02AE9E22E23E2F22E0DC05B
:1032B00004EF11E090E6E92E93E2F92E06C000ED4E
:1032C00017E08EEBE82E82E2F82E8091C901882368
:1032D00061F01092C9010E94A1279093C7018093C9
:1032E000C6011092CB011092CA010E94A127E09161
:1032F000C601F091C7018E1B9F0B8F3F9F4750F473
:103300000E0F1F1F1093C7010093C60186EC91E0BA
:10331000F701099586E0E9EDF1E0DE0111960190F3
:103320000D928A95E1F7E090DB01F090DC010091CD
:10333000DD011091DE011092DB011092DC01109290
:10334000DD011092DE01E11003C0FF2009F451C03D
:103350008091D7019091D8010E9492279C01909171
:10336000D601992309F4FCC02333310508F441C088
:103370009F3F19F09F5F9093D601EE2061F00E946D
:10338000E0111E1414F09FEF01C091E0899F802D81
:1033900011248093DB01FF2061F00E94E0111F14D3
:1033A00014F09FEF01C091E0899F802D112480933C
:1033B000DC013091DB013323E1F02091DC01222399
:1033C000C1F045EB3403C0011124992319F0909307
:1033D000DB0103C081E08093DB0155EB2503C001D5
:1033E0001124992319F09093DC0103C081E08093AC
:1033F000DC01011103C0112309F451C08091D401F3
:103400009091D5010E9492279C019091D30199231C
:1034100009F4ABC02536310508F441C09F3F19F0CF
:103420009F5F9093D301002361F00E94BE1110169C
:1034300014F09FEF01C091E0899F802D11248093AB
:10344000DD01112361F00E94BE11111614F09FEFEF
:1034500001C091E0899F802D11248093DE0130917D
:10346000DD013323E1F02091DE012223C1F045EBA1
:103470003403C0011124992319F09093DD0103C096
:1034800081E08093DD0155EB2503C00111249923D0
:1034900019F09093DE0103C081E08093DE018091FA
:1034A000DB0181110BC08091DC01811107C080918B
:1034B000DD01811103C08091DE0181110E949B100A
:1034C000EB82FC820D831E8386E0FE013196A9ED1E
:1034D000B1E001900D928A95E1F70E942D2690911E
:1034E000DF01891709F469CD0E942D26182F8093DA
:1034F000DF018091E00182FF60CD80FF04C082EF98
:1035000098E00E9447068091E00180FF0CC01F9266
:103510001F938DEE98E09F938F930E94E0060F908B
:103520000F900F900F908091E00180FF46CD8BEEC1
:1035300098E041CD09BD19BD09B400FEFDCF8091D1
:10354000D8008F7D8093D8008091E00082608093C6
:10355000E0008091E00081FDFCCF0E94932138CDF6
:103560002D32314008F006CF44CF2D32314008F0E3
:1035700057CF95CFEF92FF920F931F93CF93DF9387
:103580007C018B010E946D15811119C0E7010115A5
:103590001105A1F08091E80085FD0AC08091E80046
:1035A0008E778093E8000E946D15882381F307C011
:1035B00089918093F10001501109E9CF80E0DF91FA
:1035C000CF911F910F91FF90EF9008951F93CF938C
:1035D000DF93CDB7DEB7AA970FB6F894DEBF0FBE64
:1035E000CDBFECEFF1E084E092E02091F100219377
:1035F0008E179F07D1F78091FD01833009F460C0D9
:1036000030F4813071F0823009F49AC0B1C08A3050
:1036100009F486C08B3009F46BC0893009F0A8C06A
:1036200020C08091FC01813A09F0A2C08091E8009D
:10363000877F8093E8008091000290910102892B9E
:1036400021F468E080EF91E003C060E080E090E06A
:1036500070E00E94F4158091E8008B778093E80079
:1036600087C08091FC01813209F082C08091000204
:1036700090910102029708F07BC08091E800877F5B
:103680008093E8008091E80082FD05C08091FA01F6
:103690008111F8CF6DC02091F3008091F20090E08D
:1036A000922B029729F48091F1008B7F813021F4D5
:1036B0008091F1008093EF018091E8008B7754C0F6
:1036C0008091FC01813A09F053C0809100029091F1
:1036D0000102892B09F04CC08091E800877F80931C
:1036E000E8008091E80080FFFCCF8091190137C08D
:1036F0008091FC018132E1F58091000290910102FC
:10370000892BB1F58091E800877F8093E8000E94C3
:10371000A0158091FE01809319010E94932128C079
:103720008091FC01813221F58091E800877F8093B0
:10373000E8000E94A0158091FF018093EE0118C05F
:103740008091FC01813AA1F48091E800877F809309
:10375000E8008091E80080FFFCCF8091EE0180932B
:10376000F1008091E8008E778093E8000E94A01518
:103770008091E80083FFD7C18091FC019091FD0109
:10378000492F50E04A30510508F0CDC1FA01EE59F9
:10379000FF4F0C94E12B803821F0823809F0C3C12F
:1037A00008C08091F8019091F901992389F0826015
:1037B0000FC0809100028F70873008F0B4C18093F1
:1037C000E9008091EB0085FB882780F91092E900E1
:1037D0009091E800977F9093E8008093F100109219
:1037E000F1006FC1282F2D7F09F09DC1882319F0AA
:1037F000823061F098C18091FE01813009F093C15F
:10380000933009F080E08093F9012EC08091FE0191
:1038100081112AC0809100028F702FEF280F26306F
:1038200008F081C18093E9002091EB0020FF1CC0CB
:10383000933021F48091EB00806214C09091EB00F2
:1038400090619093EB0021E030E0A90102C0440FA9
:10385000551F8A95E2F74093EA001092EA008091A2
:10386000EB0088608093EB001092E9008091E80003
:10387000877F8093E8000E94A01555C1811153C134
:103880001091FE011F778091E3008078812B809357
:10389000E3008091E800877F8093E8000E94A015F4
:1038A0008091E80080FFFCCF8091E30080688093E6
:1038B000E300111102C082E001C083E08093FA01AD
:1038C00032C18058823008F02EC12091FE01309123
:1038D000FF012C3D53E0350779F583E08A838AE2C6
:1038E00089834FB7F894DE01139620E03EE051E261
:1038F000E32FF0E050935700E49120FF03C0E295DE
:10390000EF703F5FEF708E2F90E0EA3010F0C796B7
:1039100001C0C0968D939D932F5F243149F74FBF0F
:103920008091E800877F8093E8006AE270E0CE0132
:1039300001960E94F415B4C080910002909101029A
:10394000432F552743305105A9F068F44130510504
:1039500009F4F8C04230510509F0E5C08BE590E06C
:10396000EBE0FAE04BC04132510529F142325105FA
:1039700089F1D9C0C901992781309105A1F058F08A
:10398000029709F0D0C0E8E7FAE0E4918E2F90E0CA
:10399000E8E7FAE030C0E8E9FAE0E4918E2F90E041
:1039A000E8E9FAE028C0E6E8FAE0E4918E2F90E03A
:1039B000E6E8FAE020C08330910508F0B4C0880F33
:1039C000991FFC01EB59FE4F0190F081E02D89E039
:1039D00090E014C08330910508F0A5C0FC01EE0F03
:1039E000FF1FE15AFE4F0190F081E02DDC01A45A47
:1039F000BE4F8C9190E0009709F495C02091E800AB
:103A0000277F2093E80020910202309103022817BB
:103A1000390708F4C90140E0009789F12091FA01C3
:103A2000222309F43DC02530D9F12091E80023FD7F
:103A300037C02091E80022FD2FC02091E80020FF30
:103A4000EBCF4091F3002091F20030E0342B00974F
:103A500059F02830310540F444914093F1003196FB
:103A600001972F5F3F4FF3CF41E02830310509F038
:103A700040E02091E8002E772093E800CDCF41115F
:103A8000CDCF0AC08091FA01882351F0853041F0F2
:103A90008091E80083FD04C08091E80082FFF2CFAE
:103AA0008091E8008B778093E8003DC08038D9F59D
:103AB0008091E800877F8093E8008091FB018093EC
:103AC000F1008091E8008E77D4CE81112CC08091D6
:103AD000FE019091FF01992702972CF58091E80053
:103AE000877F8093E8001091FE011093FB010E94F4
:103AF000A015111106C08091E30087FD02C081E08E
:103B000001C084E08093FA0142E061EC81E00E9410
:103B1000BF1542E261EC82E00E94BF1542E261EC17
:103B200083E00E94BF158091E80083FF10C0809160
:103B3000E800877F8093E8008091EB0080628093AB
:103B4000EB0005C082E190E0E6E6FAE057CFAA96E6
:103B50000FB6F894DEBF0FBECDBFDF91CF911F919E
:103B600008951F920F920FB60F9211242F933F9337
:103B70004F935F936F937F938F939F93AF93BF9375
:103B8000CF93DF93EF93FF93C091E900CF708091C3
:103B9000EC00D82FD17080FDD0E81092E900809120
:103BA000F000877F8093F00078940E94E61A1092CC
:103BB000E9008091F00088608093F000CD2BCF70F9
:103BC000C093E900FF91EF91DF91CF91BF91AF9149
:103BD0009F918F917F916F915F914F913F912F9125
:103BE0000F900FBE0F901F901895E8EDF0E08081C8
:103BF0008E7F80831092E2001092DA001092E10032
:103C0000A0EEB0E08C9181608C9380818F7780836F
:103C100019BCA7EDB0E08C918E7F8C9380818F7E54
:103C200080831092ED010895CF92DF92EF92FF9280
:103C30000F931F93CF93DF93C8EDD0E088818F7EE1
:103C40008883E7EDF0E080818160808384E082BF3B
:103C500081E08093ED0188818E7F888302EE10E001
:103C6000F80110821092DA0081EEC82ED12CF601F4
:103C7000108288818F778883888180688883888193
:103C80008F7D888319BC1092FA011092FB0110926B
:103C9000F9011092F80190EEE92EF12CF7018081E4
:103CA0008B7F808388818160888342E060E080E050
:103CB0000E94BF15F60180818E7F8083F80180818C
:103CC00081608083808188608083F70180818E7F1E
:103CD0008083888180618883DF91CF911F910F91CC
:103CE000FF90EF90DF90CF9008951F920F920FB644
:103CF0000F9211242F933F934F935F936F937F9372
:103D00008F939F93AF93BF93EF93FF938091E100C5
:103D100082FF49C08091E20082FF45C08091E100AE
:103D20008B7F8093E1002091EC012F5F822F62E373
:103D30000E94AD2B992319F02093EC0134C010920E
:103D4000EC018091EB01882371F18091FA018430BC
:103D500041F58091E9008F702091EC00922F9170D5
:103D600020FD90E8892B93E09093E9009091EB007F
:103D700090FF14C09091EE0097FF10C09091E80062
:103D800095FF03C01092F100F9CF9091E80090FFE9
:103D900005C09091E8009E779093E8008F70809323
:103DA000E9001092EB018091DA0080FF32C080912F
:103DB000D80080FF2EC08091DA008E7F8093DA00D9
:103DC0008091D90080FF1CC080E189BD82E189BD5E
:103DD00009B400FEFDCF81E08093FA0187EF99E0FE
:103DE0000E9447068091ED01811113C00E94F51DCC
:103DF0000E94141E8091E20084608093E20009C05A
:103E000019BC1092FA018BEF99E00E9447061092BC
:103E1000ED018091E10080FF1BC08091E20080FFF6
:103E200017C08091E2008E7F8093E2008091E200D3
:103E300080618093E2008091D80080628093D800F6
:103E400019BC85E08093FA018FEF99E00E94470644
:103E50008091E10084FF32C08091E20084FF2EC097
:103E600080E189BD82E189BD09B400FEFDCF80916A
:103E7000D8008F7D8093D8008091E1008F7E809361
:103E8000E1008091E2008F7E8093E2008091E20069
:103E900081608093E2008091FB01882311F084E02F
:103EA00007C08091E30087FD02C081E001C083E08C
:103EB0008093FA0183E09AE00E9447068091E10036
:103EC00083FF2BC08091E20083FF27C08091E10037
:103ED000877F8093E10082E08093FA011092FB01DA
:103EE0008091E1008E7F8093E1008091E2008E7FDF
:103EF0008093E2008091E20080618093E20042E0E2
:103F000060E080E00E94BF158091F000886080939F
:103F1000F00087E09AE00E944706FF91EF91BF9181
:103F2000AF919F918F917F916F915F914F913F9151
:103F30002F910F900FBE0F901F9018950E94572938
:103F4000292F2F70E92FE295EF704E2F50E0FA01E4
:103F50003297EE30F105B8F4E459FF4F0C94E12BA1
:103F6000803F99F018F4883E70F40FC0843F59F4F4
:103F70000CC0883E50F0813F31F407C0822F8695F7
:103F800086958695089580E0089581E008959F9232
:103F9000AF92BF92CF92DF92EF92FF920F931F9357
:103FA000CF93DF93CDB7DEB761970FB6F894DEBF3E
:103FB0000FBECDBF8C0185E0F801DE011D9601909A
:103FC0000D928A95E1F7F80190818181E28030912C
:103FD0009602609197024091990250919A02411580
:103FE000510531F06F3F31F421E03F3F19F403C038
:103FF00021E001C020E0F22FF1709F2E20FD23C1AF
:10400000F801C380D48026E9A22E22E0B22EF090DF
:104010009802F601E41BF50BFF2009F4CEC02091B5
:104020009B02E83CF10508F099C0422F407F09F05F
:1040300051C0681311C039130FC0FE2CE1100CC021
:104040002F70206120939B02C5010E94E906809198
:104050009B02F801858337C1CD2831F08F3F31F4C1
:1040600021E09F3F19F403C021E001C020E020FDC2
:1040700003C021E02E2502C020E030E0F22FF170D5
:10408000FF2E20FF1DC02091CD0240919C0256E0E2
:10409000241709F4F6C030E0529FF001539FF00D51
:1040A0001124E356FD4F6181861306C0608196138B
:1040B00003C06281E61204C02F5F3F4F2770E8CF34
:1040C000FE2CEE2009F4FFC080919B02816080935A
:1040D0009B0250C0681307C0391305C0E11003C02C
:1040E000F80125838DC09D878E878D859E850E94D2
:1040F0009E1F882369F1EE2059F120919B02822FA7
:1041000082958F7090E0029774F080919602909162
:10411000970298878F831986DB86CA862C87CE0103
:1041200007960E94E90686E0F801A6E9B2E0019050
:104130000D928A95E1F70E943A2A0DC06817E1F0C6
:104140009D878E878D859E850E949E1F81111EC032
:10415000C8010E94E906FF24F394B5C0422F407FB6
:1041600069F786E992E00E94E90686E0F50111927E
:104170008A95E9F7F12CA7C03913E2CFE110E0CF1F
:10418000F8012583C8010E94E90657C0EE2001F31B
:1041900020919B02822F82958F7090E002971CF2F3
:1041A00080919602909197029A8389831B82DD8287
:1041B000CC822E83CE010196B4CFE83CF105E8F520
:1041C000FE2CEE2029F2681327C0391325C0209158
:1041D0009B0220FD18C0822F82958F70482F50E0DF
:1041E0004115510581F0F80125834F30510541F00B
:1041F0008F5F982F9295907F822F8F70892B858368
:10420000C8010E94E90686E0F801A6E9B2E0019043
:104210000D928A95E1F757C09D878E878D859E8583
:104220000E949E1F81117FCF80919B0281608093AD
:104230009B02C8010E94E90646C086E0F501119282
:104240008A95E9F740C0EE2009F482CF9D878E87DA
:104250008D859E850E949E1FF82E882309F478CFB5
:1042600086E0F801A6E9B2E001900D928A95E1F7A7
:1042700080919602909197020E9457290E943A2AB3
:1042800022C09D878E878D859E850E945729292F64
:1042900022952F70223028F49F7039F0811105C0CB
:1042A0000BC0243028F49F7049F4805E883020F0E1
:1042B000C8010E94E9069F2CF92C05C0F8019581E0
:1042C000907F99F7F9CF8F2D61960FB6F894DEBFE6
:1042D0000FBECDBFDF91CF911F910F91FF90EF9057
:1042E000DF90CF90BF90AF909F90089580E090E0D6
:1042F0000E94172680E090E00E940126109202039F
:10430000109201030E947F28E9EDF1E086E0DF01D1
:104310001D928A95E9F71092D6011092D30110925E
:1043200004020C949B101092030386E0E0E9F2E093
:10433000DF011D928A95E9F70C947621882341F0DC
:104340008095909103038923809303030C947F2825
:104350000895882339F090910303892B80930303F8
:104360000C947F280895882309F463C0823869F487
:104370000E942D2681FF5DC069E38EE892E00E94D5
:10438000E3270E947F2869E30EC0833891F40E94DE
:104390002D2680FF4EC063E58EE892E00E94E32761
:1043A0000E947F2863E58EE892E00E94D6270C9455
:1043B0007F28843869F40E942D2682FF3AC067E482
:1043C0008EE892E00E94E3270E947F2867E4EBCF0B
:1043D0009CEF980F913A10F4682FE5CF90E2980F78
:1043E000983088F4877021E030E0A90102C0440FC2
:1043F000551F8A95E2F7CA0180959091030389239E
:1044000080930303D4CF9BE5980F933020F480E092
:1044100090E00C94172698E5980F973120F480E0EF
:1044200090E00C9401268D3E20F00E9447110C94E0
:104430009B100895CF93882309F49EC0C82F82381B
:10444000B1F40E942D2681FD97C069E38EE892E0C9
:104450000E94E3270E947F282FEF81EE94E02150F5
:1044600080409040E1F700C0000069E317C0833846
:10447000E1F40E942D2680FD7FC063E58EE892E086
:104480000E94E3270E947F282FEF81EE94E02150C5
:1044900080409040E1F700C0000063E58EE892E0C4
:1044A0000E94D627CF910C947F288438B1F40E94C3
:1044B0002D2682FD61C067E48EE892E00E94E3272A
:1044C0000E947F282FEF81EE94E0215080409040A1
:1044D000E1F700C0000067E4E1CF8CEF8C0F813A78
:1044E00080F4E0E9F2E086E992E02191C217E1F17F
:1044F0008E179F07D1F76C2F8EE892E00E94E3277A
:10450000D1CF80E28C0F883068F4C77081E090E0F2
:1045100001C0880FCA95EAF790910303892B809315
:104520000303C0CFEBE5EC0FE33040F4F0E0E559D6
:10453000FE4F808190E0CF910C941726E8E5EC0FB8
:10454000E73150F4F0E0EE0FFF1FE259FE4F80819B
:104550009181CF910C940126CD3E70F08C2F0E945A
:104560000012CF910C949B106C2F8EE892E00E9469
:10457000D6270E947F28BFCFCF91089508959F929C
:10458000AF92BF92CF92DF92EF92FF920F931F9361
:10459000CF93DF93FC01A280948081E08483E5EBDC
:1045A000FAE0B490E4E3FBE0E491C8E3D2E0F8E0A1
:1045B000EF2EF2E0FF2ECC24CA94D12CEB190E2F53
:1045C00010E022E02A1530F08091CD01888380919F
:1045D000CE018983911003C01B821A8255C08B8142
:1045E0008823F9F081508B832FEF829FC001112423
:1045F0006C8170E00E94B92BFB01FF27EB54F54F53
:104600008491E82FEB192FEFE29FC0011124B8012C
:104610000E94B92B8091CF01689FB00111247A8349
:1046200033C00E94F22A2091CF012695215830E014
:10463000A901440F551F322F2227240F351F232F86
:1046400033278217930704F582E08A1588F40E94C5
:10465000F22AB6010E94CD2B88830E94F22A209173
:10466000CE012695622F70E00E94CD2B280F298362
:104670001A828091CF01843120F0893C18F088ECB7
:1046800001C084E18C838B8397014A816981888191
:104690000E94450E259623E0E20EF11C82E0C83808
:1046A000D80709F08ECFDF91CF911F910F91FF9026
:1046B000EF90DF90CF90BF90AF909F900C94A80D9B
:1046C000EF92FF920F931F93CF93DF938C01C8E07B
:1046D000D2E0E12CF12CF8018481F8E0EF16F1042E
:1046E0001CF4882339F002C0811104C09E0140915E
:1046F000CF0102C09E0140E06091CE018091CD01CA
:104700000E94450E8FEFE81AF80A239690E1E91609
:10471000F10409F70E94A80DF801848190E0019648
:10472000817099278483DF91CF911F910F91FF9022
:10473000EF9008958F929F92AF92BF92CF92DF92A7
:10474000EF92FF920F931F93CF93DF93EC014C8175
:10475000042F10E09801D8010E949E2B9B01AC0110
:104760000E94692B6B017C01E0E2F0E0E01BF10BA1
:10477000A5E5B0E09B01AC010E94692B4B015C01F7
:104780009F01DF010E94E72B9B01AC010E94742B6B
:104790009B01AC012C0D3D1D4E1D5F1DC501B401DB
:1047A0000E947C2B822FF22E99E2921728F093E040
:1047B000299F900111240DC025E530E0281B310907
:1047C000C901880F991F280F391F37FF02C02F5FBB
:1047D0003F4F35952795122F109598E0C92E92E0FE
:1047E000D92E00E085E5E82EEF1801FD02C08E2DE0
:1047F00001C08F2D9601412F6091CE010E94450E80
:104800000F5F83E0C80ED11C003179F70E94A80D1C
:104810008C81811102C091E003C0803219F49FEFB6
:1048200090931C0190911C01890F8C83DF91CF9193
:104830001F910F91FF90EF90DF90CF90BF90AF90BE
:104840009F908F9008950F931F93CF93DF93C8E0AD
:10485000D2E0FE01118210821282339682E0E833A8
:10486000F807C1F700E010E080910602082E000C66
:10487000990B0817190794F080911B01082E000C62
:10488000990B8017910754F09E014091CF016091E0
:10489000CE018091CD010E94450E03C0198218827D
:1048A0001A820F5F1F4F239600311105E9F60E940F
:1048B000A80D80911A0190910602980F909306021C
:1048C00020911B01280F20931B01121614F49F3016
:1048D0001CF0819580931A01DF91CF911F910F9168
:1048E0000895CF92DF92EF92FF920F931F93CF9391
:1048F000DF93FC01828180FF03C0DD24DA9402C0D3
:10490000DD24D394C8E0D2E000E010E019821882E0
:104910001A8294E0E92EF12CC12C809105028C0DB5
:10492000813114F08F7002C087FD805F082E000C6B
:10493000990B0817190791F48091CF018E9DA00162
:104940008F9D500D112455954795559547959E017E
:104950006091CE018091CD010E94450ECD0CF1E019
:10496000EF1AF108D1F60F5F1F4F239600311105A2
:1049700069F60E94A80D8091050291E0D91206C047
:10498000811102C08FE006C0815004C090E0019602
:104990008F70992780930502DF91CF911F910F911E
:1049A000FF90EF90DF90CF900895EF92FF921F93CA
:1049B000CF93DF93EC0188E0E82E82E0F82E10E040
:1049C0008C8197014091CF016091CE01810F0E94AF
:1049D000450E115F83E0E80EF11C103F89F70E943D
:1049E000A80D9A818C8190FF02C08F5F01C0815019
:1049F0008C83DF91CF911F91FF90EF9008950F93DB
:104A00001F93CF93DF9300D01F92CDB7DEB78C01F9
:104A10008091070281110AC09E012F5F3F4F4FEF27
:104A20006FEF0E94450E8A8180930702F80184810E
:104A3000813051F028F0823061F4409107020AC0C1
:104A40008091070240E007C06091070240E080E0EB
:104A500003C040E080E060E00E94DE0DF801848148
:104A600090E0019663E070E00E94CD2B84830F906C
:104A70000F900F90DF91CF911F910F910895CF93D9
:104A8000DF93EC01ECECF1E0438162818C810E94C8
:104A9000DB0E8C818F5F8C83DF91CF910895CF9354
:104AA000DF93EC01EC81F0E0EB54F54F4491ECEC3A
:104AB000F1E0628181810E94DB0E8C818F5F8C83AB
:104AC000DF91CF9108951F93CF93DF93CDB7DEB7DA
:104AD00067970FB6F894DEBF0FBECDBF342F4B8B58
:104AE000252F5C8B6D8B7E8B8F8B4E895F8961113F
:104AF0001092020386E0FE013D96DF01982F1D9281
:104B00009A95E9F73D872E876F87598B488BDE0191
:104B1000179601900D928A95E1F7CE0107960E94B3
:104B2000C71F81113EC086E0FE013796DE01119657
:104B300001900D928A95E1F7FF81E8856A857B8572
:104B40006115710531F0EF3F31F481E0FF3F19F459
:104B500003C081E001C080E080FD23C020919C0261
:104B600030E0C9010196877099274091CD0250E04D
:104B70008417950779F1F983EA837D836C8396E046
:104B8000929FD001939FB00D1124A356BD4FFE01FB
:104B9000319601900D929A95E1F780939C020E94C4
:104BA000302A16E08091CD0290919C028917F9F08D
:104BB000189FC001112483569D4F0E94C71F882350
:104BC000B1F08091CD0290E0019687709927809393
:104BD000CD02E8CF0E94932110929C021092CD0248
:104BE000E6E9F2E086E0DF011D928A95E9F7679633
:104BF0000FB6F894DEBF0FBECDBFDF91CF911F91EE
:104C0000089520918C0230918D022817390771F098
:104C100090938D0280938C02E091B501F091B601E2
:104C2000309721F00084F185E02D099408952091BA
:104C30008A0230918B022817390771F090938B020A
:104C400080938A02E091B501F091B601309721F08E
:104C50000680F781E02D09940895E091B501F09167
:104C6000B601309721F00190F081E02D099480E0A9
:104C70000895EF92FF920F93CF93DF93C42FD22F1B
:104C8000FC0182818823D1F040939E010E94A127DC
:104C9000909389028093880280E28C0F883008F01C
:104CA0006DC0C77081E001C0880FCA95EAF7DF9137
:104CB000CF910F91FF90EF900C94A92180919E01CC
:104CC00048134BC080918802909189020E949227DC
:104CD000883C910508F041C0CD17C9F080E28C0FE7
:104CE000883040F4C77081E001C0880FCA95EAF7A8
:104CF0000E949E2180E28D0F883048F481E09D2F34
:104D0000977001C0880F9A95EAF70E94A92109338C
:104D100019F0E12CF12C03C080E5E82EF12C802F56
:104D20000E941A22E114F10451F08FE99FE00197EB
:104D3000F1F700C0000091E0E91AF108F3CF802FED
:104D40000E94B32180E28D0F8830C0F4D77081E0DB
:104D500001C0880FDA95EAF70AC080E28C0F88302C
:104D600068F4C77081E001C0880FCA95EAF7DF9147
:104D7000CF910F91FF90EF900C949E21DF91CF91F6
:104D80000F91FF90EF9008959091CC0190FF04C097
:104D90009695981740F003C0811105C090E09617D2
:104DA00010F40C94911061E00C941B10882311F006
:104DB000FA0101C0FB0109941092D2018091E00137
:104DC00080FF08C08CE99AE09F938F930E94E006D1
:104DD0000F900F9008958091EF01089522E02093A5
:104DE000E9002FEF3091E800215035FD06C035ED88
:104DF0003A95F1F700002111F5CF2091E80025FF49
:104E00000BC040E050E066E070E00E94BA1A80916A
:104E1000E8008E778093E8000895CF93DF9321E038
:104E20002093E9002FEF3091E800215035FD06C0B6
:104E300035ED3A95F1F700002111F5CF2091E8000A
:104E400025FF14C0EC0140E050E068E070E00E94F3
:104E5000BA1A8091E8008E778093E80088E0FE011E
:104E6000A0EFB1E001900D928A95E1F7DF91CF912B
:104E70000895CF93DF9300D01F92CDB7DEB7909106
:104E8000FA01943019F589837B836A8382E08093E9
:104E9000E9008FEF9091E800815095FD06C095EDF7
:104EA0009A95F1F700008111F5CF8091E80085FF18
:104EB0000DC040E050E063E070E0CE0101960E943A
:104EC000BA1A8091E8008E778093E8000F900F90D7
:104ED0000F90DF91CF91089578941F920F920FB6A3
:104EE0000F9211248F939F93AF93BF938091B8013A
:104EF0009091B901A091BA01B091BB010196A11D99
:104F0000B11D8093B8019093B901A093BA01B093F9
:104F1000BB01BF91AF919F918F910F900FBE0F90EA
:104F20001F9018959C014FB7F8948091B80190910B
:104F3000B901A091BA01B091BB014FBF821B930B85
:104F400008952FB7F8948091B8019091B901A0917C
:104F5000BA01B091BB012FBF08951F920F920FB6F7
:104F60000F9211248F939F93AF93BF938091B701BA
:104F7000811113C08091B8019091B901A091BA013B
:104F8000B091BB014196A11DB11D8093B8019093D2
:104F9000B901A093BA01B093BB01BF91AF919F91AA
:104FA0008F910F900FBE0F901F9018959C012A5F54
:104FB0003F4FFC014281461301C0128201968217C5
:104FC0009307B9F708959C01FC0132969FEF80E0AA
:104FD0004191461789F09F3F19F4411101C0982F64
:104FE0008F5F8630A9F79F3F39F0F901E90FF11D76
:104FF00097FDFA95628308950895CF9384E090E039
:105000000E94022BC82F82E290E00E94022B2C2FDC
:1050100030E0A901582BCA01CF9108956AEE7EEFC6
:1050200080E090E00E94342B60E082E090E00E94FB
:10503000162B60E083E090E00E94162B109205038F
:1050400010920603109207031092080360E084E0B8
:1050500090E00E94162B60E082E290E00E94162B06
:1050600060E085E090E00E94162B60E086E090E032
:105070000E94162B6FEF87E090E00E94162B40E015
:1050800050E0BA0188E090E00E94282B60E08DE0BB
:1050900090E00E94162B40E050E0BA0188E190E0D9
:1050A0000E94282B60E087E190E00E94162B40E0F0
:1050B00050E0BA018CE190E00E94282B60E070E0A3
:1050C00080E290E00E94342B40E050E0BA0188E199
:1050D00090E00E94282B40E050E0BA018FE090E081
:1050E0000E94282B40E050E0BA0183E190E00C944C
:1050F000282B809104038111109204030895EF92EC
:10510000FF920F931F93CF9390910303809102031B
:10511000892B20910103982F922B90938E028091DE
:105120000403882389F0892B80938E02E0E9F2E062
:1051300097E080E0915029F021912223D9F38F5FED
:10514000F9CF81110E947928E091B501F091B60163
:105150003097C9F10280F381E02D8EE892E0099545
:105160008091E00182FF2FC080FF04C082ED9BE0B0
:105170000E9447060EE812E0C8E08CECE82E8BE0B7
:10518000F82E8091E00180FF0CC0F80180811F9211
:105190008F93FF92EF920E94E0060F900F900F9076
:1051A0000F90C1500F5F1F4FC111EBCF8091E001F5
:1051B00080FF09C08AEC9BE0CF911F910F91FF9077
:1051C000EF900C944706CF911F910F91FF90EF90B5
:1051D0000895CF93DF93C091A901C2FB992790F95D
:1051E000981701F1D82F80FBC2F9C093A9016091F3
:1051F000A80184E090E00E94162B6C2F82E290E0E0
:105200000E94162B8091E00180FF0CC01F92DF935B
:1052100085EB9BE09F938F930E94E0060F900F9089
:105220000F900F90DF91CF910895BF92CF92DF92B0
:10523000EF92FF920F931F93CF93DF938C01C09057
:10524000A401D090A501E090A601F090A701809163
:10525000050390910603A0910703B0910803C82AA3
:10526000D92AEA2AFB2ACFE1D0E0D701C6010C2EC9
:1052700004C0B695A795979587950A94D2F780FDB7
:1052800004C0219790F7B12C07C0BC2EB8018C2F19
:105290000E9432130197A9F38B2DDF91CF911F91BB
:1052A0000F91FF90EF90DF90CF90BF900895CF9334
:1052B000DF93EC010E941529BE010E943213DF9199
:1052C000CF9108952FE0929F800D1124682F66954D
:1052D00066956695982F977085E0689FB0011124B8
:1052E00040E050E080E0FB01E40FF51FE253FD4F8A
:1052F000208130E0092E02C0369527950A94E2F706
:1053000021703327042E01C0220F0A94EAF7822B62
:105310004F5F5F4F4530510531F708952FE0929F61
:10532000800D1124E82FE695E695E695877051E00B
:1053300001C0550F8A95EAF785E0E89FF001112436
:10534000E253FD4F20E030E070E04081CB01022EBF
:1053500002C0969587950A94E2F78170819584271B
:105360008523842781932F5F3F4F2530310569F7CF
:1053700008956093A4017093A5018093A601909372
:10538000A7010C9476210F931F9341E050E060E059
:1053900070E004C0440F551F661F771F8A95D2F72F
:1053A00040955095609570958091A4019091A501CC
:1053B000A091A601B091A7018A019B01082319239E
:1053C0002A233B23C901B8011F910F910C94B929DD
:1053D000209100038095822380930003982F97707B
:1053E00041F430E0482F082E000C550B24173507E8
:1053F00021F49091A90192FF07C085958595859527
:105400000E94C3291092000308950F931F9341E057
:1054100050E060E070E004C0440F551F661F771F26
:105420008A95D2F78091A4019091A501A091A6013F
:10543000B091A7018A019B01082B192B2A2B3B2B2A
:10544000C901B8011F910F910C94B929609305030C
:105450007093060380930703909308030C947621BE
:105460008091CD0290919C02891719F08F5F87700F
:10547000FBCF08950F931F93CF93DF9380919B02EF
:1054800082958F7009F05DC080919802882309F49D
:1054900058C08091CD0210919C026091960270914B
:1054A0009702C0919902D0919A0291E06F3F09F062
:1054B00090E0292F06E0811709F443C0209721F0DE
:1054C0007F3F21F030E003C031E001C0322F90E097
:1054D00030FD34C0089FF001099FF00D1124DF0159
:1054E000A356BD4F11963C911197371327C03C919D
:1054F000361324C012963C91129731111FC0139697
:105500004D915C9114974C1B5D0B483C5105B0F4D8
:1055100080919B028F70806180939B02EE55FD4FBE
:1055200080818F708061808386E992E00E94E90625
:10553000DF91CF911F910F910C94302A01968770C3
:10554000BACFDF91CF911F910F9108958F929F92C3
:10555000AF92BF92CF92DF92EF92FF92CF93DF9301
:10556000EC01688179818A819B81611571058105D2
:10557000910521F464E279ED8BE597E02DE133EFBD
:1055800041E050E00E944A2B49015A019B01AC01C5
:10559000A7EAB1E40E94692B6B017C01ACEEB4EF89
:1055A000A50194010E94772BDC01CB018C0D9D1D80
:1055B000AE1DBF1DB7FF03C00197A109B048888386
:1055C0009983AA83BB839F77DF91CF91FF90EF9060
:1055D000DF90CF90BF90AF909F908F9008950E94E2
:1055E000A62A089580E091E00E94A62A0895A0E0EE
:1055F000B0E08093000190930101A0930201B09369
:1056000003010895F999FECF92BD81BDF89A9927BB
:1056100080B50895A6E1B0E044E050E00C943C2B46
:10562000A8E1B0E042E050E00C943C2B262FF99921
:10563000FECF92BD81BDF89A019700B4021639F0F1
:105640001FBA20BD0FB6F894FA9AF99A0FBE0895C2
:105650000396272F0E94172B0E94162B252F0E949E
:10566000172B242F0C94172B0196272F0E94172BF2
:105670000C94162BDC01CB01FC01F999FECF06C07E
:10568000F2BDE1BDF89A319600B40D924150504000
:10569000B8F70895052E97FB1EF400940E94612B25
:1056A00057FD07D00E947C2B07FC03D04EF40C94CE
:1056B000612B50954095309521953F4F4F4F5F4F4F
:1056C000089590958095709561957F4F8F4F9F4F6E
:1056D00008950E949E2BA59F900DB49F900DA49FAE
:1056E000800D911D11240895B7FF0C94692B0E9421
:1056F000692B821B930B0895A1E21A2EAA1BBB1BD8
:10570000FD010DC0AA1FBB1FEE1FFF1FA217B3078D
:10571000E407F50720F0A21BB30BE40BF50B661FA3
:10572000771F881F991F1A9469F760957095809567
:1057300090959B01AC01BD01CF010895A29FB001DE
:10574000B39FC001A39F700D811D1124911DB29FB5
:10575000700D811D1124911D0895991B79E004C0DD
:10576000991F961708F0961B881F7A95C9F78095A0
:105770000895AA1BBB1B51E107C0AA1FBB1FA61798
:10578000B70710F0A61BB70B881F991F5A95A9F7EA
:1057900080959095BC01CD01089597FB072E16F4D6
:1057A000009407D077FD09D00E94B92B07FC05D0E3
:1057B0003EF4909581959F4F0895709561957F4F28
:1057C0000895EE0FFF1F0590F491E02D09940E94BB
:1057D0009E2B332312F48A1B9B0B0C94F12B0E94FB
:1057E0009E2BB7FF0895821B930B0895FC01415037
:1057F000504030F001900616D1F73197CF0108954F
:0A580000882799270895F894FFCF38
:10580A000100000001191A1B1C1D1E1F202122EB7A
:10581A00260D27EE26691565150101020100010210
:10582A000202020606060909090909090F0F0F0FE4
:10583A000F0F1515151819191919191919191919EF
:10584A0023242525252525253033673666F6F5F4E4
:10585A00F1C695939291909496973435407B22B7EE
:10586A00093C091A091D0A360A4F0A818283E20095
:10587A00E900EA00B500B600B700CD008301CC000C
:10588A008A0192019401210223022402250226029E
:0C589A0027022A02B300B4006F00700067
:00000001FF
