:100000000C944D060C9494060C9494060C9494064F
:100010000C9494060C9494060C9494060C949406F8
:100020000C9494060C9494060C9439200C94751F2F
:100030000C94BE270C9494060C9494060C9494068D
:100040000C9494060C9494060C9494060C949406C8
:100050000C9494060C94E5260C9494060C94940647
:100060000C9494060C9494060C9494060C949406A8
:100070000C9494060C9494060C9494060C94940698
:100080000C9494060C9494060C9494060C94940688
:100090000C9494060C9494060C9494060C94940678
:1000A0000C9494060C9494060C9494069712F612F1
:1000B000FB12001305130A130F13141319131E1345
:1000C00023132A132D1330133313361339133C1310
:1000D0003F134413011401143B143B148E14AA144F
:1000E0003C163C16B5149315A415A415831DAA1D22
:1000F000571FAA1D571FF61D191E571F1A1F291F0C
:10010000AC28AC28BF28BF28B528BF28BF28BF28E7
:10011000AC28AC28BA28BF28BF28BA2800010101A2
:1001200001010101010102020202020202020203B4
:100130000303030303030304040404040404050584
:100140000505050606060606070707070708080847
:1001500008090909090A0A0A0B0B0B0C0C0C0D0DF6
:100160000D0E0E0E0F0F0F1010111111121213138E
:100170001414151516161717181819191A1A1B1B07
:100180001C1D1D1E1E1F2020212222232424252663
:1001900026272829292A2B2C2D2D2E2F303132329B
:1001A000333435363738393A3B3C3D3E3F404142A7
:1001B000434445464748494A4C4D4E4F505153548D
:1001C000555658595A5B5D5E5F6162646566686941
:1001D0006B6C6D6F7072737577787A7B7D7E8082C1
:1001E000838587888A8C8E8F91939596989A9C9E0A
:1001F000A0A2A3A5A7A9ABADAFB1B3B5B7BABCBE1A
:10020000C0C2C4C6C9CBCDCFD1D4D6D8DBDDDFE2E6
:10021000E4E7E9EBEEF0F3F5F8FAFDFF7267626CE4
:10022000696768742074696D657220656E61626CBF
:1002300065642E0A007267626C69676874206D6F6E
:100240006465205B4E4F454550524F4D5D3A202529
:10025000750A007267626C69676874206D6F646507
:10026000205B454550524F4D5D3A2025750A00727E
:1002700067626C69676874207365742068737620A0
:100280005B4E4F454550524F4D5D3A2025752C250C
:10029000752C25750A007267626C69676874207333
:1002A000657420687376205B454550524F4D5D3A2A
:1002B0002025752C25752C25750A007267626C69DE
:1002C000676874207261696E626F7720736574204D
:1002D0006873763A2025642C25642C25642C2575BA
:1002E0000A00FFAA7F55407267626C6967687420D4
:1002F00074696D65722064697361626C652E0A00B1
:100300002223252628292A2C2D2F30323335363822
:100310003A3B3D3E4042434547494A4C4E5051537B
:100320005557595A5C5E6062646668696B6D6F719F
:10033000737577797B7D7F81838587898A8C8E90A1
:10034000929496989A9C9E9FA1A3A5A7A8AAACAEAA
:10035000AFB1B3B4B6B8B9BBBCBEBFC1C2C3C5C6EA
:10036000C7C9CACBCCCDCED0D1D2D2D3D4D5D6D793
:10037000D7D8D9D9DADADBDBDBDCDCDCDCDCDDDDD1
:10038000DDDDDCDCDCDCDCDBDBDBDADAD9D9D8D7C1
:10039000D7D6D5D4D3D2D2D1D0CECDCCCBCAC9C763
:1003A000C6C5C3C2C1BFBEBCBBB9B8B6B4B3B1AF9A
:1003B000AEACAAA8A7A5A3A19F9E9C9A989694923A
:1003C000908E8C8A89878583817F7D7B7977757311
:1003D000716F6D6B6968666462605E5C5A595755EF
:1003E0005351504E4C4A4947454342403E3D3B3AAB
:1003F0003836353332302F2D2C2A29282625232232
:100400007267626C696768742064697361626C65A5
:10041000205B454550524F4D5D3A207267626C69D2
:100420006768745F636F6E6669672E656E61626C84
:1004300065203D2025750A007267626C69676874E3
:1004400020656E61626C65205B454550524F4D5D85
:100450003A207267626C696768745F636F6E666981
:10046000672E656E61626C65203D2025750A0072FD
:1004700067626C6967687420746F67676C65205B7E
:10048000454550524F4D5D3A207267626C6967680E
:10049000745F636F6E6669672E656E61626C65205E
:1004A0003D2025750A0044454255473A206469734A
:1004B00061626C65642E0A0044454255473A2065E6
:1004C0006E61626C65642E0A0000001E021F02202D
:1004D0000221022202000000000000230224022563
:1004E000024A004D000000290014001A00080015FF
:1004F000001700101800004C051C0018000C00121A
:1005000000130034002B0004431644074509460A33
:10051000420E18000046000B000D000E000F0033C5
:1005200000280039001D651B6306001900050050F6
:10053000180000E300110010003600370038004CAE
:1005400000000000001A18E600E1002A00E00000A8
:100550000002512C0004510053015300000000011F
:100560000001000100010001000100010001000183
:100570000001000100010001000100010001000173
:1005800000070015001A0005000F18010001000DFA
:1005900000090018001300330001000100010001F0
:1005A000000B45174601000818010001001C00114E
:1005B00000080012000C0001000100010001001001
:1005C00000060019005018010001000E000F000184
:1005D00000010001000100010001000718010001F5
:1005E0000001000100010001000100010001000103
:1005F00000010001000000000000000000000000F9
:1006000000000000000000000000000000000000EA
:1006100000000001000000E500E400E61100000118
:10062000000000000000004B0052004E00000000DF
:1006300000010001000000000000000100010000B6
:100640000000004A00500051004F004D0001000022
:100650000001000100000000000000010000000097
:100660000019050C050C110C13000001000000001E
:100670000001000100010001000100010001000172
:100680000001000100010000000000000000000067
:10069000000000000000000000000000000000005A
:1006A000000000000000000000010000001E142DEA
:1006B0001428110000000000000000350231022F54
:1006C0000230021312350001000100010001000098
:1006D0000001000000000000002E122D022602275B
:1006E0000256000100000000000000000000003E73
:1006F0000000000000000031002E002F003000013B
:1007000000010000000000010001000100010001E3
:1007100000010001000100010001000100000000D3
:1007200000000000000000000000000000000000C9
:1007300000000000000000000000000000000001B8
:1007400000000000000000000000000000000000A9
:1007500000000024002500260013123402010001CD
:100760000001000551065101000000000000002EAC
:10077000122100220023002D0001000000000000D3
:100780000000000000000000000000000031001E1A
:10079000001F0020003800010000000000000001E0
:1007A000000100010001000100010027000100001C
:1007B0000000000000000000000000000000000039
:1007C0000000000000000000000000000000000029
:1007D0000000000000010000000000000000000018
:1007E0000000000000000031022402250200001376
:1007F00012340201000100010001000100010000AB
:1008000000000000002E122102220223022D00000F
:1008100000000000000000000000000000000000D8
:1008200000000031001E021F022002010000000033
:1008300000000000000000000000000000000000B8
:100840000043000000000000000000000000000065
:100850000000000000000000000000000000000098
:100860000000000000000000000000000000000088
:100870000000000000000000000000000000004038
:1008800000410042000000000001000100010001E1
:10089000000100010000000000000000003D003EDB
:1008A000003F000000000000000000000000000009
:1008B00000000000000000000000003A003B003C87
:1008C0000000000000000000000000000000000028
:1008D00000000000000000430000000000000000D5
:1008E0000000007267626C696768745F636F6E66B0
:1008F00069672E7370656564203D2025640A007267
:1009000067626C696768745F636F6E6669672E768D
:10091000616C203D2025640A007267626C6967681B
:10092000745F636F6E6669672E736174203D202566
:10093000640A007267626C696768745F636F6E66F1
:1009400069672E687565203D2025640A0072676816
:100950006C696768745F636F6E6669672E6D6F643C
:1009600065203D2025640A007267626C69676874BF
:100970005F636F6E6669672E656E61626C65203DB0
:100980002025640A007267626C696768745F636F30
:100990006E66696720454550524F4D3A0A007267AE
:1009A000626C696768745F696E6974207267626CF3
:1009B000696768745F636F6E6669672E6D6F6465E3
:1009C000203D20302E205772697465206465666171
:1009D000756C742076616C75657320746F20454565
:1009E00050524F4D2E0A007267626C696768745FDF
:1009F000696E6974206565636F6E666967206973E7
:100A0000206E6F7420656E61626C65642E0A0072E0
:100A100067626C696768745F696E6974207374617A
:100A20007274210A007267626C696768745F696E2C
:100A300069742063616C6C65642E0A000A002530BD
:100A4000313662003A200025303258000A722F6396
:100A5000203031323334353637383941424344451A
:100A6000460A0032190A00047F3F1F6432146432C0
:100A700014783C1E1E140A050A0025303258006BFB
:100A80006579626F6172645F7365745F6C65643A07
:100A900020005B735D004B6579626F617264207347
:100AA000746172742E0A000631FF0974A101097580
:100AB000150026FF0095207508810209761500268D
:100AC000FF00952075089102C005010902A101856A
:100AD000020901A100050919012905150025019543
:100AE0000575018102950175038101050109300930
:100AF000311581257F9502750881060938158125F4
:100B00007F950175088106050C0A38021581257F3D
:100B1000950175088106C0C005010980A101850302
:100B200019012AB700150126B7009501751081003B
:100B3000C0050C0901A101850419012AA0021501B3
:100B400026A002950175108100C005010906A101CA
:100B5000050719E029E715002501950875018102AF
:100B60009501750881010507190029FF150026FF69
:100B70000095067508810005081901290595057578
:100B8000019102950175039101C05B435D005B44D7
:100B90005D005B535D005B575D005B525D000902C9
:100BA0005B00030100A0FA09040000010301010039
:100BB0000921110100012240000705810308000AF4
:100BC00009040100010300000009211101000122B4
:100BD00081000705820320000A09040200020300C5
:100BE00000000921110100012222000705830320D2
:100BF000000107050303200001120110010000009D
:100C0000086469750001000102030104033000005B
:100C1000000C03490064006F0062006F00000010C8
:100C200003470065006E0065007200690063000004
:100C300000040309040A002530325820006B65794E
:100C4000626F6172645F7265706F72743A2000291E
:100C50000A002575002F002575005D280025640019
:100C60002000256400200025640020002564007C0D
:100C70000025303258006D6F7573656B6579205BA8
:100C800062746E7C782079207620685D28726570A9
:100C90002F61636C293A205B000011241FBECFEF47
:100CA000DAE0DEBFCDBF04B603FE27C080910A03A1
:100CB00090910B03A0910C03B0910D038730904BE2
:100CC000A740B04BD1F410920A0310920B0310927C
:100CD0000C0310920D0314BE84B7877F84BF0FB638
:100CE000F894A895809160008861809360001092CC
:100CF00060000FBEE0E0F8E3099511E0A0E0B1E08C
:100D0000E2EBF6E502C005900D92AC39B107D9F7D8
:100D100023E0ACE9B1E001C01D92AA30B207E1F7CF
:100D20000E94DE170C94572B0C940000FF93EF9356
:100D3000E0919C01F0919D01309709F00995EF91A8
:100D4000FF910895FC018591803011F0EFDFFBCF1A
:100D50000895FF27E0E230E247FF0CC0419597FF7E
:100D600009C0EDE26095709580959095611D711DAB
:100D7000811D911D27FF02C0219530E350E2AA2773
:100D8000660F771F881F991FAA1FA41710F0A41BB6
:100D900063955A95A9F7AA3008F0A95FA05DAF93B3
:100DA000F395611571058105910541F7ED3211F457
:100DB000EF93F395F21718F43F93F395FBCF8F91D0
:100DC000B5DFFA95E1F70895E991F99185918030C1
:100DD00021F0853219F0AADFF9CF089520E0E894D8
:100DE00055915532C1F3503311F4689455915A33EB
:100DF00048F4505390F3220F022E220F220F200DA1
:100E0000250FF4CF0EF4219589919991533619F35A
:100E1000533729F1533559F1BC0188279927E894B4
:100E20005C3621F48991999168945591543639F43E
:100E300046EF7EF077FF0DC08FEF9FEF0AC055376A
:100E40004AE039F0583540E121F0523642E009F0ED
:100E50000895FF93EF937DDFEF91FF91B7CFFF935D
:100E6000EF93FC0181918030B9F360DFFBCFFF93FA
:100E7000EF9368DFF1CFDF93CF93CDB7DEB7259641
:100E8000A3DFCF91DF9108950895BF92CF92DF92B3
:100E9000EF92FF920F931F93CF93DF93E82EF62EDE
:100EA000E901E42FF0E0611106C0E45EFE4F849199
:100EB000B82EE82F71C0262F30E0E45EFE4FE4919B
:100EC000FE2FCE2ED12C46E0849FC00111240FEFBF
:100ED00010E0B8010E941C2B4BEA4603C001479F5B
:100EE000900D11248E0D911D8E0D911D982F990F2F
:100EF000890FD801A21BB30BAC9DA001AD9D500D75
:100F0000BC9D500D1124B52EF89ED0011124AB2F9D
:100F1000BB277801EA1AFB0AEC9CD001ED9CB00DCE
:100F2000FC9CB00D11247801E81AF108E29EC00182
:100F3000E39E900DF29E900D1124892F9927081B96
:100F4000190B0C9D90010D9D300D1C9D300D112431
:100F5000832F6230710591F048F461157105E1F05D
:100F600061307105B9F48E2FEB2F16C06430710516
:100F700069F040F06630710579F00CC08E2FE52FD6
:100F8000B32E0AC0E52FBF2E8B2F06C0852FBE2E95
:100F9000E32F02C0852FBB2EE9838883BA82DF91BD
:100FA000CF911F910F91FF90EF90DF90CF90BF9066
:100FB00008959091370292FF0DC0282F2871283094
:100FC00019F4877F846006C0282F2471243011F41F
:100FD0008B7F886093FF0DC0282F2871283119F46A
:100FE000877E846106C0282F2471243111F48B7E02
:100FF00088612091380220FF0DC0382F38713830B9
:1010000019F4877F816006C0382F3171313011F4B7
:101010008E7F886021FF0DC0282F2871283119F498
:10102000877E816106C0282F2171213111F48E7EC7
:10103000886194FD877E08951F93CF93DF93CDB78A
:10104000DEB767970FB6F894DEBF0FBECDBF4B8BF0
:101050005C8B6D8B7E8B8F8B86E09E01235F3F4F79
:10106000D901E82F1D92EA95E9F795E0FE01739604
:10107000D90101900D929A95E1F7F901DE011796D9
:1010800001900D928A95E1F7CE0107960E945D23AB
:1010900081113EC086E0FE013796DE011196019077
:1010A0000D928A95E1F7FF81E8856A857B85611558
:1010B000710531F0EF3F31F481E0FF3F19F403C0D7
:1010C00081E001C080E080FD23C02091940230E0E7
:1010D000C9010196877099274091C50250E0841795
:1010E000950779F1F983EA837D836C8396E0929F7B
:1010F000D001939FB00D1124AB56BD4FFE01319628
:1011000001900D929A95E1F7809394020E94E72254
:1011100016E08091C502909194028917F9F0189F0A
:10112000C00111248B569D4F0E945D238823B1F08E
:101130008091C50290E00196877099278093C5023F
:10114000E8CF0E94DE28109294021092C502EEE8C9
:10115000F2E086E0DF011D928A95E9F767960FB607
:10116000F894DEBF0FBECDBFDF91CF911F910895E0
:1011700020912802309129022817390771F09093A5
:10118000290280932802E0913A02F0913B023097C5
:1011900021F00084F185E02D099408952091260224
:1011A000309127022817390771F090932702809316
:1011B0002602E0913A02F0913B02309721F006803E
:1011C000F781E02D09940895E0913A02F0913B02F5
:1011D000309721F00190F081E02D099480E008958E
:1011E0000F931F93CF93DF93C62FD42F122FFC01A1
:1011F00082818823C9F060932A020E941A27909363
:1012000025028093240280E28C0F883008F05EC0B3
:10121000C77081E001C0880FCA95EAF7DF91CF91CE
:101220001F910F910C94F42880912A0268133EC0FC
:1012300080912402909125020E940B27883C910501
:10124000A8F500E20D0FCD17B9F080E28C0F8830C1
:1012500040F4C77081E001C0880FCA95EAF70E9488
:10126000E928083048F481E09D2F977001C0880F6D
:101270009A95EAF70E94F428812F0E946529193374
:1012800049F4FFEF27EE83E0F15020408040E1F782
:1012900000C00000812F0E94FE280830B8F4D770EB
:1012A00081E001C0880FDA95EAF70AC080E28C0F6E
:1012B000883060F4C77081E001C0880FCA95EAF7F2
:1012C000DF91CF911F910F910C94E928DF91CF917D
:1012D0001F910F910895882311F0FA0101C0FB01BD
:1012E0000994109253028091620280FF08C087EE39
:1012F00092E09F938F930E943B070F900F90089569
:1013000080914D0280FF0AC0809A81B38E7F91B395
:1013100091602FB7F894E4EAF1E00BC0E4EAF1E061
:10132000118210821282339631E0E43DF307C1F757
:10133000EBCF31E0E43DF30789F0319148E091BB18
:10134000000000C037FF81BB330F000000C000C0A9
:1013500000C081BB00C04A9591F7EBCF2FBF8FE54E
:1013600094E00197F1F700C0000008958F929F92DA
:10137000AF92BF92CF92DF92EF92FF920F931F93A3
:10138000CF93DF93FC01B280948081E08483C4ED2D
:10139000D1E004EA11E08BE4A82E88248394EE24A3
:1013A000EA94F12C2BE4C22ED12C911003C01B82A5
:1013B0001A824AC02B81222311F121502B833C81B8
:1013C000332319F09A2D921B01C0922F8091500265
:1013D000899FC0011124B6010E941C2B6A83211130
:1013E00004C0332311F01C82AB8222E02B1560F184
:1013F00080914E02888380914F02898325C00E948C
:10140000552A8230914004F582E08B1530F40E9419
:10141000552AB7010E94302B02C080914E0288836A
:1014200022E02B1558F40E94552A20914F02269550
:10143000622F70E00E94302B820F02C080914F0219
:1014400089831A82AB828C8298014A816981888162
:101450000E94450725960D5F1F4F82E0C432D807D2
:1014600009F0A3CFDF91CF911F910F91FF90EF90E3
:10147000DF90CF90BF90AF909F908F900C94800999
:10148000EF92FF920F931F93CF93DF938C01C4EAE7
:10149000D1E0E12CF12CF8018481F8E0EF16F104A1
:1014A0001CF4882339F002C0811104C09E014091D0
:1014B000500202C09E0140E060914F0280914E02B6
:1014C0000E9445078FEFE81AF80A239690E1E91683
:1014D000F10409F70E948009F801848190E00196E7
:1014E000817099278483DF91CF911F910F91FF9095
:1014F000EF900895EF92FF920F931F93CF93DF9396
:10150000EC018C819D810196817099279D838C834C
:1015100084EAE82E81E0F82E10E005E5212F2695DB
:101520008C819D81820F911D8170970140915002A5
:1015300060914F02809F802D11240E9445071F5FFC
:1015400083E0E80EF11C103149F7DF91CF911F9134
:101550000F91FF90EF900C9480090F931F93CF93FE
:10156000DF93C4EAD1E0FE01118210821282339629
:1015700081E0E43DF807C1F700E010E08091A201AE
:10158000082E000C990B0817190794F08091100190
:10159000082E000C990B8017910754F09E01409182
:1015A000500260914F0280914E020E94450703C095
:1015B000198218821A820F5F1F4F2396003111057E
:1015C000E9F60E94800980910F019091A201980F85
:1015D0009093A20120911001280F20931001121660
:1015E00014F49F301CF0819580930F01DF91CF910F
:1015F0001F910F910895CF92DF92EF92FF920F9378
:101600001F93CF93DF93FC01828180FF03C0DD2411
:10161000DA9402C0DD24D394C4EAD1E000E010E003
:10162000198218821A8294E0E92EF12CC12C809143
:10163000A1018C0D813114F08F7002C087FD805F95
:10164000082E000C990B0817190791F4809150028D
:101650008E9DA0018F9D500D112455954795559550
:1016600047959E0160914F0280914E020E9445076E
:10167000CD0CF1E0EF1AF108D1F60F5F1F4F239662
:101680000031110569F60E9480098091A10191E065
:10169000D91206C0811102C08FE006C0815004C07B
:1016A00090E001968F7099278093A101DF91CF91EF
:1016B0001F910F91FF90EF90DF90CF900895EF92E0
:1016C000FF921F93CF93DF93EC0184EAE82E81E031
:1016D000F82E10E08C8197014091500260914F02EA
:1016E000810F0E944507115F83E0E80EF11C103F57
:1016F00089F70E9480099A818C8190FF02C08F5FD8
:1017000001C081508C83DF91CF911F91FF90EF90AA
:10171000089590914D0290FF0CC0E4EAF1E08183BE
:1017200060834283339691E0E43DF907C1F70C945E
:10173000800908950F931F93CF93DF9300D01F92DA
:10174000CDB7DEB78C018091A30181110AC09E0143
:101750002F5F3F4F4FEF6FEF0E9445078A818093C5
:10176000A301F8018481813051F028F0823061F4C6
:101770004091A3010AC08091A30140E007C060919D
:10178000A30140E080E003C040E080E060E00E9410
:10179000890BF801848190E0019663E070E00E947B
:1017A000302B84830F900F900F90DF91CF911F917A
:1017B0000F910895CF93DF9300D01F92CDB7DEB77E
:1017C00090914D0290FF0AC09E012F5F3F4F0E94F3
:1017D00045074B8169818A810E94890B0F900F9088
:1017E0000F90DF91CF910895CF93DF93EC01EDE45B
:1017F000F2E0438162818C810E94DA0B8C818F5FE1
:101800008C83DF91CF910895CF93DF93EC01EC812E
:10181000F0E0E050FD4F4491EDE4F2E0628181811F
:101820000E94DA0B8C818F5F8C83DF91CF910895BA
:1018300080914D02282F269530E02115310519F4AD
:101840008170826005C02B32310524F0817084657F
:1018500080934D020895CF92DF92EF92FF926B0139
:101860007C010E94180CB701A60188E090E0FF906F
:10187000EF90DF90CF900C948B2A3F924F925F9223
:101880006F927F928F929F92AF92BF92CF92DF9290
:10189000EF92FF920F931F93CF93DF9300D01F928D
:1018A000CDB7DEB7182F762E042F422E90914D0221
:1018B00090FFB2C0E92FE695AE2FB0E0A45EBE4F18
:1018C0008C91809352029E7F923061F49E012F5F33
:1018D0003F4F812F0E9445074B8169818A810E9479
:1018E000890B60C0823019F4009150025BC08630D1
:1018F00019F410914E0256C08930D9F3893109F09C
:1019000051C0E9518E2F8170582E81E0652C6826D8
:10191000E695F0E0EE51FD4FC590D49034EAA32E49
:1019200031E0B32EE12CF12CDD244BEB842E42E090
:10193000942EEC9CC001ED9C900DFC9C900D11240C
:1019400024E0969587952A95E1F7312E511002C033
:10195000380E01C0381A8091620280FF11C0DF92F8
:10196000CF921F926F921F923F92FF92EF929F929F
:101970008F920E943B070FB6F894DEBF0FBECDBF1B
:101980009501402F672D832D0E9445079FEFE91A8F
:10199000F90A83E0A80EB11C90E1E916F10449F6BA
:1019A0000E94800910934E0270924F0200935002E1
:1019B0004420E9F060914D0270914E0280914F02F7
:1019C000909150020E942B0C8091620280FF24C0F3
:1019D000809150021F928F9380914F021F928F939C
:1019E00080914E021F928F9386E992E00CC0809105
:1019F000620280FF11C01F920F931F927F921F926D
:101A00001F938FE692E09F938F930E943B070FB640
:101A1000F894DEBF0FBECDBF0F900F900F90DF91F7
:101A2000CF911F910F91FF90EF90DF90CF90BF90DB
:101A3000AF909F908F907F906F905F904F903F906E
:101A40000895EDE4F2E0438128E0421B08F440E011
:101A500021E0628181810C943D0CEDE4F2E0438150
:101A600028E0420F08F44FEF21E0628181810C945D
:101A70003D0CEDE4F2E0628128E0621B08F460E0D6
:101A800021E0438181810C943D0CEDE4F2E0628120
:101A900028E0620F08F46FEF21E0438181810C940C
:101AA0003D0CEDE4F2E0818121E0438162818850C8
:101AB0000C943D0CEDE4F2E0818121E043816281F0
:101AC000885F0C943D0C80915102882319F081505D
:101AD0008093510260914D0270914E0280914F02AD
:101AE000909150020C942B0C80915102833018F489
:101AF0008F5F8093510260914D0270914E028091F0
:101B00004F02909150020C942B0C90914D0290FF3B
:101B100068C09170811102C0926006C08B3210F0D3
:101B2000946502C0880F982B90934D026623B1F004
:101B300060914D0270914E0280914F02909150023F
:101B40000E942B0C8091620280FF1BC080914D028D
:101B500086951F928F9383E592E00BC0809162027D
:101B600080FF0FC080914D0286951F928F9385E371
:101B700092E09F938F930E943B070F900F900F90DE
:101B80000F9060914D02669570E04BE050E084E06C
:101B900091E00E944A2B892B19F00E94710915C00F
:101BA00081E0809353020E941A2790934802809309
:101BB00047028091620280FF08C08CE192E09F930F
:101BC0008F930E943B070F900F9081E080934A0211
:101BD00020E04091500260914F0280914E020C949F
:101BE0003D0C089580914D028695815009F48AE25A
:101BF00061E00C94850D80914D0286958F5F8B324C
:101C000008F081E061E00C94850D90914D0290FF09
:101C100004C09695981740F003C0811105C090E06C
:101C2000961710F40C94FB0D61E00C94850DEDE417
:101C3000F2E083E0808311828FEF828383831482BA
:101C400060817181828193810C942B0C7F928F92A1
:101C50009F92AF92BF92CF92DF92EF92FF920F933B
:101C60001F93CF93DF9307E411E0ADE2B2E027E3E7
:101C7000A22E22E0B22E812CEE24E394F12CE80176
:101C800089918E01E82FE295EF70F0E021A18F702D
:101C9000A70102C0440F551F8A95E2F7CA01242B01
:101CA00021A322A1742E7094272122A350EA5A95D1
:101CB000F1F79CE4C92E91E0D92E60E070E040E09D
:101CC00050E0E60199906E01292D22952F7030E0A9
:101CD000E90128A130E0D92DDF7002C035952795A4
:101CE000DA95E2F720FD08C09701062E02C0220F08
:101CF000331F0A94E2F702C020E030E0422B532B5E
:101D00006F5F7F4F6F307105E1F691A1D72DD92319
:101D1000D1A392A1892B82A38D919C9111974817F1
:101D2000590729F011965C934E9381E001C080E041
:101D3000882A1296AA16BB0609F0A1CF882049F07E
:101D400081E08093A0010E941A2790939F018093C5
:101D50009E018091A001882391F180919E01909134
:101D60009F010E940B27069750F180912D029091C0
:101D70002E0290933E0280933D0280912F0290911B
:101D800030029093400280933F0280913102909103
:101D900032029093420280934102809133029091EB
:101DA00034029093440280934302809135029091D3
:101DB000360290934602809345021092A001882D2E
:101DC000DF91CF911F910F91FF90EF90DF90CF9017
:101DD000BF90AF909F908F907F900895CF93DF93A7
:101DE0002BE4829FC0011124FC013FE0739FE00DB2
:101DF000F11D1124E60FF11DEE0FFF1FE753FB4FFE
:101E0000C591D491CE01C238D10569F1B0F4C13386
:101E1000D10509F475C048F4C932D10509F469C087
:101E2000CA32D10509F473C085C0C533D10509F4A0
:101E300059C0C933D105B9F07DC0C33ED10571F198
:101E400038F4C03ED105B1F0C23ED10511F172C0E7
:101E5000C63ED105B9F1C73ED105C9F1C43ED10591
:101E600009F068C024C02091370220FD5DC021FD2B
:101E70005BC060C02091370220FD50C02091380225
:101E800020FF67C18091370284FD61C183EE90E03D
:101E900060C12091370222FF5CC1F4CF80913702EC
:101EA00082FD3FC08091380280FD3EC0EBCF209183
:101EB000380221FF4EC18091370284FD48C187EE70
:101EC00090E047C12091370223FF43C1F4CF8091B6
:101ED000370283FD2CC08091380281FFECCF84EE65
:101EE00090E037C12091370225FF33C189E290E0AD
:101EF00030C12091370225FF2CC185E390E029C134
:101F00002091370226FF25C18AE290E022C120916C
:101F1000370226FF1EC181E390E01BC189E390E0F8
:101F200018C182EE90E015C180EE90E012C186EEFD
:101F300090E00FC1C11530E5D30708F067C0C115A7
:101F400040E4D40720F0CE019F70906A02C1C83EE1
:101F5000D105B8F5C03ED10508F0FBC0C83AD1059F
:101F6000B8F4C53AD10550F08C2F855AE82FF0E02F
:101F7000E659FE4F808190E09064EBC0C130D105FE
:101F800009F4E7C008F4E3C0249708F4E0C0E1C016
:101F9000CF3BD10560F48C2F885AE82FF0E0EE0F8C
:101FA000FF1FE359FE4F808191819464D2C0C03CF1
:101FB000D10508F4CCC0FE01EE0FFF1FE456F0403F
:101FC0000EC0C11520E2D20768F0C11540E3D40766
:101FD000A8F4FE01FF70EE0FFF1FE45EFE4F859137
:101FE0009491B7C0C11531E0D30708F0B2C0C03F2B
:101FF000D10508F4ACC0CE019065ABC0CE019927E5
:10200000D3FF02C0986CA5C0906CA3C0C11585E534
:10201000D80708F05BC0C11524E5D20728F09C2F33
:102020008827846F906A95C0C11532E5D30738F5CB
:10203000C11541E5D407F0F4CE0174E0969587957B
:102040007A95E1F7282F23703C2F337081E090E0E0
:1020500002C0880F991F3A95E2F79C68922BEC2FEB
:10206000EF70E695E69540E2E49FF00111248E2B97
:102070009F2B6FC09C2F8827816F906A6AC0AE012A
:10208000437055272C2F26952695C115D34578F4F6
:1020900081E090E002C0880F991F4A95E2F740E284
:1020A000249F90011124822B932B9C6852C081E0C5
:1020B00090E002C0880F991F4A95E2F740E2249F02
:1020C00090011124822B932B9A6843C0C11529E5F6
:1020D000D207B0F4C11538E5D30728F09C2F882724
:1020E000806F906A36C0C11546E5D40780F58C2F05
:1020F0000E94D9078F7190E0982F8827906229C09D
:10210000C1158AE5D80790F48C2F8F700E94D907EB
:10211000FE0194E0F695E7959A95E1F7EF70F0E00F
:10212000FE2FEE27F0699F01282B0FC0CE0190569D
:102130008115904260F48D2F8F710E94D907FE01A6
:10214000FF27F0628F719F01382BC90102C080E028
:1021500090E0DF91CF9108958F929F92AF92BF92BE
:10216000CF92DF92EF92FF920F931F93CF93DF9363
:10217000CDB7DEB72A970FB6F894DEBF0FBECDBF3E
:10218000FC010081D18083819481892B39F01FEF7C
:10219000D11206C091E00F3F19F403C091E001C0D5
:1021A00090E090FDA8C57F0185E0DE0116960190C4
:1021B0000D928A95E1F7F70122818E819F8122237A
:1021C00049F00E94D021182F682F8E819F810E9494
:1021D000492203C00E941D22182F2BE4129FF001F8
:1021E00011243FE0D39EE00DF11D1124E00FF11DFD
:1021F000EE0FFF1FE753FB4F05911491033F8CE552
:10220000180729F180F4083DECE51E07C9F0093DE7
:10221000FCE51F0741F1073D2CE5120739F526E2E1
:1022200041EE61EE10C0053F3CE51307C1F098F0A8
:10223000063F9CE51907D1F427E245EE66EE03C0A0
:1022400027E245EE65EEC7010E94F00873C226E260
:1022500041EE60EEF8CF27E245EE64EEF4CF26E2E1
:1022600041EE62EEF0CF28E241E0ECCFF70192813F
:10227000992309F43FC110922A020230FCE51F079E
:1022800008F422C106312CE5120738F098012A5FC4
:102290003C452930310508F017C10E940E28909363
:1022A00038028093370200313CE5130709F4C3C0BC
:1022B00008F041C008309CE5190709F49AC0F0F411
:1022C0000430FCE51F0709F487C068F402303CE5E0
:1022D000130709F477C003301C4509F0E5C080916D
:1022E0003702826076C006309CE5190709F46EC09B
:1022F00008F07BC08091370288606BC00C30FCE531
:102300001F0709F485C068F40A303CE5130709F497
:1023100074C008F079C00E94DE288091370280687E
:1023200058C00E309CE5190709F476C008F07FC04C
:10233000809137028BC00B3FFCE51F0709F44FC0AB
:1023400018F503313CE5130709F47DC078F4013139
:102350009CE5190709F473C002311C4509F0A4C0BB
:102360000E94DE28809137028F7733C00531FCE56B
:102370001F0709F472C008F486C00A3F1C4509F023
:1023800093C0809138023EC00F3F8CE5180709F4D6
:102390005FC058F40D3FECE51E0709F444C008F493
:1023A0003FC08091380282602DC001302DE51207B8
:1023B00009F475C008F45DC002301D4509F074C011
:1023C00060E06EC080913702816003C08091370267
:1023D00080618093370268C08091370211C080917C
:1023E00038028260809338025FC080913702806239
:1023F000F0CF809137028064ECCF80913702886003
:102400008460E7CF8160EECF809137028E7FE1CF8D
:10241000809137028D7FDDCF80913702877FD9CFC2
:102420008091380218C0809138028D7FDBCF809177
:1024300037028F7ECECF809137028F7DCACF8091B9
:1024400037028F7BC6CF80913702877F8B7FC1CFCA
:10245000809138028D7F8E7FC5CF8091370282FBBD
:10246000222720F991E0922790FB82F990FB83F9D3
:10247000B0CF80913802982F909591708E7F892BE4
:1024800090FB81F9AFCF0E94DE288091370287FB55
:10249000222720F991E0922790FB87F99ACF61E0FB
:1024A0008EE090E00E94792A609137021091380204
:1024B00084E090E00E94792A612F81E290E00E94FE
:1024C000792A0E94DE2836C18091FF0206312CE570
:1024D000120709F58A7A91E009F490E090932B02B3
:1024E000882311F065E301C069E286E892E00E946A
:1024F000F4270EC006311C4509F03BC180912B0228
:10250000882309F4F6C365E386E892E00E94E72792
:102510000E9466210FC18272F801E25CFC45E43141
:10252000F10508F0B6C0EA5AFF4F0C94442B809195
:10253000620280FF10C080914D02809581701F92D1
:102540008F938FE694E09F938F930E943B070F90A9
:102550000F900F900F9080914D0280FF2EC08E7FC4
:1025600080934D0260914D0270914E0280914F0216
:10257000909150020E942B0C8091620280FF0FC04C
:1025800080914D0281701F928F9380E094E09F9321
:102590008F930E943B070F900F900F900F900E9417
:1025A00071099FEFE0E7F2E09150E040F040E1F781
:1025B00000C000000E948009BDC0816080934D0270
:1025C0008091620280FF0DC01F9281E08F9388E3AB
:1025D00094E09F938F930E943B070F900F900F9072
:1025E0000F9080914D0261E0869550C042EF5DE012
:1025F0006BEF7DE02CC04BEF5DE062EF7DE027C02C
:1026000041E55DE06AE57DE022C04AE55DE061E527
:102610007DE01DC049E35DE065E47DE018C045E470
:102620005DE069E37DE013C041E25DE06DE27DE0E5
:102630000EC04DE25DE061E27DE009C043E65DE091
:1026400064E77DE004C044E75DE063E67DE00E946E
:102650006B0970C061E081E019C065E082E011C0E3
:1026600068E086E00EC06EE089E00BC064E18FE0B8
:1026700008C067E185E105C061E088E107C062E26A
:1026800089E10E94050E56C061E083E20E94850D3B
:1026900051C001302CE51207C1F10E3D3CE5130796
:1026A00009F446C001151C4509F063C00E94DE28EC
:1026B0009FEFE4E3FCE09150E040F040E1F700C020
:1026C000000081E08093E00080E28093D8001092C7
:1026D000C9008FE19EE40197F1F700C0000087E098
:1026E00090EBDC0180930A0390930B03A0930C03FF
:1026F000B0930D039CE088E10FB6F894A895809301
:1027000060000FBE90936000FFCF80916202982F0F
:102710009095917090FB80F980936202992319F053
:1027200088EB94E002C086EA94E00E94A20602C010
:102730000E941F288091FC02877009F4DCC2F70117
:102740008281882309F4D7C282E02A960FB6F894D2
:10275000DEBF0FBECDBFDF91CF911F910F91FF90D4
:10276000EF90DF90CF90BF90AF909F908F900C94A0
:10277000A322F70100811181992349F0C8010E9429
:10278000D021D82E682FC8010E94492204C0C80158
:102790000E941D22D82EB8018D2D0E94EE0E8C01B4
:1027A000982EF701A580A2942FE0A222D280D1100A
:1027B0001092FE028091FC02877099F0DD2089F072
:1027C000812F807F803421F080E2800F883048F0B4
:1027D00082E00E94A3228091FC028770CC24C394E3
:1027E0008111C12CB12EB2949FE0B9228B2D90E0C3
:1027F0008C30910508F040C2FC01E659FF4F0C9463
:10280000442B812F807F1F70882311F01295107F39
:10281000DD20B9F0112309F41AC280E2800F88305C
:1028200010F0911006C08091FF02182B1093FF0248
:1028300005C08091FE02182B1093FE020E946621B3
:1028400006C2802F0E94FE28112309F415C2005EE3
:102850001095083010F0911006C08091FF021823E7
:102860001093FF0205C08091FE0218231093FE0210
:102870000E94662101C2812F807F1F70803211F07B
:102880001295107F992021F0F1E09F16E1F02AC007
:10289000DD2081F080910003AA2051F001E0A01218
:1028A00007C0182B181709F4E7C110930003E4C1FF
:1028B000812B10C0AA2021F021E0A21609F4DCC16E
:1028C0000E94942827C0DD2041F035E03A1508F435
:1028D000D3C1812F0E94F428CFC184E08A1508F467
:1028E000CBC118C0DD2049F0AA2099F3F7018581FA
:1028F00080FFADC18F708583ECCFAA2059F00933DA
:1029000009F0B7C1FFEF17EE23E0F150104020406F
:10291000E1F7ADC1812F0E94E928AEC1812F8695D4
:102920008695837019F0813059F0A6C1DD2019F029
:10293000C801937002C080E090E00E94CE08A2C15E
:10294000DD2019F0C801937002C080E090E00E9481
:10295000B80898C1802FDD2019F00E947D2602C0A2
:102960000E94B6250E9426278DC1812F837009F011
:1029700069C0D11085C1902F929596959770990F47
:10298000990F802F8F70882E912CA12CB12C092E9D
:1029900004C0880C991CAA1CBB1C0A94D2F704FF23
:1029A00012C04FE050E060E070E004C0440F551FDB
:1029B000661F771F9A95D2F7DB01CA018095909523
:1029C000A095B09503C080E090E0DC0116951695C7
:1029D000412F4370423019F1C8F400910103109166
:1029E00002032091030330910403413059F08829F8
:1029F0009929AA29BB29BC01CD0160237123822317
:102A000093230AC0802A912AA22AB32ABC01CD01AD
:102A1000682979298A299B290E94DD2231C18829C8
:102A20009929AA29BB290091010310910203209141
:102A3000030330910403BC01CD0160277127822775
:102A40009327EACFDD2019F0812F817001C0869590
:102A5000882309F415C1902F929596959770990F38
:102A6000990F802F8F70882E912CA12CB12C092EBC
:102A700004C0880C991CAA1CBB1C0A94D2F704FF42
:102A800012C04FE050E060E070E004C0440F551FFA
:102A9000661F771F9A95D2F7DB01CA018095909542
:102AA000A095B09503C080E090E0DC0116951695E6
:102AB000412F43704230D9F068F50091F80210912F
:102AC000F9022091FA023091FB02413059F0882935
:102AD0009929AA29BB29BC01CD0160237123822336
:102AE00093231EC0802A912AA22AB32A13C08829C0
:102AF0009929AA29BB290091F8021091F902209185
:102B0000FA023091FB02BC01CD01602771278227B8
:102B1000932706C0BC01CD01682979298A299B2900
:102B20000E947422ADC01F70DD2039F0812F0E94F9
:102B3000BC22802F0E94F428A3C0802F0E94E92885
:102B4000812F0E947E229CC0802F32EF931609F4C1
:102B500040C0391538F090EF991661F0E1EF9E16FC
:102B600099F170C0F3EF9F16D9F124EF921609F492
:102B70004EC068C0DD2019F134E03A1508F47CC07D
:102B80001F7181E090E0A0E0B0E0AC01BD0104C0A5
:102B9000440F551F661F771F1A95D2F78091F802D0
:102BA0009091F902A091FA02B091FB028A019B0177
:102BB000082719272A273B27C901B80125C025E086
:102BC0002A1508F459C0DCCFDD2029F0812F8F7140
:102BD0002CC0DD20D9F3812F8F710E947E224CC042
:102BE000DD2079F01F7181E090E0A0E0B0E0BC0151
:102BF000CD0104C0660F771F881F991F1A95D2F761
:102C000003C060E070E0CB010E94742235C0DD207B
:102C100079F01F71812F0E94BC2238E0139FC00100
:102C2000112483608093FC02812F0E94BC2224C067
:102C300081E00E94A32281E08A15F0F482E00E94E4
:102C4000A3221AC0DD2039F0AA2009F4BFCF802FBB
:102C50000E94652911C0AA2009F4BDCF893349F427
:102C60009FEFE7EEF3E09150E040F040E1F700C065
:102C70000000802F0E94FE2888EF8B0D843010F416
:102C80000E94E408CC20A9F08091FC0280FD11C0D4
:102C9000F70112828595859585950E94BC22C70112
:102CA0000E94AC108091FC028595859585950E94C7
:102CB0007E2285E0F701DE01119601900D928A9542
:102CC000E1F789819A810E941D229A810BE4809FFD
:102CD000F00111241FE0919FE00DF11D1124898165
:102CE000E80FF11DEE0FFF1FE753FB4F8591949105
:102CF00002C069E209CC2A960FB6F894DEBF0FBE77
:102D0000CDBFDF91CF911F910F91FF90EF90DF909A
:102D1000CF90BF90AF909F908F9008959FB7F894F9
:102D200010926D029FBF90917C02943009F057C0C1
:102D30009091E9009F703091EC00232F217030FDBD
:102D400020E8922B23E02093E9002091EB0020FF64
:102D500043C02091EE0027FF3FC020912C02222388
:102D600021F02091E80025FF37C010922C0226E0C8
:102D70003091E80035FD15C030917C02343061F5AA
:102D80003091EB0035FD28C0215021F481E0809383
:102D90002C0222C0EFE9FFE03197F1F700C00000FC
:102DA000E7CF8093F1008091E80085FD0AC0809113
:102DB000E80080FFFCCF8091E8008E778093E800E8
:102DC00006C08FB7F89421E020936D028FBF9F70EB
:102DD0009093E90080E008959F709093E9008FEF51
:102DE00008952091E4003091E50095E64091EC00D3
:102DF000842F817040FF23C08091E80080FD1DC0BA
:102E000080917C02882399F0853099F08091EB00C5
:102E100085FD11C04091E4005091E500241735076D
:102E200029F3915011F09A01E1CF84E0089582E0F6
:102E3000089583E0089581E0089580E00895409129
:102E4000E80042FFDDCF089580917E0287FF11C028
:102E50008091E80082FD05C080917C028111F8CF4D
:102E600011C08091E8008B770BC080917C02882391
:102E700049F08091E80080FFF8CF8091E8008E77DC
:102E80008093E8000895982F973068F59093E900B3
:102E9000981739F07091EC002091ED005091F000FE
:102EA00003C0242F762F50E021FD02C09F5FECCF9E
:102EB0003091EB003E7F3093EB003091ED003D7F91
:102EC0003093ED003091EB0031603093EB00709364
:102ED000EC002093ED005093F0002091EE0027FDD0
:102EE000E5CF80E008958F708093E90081E0089538
:102EF00020918402309185022617370748F061152A
:102F0000710539F42091E8002E772093E80001C084
:102F1000B901FC0120E06115710579F180917C0215
:102F20008823F1F18530F1F18091E80083FD3CC008
:102F30008091E80082FD2EC08091E80080FFEBCFF9
:102F40002091F3008091F20090E0922B61157105C1
:102F500051F08830910538F421912093F1006150AF
:102F600071090196F3CF21E0089709F020E08091E4
:102F7000E8008E778093E800CECF2111CFCF0AC032
:102F800080917C02882361F0853061F08091E800B7
:102F900083FD0AC08091E80082FFF2CF80E00895AF
:102FA00082E0089583E0089581E0089580917C0295
:102FB000843011F081E0089582E00895CF93DF938B
:102FC000CDB7DEB761970FB6F894DEBF0FBECDBFA9
:102FD00084B7877F84BF0FB6F894A895809160006E
:102FE000886180936000109260000FBE90E080E8DE
:102FF0000FB6F89480936100909361000FBE85B77F
:10300000806885BF85B7806885BF0E94B91F0E9410
:10301000D81F8091E20084608093E2008EE896E100
:1030200090939D0180939C01789480917C028823E9
:10303000A1F01091E9001F709091EC00892F817030
:1030400090FD80E8182B1092E9008091E80083FD44
:103050000E949E1C1F701093E90082E084BD93E0E3
:1030600095BD9AEF97BD80936E00A7E4B1E041E073
:1030700050E08D91E82FE295EF70F0E021A18F7084
:103080008A0102C0000F111F8A95E2F7C801902F34
:103090009095922391A392A1892B82A311E0AC3445
:1030A000B10739F7ACE4B1E04BE551E061E070E025
:1030B0008D91E82FE295EF70F0E021A18F708B01E8
:1030C00002C0000F111F8A95E2F7C801902F90955A
:1030D000922391A392A1892B82A34A175B0741F700
:1030E000EDE2F2E0ADE3B2E0119211921D921D9279
:1030F00012E0E733F107C1F780E090E00E94732A05
:103100008C3E9E4F11F00E941F2880E090E00E94AC
:10311000732A8C3E9E4F11F00E941F2882E090E09F
:103120000E94652A809362020E940E2890933802C2
:103130008093370283E090E00E94652A682F70E058
:1031400080E090E00E94DD22809139028111E0C090
:103150008091620280FF08C085E29AE09F938F937E
:103160000E943B070F900F908091620280FF08C081
:103170008FE09AE09F938F930E943B070F900F90F0
:1031800080E090E00E94732A8C3E9E4F81F08091F7
:10319000620280FF08C087EE99E09F938F930E94A0
:1031A0003B070F900F900E941F280E94170E88E087
:1031B00090E00E946D2A60934D0270934E028093BE
:1031C0004F02909350026E7FD1F48091620280FF93
:1031D00008C08EE999E09F938F930E943B070F9060
:1031E0000F900E94170E88E090E00E946D2A609375
:1031F0004D0270934E0280934F02909350020E94B2
:10320000180C8091620280FF08C085E899E09F93C6
:103210008F930E943B070F900F908091620280FF76
:103220000FC080914D0281701F928F9388E699E0C4
:103230009F938F930E943B070F900F900F900F90DA
:103240008091620280FF0FC080914D0286951F928F
:103250008F938DE499E09F938F930E943B070F908B
:103260000F900F900F908091620280FF0EC08091AE
:103270004E021F928F9383E399E09F938F930E9456
:103280003B070F900F900F900F908091620280FF8C
:103290000EC080914F021F928F9389E199E09F9316
:1032A0008F930E943B070F900F900F900F9080918B
:1032B000620280FF0EC0809150021F928F938FEFA9
:1032C00098E09F938F930E943B070F900F900F9071
:1032D0000F908091620280FF0EC0809151021F9278
:1032E0008F9383EE98E09F938F930E943B070F90FC
:1032F0000F900F900F901092530280914D0280FF1B
:1033000004C060E086950E94850D81E080933902BB
:1033100081E191E090933B0280933A0286E99AE042
:103320000E94A20680917C02853009F03FC082E9AC
:103330009AE00E94A20680917C02843021F11092D2
:103340003C0220E488E190E00FB6F894A8958093C1
:1033500060000FBE2093600083B7817F846083BFCD
:1033600083B7816083BF7894889583B78E7F83BF4E
:103370000FB6F894A89580916000886180936000F2
:10338000109260000FBE80917B02882309F4CACF9F
:103390000E94260EEDE3F2E081919191892B09F0D4
:1033A00081C252E0E734F507B9F7BCCF0E94260E80
:1033B00043E6642E42E0742E5DE3452E52E0552E26
:1033C00000E010E0098BF201A190B1902F01F30110
:1033D000C190D1903F01CA24DB24C114D104B1F4BF
:1033E0000F5F1F4F0530110569F78FEF8C878D87B1
:1033F0001E860E941A278160782F988B8F874C85B4
:103400005D856E8588890E941C0877C08091620264
:1034100081FD05C080E0EE24E394F12C48C08CE4EB
:103420009AE00E94A2062DE3822E22E0922EE12C49
:10343000F12CFF92EF9227E43AE03F932F930E9402
:103440003B0784E49AE00E94A206F4018081218077
:10345000F2E08F0E911C0E948228382E822D0E944D
:103460008228232D30E0322F2227A901482BCA01C0
:103470009F938F936EE37AE07F936F930E943B0755
:103480008CE39AE00E94A2069FEFE91AF90A0FB6B0
:10349000F894DEBF0FBECDBFF5E0EF16F10449F69C
:1034A000B9CF8F5FEE0CFF1C8F3009F499CF9601D6
:1034B0002E213F21232BA9F38F8329892887AE2032
:1034C000BF2081E0AB2809F480E089870E941A2799
:1034D0008160782F9B878A874F81588569858B8586
:1034E0000E941C08000F111FF801ED59FD4F80814B
:1034F0009181E826F926F182E082809153028823A7
:1035000009F4ACC080915202E0914D02E695E81BAF
:10351000E0934902823059F4F0E0EC58F54FE49121
:103520000E2F10E0F4E0EF2EFCE0FF2E6BC0863093
:1035300059F4F0E0EF58F54FE4910E2F10E0E4EF6E
:10354000EE2EEBE0FE2E5EC0893061F4E695F0E0F1
:10355000E259F54FE4910E2F10E07FE5E72E7BE076
:10356000F72E50C08F3061F4E695F0E0E559F54F45
:10357000E4910E2F10E06BEFE62E6AE0F62E42C0CB
:10358000853159F4F0E0E859F54FE4910E2F10E041
:103590005DEAE52E5AE0F52E35C08831F9F0833228
:1035A00049F4E6E6FAE0059114914AE9E42E4BE08D
:1035B000F42E28C08432C9F08532F1F48E2F63E0F6
:1035C0000E94102BE92FF0E0ED59F54FE4910E2FFA
:1035D00010E036EBE32E39E0F32E14C008EE13E0D2
:1035E0002AE7E22E2AE0F22E0DC004EF11E090E46B
:1035F000E92E9AE0F92E06C000ED17E084E4E82EEB
:1036000087E0F82E80914A02882389F010924A02BE
:103610000E941A27980120953095820F931F90934E
:1036200048028093470210924C0210924B02809104
:103630004702909148020E940B278017910770F073
:10364000E0914702F09148020E0F1F1F10934802AD
:103650000093470287E492E0F701099586E0EBE5E5
:10366000F2E0DE01119601900D928A95E1F78091CA
:103670005D02811105C080915E02882309F46EC04D
:103680008091590290915A020E940B279C019091BF
:103690005802992309F41CC12333310508F45EC094
:1036A0009F3F19F09F5F9093580210925F02109213
:1036B000600280915D02181624F40E945D268093BA
:1036C0005D0280915D0287FF05C00E945D268195A5
:1036D00080935D0280915E02181624F40E945D269C
:1036E00080935E0280915E0287FF05C00E945D2686
:1036F000819580935E0230915D023323E1F0209149
:103700005E022223C1F005EB3003C001112499238E
:1037100019F090935D0203C081E080935D0215EB88
:103720002103C0011124992319F090935E0203C074
:1037300081E080935E020E9426278091560290913C
:10374000570290935A028093590286E0FE01319607
:10375000ABE5B2E001900D928A95E1F780915F02AE
:10376000811105C080916002882309F46EC08091A8
:103770005402909155020E940B279C01909158028F
:10378000992309F4AAC02536310508F45EC09F3F8D
:1037900019F09F5F9093580210925D0210925E02A2
:1037A00080915F02181624F40E943B2680935F02EA
:1037B00080915F0287FF05C00E943B268195809320
:1037C0005F0280916002181624F40E943B268093C9
:1037D00060028091600287FF05C00E943B268195B0
:1037E0008093600230915F023323E1F02091600208
:1037F0002223C1F045EB3403C0011124992319F0B1
:1038000090935F0203C081E080935F0255EB250334
:10381000C0011124992319F09093600203C081E044
:10382000809360020E942627809156029091570251
:10383000909355028093540286E0FE013196ABE5E9
:10384000B2E001900D928A95E1F70E94E408909110
:103850006102891709F466CD0E94E408182F80934D
:1038600061028091620282FF5DCD80FF04C08FE71C
:103870009AE00E94A2068091620280FF0CC01F9213
:103880001F936AE77AE07F936F930E943B070F9044
:103890000F900F900F908091620280FF43CD88E7D8
:1038A0009AE03ECD80E189BD82E189BD09B400FE88
:1038B000FDCF8091D8008F7D8093D8008091E0006B
:1038C00082608093E0008091E00081FDFCCF2ACDF2
:1038D0002D32314008F0E6CE41CF2D32314008F094
:1038E00058CFB3CFEF92FF920F931F93CF93DF93F5
:1038F0007C018B010E94F116811119C0E7010115AD
:103900001105A1F08091E80085FD0AC08091E800D2
:103910008E778093E8000E94F116882381F307C018
:1039200089918093F10001501109E9CF80E0DF9186
:10393000CF911F910F91FF90EF9008951F93CF9318
:10394000DF93CDB7DEB7AA970FB6F894DEBF0FBEF0
:10395000CDBFEEE7F2E086E892E02091F1002193FE
:103960008E179F07D1F780917F02833009F460C0E2
:1039700030F4813071F0823009F49AC0B1C08A30DD
:1039800009F486C08B3009F46BC0893009F0A8C0F7
:1039900020C080917E02813A09F0A2C08091E800A7
:1039A000877F8093E8008091820290918302892B27
:1039B00021F468E082E792E003C060E080E090E0FC
:1039C00070E00E9478178091E8008B778093E80080
:1039D00087C080917E02813209F082C0809182028C
:1039E00090918302029708F07BC08091E800877F66
:1039F0008093E8008091E80082FD05C080917C0200
:103A00008111F8CF6DC02091F3008091F20090E019
:103A1000922B029729F48091F1008B7F813021F461
:103A20008091F100809371028091E8008B7754C0FF
:103A300080917E02813A09F053C080918202909178
:103A40008302892B09F04CC08091E800877F809326
:103A5000E8008091E80080FFFCCF80911B0137C017
:103A600080917E028132E1F5809182029091830201
:103A7000892BB1F58091E800877F8093E8000E9450
:103A800024178091800280931B010E94DE2828C0A9
:103A900080917E02813221F58091E800877F8093BA
:103AA000E8000E942417809181028093700218C060
:103AB00080917E02813AA1F48091E800877F809313
:103AC000E8008091E80080FFFCCF80917002809335
:103AD000F1008091E8008E778093E8000E9424171F
:103AE0008091E80083FFE3C180917E0290917F0284
:103AF000492F50E04A30510508F0D9C1FA01EA587F
:103B0000FF4F0C94442B803821F0823809F0CFC14C
:103B100008C080917A0290917B02992389F082609B
:103B20000FC0809182028F70873008F0C0C18093EF
:103B3000E9008091EB0085FB882780F91092E9006D
:103B40009091E800977F9093E8008093F1001092A5
:103B5000F1007BC1282F2D7F09F0A9C1882319F01E
:103B6000823061F0A4C180918002813009F09FC150
:103B7000933009F080E080937B022EC08091800218
:103B800081112AC0809182028F702FEF280F26307A
:103B900008F08DC18093E9002091EB0020FF1CC04C
:103BA000933021F48091EB00806214C09091EB007F
:103BB00090619093EB0021E030E0A90102C0440F36
:103BC000551F8A95E2F74093EA001092EA0080912F
:103BD000EB0088608093EB001092E9008091E80090
:103BE000877F8093E8000E94241761C181115FC123
:103BF000109180021F778091E3008078812B809361
:103C0000E3008091E800877F8093E8000E942417FA
:103C10008091E80080FFFCCF8091E3008068809372
:103C2000E300111102C082E001C083E080937C02B6
:103C30003EC18058823008F03AC120918002309114
:103C400081022C3D53E0350779F583E08A838AE2CF
:103C500089834FB7F894DE01139620E03EE051E2ED
:103C6000E32FF0E050935700E49120FF03C0E2956A
:103C7000EF703F5FEF708E2F90E0EA3010F0C79644
:103C800001C0C0968D939D932F5F243149F74FBF9C
:103C90008091E800877F8093E8006AE270E0CE01BF
:103CA00001960E947817C0C0809182029091830291
:103CB000432F552743305105B1F068F44130510589
:103CC00009F404C14230510509F0F1C08BE590E0E0
:103CD000EEE9FBE057C04132510589F1423251050E
:103CE00009F43CC0E4C0C901992781309105B9F0BD
:103CF00070F082309105D9F0039709F0D8C0EBE05D
:103D0000FCE0E4918E2F90E0EBE0FCE038C0E1E3D2
:103D1000FCE0E4918E2F90E0E1E3FCE030C0EFE1C5
:103D2000FCE0E4918E2F90E0EFE1FCE028C0E1E1BF
:103D3000FCE0E4918E2F90E0E1E1FCE020C08330D4
:103D4000910508F0B4C0880F991FFC01EC59FE4F93
:103D50000190F081E02D89E090E014C0833091055E
:103D600008F0A5C0FC01EE0FFF1FE25AFE4F0190C4
:103D7000F081E02DDC01A55ABE4F8C9190E00097B8
:103D800009F495C02091E800277F2093E800209156
:103D90008402309185022817390708F4C90140E0F0
:103DA000009789F120917C02222309F43DC025303F
:103DB000D9F12091E80023FD37C02091E80022FDD1
:103DC0002FC02091E80020FFEBCF4091F30020911D
:103DD000F20030E0342B009759F02830310540F4E0
:103DE00044914093F100319601972F5F3F4FF3CFFD
:103DF00041E02830310509F040E02091E8002E77BD
:103E00002093E800CDCF4111CDCF0AC080917C0234
:103E1000882351F0853041F08091E80083FD04C093
:103E20008091E80082FFF2CF8091E8008B77809349
:103E3000E8003DC08038D9F58091E800877F809305
:103E4000E80080917D028093F1008091E8008E77F8
:103E5000C8CE81112CC08091800290918102992757
:103E600002972CF58091E800877F8093E8001091FD
:103E7000800210937D020E942417111106C08091C8
:103E8000E30087FD02C081E001C084E080937C02F2
:103E900042E061EC81E00E94431742E261EC82E083
:103EA0000E94431742E261EC83E00E944317809135
:103EB000E80083FF10C08091E800877F8093E800CE
:103EC0008091EB0080628093EB0005C082E190E07E
:103ED000E9EFFBE057CFAA960FB6F894DEBF0FBE0E
:103EE000CDBFDF91CF911F9108951F920F920FB612
:103EF0000F9211242F933F934F935F936F937F9370
:103F00008F939F93AF93BF93CF93DF93EF93FF93E1
:103F1000C091E900CF708091EC00D82FD17080FD66
:103F2000D0E81092E9008091F000877F8093F00044
:103F300078940E949E1C1092E9008091F0008860A5
:103F40008093F000CD2BCF70C093E900FF91EF91EB
:103F5000DF91CF91BF91AF919F918F917F916F91A1
:103F60005F914F913F912F910F900FBE0F901F9037
:103F70001895E8EDF0E080818E7F80831092E2005A
:103F80001092DA001092E100A0EEB0E08C91816016
:103F90008C9380818F77808319BCA7EDB0E08C91E2
:103FA0008E7F8C9380818F7E808310926F02089524
:103FB000CF92DF92EF92FF920F931F93CF93DF93F5
:103FC000C8EDD0E088818F7E8883E7EDF0E08081C6
:103FD0008160808384E082BF81E080936F0288816A
:103FE0008E7F888302EE10E0F80110821092DA00D2
:103FF00081EEC82ED12CF601108288818F778883BC
:1040000088818068888388818F7D888319BC10921D
:104010007C0210927D0210927B0210927A0290EE46
:10402000E92EF12CF70180818B7F8083888181606C
:10403000888342E060E080E00E944317F6018081BF
:104040008E7F8083F8018081816080838081886099
:104050008083F70180818E7F80838881806188835F
:10406000DF91CF911F910F91FF90EF90DF90CF9054
:1040700008951F920F920FB60F9211242F933F9322
:104080004F935F936F937F938F939F93AF93BF9360
:10409000EF93FF938091E10082FF49C08091E2009D
:1040A00082FF45C08091E1008B7F8093E1002091E9
:1040B0006E022F5F822F62E30E94102B992319F06A
:1040C00020936E0234C010926E0280916D0288239C
:1040D00071F180917C02843041F58091E9008F700C
:1040E0002091EC00922F917020FD90E8892B93E0B5
:1040F0009093E9009091EB0090FF14C09091EE0036
:1041000097FF10C09091E80095FF03C01092F10056
:10411000F9CF9091E80090FF05C09091E8009E775C
:104120009093E8008F708093E90010926D02809167
:10413000DA0080FF32C08091D80080FF2EC08091CD
:10414000DA008E7F8093DA008091D90080FF1CC056
:1041500080E189BD82E189BD09B400FEFDCF81E027
:1041600080937C028AE89BE00E94A20680916F0205
:10417000811113C00E94B91F0E94D81F8091E200D4
:1041800084608093E20009C019BC10927C028EE822
:104190009BE00E94A20610926F028091E10080FFD6
:1041A0001BC08091E20080FF17C08091E2008E7FEB
:1041B0008093E2008091E20080618093E200809130
:1041C000D80080628093D80019BC85E080937C027F
:1041D00082E99BE00E94A2068091E10084FF36C044
:1041E0008091E20084FF32C080E189BD82E189BD17
:1041F00009B400FEFDCF8091D8008F7D8093D80058
:104200008091E1008F7E8093E1008091E2008F7EBB
:104210008093E2008091E20081608093E2008091CF
:104220007D02882311F084E007C08091E30087FDC0
:1042300002C081E001C083E080937C0286E99BE0BC
:104240000E94A2060E94DE280E94E4088091E100FC
:1042500083FF2BC08091E20083FF27C08091E100A3
:10426000877F8093E10082E080937C0210927D0240
:104270008091E1008E7F8093E1008091E2008E7F4B
:104280008093E2008091E20080618093E20042E04E
:1042900060E080E00E9443178091F0008860809386
:1042A000F0008AE99BE00E94A206FF91EF91BF9186
:1042B000AF919F918F917F916F915F914F913F91BE
:1042C0002F910F900FBE0F901F901895EF92FF92B5
:1042D0000F931F93CF939091FF028091FE02892B41
:1042E0002091FD02982F922B9093860280910003DB
:1042F000882389F0892B80938602E8E8F2E097E032
:1043000080E0915029F021912223D9F38F5FF9CFDA
:1043100081110E949428E0913A02F0913B0230977B
:10432000C9F10280F381E02D86E892E00995809141
:10433000620282FF2FC080FF04C08DE39CE00E94D8
:10434000A20606E812E0C8E087E3E82E8CE0F82E2B
:104350008091620280FF0CC0F80180811F928F93D0
:10436000FF92EF920E943B070F900F900F900F90DB
:10437000C1500F5F1F4FC111EBCF8091620280FFD0
:1043800009C085E39CE0CF911F910F91FF90EF90C2
:104390000C94A206CF911F910F91FF90EF9008957A
:1043A000BF92CF92DF92EF92FF920F931F93CF9322
:1043B000DF938C01C090F802D090F902E090FA02ED
:1043C000F090FB028091010390910203A0910303FE
:1043D000B0910403C82AD92AEA2AFB2ACFE1D0E007
:1043E000D701C6010C2E04C0B695A7959795879561
:1043F0000A94D2F780FD04C0219790F7B12C07C032
:10440000BC2EB8018C2F0E94EE0E0197A9F38B2DC4
:10441000DF91CF911F910F91FF90EF90DF90CF90A0
:10442000BF900895CF93DF93EC010E94D021BE018D
:104430000E94EE0EDF91CF9108952FE0929F800DA4
:104440001124682F669566956695982F977085E07C
:10445000689FB001112440E050E080E0FB01E40FD0
:10446000F51FEA53FD4F208130E0092E02C036953A
:1044700027950A94E2F721703327042E01C0220FFA
:104480000A94EAF7822B4F5F5F4F4530510531F7B1
:1044900008952FE0929F800D1124E82FE695E69570
:1044A000E695877051E001C0550F8A95EAF785E0DF
:1044B000E89FF0011124EA53FD4F20E030E070E066
:1044C0004081CB01022E02C0969587950A94E2F7AF
:1044D0008170819584278523842781932F5F3F4FA7
:1044E0002530310569F708956093F8027093F90259
:1044F0008093FA029093FB020C94C3280F931F93AE
:1045000041E050E060E070E004C0440F551F661FBA
:10451000771F8A95D2F74095509560957095809158
:10452000F8029091F902A091FA02B091FB028A017F
:104530009B01082319232A233B23C901B8011F919A
:104540000F910C9474222091FC0280958223809319
:10455000FC02982F977079F430E0482F082E000C59
:10456000550B2417350739F08595859585950E945B
:104570007E221092FC0208950F931F9341E050E0B9
:1045800060E070E004C0440F551F661F771F8A95D6
:10459000D2F78091F8029091F902A091FA02B091BD
:1045A000FB028A019B01082B192B2A2B3B2BC901EB
:1045B000B8011F910F910C947422609301037093C2
:1045C000020380930303909304030C94C328809107
:1045D000C50290919402891719F08F5F8770FBCF05
:1045E00008950F931F93CF93DF9380919302829549
:1045F0008F7009F05DC080919002882309F458C043
:104600008091C5021091940260918E0270918F0288
:10461000C0919102D091920291E06F3F09F090E039
:10462000292F06E0811709F443C0209721F07F3F2E
:1046300021F030E003C031E001C0322F90E030FDC6
:1046400034C0089FF001099FF00D1124DF01AB5623
:10465000BD4F11963C911197371327C03C913613EB
:1046600024C012963C91129731111FC013964D91A0
:104670005C9114974C1B5D0B483C5105B0F4809144
:1046800093028F70806180939302E656FD4F808184
:104690008F70806180838EE892E00E94AC10DF9181
:1046A000CF911F910F910C94E72201968770BACF9A
:1046B000DF91CF911F910F9108959F92AF92BF927A
:1046C000CF92DF92EF92FF920F931F93CF93DF93DE
:1046D000CDB7DEB761970FB6F894DEBF0FBECDBF82
:1046E0008C0185E0F801DE011D9601900D928A95FE
:1046F000E1F7F80190818181E28030918E02609132
:104700008F0240919102509192024115510531F072
:104710006F3F31F421E03F3F19F403C021E001C0B5
:1047200020E0F22FF1709F2E20FD23C1F801C380FD
:10473000D4802EE8A22E22E0B22EF0909002F60154
:10474000E41BF50BFF2009F4CEC020919302E83C56
:10475000F10508F099C0422F407F09F051C068135D
:1047600011C039130FC0FE2CE1100CC02F70206156
:1047700020939302C5010E94AC1080919302F8012E
:10478000858337C1CD2831F08F3F31F421E09F3F41
:1047900019F403C021E001C020E020FD03C021E0A6
:1047A0002E2502C020E030E0F22FF170FF2E20FF16
:1047B0001DC02091C5024091940256E0241709F4CF
:1047C000F6C030E0529FF001539FF00D1124EB56DC
:1047D000FD4F6181861306C06081961303C062811C
:1047E000E61204C02F5F3F4F2770E8CFFE2CEE206B
:1047F00009F4FFC08091930281608093930250C0BE
:10480000681307C0391305C0E11003C0F801258300
:104810008DC09D878E878D859E850E949A288823CE
:1048200069F1EE2059F120919302822F82958F70C9
:1048300090E0029774F080918E0290918F02988799
:104840008F831986DB86CA862C87CE0107960E9445
:10485000AC1086E0F801AEE8B2E001900D928A95C6
:10486000E1F70E94F1220DC06817E1F09D878E8765
:104870008D859E850E949A2881111EC0C8010E94C4
:10488000AC10FF24F394B5C0422F407F69F78EE847
:1048900092E00E94AC1086E0F50111928A95E9F74A
:1048A000F12CA7C03913E2CFE110E0CFF801258346
:1048B000C8010E94AC1057C0EE2001F32091930272
:1048C000822F82958F7090E002971CF280918E0269
:1048D00090918F029A8389831B82DD82CC822E8302
:1048E000CE010196B4CFE83CF105E8F5FE2CEE20B0
:1048F00029F2681327C0391325C02091930220FDA7
:1049000018C0822F82958F70482F50E041155105B5
:1049100081F0F80125834F30510541F08F5F982FCA
:104920009295907F822F8F70892B8583C8010E947A
:10493000AC1086E0F801AEE8B2E001900D928A95E5
:10494000E1F757C09D878E878D859E850E949A28A6
:1049500081117FCF80919302816080939302C8017F
:104960000E94AC1046C086E0F50111928A95E9F7E5
:1049700040C0EE2009F482CF9D878E878D859E856D
:104980000E949A28F82E882309F478CF86E0F8014F
:10499000AEE8B2E001900D928A95E1F780918E0227
:1049A00090918F020E9412220E94F12222C09D87C4
:1049B0008E878D859E850E941222292F22952F7029
:1049C000223028F49F7039F0811105C00BC02430CB
:1049D00028F49F7049F4805E883020F0C8010E945E
:1049E000AC109F2CF92C05C0F8019581907F99F7A8
:1049F000F9CF8F2D61960FB6F894DEBF0FBECDBFF5
:104A0000DF91CF911F910F91FF90EF90DF90CF90AA
:104A1000BF90AF909F900895809171020895CF93B9
:104A2000DF9300D01F92CDB7DEB790917C02943017
:104A300019F589837B836A8382E08093E9008FEF95
:104A40009091E800815095FD06C095ED9A95F1F79B
:104A500000008111F5CF8091E80085FF0DC040E096
:104A600050E063E070E0CE0101960E94721C8091DC
:104A7000E8008E778093E8000F900F900F90DF9101
:104A8000CF910895CF93DF93EC010E94D617823027
:104A900011F0843031F4BE0184E0DF91CF910C94A9
:104AA0000F25DF91CF910895BC0183E00C940F2571
:104AB000CF93DF93EC010E94D617823011F084303F
:104AC000F9F482E08093E9008FEF9091E800815043
:104AD00095FD06C095ED9A95F1F700008111F5CF8F
:104AE0008091E80085FF0CC040E050E066E070E097
:104AF000CE010E94721C8091E8008E778093E800BE
:104B0000DF91CF910895CF93DF93EC010E94D617E8
:104B1000823011F0843039F581E08093E9008FEF25
:104B20009091E800815095FD06C095ED9A95F1F7BA
:104B300000008111F5CF8091E80085FF14C040E0AE
:104B400050E068E070E0CE010E94721C8091E800A5
:104B50008E778093E80088E0FE01A2E7B2E0019042
:104B60000D928A95E1F7DF91CF910895803F39F456
:104B700080915E0287FF6CC010925E0269C0813F27
:104B800029F480915E021816BCF362C090915D0218
:104B9000823F29F497FF5CC010925D0259C0833FA9
:104BA00019F41916CCF354C0893F41F480915F0287
:104BB00018160CF04DC010925F024AC08A3F29F4CB
:104BC00080915F0287FF44C0F6CF8B3F39F480911C
:104BD000600287FF3DC0109260023AC08C3F29F40A
:104BE000809160021816BCF333C0843F21F4809199
:104BF0005C028E7F17C0853F21F480915C028D7F1F
:104C000011C0863F21F480915C028B7F0BC0873FEF
:104C100021F480915C02877F05C0883F31F4809148
:104C20005C028F7E80935C0213C08D3F21F48091E3
:104C300009038E7F0BC08E3F21F4809109038D7F85
:104C400005C08F3F29F4809109038B7F809309036E
:104C500080915D0281110EC080915E0281110AC0B7
:104C600080915F02811106C080916002811102C0B3
:104C70001092580208958091090380FD16C081FDAD
:104C800016C082FD18C080915802882391F08832A6
:104C900090F428E0829FC001112468E270E00E9435
:104CA000302B862F672B29F007C082E0089584E01F
:104CB000089581E0089588E008958091090380FDBA
:104CC00014C081FD14C082FD16C080915802882353
:104CD00081F0843180F422E3829FC001112464E1D9
:104CE00070E00E94302B862F08958CE0089589E1B2
:104CF000089585E0089582E30895803F21F40E949D
:104D00005D26819504C0813F29F40E945D26809331
:104D10005E020895823F21F40E945D26819504C0C1
:104D2000833F29F40E945D2680935D020895893FA8
:104D300019F40E943B2605C08A3F31F40E943B26AD
:104D4000819580935F0208958B3F21F40E943B265A
:104D5000819504C08C3F29F40E943B268093600219
:104D60000895843F21F480915C02816017C0853FE3
:104D700021F480915C02826011C0863F21F4809111
:104D80005C0284600BC0873F21F480915C028860E4
:104D900005C0883F31F480915C02806180935C02A1
:104DA00008958D3F21F48091090381600BC08E3FEF
:104DB00021F480910903826005C08F3F29F480911E
:104DC0000903846080930903089578941F920F92D9
:104DD0000FB60F9211248F939F93AF93BF9380913F
:104DE000050390910603A0910703B0910803019673
:104DF000A11DB11D8093050390930603A0930703A3
:104E0000B0930803BF91AF919F918F910F900FBE08
:104E10000F901F9018959C014FB7F894809105034F
:104E200090910603A0910703B09108034FBF821B26
:104E3000930B08952FB7F894809105039091060382
:104E4000A0910703B09108032FBF089580916202DB
:104E500083FF7EC086E79CE00E94A20680915C02F0
:104E60001F928F9381E79CE09F938F930E943B0753
:104E70008FE69CE00E94A20680915D02282F082EFA
:104E8000000C330B3F938F938CE69CE09F938F93A2
:104E90000E943B078AE69CE00E94A20680915E0287
:104EA000282F082E000C330B3F938F9387E69CE04E
:104EB0009F938F930E943B0785E69CE00E94A20689
:104EC00080915F02282F082E000C330B3F938F93A5
:104ED00082E69CE09F938F930E943B0780E69CE0D4
:104EE0000E94A20680916002282F082E000C330B2E
:104EF0003F938F938DE59CE09F938F930E943B0798
:104F00008AE59CE00E94A206809158021F928F932E
:104F100087E59CE09F938F930E943B0785E59CE08B
:104F20000E94A206809109031F928F9382E59CE064
:104F30009F938F930E943B078FE49CE00E94A20600
:104F40008DB79EB74C960FB6F8949EBF0FBE8DBF1F
:104F5000E0913A02F0913B02309749F082E0809371
:104F60005B020480F581E02D8BE592E009950E94BB
:104F70001A27909357028093560208951F920F921A
:104F80000FB60F9211248F939F93AF93BF9380918D
:104F90003C02811113C08091050390910603A091FA
:104FA0000703B09108034196A11DB11D809305032D
:104FB00090930603A0930703B0930803BF91AF91AA
:104FC0009F918F910F900FBE0F901F9018959C018D
:104FD0002A5F3F4FFC014281461301C012820196B5
:104FE00082179307B9F708959C01FC0132969FEF51
:104FF00080E04191461789F09F3F19F4411101C0AB
:10500000982F8F5F8630A9F79F3F39F0F901E90F9C
:10501000F11D97FDFA95628308950895CF9384E07A
:1050200090E00E94652AC82F81E290E00E94652AE4
:105030002C2F30E0A901582BCA01CF9108956CEEB6
:105040007EEF80E090E00E94972A60E082E090E0AE
:105050000E94792A60E083E090E00E94792A109211
:10506000010310920203109203031092040360E004
:1050700084E090E00E94792A60E081E290E00E9462
:10508000792A60E085E090E00E94792A60E086E07D
:1050900090E00E94792A6FEF87E090E00E94792AE1
:1050A00040E050E0BA0188E090E00E948B2A60E086
:1050B0008DE090E00E94792A40E050E0BA0188E15A
:1050C00090E00E948B2A60E087E190E00E94792ABC
:1050D00040E050E0BA018CE190E00E948B2A60E051
:1050E00080E290E00E94792A40E050E0BA018FE02F
:1050F00090E00E948B2A40E050E0BA0183E190E00A
:105100000C948B2A8295982F937344E0949F90017E
:1051100011248C7C86958695282B822F8575880F87
:105120002A7A2695822B089580910003811110928E
:10513000000308950E941222292F2F70E92FE29573
:10514000EF704E2F50E0FA013297EE30F105B8F4CF
:10515000E058FF4F0C94442B803F99F018F4883EA0
:1051600070F40FC0843F59F40CC0883E50F0813F6A
:1051700031F407C0822F869586958695089580E044
:10518000089581E008951092FE021092FD020E949F
:105190006621EBE5F2E086E0DF011D928A95E9F7F2
:1051A00010925802109209030E94262780E090E096
:1051B0000E94CE0880E090E00C94B8081092FF02A4
:1051C00086E0E8E8F2E0DF011D928A95E9F70C94A9
:1051D000C328882341F080959091FF028923809312
:1051E000FF020C9466210895882339F09091FF0204
:1051F000892B8093FF020C9466210895882309F47B
:1052000063C0823869F40E94E40881FF5DC069E3ED
:1052100086E892E00E94F4270E94662169E30EC0AE
:10522000833891F40E94E40880FF4EC063E586E86D
:1052300092E00E94F4270E94662163E586E892E0EE
:105240000E94E7270C946621843869F40E94E408E0
:1052500082FF3AC067E486E892E00E94F4270E9449
:10526000662167E4EBCF9CEF980F913A10F4682F1A
:10527000E5CF90E2980F983088F4877021E030E015
:10528000A90102C0440F551F8A95E2F7CA01809513
:105290009091FF0289238093FF02D4CF9BE5980F62
:1052A000933020F480E090E00C94CE0898E5980FBD
:1052B000973120F480E090E00C94B808803F20F013
:1052C0000E94B6250C9426270895CF93882309F4CD
:1052D0009EC0C82F8238B1F40E94E40881FD97C0B7
:1052E00069E386E892E00E94F4270E9466212FEF8E
:1052F00081EE94E0215080409040E1F700C0000032
:1053000069E317C08338E1F40E94E40880FD7FC0A0
:1053100063E586E892E00E94F4270E9466212FEF61
:1053200081EE94E0215080409040E1F700C0000001
:1053300063E586E892E00E94E727CF910C9466210E
:105340008438B1F40E94E40882FD61C067E486E815
:1053500092E00E94F4270E9466212FEF81EE94E0F4
:10536000215080409040E1F700C0000067E4E1CFA9
:105370008CEF8C0F813A80F4E8E8F2E08EE892E05E
:105380002191C217E1F18E179F07D1F76C2F86E8A4
:1053900092E00E94F427D1CF80E28C0F883068F42D
:1053A000C77081E090E001C0880FCA95EAF790913C
:1053B000FF02892B8093FF02C0CFEBE5EC0FE330B7
:1053C00040F4F0E0E659FE4F808190E0CF910C94DC
:1053D000CE08E8E5EC0FE73150F4F0E0EE0FFF1FE8
:1053E000E359FE4F80819181CF910C94B808C03F62
:1053F00070F08C2F0E947D26CF910C9426276C2F65
:1054000086E892E00E94E7270E946621BFCFCF91F5
:1054100008958F929F92AF92BF92CF92DF92EF92B8
:10542000FF92CF93DF93EC01688179818A819B8120
:10543000611571058105910521F464E279ED8BE533
:1054400097E02DE133EF41E050E00E94AD2A4901A1
:105450005A019B01AC01A7EAB1E40E94CC2A6B017E
:105460007C01ACEEB4EFA50194010E94DA2ADC01C4
:10547000CB018C0D9D1DAE1DBF1DB7FF03C0019755
:10548000A109B04888839983AA83BB839F77DF9162
:10549000CF91FF90EF90DF90CF90BF90AF909F9013
:1054A0008F9008950E94092A089580E091E00E945B
:1054B000092A0895A0E0B0E08093000190930101D3
:1054C000A0930201B09303010895F999FECF92BD14
:1054D00081BDF89A992780B50895A6E1B0E044E02F
:1054E00050E00C949F2AA8E1B0E042E050E00C9418
:1054F0009F2A262FF999FECF92BD81BDF89A019778
:1055000000B4021639F01FBA20BD0FB6F894FA9A0B
:10551000F99A0FBE08950396272F0E947A2A0E94B7
:10552000792A252F0E947A2A242F0C947A2A019610
:10553000272F0E947A2A0C94792ADC01CB01FC01E6
:10554000F999FECF06C0F2BDE1BDF89A319600B4DC
:105550000D9241505040B8F70895052E97FB1EF468
:1055600000940E94C42A57FD07D00E94DF2A07FC3E
:1055700003D04EF40C94C42A509540953095219553
:105580003F4F4F4F5F4F089590958095709561956F
:105590007F4F8F4F9F4F08950E94012BA59F900D25
:1055A000B49F900DA49F800D911D11240895B7FF05
:1055B0000C94CC2A0E94CC2A821B930B0895A1E262
:1055C0001A2EAA1BBB1BFD010DC0AA1FBB1FEE1F7D
:1055D000FF1FA217B307E407F50720F0A21BB30BC8
:1055E000E40BF50B661F771F881F991F1A9469F744
:1055F00060957095809590959B01AC01BD01CF01A0
:105600000895A29FB001B39FC001A39F700D811D9B
:105610001124911DB29F700D811D1124911D0895BB
:10562000991B79E004C0991F961708F0961B881FF4
:105630007A95C9F780950895AA1BBB1B51E107C055
:10564000AA1FBB1FA617B70710F0A61BB70B881F12
:10565000991F5A95A9F780959095BC01CD010895A1
:1056600097FB072E16F4009407D077FD09D00E940F
:105670001C2B07FC05D03EF4909581959F4F089513
:10568000709561957F4F0895EE0FFF1F0590F4917F
:10569000E02D0994FC014150504030F00190061675
:1056A000D1F73197CF010895882799270895F89465
:0256B000FFCF2A
:1056B2000100000001191A1B1C1D1E1F20212201BE
:1056C200020C25832558255425422501000102029A
:1056D20002020606060909090909090F0F0F0F0F31
:1056E2000F15151518191919191919191919192335
:1056F200242525252525253033673666F6F5F4F170
:10570200C6959392919094969734354081224A0B94
:10571200C90AA70AB00BC90BE20B818283E200E936
:1057220000EA00B500B600B700CD008301CC008AC4
:10573200019201940121022302240225022602275A
:0C574200022A02B300B4006F00700000E7
:00000001FF
