:100000000C946A050C94B1050C94B1050C94B105DF
:100010000C94B1050C94B1050C94B1050C94B10588
:100020000C94B1050C94B1050C946C1F0C94A81E93
:100030000C9429270C94B1050C94B1050C94B105CE
:100040000C94B1050C94B1050C94B1050C94B10558
:100050000C94B1050C9435260C94B1050C94B105A3
:100060000C94B1050C94B1050C94B1050C94B10538
:100070000C94B1050C94B1050C94B1050C94B10528
:100080000C94B1050C94B1050C94B1050C94B10518
:100090000C94B1050C94B1050C94B1050C94B10508
:1000A0000C94B1050C94B1050C94B1056F11DD11E0
:1000B000E211E711EC11F111F611FB11001205121A
:1000C0000A1220122312261229122C122F12321277
:1000D00035124912121312134C134C13A313C113EC
:1000E0008C158C150314DF14F014F014B61CDD1CF1
:1000F0008A1EDD1C8A1E291D4C1D8A1E4D1E5C1E7B
:10010000172817282A282A2820282A282A282A288F
:100110001728172825282A282A28252829001E00DC
:100120001F0020002100220000530153025323002E
:10013000240025002600270035002B0014681A0033
:1001400008001500170003514C05E3001C001800BF
:100150000C0012001300340039000464160007007C
:1001600009000A422F00310030000B000D000E0084
:100170000F00330028004D001D651B6306001900A9
:1001800005002E0000632D0011001000360037001E
:1001900038004C004A004B004E004600E1002A00A7
:1001A000E000E600E4002C00E500500051005200A1
:1001B0004F000100010001000100010001000100E9
:1001C0000100010001000100010001000100010027
:1001D00001000100070015001A00050001000100E0
:1001E00001000D0009001800130033000100010098
:1001F000010001000B0017000100010001000100D7
:100200001C001100080012000C0001000100010098
:1002100001001000060019000100010001000E009D
:100220000F000100010001000100010001000100B8
:1002300001000100010001000100010001000100B6
:1002400001000100010001000100010001000100A6
:100250000100010001000100010001000100010096
:100260000100010001000100010000000000000089
:10027000000001000100010000004B0052004E0090
:10028000000001000100010000000000000001006A
:100290000100010001004A00500051004F004D00D4
:1002A0000100010001000100000000000000010049
:1002B000010001000000E400000000000000010057
:1002C0000100010001000100010001000100010026
:1002D0000100010001000100010001000100010016
:1002E0003A003B003C003D003E00010001000100DF
:1002F00000005F006000610062000000010001007A
:1003000000000000000000000100010001000000EA
:100310005C005D005E0000000000010001000000C4
:100320000000000001000100010001000000590070
:100330005A005B0000000100010001000100000004
:100340000000000001000100010000000000620048
:100350006300000001000100010001000100010034
:100360000100010001000100010001000100010085
:10037000010001000001010101010101010102026E
:100380000202020202020203030303030303030443
:10039000040404040404050505050506060606060E
:1003A000070707070708080808090909090A0A0AC8
:1003B0000B0B0B0C0C0C0D0D0D0E0E0E0F0F0F106A
:1003C00010111111121213131414151516161717F4
:1003D000181819191A1A1B1B1C1D1D1E1E1F202060
:1003E000212222232424252626272829292A2B2CAA
:1003F0002D2D2E2F30313232333435363738393ACD
:100400003B3C3D3E3F404142434445464748494AC4
:100410004C4D4E4F50515354555658595A5B5D5E92
:100420005F616264656668696B6C6D6F707273752D
:1004300077787A7B7D7E8082838587888A8C8E8F91
:1004400091939596989A9C9EA0A2A3A5A7A9ABADBF
:10045000AFB1B3B5B7BABCBEC0C2C4C6C9CBCDCFAD
:10046000D1D4D6D8DBDDDFE2E4E7E9EBEEF0F3F55B
:10047000F8FAFDFF7267626C696768742074696DD1
:10048000657220656E61626C65642E0A0072676237
:100490006C69676874206D6F6465205B4E4F4545DD
:1004A00050524F4D5D3A2025750A007267626C69A3
:1004B000676874206D6F6465205B454550524F4DF1
:1004C0005D3A2025750A007267626C69676874205E
:1004D00073657420687376205B4E4F454550524FCC
:1004E0004D5D3A2025752C25752C25750A007267FF
:1004F000626C696768742073657420687376205B2A
:10050000454550524F4D5D3A2025752C25752C25BB
:10051000750A007267626C69676874207261696E3F
:10052000626F7720736574206873763A2025642C97
:1005300025642C25642C25750A00FFAA7F5540727E
:1005400067626C696768742074696D65722064699C
:100550007361626C652E0A002223252628292A2C25
:100560002D2F3032333536383A3B3D3E40424345FD
:1005700047494A4C4E5051535557595A5C5E606238
:10058000646668696B6D6F71737577797B7D7F8148
:10059000838587898A8C8E90929496989A9C9E9F48
:1005A000A1A3A5A7A8AAACAEAFB1B3B4B6B8B9BB66
:1005B000BCBEBFC1C2C3C5C6C7C9CACBCCCDCED0D5
:1005C000D1D2D2D3D4D5D6D7D7D8D9D9DADADBDBC2
:1005D000DBDCDCDCDCDCDDDDDDDDDCDCDCDCDCDB59
:1005E000DBDBDADAD9D9D8D7D7D6D5D4D3D2D2D1A2
:1005F000D0CECDCCCBCAC9C7C6C5C3C2C1BFBEBC95
:10060000BBB9B8B6B4B3B1AFAEACAAA8A7A5A3A105
:100610009F9E9C9A98969492908E8C8A89878583C7
:10062000817F7D7B79777573716F6D6B69686664A7
:1006300062605E5C5A5957555351504E4C4A494777
:10064000454342403E3D3B3A3836353332302F2D1C
:100650002C2A2928262523227267626C6967687410
:100660002064697361626C65205B454550524F4D53
:100670005D3A207267626C696768745F636F6E666B
:1006800069672E656E61626C65203D2025750A00E4
:100690007267626C6967687420656E61626C652060
:1006A0005B454550524F4D5D3A207267626C6967F9
:1006B00068745F636F6E6669672E656E61626C65F4
:1006C000203D2025750A007267626C696768742096
:1006D000746F67676C65205B454550524F4D5D3ABE
:1006E000207267626C696768745F636F6E666967C2
:1006F0002E656E61626C65203D2025750A004445BB
:100700004255473A2064697361626C65642E0A0041
:1007100044454255473A20656E61626C65642E0A15
:10072000007267626C696768745F636F6E666967A1
:100730002E7370656564203D2025640A007267622F
:100740006C696768745F636F6E6669672E76616C4B
:10075000203D2025640A007267626C696768745FD7
:10076000636F6E6669672E736174203D2025640A8D
:10077000007267626C696768745F636F6E66696751
:100780002E687565203D2025640A007267686C69D3
:100790006768745F636F6E6669672E6D6F6465204E
:1007A0003D2025640A007267626C696768745F6344
:1007B0006F6E6669672E656E61626C65203D2025EF
:1007C000640A007267626C696768745F636F6E6663
:1007D000696720454550524F4D3A0A007267626C76
:1007E000696768745F696E6974207267626C6967B3
:1007F00068745F636F6E6669672E6D6F6465203D18
:1008000020302E2057726974652064656661756CAE
:10081000742076616C75657320746F204545505265
:100820004F4D2E0A007267626C696768745F696E6B
:100830006974206565636F6E666967206973206EF1
:100840006F7420656E61626C65642E0A0072676267
:100850006C696768745F696E69742073746172741F
:10086000210A007267626C696768745F696E6974F7
:100870002063616C6C65642E0A000A0025303136F5
:1008800062003A200025303258000A722F6320306F
:100890003132333435363738394142434445460ADC
:1008A0000000047F3F1F643214643214783C1E1E23
:1008B000140A050A0025303258006B6579626F61B1
:1008C00072645F7365745F6C65643A20005B735D8E
:1008D000004B6579626F6172642073746172742E6B
:1008E0000A000631FF0974A1010975150026FF00F1
:1008F0009520750881020976150026FF0095207560
:10090000089102C005010902A10185020901A100A7
:1009100005091901290515002501950575018102B3
:100920009501750381010501093009311581257F84
:1009300095027508810609381581257F950175088E
:100940008106050C0A38021581257F9501750881FD
:1009500006C0C005010980A101850319012AB7005D
:10096000150126B700950175108100C0050C09011D
:10097000A101850419012AA002150126A0029501F2
:1009800075108100C005010906A101050719E029BC
:10099000E71500250195087501810295017508810B
:1009A000010507190029FF150026FF0095067508A7
:1009B0008100050819012905950575019102950128
:1009C00075039101C05B435D005B445D005B535D5B
:1009D000005B575D005B525D0009025B0003010094
:1009E000A0FA09040000010301010009211101001E
:1009F000012240000705810308000A0904010001E3
:100A00000300000009211101000122810007058275
:100A10000320000A0904020002030000000921115A
:100A200001000122220007058303200001070503BE
:100A30000320000112011001000000086469750024
:100A40000100010203010403300000000C0349000F
:100A500064006F0062006F00000010034700650033
:100A60006E00650072006900630000000403090461
:100A70000A002530325820006B6579626F6172641C
:100A80005F7265706F72743A2000290A0025750044
:100A90002F002575005D28002564002000256400D6
:100AA000200025640020002564007C002530325899
:100AB000006D6F7573656B6579205B62746E7C7811
:100AC0002079207620685D287265702F61636C291B
:100AD0003A205B0011241FBECFEFDAE0DEBFCDBFAE
:100AE00004B603FE27C08091B2029091B302A09198
:100AF000B402B091B5028730904BA740B04BD1F40F
:100B00001092B2021092B3021092B4021092B50287
:100B100014BE84B7877F84BF0FB6F894A8958091E0
:100B20006000886180936000109260000FBEE0E07A
:100B3000F8E3099511E0A0E0B1E0EAE0F4E502C0D5
:100B400005900D92A239B107D9F722E0A2E9B1E0F0
:100B500001C01D92A23BB207E1F70E9424170C943A
:100B6000032A0C940000FF93EF93E0919201F0911F
:100B70009301309709F00995EF91FF910895FC01D9
:100B80008591803011F0EFDFFBCF0895FF27E0E281
:100B900030E247FF0CC0419597FF09C0EDE2609538
:100BA000709580959095611D711D811D911D27FF88
:100BB00002C0219530E350E2AA27660F771F881FF5
:100BC000991FAA1FA41710F0A41B63955A95A9F7A3
:100BD000AA3008F0A95FA05DAF93F3956115710588
:100BE0008105910541F7ED3211F4EF93F395F2177A
:100BF00018F43F93F395FBCF8F91B5DFFA95E1F7AA
:100C00000895E991F9918591803021F0853219F0AC
:100C1000AADFF9CF089520E0E89455915532C1F349
:100C2000503311F4689455915A3348F4505390F36B
:100C3000220F022E220F220F200D250FF4CF0EF4CB
:100C4000219589919991533619F3533729F15335E9
:100C500059F1BC0188279927E8945C3621F48991E1
:100C6000999168945591543639F446EF7EF077FFA8
:100C70000DC08FEF9FEF0AC055374AE039F0583565
:100C800040E121F0523642E009F00895FF93EF93DE
:100C90007DDFEF91FF91B7CFFF93EF93FC0181913F
:100CA0008030B9F360DFFBCFFF93EF9368DFF1CFC4
:100CB000DF93CF93CDB7DEB72596A3DFCF91DF913A
:100CC00008950895BF92CF92DF92EF92FF920F9313
:100CD0001F93CF93DF93E82EF62EE901E42FF0E087
:100CE000611106C0EC58FC4F8491B82EE82F71C0FA
:100CF000262F30E0EC58FC4FE491FE2FCE2ED12C65
:100D000046E0849FC00111240FEF10E0B8010E945B
:100D1000C8294BEA4603C001479F900D11248E0D50
:100D2000911D8E0D911D982F990F890FD801A21B2F
:100D3000B30BAC9DA001AD9D500DBC9D500D112479
:100D4000B52EF89ED0011124AB2FBB277801EA1AEB
:100D5000FB0AEC9CD001ED9CB00DFC9CB00D112465
:100D60007801E81AF108E29EC001E39E900DF29E20
:100D7000900D1124892F9927081B190B0C9D9001A8
:100D80000D9D300D1C9D300D1124832F6230710597
:100D900091F048F461157105E1F061307105B9F425
:100DA0008E2FEB2F16C06430710569F040F066306D
:100DB000710579F00CC08E2FE52FB32E0AC0E52FF8
:100DC000BF2E8B2F06C0852FBE2EE32F02C0852F8E
:100DD000BB2EE9838883BA82DF91CF911F910F9157
:100DE000FF90EF90DF90CF90BF9008959091DF013A
:100DF00092FF0DC0282F2871283019F4877F846056
:100E000006C0282F2471243011F48B7F886093FF53
:100E10000DC0282F2871283119F4877E846106C0FF
:100E2000282F2471243111F48B7E88612091E001F8
:100E300020FF0DC0382F3871383019F4877F81605A
:100E400006C0382F3171313011F48E7F886021FF58
:100E50000DC0282F2871283119F4877E816106C0C2
:100E6000282F2171213111F48E7E886194FD877EB7
:100E700008951F93CF93DF93CDB7DEB767970FB673
:100E8000F894DEBF0FBECDBF4B8B5C8B6D8B7E8B22
:100E90008F8B86E09E01235F3F4FD901E82F1D9283
:100EA000EA95E9F795E0FE017396D90101900D925C
:100EB0009A95E1F7F901DE01179601900D928A9556
:100EC000E1F7CE0107960E948C2281113EC086E098
:100ED000FE013796DE01119601900D928A95E1F799
:100EE000FF81E8856A857B856115710531F0EF3FEB
:100EF00031F481E0FF3F19F403C081E001C080E0DC
:100F000080FD23C020913C0230E0C901019687702A
:100F1000992740916D0250E08417950779F1F98384
:100F2000EA837D836C8396E0929FD001939FB00DFE
:100F30001124A35CBD4FFE01319601900D929A954C
:100F4000E1F780933C020E941A2216E080916D0224
:100F500090913C028917F9F0189FC0011124835C1D
:100F60009D4F0E948C228823B1F080916D0290E009
:100F700001968770992780936D02E8CF0E944928D7
:100F800010923C0210926D02E6E3F2E086E0DF018F
:100F90001D928A95E9F767960FB6F894DEBF0FBEEB
:100FA000CDBFDF91CF911F9108952091CE01309157
:100FB000CF012817390771F09093CF018093CE01AC
:100FC000E091E201F091E301309721F00084F18596
:100FD000E02D099408952091CC013091CD0128177E
:100FE000390771F09093CD018093CC01E091E2013B
:100FF000F091E301309721F00680F781E02D09940C
:101000000895E091E201F091E301309721F0019021
:10101000F081E02D099480E008950F931F93CF9302
:10102000DF93C62FD42F122FFC0182818823C9F0B1
:101030006093D0010E9485269093CB018093CA01D2
:1010400080E28C0F883008F05EC0C77081E001C07C
:10105000880FCA95EAF7DF91CF911F910F910C94F9
:101060005F288091D00168133EC08091CA019091A1
:10107000CB010E945B26883C9105A8F500E20D0F8C
:10108000CD17B9F080E28C0F883040F4C77081E052
:1010900001C0880FCA95EAF70E945428083048F426
:1010A00081E09D2F977001C0880F9A95EAF70E9402
:1010B0005F28812F0E94D028193349F4FFEF27EED3
:1010C00083E0F15020408040E1F700C00000812F14
:1010D0000E9469280830B8F4D77081E001C0880FF9
:1010E000DA95EAF70AC080E28C0F883060F4C770A6
:1010F00081E001C0880FCA95EAF7DF91CF911F9177
:101100000F910C945428DF91CF911F910F91089566
:10111000882311F0FA0101C0FB0109941092FB0130
:1011200080910A0280FF08C08FE395E09F938F9320
:101130000E9458060F900F9008958091F50180FF4E
:101140000AC0809A81B38E7F91B391602FB7F894D3
:10115000EAE9F1E00BC0EAE9F1E0118210821282C3
:10116000339631E0EA3CF307C1F7EBCF31E0EA3CDC
:10117000F30789F0319148E091BB000000C037FFD0
:1011800081BB330F000000C000C000C081BB00C0A5
:101190004A9591F7EBCF2FBF87EC90E00197F1F7DD
:1011A00000C000000895EF92FF920F931F93CF931A
:1011B000DF938C01CAE9D1E0E12CF12CF8018481A4
:1011C000F8E0EF16F1041CF4882339F002C0811115
:1011D00004C09E014091F80102C09E0140E0609170
:1011E000F7018091F6010E9462068FEFE81AF80A73
:1011F000239690E1E916F10409F70E949D08F80191
:10120000848190E00196817099278483DF91CF914A
:101210001F910F91FF90EF900895EF92FF920F931F
:101220001F93CF93DF93EC018C819D810196817098
:1012300099279D838C838AE9E82E81E0F82E10E0BF
:1012400005E5212F26958C819D81820F911D81704E
:1012500097014091F8016091F701809F802D112442
:101260000E9462061F5F83E0E80EF11C103149F70F
:10127000DF91CF911F910F91FF90EF900C949D08FB
:101280000F931F93CF93DF93CAE9D1E0FE01118240
:1012900010821282339681E0EA3CF807C1F700E041
:1012A00010E080919801082E000C990B081719077F
:1012B00094F080910C01082E000C990B8017910777
:1012C00054F09E014091F8016091F7018091F60180
:1012D0000E94620603C0198218821A820F5F1F4F94
:1012E000239600311105E9F60E949D0880910B01BB
:1012F00090919801980F9093980120910C01280FDC
:1013000020930C01121614F49F301CF081958093E9
:101310000B01DF91CF911F910F910895CF92DF9232
:10132000EF92FF920F931F93CF93DF93FC01828183
:1013300080FF03C0DD24DA9402C0DD24D394CAE91F
:10134000D1E000E010E0198218821A8294E0E92EC0
:10135000F12CC12C809197018C0D813114F08F708C
:1013600002C087FD805F082E000C990B0817190733
:1013700091F48091F8018E9DA0018F9D500D112454
:1013800055954795559547959E016091F701809138
:10139000F6010E946206CD0CF1E0EF1AF108D1F6D9
:1013A0000F5F1F4F23960031110569F60E949D08BB
:1013B0008091970191E0D91206C0811102C08FE09F
:1013C00006C0815004C090E001968F7099278093E9
:1013D0009701DF91CF911F910F91FF90EF90DF90D8
:1013E000CF900895EF92FF921F93CF93DF93EC017C
:1013F0008AE9E82E81E0F82E10E08C819701409177
:10140000F8016091F701810F0E946206115F83E08D
:10141000E80EF11C103F89F70E949D089A818C818B
:1014200090FF02C08F5F01C081508C83DF91CF910C
:101430001F91FF90EF9008959091F50190FF0CC0DF
:10144000EAE9F1E0818360834283339691E0EA3CEC
:10145000F907C1F70C949D0808950F931F93CF933C
:10146000DF9300D01F92CDB7DEB78C018091990138
:1014700081110AC09E012F5F3F4F4FEF6FEF0E9417
:1014800062068A8180939901F8018481813051F04C
:1014900028F0823061F4409199010AC0809199014D
:1014A00040E007C06091990140E080E003C040E067
:1014B00080E060E00E941C0AF801848190E00196BF
:1014C00063E070E00E94DC2984830F900F900F90FE
:1014D000DF91CF911F910F910895CF93DF9300D0AB
:1014E0001F92CDB7DEB79091F50190FF0AC09E0123
:1014F0002F5F3F4F0E9462064B8169818A810E9463
:101500001C0A0F900F900F90DF91CF910895CF9309
:10151000DF93EC01E5EFF1E0438162818C810E9471
:101520006D0A8C818F5F8C83DF91CF910895CF936B
:10153000DF93EC01EC81F0E0E85AFA4F4491E5EFDB
:10154000F1E0628181810E946D0A8C818F5F8C83C2
:10155000DF91CF9108958091F501282F269530E0F5
:101560002115310519F48170826005C025323105DD
:1015700024F0817088648093F5010895CF92DF9202
:10158000EF92FF926B017C010E94AB0AB701A601AA
:1015900088E090E0FF90EF90DF90CF900C949A2934
:1015A0003F924F925F926F927F928F929F92AF92F3
:1015B000BF92CF92DF92EF92FF920F931F93CF9340
:1015C000DF9300D01F92CDB7DEB7182F762E042FF1
:1015D000422E9091F50190FFB2C0E92FE695AE2F13
:1015E000B0E0A85EBE4F8C918093FA019E7F92304E
:1015F00061F49E012F5F3F4F812F0E9462064B8155
:1016000069818A810E941C0A60C0823019F40091AD
:10161000F8015BC0863019F41091F60156C089308C
:10162000D9F3893109F051C0E9518E2F8170582EBC
:1016300081E0652C6826E695F0E0E65CFA4FC590FF
:10164000D4903AE9A32E31E0B32EE12CF12CDD2425
:1016500043E1842E45E0942EEC9CC001ED9C900D5E
:10166000FC9C900D112424E0969587952A95E1F72E
:10167000312E511002C0380E01C0381A80910A0272
:1016800080FF11C0DF92CF921F926F921F923F9204
:10169000FF92EF929F928F920E9458060FB6F89495
:1016A000DEBF0FBECDBF9501402F672D832D0E9459
:1016B00062069FEFE91AF90A83E0A80EB11C90E1D7
:1016C000E916F10449F60E949D081093F601709204
:1016D000F7010093F8014420E9F06091F501709161
:1016E000F6018091F7019091F8010E94BE0A809165
:1016F0000A0280FF24C08091F8011F928F9380918D
:10170000F7011F928F938091F6011F928F938EEEB7
:1017100094E00CC080910A0280FF11C01F920F93C9
:101720001F927F921F921F9387EC94E09F938F9359
:101730000E9458060FB6F894DEBF0FBECDBF0F90C3
:101740000F900F90DF91CF911F910F91FF90EF902D
:10175000DF90CF90BF90AF909F908F907F906F90D1
:101760005F904F903F900895E5EFF1E0438128E0CE
:10177000421B08F440E021E0628181810C94D00A90
:10178000E5EFF1E0438128E0420F08F44FEF21E05C
:10179000628181810C94D00AE5EFF1E0628128E05A
:1017A000621B08F460E021E0438181810C94D00A3F
:1017B000E5EFF1E0628128E0620F08F46FEF21E0CD
:1017C000438181810C94D00AE5EFF1E0818121E031
:1017D0004381628188500C94D00AE5EFF1E0818169
:1017E00021E043816281885F0C94D00A8091F901E5
:1017F000882319F081508093F9016091F50170916F
:10180000F6018091F7019091F8010C94BE0A809145
:10181000F901833018F48F5F8093F9016091F5012D
:101820007091F6018091F7019091F8010C94BE0A35
:101830009091F50190FF68C09170811102C0926093
:1018400006C0853210F0986402C0880F982B9093E0
:10185000F5016623B1F06091F5017091F601809178
:10186000F7019091F8010E94BE0A80910A0280FF60
:101870001BC08091F50186951F928F938BEA94E0AF
:101880000BC080910A0280FF0FC08091F501869500
:101890001F928F938DE894E09F938F930E94580638
:1018A0000F900F900F900F906091F501669570E08A
:1018B0004BE050E080E091E00E94F629892B19F07E
:1018C0000E948E0815C081E08093FB010E9485264E
:1018D0009093F0018093EF0180910A0280FF08C08D
:1018E00084E794E09F938F930E9458060F900F9087
:1018F00081E08093F20120E04091F8016091F701CE
:101900008091F6010C94D00A08958091F501869596
:10191000815009F484E261E00C94180C8091F50187
:1019200086958F5F853208F081E061E00C94180C99
:101930009091F50190FF04C09695981740F003C070
:10194000811105C090E0961710F40C948E0C61E0A4
:101950000C94180CE5EFF1E083E0808311828FEFA7
:1019600082838383148260817181828193810C944C
:10197000BE0A5F926F927F928F929F92AF92BF92B8
:10198000CF92DF92EF92FF920F931F93CF93DF934B
:101990006DE371E0A5EDB1E0612C01E010E05D01C7
:1019A0008D909C90119711961C921E92EB0189913B
:1019B000BE01E82FE295EF70F0E021A18F70A80141
:1019C00002C0440F551F8A95E2F7CA01242B21A3B8
:1019D00022A1542E5094252122A350EA5A95F1F7C2
:1019E00092E4E92E91E0F92E40E050E0E701799091
:1019F0007E01272D22952F7030E0E90128A1CD909E
:101A0000DC90119730E0D72DDF7002C03595279517
:101A1000DA95E2F720FD08C09801042E02C0220FDB
:101A2000331F0A94E2F702C020E030E0C22AD32A32
:101A30001196DC92CE924F5F5F4F4F305105B1F659
:101A400091A1D52DD923D1A392A1892B82A312963E
:101A500081E0F501208131812815390509F480E004
:101A6000682AF1E0AF3DBF0709F099CF662049F041
:101A700081E0809396010E94852690939501809342
:101A8000940180919601882391F180919401909125
:101A900095010E945B26069750F18091D5019091A7
:101AA000D6019093E6018093E5018091D701909152
:101AB000D8019093E8018093E7018091D90190913A
:101AC000DA019093EA018093E9018091DB01909122
:101AD000DC019093EC018093EB018091DD0190910A
:101AE000DE019093EE018093ED0110929601862D18
:101AF000DF91CF911F910F91FF90EF90DF90CF90EA
:101B0000BF90AF909F908F907F906F905F9008955F
:101B1000CF93DF932BE4829FC0011124FC013FE0AF
:101B2000739FE00DF11D1124E60FF11DEE0FFF1F55
:101B3000E45EFE4FC591D491CE01C238D10569F162
:101B4000B0F4C133D10509F475C048F4C932D105E8
:101B500009F469C0CA32D10509F473C085C0C53320
:101B6000D10509F459C0C933D105B9F07DC0C33ED0
:101B7000D10571F138F4C03ED105B1F0C23ED105B6
:101B800011F172C0C63ED105B9F1C73ED105C9F108
:101B9000C43ED10509F068C024C02091DF0120FDBA
:101BA0005DC021FD5BC060C02091DF0120FD50C001
:101BB0002091E00120FF67C18091DF0184FD61C1B8
:101BC00083EE90E060C12091DF0122FF5CC1F4CF81
:101BD0008091DF0182FD3FC08091E00180FD3EC029
:101BE000EBCF2091E00121FF4EC18091DF0184FD08
:101BF00048C187EE90E047C12091DF0123FF43C138
:101C0000F4CF8091DF0183FD2CC08091E00181FF42
:101C1000ECCF84EE90E037C12091DF0125FF33C186
:101C200089E290E030C12091DF0125FF2CC185E3DE
:101C300090E029C12091DF0126FF25C18AE290E0D2
:101C400022C12091DF0126FF1EC181E390E01BC16C
:101C500089E390E018C182EE90E015C180EE90E03B
:101C600012C186EE90E00FC1C11530E5D30708F030
:101C700067C0C11540E4D40720F0CE019F70906A80
:101C800002C1C83ED105B8F5C03ED10508F0FBC081
:101C9000C83AD105B8F4C53AD10550F08C2F855A11
:101CA000E82FF0E0E05AFE4F808190E09064EBC0B6
:101CB000C130D10509F4E7C008F4E3C0249708F463
:101CC000E0C0E1C0CF3BD10560F48C2F885AE82FEB
:101CD000F0E0EE0FFF1FED59FE4F8081918194647B
:101CE000D2C0C03CD10508F4CCC0FE01EE0FFF1FEE
:101CF000EC50FE4F0EC0C11520E2D20768F0C115AE
:101D000040E3D407A8F4FE01FF70EE0FFF1FEC586C
:101D1000FC4F85919491B7C0C11531E0D30708F00D
:101D2000B2C0C03FD10508F4ACC0CE019065ABC0D5
:101D3000CE019927D3FF02C0986CA5C0906CA3C0B8
:101D4000C11585E5D80708F05BC0C11524E5D207A9
:101D500028F09C2F8827846F906A95C0C11532E5C2
:101D6000D30738F5C11541E5D407F0F4CE0174E08E
:101D7000969587957A95E1F7282F23703C2F33703D
:101D800081E090E002C0880F991F3A95E2F79C68C5
:101D9000922BEC2FEF70E695E69540E2E49FF00180
:101DA00011248E2B9F2B6FC09C2F8827816F906AE8
:101DB0006AC0AE01437055272C2F26952695C11574
:101DC000D34578F481E090E002C0880F991F4A95CE
:101DD000E2F740E2249F90011124822B932B9C6810
:101DE00052C081E090E002C0880F991F4A95E2F747
:101DF00040E2249F90011124822B932B9A6843C0C8
:101E0000C11529E5D207B0F4C11538E5D30728F08C
:101E10009C2F8827806F906A36C0C11546E5D4078D
:101E200080F58C2F0E94F6068F7190E0982F8827FE
:101E3000906229C0C1158AE5D80790F48C2F8F7065
:101E40000E94F606FE0194E0F695E7959A95E1F773
:101E5000EF70F0E0FE2FEE27F0699F01282B0FC0F6
:101E6000CE0190568115904260F48D2F8F710E94A3
:101E7000F606FE01FF27F0628F719F01382BC90122
:101E800002C080E090E0DF91CF9108951F93CF933F
:101E9000DF9300D000D01F92CDB7DEB749835A83BD
:101EA00089819A81662349F00E940321182F682FA7
:101EB00089819A810E947C2103C00E945021182FA1
:101EC0008A819BE4199FF00111249FE0899FE00D16
:101ED000F11D11248981E80FF11DEE0FFF1FE45E53
:101EE000FE4F859194910F900F900F900F900F904F
:101EF000DF91CF911F9108954F925F926F927F92E1
:101F00008F929F92AF92BF92CF92DF92EF92FF9209
:101F10000F931F93CF93DF93FC01808191812381E5
:101F20003481232B31F09F3F31F491E08F3F19F43E
:101F300003C091E001C090E090FD25C68F01408173
:101F400051816281738184810E94460FEC01833F3D
:101F50009C45B9F1C43F8CE5D80780F4C83D9CE5A9
:101F6000D907C9F0C93DECE5DE07B9F1C73DFCE58D
:101F7000DF07B1F526E241EE61EE10C0C53F2CE56A
:101F8000D20739F110F1C63F9CE5D90749F527E2A0
:101F900045EE66EE03C027E245EE65EEC801DF912F
:101FA000CF911F910F91FF90EF90DF90CF90BF9056
:101FB000AF909F908F907F906F905F904F900C9418
:101FC0000D0826E241EE60EEE9CF27E245EE64EE31
:101FD000E5CF26E241EE62EEE1CF28E241E0DDCF3F
:101FE000F8019281992309F44EC11092D001C230B8
:101FF000FCE5DF0708F431C1C6312CE5D20738F023
:102000009E012A5F3C452930310508F026C10E9417
:1020100079279093E0018093DF01C0318CE5D807E8
:1020200009F4C3C008F041C0C830ECE5DE0709F48C
:102030009AC0F0F4C4302CE5D20709F487C068F4E4
:10204000C2309CE5D90709F477C0C330DC4509F0FC
:10205000E5C08091DF01826076C0C630FCE5DF0715
:1020600009F46EC008F07BC08091DF0188606BC00E
:10207000CC308CE5D80709F485C068F4CA30ECE5AB
:10208000DE0709F474C008F079C00E9449288091E5
:10209000DF01806858C0CE302CE5D20709F476C045
:1020A00008F07FC08091DF018BC0CB3F9CE5D90752
:1020B00009F44FC018F5C331FCE5DF0709F47DC012
:1020C00078F4C1318CE5D80709F473C0C231DC451E
:1020D00009F0A4C00E9449288091DF018F7733C0A6
:1020E000C531ECE5DE0709F472C008F486C0CA3FCA
:1020F000DC4509F093C08091E0013EC0CF3F8CE504
:10210000D80709F45FC058F4CD3FECE5DE0709F4C9
:1021100044C008F43FC08091E00182602DC0C1300E
:102120002DE5D20709F475C008F45DC0C230DD4565
:1021300009F074C060E06EC08091DF01816003C06F
:102140008091DF0180618093DF0168C08091DF01B1
:1021500011C08091E00182608093E0015FC08091B6
:10216000DF018062F0CF8091DF018064ECCF80914D
:10217000DF0188608460E7CF8160EECF8091DF016E
:102180008E7FE1CF8091DF018D7FDDCF8091DF01F8
:10219000877FD9CF8091E00118C08091E0018D7FC9
:1021A000DBCF8091DF018F7ECECF8091DF018F7DED
:1021B000CACF8091DF018F7BC6CF8091DF01877FFF
:1021C0008B7FC1CF8091E0018D7F8E7FC5CF8091C5
:1021D000DF0182FB222720F991E0922790FB82F910
:1021E00090FB83F9B0CF8091E001982F909591708A
:1021F0008E7F892B90FB81F9AFCF0E944928809177
:10220000DF0187FB222720F991E0922790FB87F9D5
:102210009ACF61E08EE090E00E9488296091DF0112
:10222000C091E00184E090E00E9488296C2F81E257
:1022300090E00E948829DF91CF911F910F91FF902C
:10224000EF90DF90CF90BF90AF909F908F907F9056
:102250006F905F904F900C9449288091A702C631EF
:10226000FCE5DF0781F58A7A91E009F490E090932C
:10227000D101882311F065E301C069E28EE292E0AA
:102280000E945F270EC0C631DC4509F086C18091EF
:10229000D101882309F475C465E38EE292E00E94BF
:1022A0005227DF91CF911F910F91FF90EF90DF9018
:1022B000CF90BF90AF909F908F907F906F905F90E6
:1022C0004F900C9499208272FE01E25CFC45E4314F
:1022D000F10508F0F2C0EA5AFF4F0C94F029809102
:1022E0000A0280FF10C08091F501809581701F92D5
:1022F0008F9387EC96E09F938F930E9458060F90E0
:102300000F900F900F908091F50180FF3DC08E7F60
:102310008093F5016091F5017091F6018091F701CC
:102320009091F8010E94BE0A80910A0280FF0FC0BE
:102330008091F50181701F928F9388E596E09F93BD
:102340008F930E9458060F900F900F900F900E944D
:102350008E08EFEFF0E722E0E150F0402040E1F797
:1023600000C00000DF91CF911F910F91FF90EF907F
:10237000DF90CF90BF90AF909F908F907F906F90A5
:102380005F904F900C949D0881608093F50180913F
:102390000A0280FF0DC01F9281E08F9380E996E0D2
:1023A0009F938F930E9458060F900F900F900F905D
:1023B0008091F50161E086956EC045E85CE06EE8CD
:1023C0007CE02CC04EE85CE065E87CE027C044EE91
:1023D0005BE06DEE7BE022C04DEE5BE064EE7BE007
:1023E0001DC04CEC5BE068ED7BE018C048ED5BE0A5
:1023F0006CEC7BE013C044EB5BE060EC7BE00EC078
:1024000040EC5BE064EB7BE009C046EF5BE067E03B
:102410007CE004C047E05CE066EF7BE0DF91CF91B9
:102420001F910F91FF90EF90DF90CF90BF90AF90F2
:102430009F908F907F906F905F904F900C94880842
:1024400061E081E028C065E082E011C068E086E0DC
:102450000EC06EE089E00BC064E18FE008C067E168
:1024600085E105C061E088E116C062E289E1DF91A3
:10247000CF911F910F91FF90EF90DF90CF90BF9081
:10248000AF909F908F907F906F905F904F900C9443
:10249000980C61E083E2DF91CF911F910F91FF9043
:1024A000EF90DF90CF90BF90AF909F908F907F90F4
:1024B0006F905F904F900C94180CC1308CE5D8074A
:1024C000C1F1CE3DECE5DE0709F455C0C115DC4590
:1024D00009F063C00E9449282FEF84E39CE021505B
:1024E00080409040E1F700C0000081E08093E00070
:1024F00080E28093D8001092C900EFE1FEE43197AA
:10250000F1F700C0000087E090EBDC018093B2029D
:102510009093B302A093B402B093B5029CE088E11B
:102520000FB6F894A895809360000FBE909360005A
:10253000FFCF80910A02982F9095917090FB80F9BF
:1025400080930A02992319F080E197E002C08EEF90
:1025500096E0DF91CF911F910F91FF90EF90DF9068
:10256000CF90BF90AF909F908F907F906F905F9033
:102570004F900C94BF05DF91CF911F910F91FF9069
:10258000EF90DF90CF90BF90AF909F908F907F9013
:102590006F905F904F900C948A27F801C081D18191
:1025A000992349F0CE010E940321F82E682FCE0115
:1025B0000E947C2104C0CE010E945021F82EBE0151
:1025C0008F2D0E94880DD82FC92FB82EF801D580E5
:1025D000D2947FE0D722F280F1101092A60280916F
:1025E000A402877079F0FF2069F080E28D0F8830B7
:1025F00048F082E00E94D6218091A4028770EE24E8
:10260000E3948111E12CCC2EC2946FE0C6228C2D74
:1026100090E08C30910508F07FC2FC01E659FF4F35
:102620000C94F0298C2F807FCF70882311F0C295F5
:10263000C07FFF20B9F0CC2309F459C280E28D0F8E
:10264000883010F0B11006C08091A702C82BC0934B
:10265000A70205C08091A602C82BC093A6020E94C3
:10266000992045C28D2F0E946928CC2309F454C2B9
:10267000D05EC095D83010F0B11006C08091A7028E
:10268000C823C093A70205C08091A602C823C093A7
:10269000A6020E94992040C28C2F807FCF7080328A
:1026A00011F0C295C07FBB2021F0F1E0BF16F1F020
:1026B0002EC0FF2089F08091A802DD2059F08824E7
:1026C0008394D81007C0C82BC81709F425C2C0933B
:1026D000A80222C28C2B12C0DD2029F099249394E9
:1026E000D91409F419C20E94FF2729C0FF2049F01C
:1026F00055E0A52EAD1408F40FC28C2F0E945F2860
:102700000BC244E0B42EBD1408F406C218C0FF206A
:1027100049F0DD2091F3F801858180FFE8C18F70D9
:102720008583EBCFDD2059F0D93309F0F2C1FFEFFB
:1027300027EE83E0F15020408040E1F7E8C18C2F84
:102740000E945428E9C18C2F86958695837019F0D4
:10275000813061F0E1C1FF2021F08D2F9C2F93701B
:1027600002C080E090E00E94EB07DCC1FF2021F076
:102770008D2F9C2F937002C080E090E00E94D507BF
:10278000D1C1FF20F9F0D53F51F0D63F71F0D43FD1
:10279000A9F48091D2019091D30181600BC0809106
:1027A000D2019091D301826005C08091D2019091B5
:1027B000D30184609093D3018093D2018D2F0E9426
:1027C000CD251EC0D53F51F0D63F71F0D43FA9F4BE
:1027D0008091D2019091D3018E7F0BC08091D20164
:1027E0009091D3018D7F05C08091D2019091D3014A
:1027F0008B7F9093D3018093D2018D2F0E94062569
:102800000E9491268FC18C2F837009F068C0F1104F
:1028100087C19D2F929596959770990F990F8D2F3F
:102820008F70882E912CA12CB12C092E04C0880CFD
:10283000991CAA1CBB1C0A94D2F7D4FF12C04FE00B
:1028400050E060E070E004C0440F551F661F771F22
:102850009A95D2F7DB01CA0180959095A095B09525
:1028600003C080E090E0DC01C695C695C370C2301D
:1028700019F1C8F44090A9025090AA026090AB02EE
:102880007090AC02C13059F088299929AA29BB2936
:10289000BC01CD0164217521862197210AC08428BD
:1028A0009528A628B728BC01CD01682979298A294D
:1028B0009B290E94102234C188299929AA29BB2961
:1028C0008090A9029090AA02A090AB02B090AC02B6
:1028D000BC01CD01682579258A259B25EACFFF20FB
:1028E00019F08C2F817001C08695882309F418C1D6
:1028F0009D2F929596959770990F990F8D2F8F70A8
:10290000882E912CA12CB12C092E04C0880C991C66
:10291000AA1CBB1C0A94D2F7D4FF12C04FE050E0AF
:1029200060E070E004C0440F551F661F771F9A9542
:10293000D2F7DB01CA0180959095A095B09503C0B0
:1029400080E090E0DC01C695C695C370C230D9F036
:1029500068F54090A0025090A1026090A202709091
:10296000A302C13059F088299929AA29BB29BC01A1
:10297000CD0164217521862197211EC084289528C8
:10298000A628B72813C088299929AA29BB2980908D
:10299000A0029090A102A090A202B090A302BC015C
:1029A000CD01682579258A259B2506C0BC01CD016E
:1029B000682979298A299B290E94A721B1C0CF7053
:1029C000FF2039F08C2F0E94EF218D2F0E945F286D
:1029D000A7C08D2F0E9454288C2F0E94B121A0C027
:1029E0008D2F92EFB91609F444C09B1538F0E0EF33
:1029F000BE1671F0F1EFBF16B9F174C033EF832E3C
:102A0000B814F1F124EF922EB91409F450C06AC041
:102A1000FF2021F194E0A92EAD1408F47DC0CF7100
:102A200081E090E0A0E0B0E0AC01BD0104C0440F43
:102A3000551F661F771FCA95D2F78091A00290910B
:102A4000A102A091A202B091A3024A015B018826D3
:102A50009926AA26BB26C501B40126C085E0982E7A
:102A60009D1408F459C0DBCFFF2029F08C2F8F7103
:102A70002CC0FF20D9F38C2F8F710E94B1214CC044
:102A8000FF2079F0CF7181E090E0A0E0B0E0BC01E0
:102A9000CD0104C0660F771F881F991FCA95D2F712
:102AA00003C060E070E0CB010E94A72135C0FF2089
:102AB00079F0CF718C2F0E94EF2128E0C29FC001D6
:102AC000112483608093A4028C2F0E94EF2124C0E4
:102AD00081E00E94D62181E08D15F0F482E00E9411
:102AE000D6211AC0FF2039F0DD2009F4BFCF8D2F89
:102AF0000E94D02811C0DD2009F4BDCF893349F4EC
:102B00009FEFE7EEF3E09150E040F040E1F700C0C6
:102B100000008D2F0E94692888EF8C0D843010F4FE
:102B20000E940108EE20A9F08091A40280FD11C04E
:102B3000F80112828595859585950E94EF21C8013F
:102B40000E947C0F8091A4028595859585950E94B1
:102B5000B121F80140815181628173818481DF91CB
:102B6000CF911F910F91FF90EF90DF90CF90BF908A
:102B7000AF909F908F907F906F905F904F900C944C
:102B8000460F69E28ACBDF91CF911F910F91FF90A1
:102B9000EF90DF90CF90BF90AF909F908F907F90FD
:102BA0006F905F904F9008959FB7F8941092150220
:102BB0009FBF90912402943009F057C09091E90092
:102BC0009F703091EC00232F217030FD20E8922B74
:102BD00023E02093E9002091EB0020FF43C02091E7
:102BE000EE0027FF3FC02091D401222321F0209145
:102BF000E80025FF37C01092D40126E03091E800AC
:102C000035FD15C030912402343061F53091EB0070
:102C100035FD28C0215021F481E08093D40122C0E9
:102C2000EFE9FFE03197F1F700C00000E7CF8093B4
:102C3000F1008091E80085FD0AC08091E80080FFE6
:102C4000FCCF8091E8008E778093E80006C08FB7B4
:102C5000F89421E0209315028FBF9F709093E900B4
:102C600080E008959F709093E9008FEF0895209180
:102C7000E4003091E50095E64091EC00842F8170EE
:102C800040FF23C08091E80080FD1DC08091240298
:102C9000882399F0853099F08091EB0085FD11C073
:102CA0004091E4005091E5002417350729F3915035
:102CB00011F09A01E1CF84E0089582E0089583E065
:102CC000089581E0089580E008954091E80042FF72
:102CD000DDCF08958091260287FF11C08091E80022
:102CE00082FD05C0809124028111F8CF11C080912E
:102CF000E8008B770BC080912402882349F08091F3
:102D0000E80080FFF8CF8091E8008E778093E8009C
:102D10000895982F973068F59093E900981739F047
:102D20007091EC002091ED005091F00003C0242F31
:102D3000762F50E021FD02C09F5FECCF3091EB0079
:102D40003E7F3093EB003091ED003D7F3093ED00FE
:102D50003091EB0031603093EB007093EC002093E6
:102D6000ED005093F0002091EE0027FDE5CF80E0CC
:102D700008958F708093E90081E0089520912C02DE
:102D800030912D022617370748F06115710539F487
:102D90002091E8002E772093E80001C0B901FC01E2
:102DA00020E06115710579F1809124028823F1F109
:102DB0008530F1F18091E80083FD3CC08091E8000E
:102DC00082FD2EC08091E80080FFEBCF2091F300C0
:102DD0008091F20090E0922B6115710551F08830DE
:102DE000910538F421912093F10061507109019609
:102DF000F3CF21E0089709F020E08091E8008E777A
:102E00008093E800CECF2111CFCF0AC08091240259
:102E1000882361F0853061F08091E80083FD0AC06D
:102E20008091E80082FFF2CF80E0089582E008956B
:102E300083E0089581E0089580912402843011F0A8
:102E400081E0089582E00895CF93DF93CDB7DEB798
:102E500061970FB6F894DEBF0FBECDBF84B7877FF2
:102E600084BF0FB6F894A895809160008861809324
:102E70006000109260000FBE90E080E80FB6F894FA
:102E800080936100909361000FBE85B7806885BF15
:102E900085B7806885BF0E94EC1E0E940B1F809141
:102EA000E20084608093E20084ED95E190939301C9
:102EB000809392017894809124028823A1F010914C
:102EC000E9001F709091EC00892F817090FD80E8DF
:102ED000182B1092E9008091E80083FD0E94D11B1D
:102EE0001F701093E90082E084BD93E095BD9AEFD6
:102EF00097BD80936E00ADE3B1E041E050E08D916D
:102F0000E82FE295EF70F0E021A18F70BA0102C0C6
:102F1000660F771F8A95E2F7CB01962F9095922343
:102F200091A392A1892B82A371E0A234B70739F74C
:102F3000A2E4B1E041E050E08D91E82FE295EF701E
:102F4000F0E021A18F70BA0102C0660F771F8A9549
:102F5000E2F7CB01962F9095922391A392A1892B12
:102F600082A371E0A135B70739F7E5EDF1E0A5EEF1
:102F7000B1E0119211921D921D9281E0EF3DF80790
:102F8000C1F780E090E00E9482298C3E9E4F11F0B4
:102F90000E948A2780E090E00E9482298C3E9E4F0A
:102FA00011F00E948A2782E090E00E9474298093A9
:102FB0000A020E9479279093E0018093DF0183E069
:102FC00090E00E947429682F70E080E090E00E94F9
:102FD00010228091E1018111E0C080910A0280FFFE
:102FE00008C083E698E09F938F930E9458060F9045
:102FF0000F9080910A0280FF08C08DE498E09F93B3
:103000008F930E9458060F900F9080E090E00E94EE
:1030100082298C3E9E4F81F080910A0280FF08C079
:1030200085E298E09F938F930E9458060F900F902F
:103030000E948A270E94AA0C88E090E00E947C29C6
:103040006093F5017093F6018093F7019093F80176
:103050006E7FD1F480910A0280FF08C08CED97E06A
:103060009F938F930E9458060F900F900E94AA0C76
:1030700088E090E00E947C296093F5017093F6014E
:103080008093F7019093F8010E94AB0A80910A02A5
:1030900080FF08C083EC97E09F938F930E945806AF
:1030A0000F900F9080910A0280FF0FC08091F50170
:1030B00081701F928F9386EA97E09F938F930E946F
:1030C00058060F900F900F900F9080910A0280FF8A
:1030D0000FC08091F50186951F928F938BE897E042
:1030E0009F938F930E9458060F900F900F900F9010
:1030F00080910A0280FF0EC08091F6011F928F938B
:1031000081E797E09F938F930E9458060F900F904E
:103110000F900F9080910A0280FF0EC08091F701FE
:103120001F928F9387E597E09F938F930E94580695
:103130000F900F900F900F9080910A0280FF0EC0A9
:103140008091F8011F928F938DE397E09F938F9367
:103150000E9458060F900F900F900F9080910A02D6
:1031600080FF0EC08091F9011F928F9381E297E05A
:103170009F938F930E9458060F900F900F900F907F
:103180001092FB018091F50180FF04C060E08695FC
:103190000E94180C81E08093E1018DE091E0909312
:1031A000E3018093E20181ED98E00E94BF058091E8
:1031B0002402853009F03FC08DEC98E00E94BF05E5
:1031C00080912402843021F11092E40120E488E10E
:1031D00090E00FB6F894A895809360000FBE2093FE
:1031E000600083B7817F846083BF83B7816083BFC2
:1031F0007894889583B78E7F83BF0FB6F894A8958F
:1032000080916000886180936000109260000FBE22
:1032100080912302882309F4CACF0E94B90CE5EEFD
:10322000F1E081919191892B09F06FC231E0EF3E7D
:10323000F307B9F7BCCF0E94B90C2BE0622E22E055
:10324000722E35EE432E31E0532E00E010E0098B54
:10325000F201A190B1902F01F301C190D1903F01F3
:10326000CA24DB24C114D104B1F40F5F1F4F053011
:10327000110569F78FEF8C878D871E860E94852642
:103280008160782F988B8F874C855D856E858889C6
:103290000E94390777C080910A0281FD05C080E055
:1032A000EE24E394F12C48C08AE898E00E94BF0520
:1032B00085EE882E81E0982EE12CF12CFF92EF9282
:1032C00025E838E03F932F930E94580682E898E063
:1032D0000E94BF05F40180812180F2E08F0E911CD5
:1032E0000E94ED27382E822D0E94ED27232D30E0FD
:1032F000322F2227A901482BCA019F938F936CE795
:1033000078E07F936F930E9458068AE798E00E94C6
:10331000BF059FEFE91AF90A0FB6F894DEBF0FBE9A
:10332000CDBFF5E0EF16F10449F6B9CF8F5FEE0C93
:10333000FF1C8F3009F499CF97012C213D21232BBD
:10334000A9F38F8329892887AE20BF2081E0AB288D
:1033500009F480E089870E9485268160782F9B8709
:103360008A874F81588569858B850E943907000FB0
:10337000111FF801E55FFD4F80819181E826F92654
:10338000F182E0828091FB01882309F49AC0809148
:10339000FA01E091F501E695E81BE093F101823036
:1033A00059F4F0E0E155F74FE4910E2F10E0E7E912
:1033B000EE2EEAE0FE2E59C0863059F4F0E0E455D6
:1033C000F74FE4910E2F10E077E8E72E7AE0F72E22
:1033D0004CC0893061F4E695F0E0E755F74FE49191
:1033E0000E2F10E062EFE62E69E0F62E3EC08F3021
:1033F00061F4E695F0E0EA55F74FE4910E2F10E006
:103400005EE8E52E59E0F52E30C0853159F4F0E044
:10341000ED55F74FE4910E2F10E040E4E42E49E023
:10342000F42E23C08831A1F0833249F4E1EAF8E0B8
:10343000059114913DE2E32E3AE0F32E16C084325A
:1034400071F404EF11E023EDE22E28E0F22E0DC01E
:1034500008EE13E09DE0E92E99E0F92E06C000ED9C
:1034600017E081E6E82E86E0F82E8091F2018823AD
:1034700089F01092F2010E948526980120953095DE
:10348000820F931F9093F0018093EF011092F4014B
:103490001092F3018091EF019091F0010E945B2660
:1034A0008017910770F0E091EF01F091F0010E0F9D
:1034B0001F1F1093F0010093EF018FEE91E0F701D1
:1034C000099586E0E3E0F2E0DE01119601900D92AD
:1034D0008A95E1F780910502811105C0809106026D
:1034E000882309F46EC080910102909102020E942B
:1034F0005B269C0190910002992309F41CC123339F
:10350000310508F45EC09F3F19F09F5F9093000261
:10351000109207021092080280910502181624F4F6
:103520000E94AD25809305028091050287FF05C0AA
:103530000E94AD25819580930502809106021816A0
:1035400024F40E94AD25809306028091060287FF35
:1035500005C00E94AD258195809306023091050239
:103560003323E1F0209106022223C1F045EB34031E
:10357000C0011124992319F09093050203C081E042
:103580008093050255EB2503C0011124992319F0FE
:103590009093060203C081E0809306020E94912668
:1035A0008091FE019091FF019093020280930102AD
:1035B00086E0FE013196A3E0B2E001900D928A957B
:1035C000E1F780910702811105C0809108028823EC
:1035D00009F46EC08091FC019091FD010E945B2670
:1035E0009C0190910002992309F4AAC02536310567
:1035F00008F45EC09F3F19F09F5F90930002109205
:1036000005021092060280910702181624F40E9407
:103610008B25809307028091070287FF05C00E94D7
:103620008B2581958093070280910802181624F457
:103630000E948B25809308028091080287FF05C0B5
:103640000E948B25819580930802309107023323D5
:10365000E1F0209108022223C1F065EB3603C0019E
:103660001124992319F09093070203C081E08093FD
:10367000070275EB2703C0011124992319F09093D9
:10368000080203C081E0809308020E949126809185
:10369000FE019091FF019093FD018093FC0186E073
:1036A000FE013196A3E0B2E001900D928A95E1F718
:1036B0000E94010890910902891709F478CD0E94AF
:1036C0000108182F8093090280910A0282FF6FCDB2
:1036D00080FF04C08AEB98E00E94BF0580910A0237
:1036E00080FF0CC01F921F9385EB98E09F938F93F0
:1036F0000E9458060F900F900F900F9080910A0231
:1037000080FF55CD83EB98E050CD80E189BD82E10B
:1037100089BD09B400FEFDCF8091D8008F7D8093D4
:10372000D8008091E00082608093E0008091E0000A
:1037300081FDFCCF3CCD2D32314008F0E6CE41CFAB
:103740002D32314008F058CFB3CFEF92FF920F9354
:103750001F93CF93DF937C018B010E943716811159
:1037600019C0E70101151105A1F08091E80085FD60
:103770000AC08091E8008E778093E8000E94371697
:10378000882381F307C089918093F10001501109CA
:10379000E9CF80E0DF91CF911F910F91FF90EF90E3
:1037A00008951F93CF93DF93CDB7DEB7AA970FB6D7
:1037B000F894DEBF0FBECDBFE6E2F2E08EE292E00B
:1037C0002091F10021938E179F07D1F78091270256
:1037D000833009F460C030F4813071F0823009F434
:1037E0009AC0B1C08A3009F486C08B3009F46BC02E
:1037F000893009F0A8C020C080912602813A09F0E2
:10380000A2C08091E800877F8093E80080912A021F
:1038100090912B02892B21F468E08AE192E003C0A9
:1038200060E080E090E070E00E94BE168091E800C9
:103830008B778093E80087C080912602813209F05F
:1038400082C080912A0290912B02029708F07BC0DF
:103850008091E800877F8093E8008091E80082FDF6
:1038600005C0809124028111F8CF6DC02091F30032
:103870008091F20090E0922B029729F48091F10060
:103880008B7F813021F48091F10080931902809127
:10389000E8008B7754C080912602813A09F053C02A
:1038A00080912A0290912B02892B09F04CC08091C3
:1038B000E800877F8093E8008091E80080FFFCCFDC
:1038C0008091170137C0809126028132E1F5809105
:1038D0002A0290912B02892BB1F58091E800877F15
:1038E0008093E8000E946A16809128028093170155
:1038F0000E94492828C080912602813221F58091BA
:10390000E800877F8093E8000E946A168091290270
:103910008093180218C080912602813AA1F4809108
:10392000E800877F8093E8008091E80080FFFCCF6B
:10393000809118028093F1008091E8008E77809347
:10394000E8000E946A168091E80083FFE3C180913D
:10395000260290912702492F50E04A30510508F085
:10396000D9C1FA01EA58FF4F0C94F029803821F0B0
:10397000823809F0CFC108C08091220290912302C1
:10398000992389F082600FC080912A028F7087305E
:1039900008F0C0C18093E9008091EB0085FB882787
:1039A00080F91092E9009091E800977F9093E800E9
:1039B0008093F1001092F1007BC1282F2D7F09F038
:1039C000A9C1882319F0823061F0A4C18091280236
:1039D000813009F09FC1933009F080E08093230289
:1039E0002EC08091280281112AC080912A028F70F6
:1039F0002FEF280F263008F08DC18093E900209129
:103A0000EB0020FF1CC0933021F48091EB0080621A
:103A100014C09091EB0090619093EB0021E030E0B6
:103A2000A90102C0440F551F8A95E2F74093EA00AE
:103A30001092EA008091EB0088608093EB00109276
:103A4000E9008091E800877F8093E8000E946A1671
:103A500061C181115FC1109128021F778091E3003D
:103A60008078812B8093E3008091E800877F8093AA
:103A7000E8000E946A168091E80080FFFCCF8091E8
:103A8000E30080688093E300111102C082E001C06E
:103A900083E0809324023EC18058823008F03AC10E
:103AA00020912802309129022C3D53E0350779F509
:103AB00083E08A838AE289834FB7F894DE01139604
:103AC00020E03EE051E2E32FF0E050935700E49114
:103AD00020FF03C0E295EF703F5FEF708E2F90E004
:103AE000EA3010F0C79601C0C0968D939D932F5F6A
:103AF000243149F74FBF8091E800877F8093E80029
:103B00006AE270E0CE0101960E94BE16C0C08091AC
:103B10002A0290912B02432F552743305105B1F0D3
:103B200068F44130510509F404C14230510509F0EF
:103B3000F1C08BE590E0E9EDF9E057C04132510565
:103B400089F14232510509F43CC0E4C0C90199270A
:103B500081309105B9F070F082309105D9F003976A
:103B600009F0D8C0E6E4FAE0E4918E2F90E0E6E4B4
:103B7000FAE038C0ECE6FAE0E4918E2F90E0ECE653
:103B8000FAE030C0EAE5FAE0E4918E2F90E0EAE551
:103B9000FAE028C0ECE4FAE0E4918E2F90E0ECE447
:103BA000FAE020C08330910508F0B4C0880F991F57
:103BB000FC01E65AFE4F0190F081E02D89E090E093
:103BC00014C08330910508F0A5C0FC01EE0FFF1F63
:103BD000EC5AFE4F0190F081E02DDC01AF5ABE4F50
:103BE0008C9190E0009709F495C02091E800277F20
:103BF0002093E80020912C0230912D0228173907DC
:103C000008F4C90140E0009789F1209124022223A1
:103C100009F43DC02530D9F12091E80023FD37C0DB
:103C20002091E80022FD2FC02091E80020FFEBCF7B
:103C30004091F3002091F20030E0342B009759F0CE
:103C40002830310540F444914093F10031960197BA
:103C50002F5F3F4FF3CF41E02830310509F040E0BE
:103C60002091E8002E772093E800CDCF4111CDCFF1
:103C70000AC080912402882351F0853041F0809160
:103C8000E80083FD04C08091E80082FFF2CF8091BC
:103C9000E8008B778093E8003DC08038D9F58091AB
:103CA000E800877F8093E800809125028093F100EF
:103CB0008091E8008E77C8CE81112CC080912802B7
:103CC00090912902992702972CF58091E800877F2F
:103CD0008093E80010912802109325020E946A1632
:103CE000111106C08091E30087FD02C081E001C090
:103CF00084E08093240242E061EC81E00E94891616
:103D000042E261EC82E00E94891642E261EC83E0CB
:103D10000E9489168091E80083FF10C08091E8001E
:103D2000877F8093E8008091EB0080628093EB00B6
:103D300005C082E190E0E4E3FAE057CFAA960FB61F
:103D4000F894DEBF0FBECDBFDF91CF911F910895D4
:103D50001F920F920FB60F9211242F933F934F9300
:103D60005F936F937F938F939F93AF93BF93CF9303
:103D7000DF93EF93FF93C091E900CF708091EC0047
:103D8000D82FD17080FDD0E81092E9008091F0002A
:103D9000877F8093F00078940E94D11B1092E900F5
:103DA0008091F00088608093F000CD2BCF70C0939D
:103DB000E900FF91EF91DF91CF91BF91AF919F917A
:103DC0008F917F916F915F914F913F912F910F90C4
:103DD0000FBE0F901F901895E8EDF0E080818E7F68
:103DE00080831092E2001092DA001092E100A0EEBF
:103DF000B0E08C9181608C9380818F77808319BC37
:103E0000A7EDB0E08C918E7F8C9380818F7E808334
:103E1000109217020895CF92DF92EF92FF920F93C4
:103E20001F93CF93DF93C8EDD0E088818F7E888386
:103E3000E7EDF0E080818160808384E082BF81E0F3
:103E40008093170288818E7F888302EE10E0F8014C
:103E500010821092DA0081EEC82ED12CF601108269
:103E600088818F77888388818068888388818F7D27
:103E7000888319BC1092240210922502109223020A
:103E80001092220290EEE92EF12CF70180818B7FB7
:103E9000808388818160888342E060E080E00E94C6
:103EA0008916F60180818E7F8083F8018081816090
:103EB0008083808188608083F70180818E7F80830A
:103EC000888180618883DF91CF911F910F91FF904E
:103ED000EF90DF90CF9008951F920F920FB60F9240
:103EE00011242F933F934F935F936F937F938F93FF
:103EF0009F93AF93BF93EF93FF938091E10082FF75
:103F000049C08091E20082FF45C08091E1008B7F33
:103F10008093E100209116022F5F822F62E30E94BE
:103F2000BC29992319F02093160234C0109216026E
:103F300080911502882371F180912402843041F52B
:103F40008091E9008F702091EC00922F917020FDFC
:103F500090E8892B93E09093E9009091EB0090FF1B
:103F600014C09091EE0097FF10C09091E80095FF6B
:103F700003C01092F100F9CF9091E80090FF05C0C6
:103F80009091E8009E779093E8008F708093E9000D
:103F9000109215028091DA0080FF32C08091D80023
:103FA00080FF2EC08091DA008E7F8093DA008091AE
:103FB000D90080FF1CC080E189BD82E189BD09B4C0
:103FC00000FEFDCF81E08093240285EC99E00E9401
:103FD000BF0580911702811113C00E94EC1E0E9440
:103FE0000B1F8091E20084608093E20009C019BC3D
:103FF0001092240289EC99E00E94BF0510921702EA
:104000008091E10080FF1BC08091E20080FF17C01B
:104010008091E2008E7F8093E2008091E2008061D7
:104020008093E2008091D80080628093D80019BC10
:1040300085E0809324028DEC99E00E94BF05809179
:10404000E10084FF36C08091E20084FF32C080E14D
:1040500089BD82E189BD09B400FEFDCF8091D80001
:104060008F7D8093D8008091E1008F7E8093E10066
:104070008091E2008F7E8093E2008091E200816077
:104080008093E20080912502882311F084E007C02C
:104090008091E30087FD02C081E001C083E080934E
:1040A000240281ED99E00E94BF050E9449280E94E8
:1040B00001088091E10083FF2BC08091E20083FF23
:1040C00027C08091E100877F8093E10082E08093A8
:1040D0002402109225028091E1008E7F8093E100FE
:1040E0008091E2008E7F8093E2008091E200806107
:1040F0008093E20042E060E080E00E9489168091B7
:10410000F00088608093F00085ED99E00E94BF0583
:10411000FF91EF91BF91AF919F918F917F916F919F
:104120005F914F913F912F910F900FBE0F901F9075
:104130001895EF92FF920F931F93CF939091A70240
:104140008091A602892B2091A502982F922B909303
:104150002E028091A802882389F0892B80932E0259
:10416000E0E3F2E097E080E0915029F021912223F2
:10417000D9F38F5FF9CF81110E94FF27E091E2010F
:10418000F091E3013097C9F10280F381E02D8EE2D6
:1041900092E0099580910A0282FF2FC080FF04C03F
:1041A00088E79AE00E94BF050EE212E0C8E082E7CD
:1041B000E82E8AE0F82E80910A0280FF0CC0F801F8
:1041C00080811F928F93FF92EF920E9458060F906A
:1041D0000F900F900F90C1500F5F1F4FC111EBCF89
:1041E00080910A0280FF09C080E79AE0CF911F9179
:1041F0000F91FF90EF900C94BF05CF911F910F91FD
:10420000FF90EF900895BF92CF92DF92EF92FF92CE
:104210000F931F93CF93DF938C01C090A002D09097
:10422000A102E090A202F090A3028091A9029091D5
:10423000AA02A091AB02B091AC02C82AD92AEA2AFC
:10424000FB2ACFE1D0E0D701C6010C2E04C0B69501
:10425000A795979587950A94D2F780FD04C021977A
:1042600090F7B12C07C0BC2EB8018C2F0E94880D8E
:104270000197A9F38B2DDF91CF911F910F91FF90A3
:10428000EF90DF90CF90BF900895CF93DF93EC0134
:104290000E940321BE010E94880DDF91CF910895F5
:1042A0002FE0929F800D1124682F66956695669584
:1042B000982F977085E0689FB001112440E050E08E
:1042C00080E0FB01E40FF51FE259FD4F208130E053
:1042D000092E02C0369527950A94E2F721703327FC
:1042E000042E01C0220F0A94EAF7822B4F5F5F4F22
:1042F0004530510531F708952FE0929F800D11242C
:10430000E82FE695E695E695877051E001C0550FD8
:104310008A95EAF785E0E89FF0011124E259FD4F04
:1043200020E030E070E04081CB01022E02C0969583
:1043300087950A94E2F781708195842785238427E5
:1043400081932F5F3F4F2530310569F708956093C2
:10435000A0027093A1028093A2029093A3020C94F6
:104360002E280F931F9341E050E060E070E004C0FE
:10437000440F551F661F771F8A95D2F740955095B9
:10438000609570958091A0029091A102A091A202E7
:10439000B091A3028A019B01082319232A233B23FE
:1043A000C901B8011F910F910C94A7212091A4027B
:1043B000809582238093A402982F977079F430E03F
:1043C000482F082E000C550B2417350739F085951A
:1043D000859585950E94B1211092A40208950F93AE
:1043E0001F9341E050E060E070E004C0440F551FAF
:1043F000661F771F8A95D2F78091A0029091A10243
:10440000A091A202B091A3028A019B01082B192B53
:104410002A2B3B2BC901B8011F910F910C94A721A6
:104420006093A9027093AA028093AB029093AC02AE
:104430000C942E2880916D0290913C02891719F0FE
:104440008F5F8770FBCF0895CF9380913B02829559
:104450008F7009F05FC080913802882309F45AC038
:1044600080916D02B0913C0270913602A0913702AA
:104470004091390250913A0291E07F3F09F090E07B
:10448000692FC6E08B1709F445C04115510521F08D
:10449000AF3F21F020E003C021E001C0262F90E0D3
:1044A00020FD35C0C89FF001C99FF00D1124E35CC9
:1044B000FD4F21812A132BC02081271328C0228180
:1044C000211125C0238134812417350710F4215090
:1044D0003109241B350B283C3105C8F420913B02DF
:1044E0002F70206120933B0226E0289FF001299F36
:1044F000F00D1124EE5BFD4F80818F708061808311
:1045000086E392E00E947C0FCF910C941A220196D0
:104510008770B8CFCF910895AF92BF92CF92DF92BC
:10452000EF92FF920F931F93CF93DF93CDB7DEB738
:1045300061970FB6F894DEBF0FBECDBF8C0185E04A
:10454000F801DE011D9601900D928A95E1F7D801E0
:104550003C9111962C9111971296EC905091360245
:10456000609137028091390290913A02009731F0C0
:104570006F3F31F441E05F3F19F403C041E001C0F7
:1045800040E0B42FB170BB2E40FD43C1F801C380A1
:10459000D480A0903802AA2009F4E2C040913B02E6
:1045A000C816D90628F0D601A81BB90BCD0104C046
:1045B000809590958C0D9D1DFF24F394883C91056A
:1045C00048F0F12C407F09F090C086E392E00E9411
:1045D0007C0F17C1842F807F09F052C0621312C074
:1045E000531310C0FE2CE1100DC04F70406140937A
:1045F0003B0286E392E00E947C0F80913B02F8012F
:10460000858348C1CD2831F02F3F31F481E03F3F11
:1046100019F403C081E001C080E080FD03C081E0A7
:104620008E2502C080E090E0F82FF170FF2E80FF11
:104630001CC080916D0240913C0256E0841709F441
:1046400006C190E0589FF001599FF00D1124E35CE2
:10465000FD4F6181261306C06081361303C062815D
:10466000E61203C001968770E9CFFE2CEE2009F414
:1046700011C180913B02816080933B02F12C0AC101
:10468000621308C0531306C0E11004C080913B02BE
:10469000F80199C03D872E878D859E850E9405284B
:1046A000882369F1EE2059F120913B02822F8295F7
:1046B0008F7090E0029774F08091360290913702EB
:1046C00098878F831986DB86CA862C87CE0107964A
:1046D0000E947C0F86E0F801A6E3B2E001900D9203
:1046E0008A95E1F70E9424220DC0621771F03D8780
:1046F0002E878D859E850E94052881111AC0C801CC
:104700000E947C0FFF24F394C5C05313F0CFE11037
:10471000EECF80913B02F8018583C8010E947C0F97
:1047200086E0E6E3F2E0DF011D928A95E9F7FA2CD4
:10473000B1C0EE2021F320913B02822F82958F7031
:1047400090E002973CF280913602909137029A8372
:1047500089831B82DD82CC822E83CE010196B8CF65
:10476000C816D90638F0C81AD90AB8ECCB16D10445
:1047700050F007C0809590958C0D9D1D883C91054B
:1047800010F0F12C3EC0FE2CEE2009F4B8CF6213DD
:1047900027C0531325C020913B0220FD18C0822F53
:1047A00082958F70482F50E04115510581F0F80136
:1047B00025834F30510541F08F5F982F9295907F60
:1047C000822F8F70892B8583C8010E947C0F86E021
:1047D000F801A6E3B2E001900D928A95E1F75AC084
:1047E0003D872E878D859E850E940528811172CF79
:1047F00080913B02816080933B02C8010E947C0F44
:1048000049C0E6E3F2E086E0DF011D928A95E9F710
:1048100041C0EE2009F473CF3D872E878D859E859C
:104820000E940528F82E882309F469CF86E0F80154
:10483000A6E3B2E001900D928A95E1F780913602ED
:10484000909137020E9445210E94242223C03D8777
:104850002E878D859E850E944521292F22952F70B8
:10486000223028F49F7039F0811105C00BC024302C
:1048700028F49F7049F4805E883020F0C8010E94BF
:104880007C0FBF2CFB2C06C0D80115969C91907F05
:1048900091F7F8CF8F2D61960FB6F894DEBF0FBE5B
:1048A000CDBFDF91CF911F910F91FF90EF90DF90DF
:1048B000CF90BF90AF900895809119020895CF9343
:1048C000DF9300D01F92CDB7DEB7909124029430D1
:1048D00019F589837B836A8382E08093E9008FEFF7
:1048E0009091E800815095FD06C095ED9A95F1F7FD
:1048F00000008111F5CF8091E80085FF0DC040E0F8
:1049000050E063E070E0CE0101960E94A51B80910B
:10491000E8008E778093E8000F900F900F90DF9162
:10492000CF910895CF93DF93EC010E941C17823042
:1049300011F0843031F4BE0184E0DF91CF910C940A
:104940005F24DF91CF910895BC0183E00C945F2434
:10495000CF93DF93EC010E941C17823011F084305A
:10496000F9F482E08093E9008FEF9091E8008150A4
:1049700095FD06C095ED9A95F1F700008111F5CFF0
:104980008091E80085FF0CC040E050E066E070E0F8
:10499000CE010E94A51B8091E8008E778093E800ED
:1049A000DF91CF910895CF93DF93EC010E941C1704
:1049B000823011F0843039F581E08093E9008FEF87
:1049C0009091E800815095FD06C095ED9A95F1F71C
:1049D00000008111F5CF8091E80085FF14C040E010
:1049E00050E068E070E0CE010E94A51B8091E800D5
:1049F0008E778093E80088E0FE01AAE1B2E00190A2
:104A00000D928A95E1F7DF91CF910895803F39F4B7
:104A10008091060287FF6CC01092060269C0813F38
:104A200029F4809106021816BCF362C09091050229
:104A3000823F29F497FF5CC01092050259C0833F62
:104A400019F41916CCF354C0893F41F48091070240
:104A500018160CF04DC0109207024AC08A3F29F484
:104A60008091070287FF44C0F6CF8B3F39F48091D5
:104A7000080287FF3DC0109208023AC08C3F29F41B
:104A8000809108021816BCF333C0843F21F4809152
:104A900004028E7F17C0853F21F4809104028D7F30
:104AA00011C0863F21F4809104028B7F0BC0873FA9
:104AB00021F480910402877F05C0883F31F4809102
:104AC00004028F7E8093040213C08D3F21F48091F5
:104AD000B1028E7F0BC08E3F21F48091B1028D7F99
:104AE00005C08F3F29F48091B1028B7F8093B10282
:104AF0008091050281110EC08091060281110AC0C9
:104B000080910702811106C080910802811102C0C4
:104B10001092000208958091B10280FD16C081FDBF
:104B200016C082FD18C080910002882391F088325F
:104B300090F428E0829FC001112468E270E00E9496
:104B4000DC29862F672B29F007C082E0089584E0D6
:104B5000089581E0089588E008958091B10280FD74
:104B600014C081FD14C082FD16C08091000288230C
:104B700081F0843180F422E3829FC001112464E13A
:104B800070E00E94DC29862F08958CE0089589E169
:104B9000089585E0089582E30895803F21F40E94FE
:104BA000AD25819504C0813F29F40E94AD258093F5
:104BB00006020895823F21F40E94AD25819504C02C
:104BC000833F29F40E94AD25809305020895893F13
:104BD00019F40E948B2505C08A3F31F40E948B2571
:104BE00081958093070208958B3F21F40E948B25C5
:104BF000819504C08C3F29F40E948B258093080284
:104C00000895843F21F480910402816017C0853F9C
:104C100021F480910402826011C0863F21F48091CA
:104C2000040284600BC0873F21F4809104028860F5
:104C300005C0883F31F480910402806180930402B2
:104C400008958D3F21F48091B10281600BC08E3FA9
:104C500021F48091B102826005C08F3F29F48091D8
:104C6000B10284608093B102089578941F920F92EC
:104C70000FB60F9211248F939F93AF93BF938091A0
:104C8000AD029091AE02A091AF02B091B002019638
:104C9000A11DB11D8093AD029093AE02A093AF020F
:104CA000B093B002BF91AF919F918F910F900FBEC3
:104CB0000F901F901895CF92DF92EF92FF920F9373
:104CC0001F932FB7F8944091AD025091AE026091BE
:104CD000AF027091B0022FBF6A017B01EE24FF2466
:104CE0008C0120E030E0C016D106E206F30610F495
:104CF000415051099A01281B390BC9011F910F918D
:104D0000FF90EF90DF90CF9008952FB7F8948091A7
:104D1000AD029091AE02A091AF02B091B0022FBF50
:104D2000089580910A0283FF7EC081EB9AE00E9481
:104D3000BF05809104021F928F938CEA9AE09F93A3
:104D40008F930E9458068AEA9AE00E94BF058091DC
:104D50000502282F082E000C330B3F938F9387EA10
:104D60009AE09F938F930E94580685EA9AE00E94EA
:104D7000BF0580910602282F082E000C330B3F93AD
:104D80008F9382EA9AE09F938F930E94580680EA5D
:104D90009AE00E94BF0580910702282F082E000C80
:104DA000330B3F938F938DE99AE09F938F930E94EB
:104DB00058068BE99AE00E94BF0580910802282FCF
:104DC000082E000C330B3F938F9388E99AE09F9352
:104DD0008F930E94580685E99AE00E94BF05809152
:104DE00000021F928F9382E99AE09F938F930E9413
:104DF000580680E99AE00E94BF058091B1021F9297
:104E00008F938DE89AE09F938F930E9458068AE8CB
:104E10009AE00E94BF058DB79EB74C960FB6F894E6
:104E20009EBF0FBE8DBFE091E201F091E30130978C
:104E300049F082E0809303020480F581E02D83E055
:104E400092E009950E9485269093FF018093FE01D0
:104E500008951F920F920FB60F9211248F939F9374
:104E6000AF93BF938091E401811113C08091AD0293
:104E70009091AE02A091AF02B091B0024196A11DF7
:104E8000B11D8093AD029093AE02A093AF02B09398
:104E9000B002BF91AF919F918F910F900FBE0F9075
:104EA0001F9018959C012A5F3F4FFC0142814613D9
:104EB00001C01282019682179307B9F708959C01E9
:104EC000FC0132969FEF80E04191461789F09F3FA9
:104ED00019F4411101C0982F8F5F8630A9F79F3FC9
:104EE00039F0F901E90FF11D97FDFA9562830895F4
:104EF0000895CF9384E090E00E947429C82F81E246
:104F000090E00E9474292C2F30E0A901582BCA018F
:104F1000CF9108956CEE7EEF80E090E00E94A6298C
:104F200060E082E090E00E94882960E083E090E009
:104F30000E9488291092A9021092AA021092AB0234
:104F40001092AC0260E084E090E00E94882960E06A
:104F500081E290E00E94882960E085E090E00E9474
:104F6000882960E086E090E00E9488296FEF87E062
:104F700090E00E94882940E050E0BA0188E090E08B
:104F80000E949A2960E08DE090E00E94882940E02C
:104F900050E0BA0188E190E00E949A2960E087E140
:104FA00090E00E94882940E050E0BA018CE190E056
:104FB0000E949A2960E080E290E00E94882940E007
:104FC00050E0BA018FE090E00E949A2940E050E062
:104FD000BA0183E190E00C949A298295982F9373FB
:104FE00044E0949F900111248C7C86958695282B13
:104FF000822F8575880F2A7A2695822B08958091B5
:10500000A80281111092A80208950E944521292F1B
:105010002F70E92FE295EF704E2F50E0FA01329792
:10502000EE30F105B8F4E058FF4F0C94F029803FC2
:1050300099F018F4883E70F40FC0843F59F40CC006
:10504000883E50F0813F31F407C0822F86958695C7
:105050008695089580E0089581E008951092A60253
:105060001092A5020E949920E3E0F2E086E0DF01C1
:105070001D928A95E9F7109200021092B1020E94E7
:10508000912680E090E00E94EB0780E090E00C9495
:10509000D5071092A70286E0E0E3F2E0DF011D925F
:1050A0008A95E9F70C942E28882341F080959091F9
:1050B000A70289238093A7020C949920089588233E
:1050C00039F09091A702892B8093A7020C94992024
:1050D0000895882309F463C0823869F40E940108A6
:1050E00081FF5DC069E38EE292E00E945F270E942B
:1050F000992069E30EC0833891F40E94010880FF73
:105100004EC063E58EE292E00E945F270E949920E4
:1051100063E58EE292E00E9452270C949920843835
:1051200069F40E94010882FF3AC067E48EE292E0CF
:105130000E945F270E94992067E4EBCF9CEF980FB5
:10514000913A10F4682FE5CF90E2980F983088F4E8
:10515000877021E030E0A90102C0440F551F8A95F5
:10516000E2F7CA0180959091A70289238093A70254
:10517000D4CF9BE5980F933020F480E090E00C941E
:10518000EB0798E5980F973120F480E090E00C94BD
:10519000D507803F20F00E9406250C9491260895A3
:1051A000CF93882309F49EC0C82F8238B1F40E949F
:1051B000010881FD97C069E38EE292E00E945F27BB
:1051C0000E9499202FEF81EE94E021508040904082
:1051D000E1F700C0000069E317C08338E1F40E94E2
:1051E000010880FD7FC063E58EE292E00E945F27A8
:1051F0000E9499202FEF81EE94E021508040904052
:10520000E1F700C0000063E58EE292E00E945227C1
:10521000CF910C9499208438B1F40E94010882FD4A
:1052200061C067E48EE292E00E945F270E949920AD
:105230002FEF81EE94E0215080409040E1F700C0D4
:10524000000067E4E1CF8CEF8C0F813A80F4E0E35B
:10525000F2E086E392E02191C217E1F18E179F07F9
:10526000D1F76C2F8EE292E00E945F27D1CF80E2CF
:105270008C0F883068F4C77081E090E001C0880F1F
:10528000CA95EAF79091A702892B8093A702C0CF15
:10529000EBE5EC0FE33040F4F0E0E05AFE4F8081A4
:1052A00090E0CF910C94EB07E8E5EC0FE73150F478
:1052B000F0E0EE0FFF1FED59FE4F80819181CF91FD
:1052C0000C94D507C03F70F08C2F0E94CD25CF9154
:1052D0000C9491266C2F8EE292E00E9452270E943D
:1052E0009920BFCFCF910895F999FECF92BD81BD8E
:1052F000F89A992780B50895A6E1B0E044E050E01F
:105300000C94AE29A8E1B0E042E050E00C94AE2944
:10531000262FF999FECF92BD81BDF89A019700B46E
:10532000021639F01FBA20BD0FB6F894FA9AF99A0E
:105330000FBE08950396272F0E9489290E9488296D
:10534000252F0E948929242F0C9489290196272F23
:105350000E9489290C948829DC01CB01FC01F99970
:10536000FECF06C0F2BDE1BDF89A319600B40D92B1
:1053700041505040B8F70895991B79E004C0991F37
:10538000961708F0961B881F7A95C9F7809508959F
:10539000AA1BBB1B51E107C0AA1FBB1FA617B7075B
:1053A00010F0A61BB70B881F991F5A95A9F7809577
:1053B0009095BC01CD01089597FB072E16F400943B
:1053C00007D077FD09D00E94C82907FC05D03EF41C
:1053D000909581959F4F0895709561957F4F0895A1
:1053E000EE0FFF1F0590F491E02D0994FC01415050
:1053F000504030F001900616D1F73197CF01089553
:0A540000882799270895F894FFCF3C
:10540A0001191A1B1C1D1E1F20212201025C24D314
:10541A0024A824A4249224010001020202020606FE
:10542A00060909090909090F0F0F0F0F0F1515159D
:10543A00181919191919191919191923243033673F
:10544A003666F6F5F4F1C695939291909496973450
:10545A003540812285090409E208EB09040A1D0A7C
:10546A00818283E200E900EA00B500B600B700CD08
:10547A00008301CC008A01920194012102230224B3
:10548A00022502260227022A02B300B4006F007026
:02549A00000010
:00000001FF
