:100000000C941F050C9466050C9466050C9466050B
:100010000C9466050C9466050C9466050C946605B4
:100020000C9466050C9466050C94981E0C94D41DD3
:100030000C9455260C9466050C9466050C94660584
:100040000C9466050C9466050C9466050C94660584
:100050000C9466050C9461250C9466050C94660559
:100060000C9466050C9466050C9466050C94660564
:100070000C9466050C9466050C9466050C94660554
:100080000C9466050C9466050C9466050C94660544
:100090000C9466050C9466050C9466050C94660534
:1000A0000C9466050C9466050C9466051311821178
:1000B00087118C11911196119B11A011A511AA11F4
:1000C000AF11C611C911CC11CF11D211D511D81150
:1000D000DB11F011BB12BB12F512F51248136413B9
:1000E0002D152D15A613841495149514E21B091CC7
:1000F000B61D091CB61D551C781CB61D791D881D22
:1001000043274327562756274C2756275627562737
:10011000432743275127562756275127000101011E
:1001200001010101010102020202020202020203B4
:100130000303030303030304040404040404050584
:100140000505050606060606070707070708080847
:1001500008090909090A0A0A0B0B0B0C0C0C0D0DF6
:100160000D0E0E0E0F0F0F1010111111121213138E
:100170001414151516161717181819191A1A1B1B07
:100180001C1D1D1E1E1F2020212222232424252663
:1001900026272829292A2B2C2D2D2E2F303132329B
:1001A000333435363738393A3B3C3D3E3F404142A7
:1001B000434445464748494A4C4D4E4F505153548D
:1001C000555658595A5B5D5E5F6162646566686941
:1001D0006B6C6D6F7072737577787A7B7D7E8082C1
:1001E000838587888A8C8E8F91939596989A9C9E0A
:1001F000A0A2A3A5A7A9ABADAFB1B3B5B7BABCBE1A
:10020000C0C2C4C6C9CBCDCFD1D4D6D8DBDDDFE2E6
:10021000E4E7E9EBEEF0F3F5F8FAFDFF7267626CE4
:10022000696768742074696D657220656E61626CBF
:1002300065642E0A007267626C69676874206D6F6E
:100240006465205B4E4F454550524F4D5D3A202529
:10025000750A007267626C69676874206D6F646507
:10026000205B454550524F4D5D3A2025750A00727E
:1002700067626C69676874207365742068737620A0
:100280005B4E4F454550524F4D5D3A2025752C250C
:10029000752C25750A007267626C69676874207333
:1002A000657420687376205B454550524F4D5D3A2A
:1002B0002025752C25752C25750A007267626C69DE
:1002C000676874207261696E626F7720736574204D
:1002D0006873763A2025642C25642C25642C2575BA
:1002E0000A00FFAA7F55407267626C6967687420D4
:1002F00074696D65722064697361626C652E0A00B1
:100300002223252628292A2C2D2F30323335363822
:100310003A3B3D3E4042434547494A4C4E5051537B
:100320005557595A5C5E6062646668696B6D6F719F
:10033000737577797B7D7F81838587898A8C8E90A1
:10034000929496989A9C9E9FA1A3A5A7A8AAACAEAA
:10035000AFB1B3B4B6B8B9BBBCBEBFC1C2C3C5C6EA
:10036000C7C9CACBCCCDCED0D1D2D2D3D4D5D6D793
:10037000D7D8D9D9DADADBDBDBDCDCDCDCDCDDDDD1
:10038000DDDDDCDCDCDCDCDBDBDBDADAD9D9D8D7C1
:10039000D7D6D5D4D3D2D2D1D0CECDCCCBCAC9C763
:1003A000C6C5C3C2C1BFBEBCBBB9B8B6B4B3B1AF9A
:1003B000AEACAAA8A7A5A3A19F9E9C9A989694923A
:1003C000908E8C8A89878583817F7D7B7977757311
:1003D000716F6D6B6968666462605E5C5A595755EF
:1003E0005351504E4C4A4947454342403E3D3B3AAB
:1003F0003836353332302F2D2C2A29282625232232
:1004000029001E001F00200021002200300001539F
:1004100002532300240025002600270031002B0072
:100420001400070015001A0005002F004B003500CE
:100430000D000900180013003300340039000400D7
:1004400016000B0017000A004A004E004D001C0069
:100450001100080012000C002800E1001D001B0024
:100460001000060019000063520028000E000F0063
:100470003600370038004C00E000E300E6002E00B4
:10048000E1002A00500051004F002C00E5002D0033
:100490004600E4003E0000003A003B003C003D0006
:1004A0003E0000000100010000005F0060006100EC
:1004B00062000000000000000000000000000000DA
:1004C00000000000000000005C005D005E00000015
:1004D000000000000000000000000000000000001C
:1004E00000000000000059005A005B0000000100FD
:1004F00000000000000000000000000000000100FB
:100500000100000000006200630000000100010023
:1005100000000000010001000100010001000100D5
:1005200001000100010000000000010001000100C5
:1005300001000100010001000100010001000100B3
:1005400001000100010001000100010014001A0077
:100550000800150017000100010001001C00180030
:100560000C00120013000100010004001600070037
:1005700009000A000100010001000B000D000E003F
:100580000F003300010001001D001B0006001900D0
:1005900005000100010001001100100036003700C5
:1005A000380001000100010001000100010001000C
:1005B0000100010001000100010001000100010033
:1005C00001007267626C69676874206469736162B4
:1005D0006C65205B454550524F4D5D3A2072676215
:1005E0006C696768745F636F6E6669672E656E61BC
:1005F000626C65203D2025750A007267626C696730
:10060000687420656E61626C65205B454550524F91
:100610004D5D3A207267626C696768745F636F6EE4
:100620006669672E656E61626C65203D2025750ADE
:10063000007267626C6967687420746F67676C65C5
:10064000205B454550524F4D5D3A207267626C69A0
:100650006768745F636F6E6669672E656E61626C52
:1006600065203D2025750A0044454255473A2064DF
:10067000697361626C65642E0A0044454255473ACD
:1006800020656E61626C65642E0A007267626C6937
:100690006768745F636F6E6669672E737065656403
:1006A000203D2025640A007267626C696768745F88
:1006B000636F6E6669672E76616C203D2025640A43
:1006C000007267626C696768745F636F6E66696702
:1006D0002E736174203D2025640A007267626C6984
:1006E0006768745F636F6E6669672E687565203D25
:1006F0002025640A007267686C696768745F636FBD
:100700006E6669672E6D6F6465203D2025640A0062
:100710007267626C696768745F636F6E6669672E83
:10072000656E61626C65203D2025640A0072676217
:100730006C696768745F636F6E66696720454550D2
:10074000524F4D3A0A007267626C696768745F695C
:100750006E6974207267626C696768745F636F6E3C
:100760006669672E6D6F6465203D20302E205772BC
:100770006974652064656661756C742076616C755A
:10078000657320746F20454550524F4D2E0A0072FC
:1007900067626C696768745F696E69742065656318
:1007A0006F6E666967206973206E6F7420656E6175
:1007B000626C65642E0A007267626C696768745FB8
:1007C000696E6974207374617274210A00726762C1
:1007D0006C696768745F696E69742063616C6C65CD
:1007E000642E0A000A002530313662003A200025C6
:1007F000303258000A722F632030313233343536AC
:100800003738394142434445460A0000047F3F1FC0
:10081000643214643214783C1E1E140A050A002542
:10082000303258006B6579626F6172645F73657412
:100830005F6C65643A20005B735D004B6579626FA5
:100840006172642073746172742E0A000631FF09AC
:1008500074A1010975150026FF0095207508810215
:100860000976150026FF00952075089102C0050144
:100870000902A10185020901A10005091901290543
:10088000150025019505750181029501750381010A
:100890000501093009311581257F9502750881060A
:1008A00009381581257F950175088106050C0A38E0
:1008B000021581257F950175088106C0C0050109D3
:1008C00080A101850319012AB700150126B70095FB
:1008D0000175108100C0050C0901A10185041901F1
:1008E0002AA002150126A002950175108100C005FD
:1008F000010906A101050719E029E7150025019561
:100900000875018102950175088101050719002903
:10091000FF150026FF0095067508810005081901DE
:100920002905950575019102950175039101C05B3B
:10093000435D005B445D005B535D005B575D005BA6
:10094000525D0009025B00030100A0FA09040000E7
:1009500001030101000921110100012240000705E6
:10096000810308000A0904010001030000000921B5
:10097000110100012281000705820320000A0904F9
:1009800002000203000000092111010001222200DF
:10099000070583032000010705030320000112015E
:1009A00010010000000864697500010001020301E4
:1009B0000403300000000C03490064006F00620073
:1009C0006F0000001003470065006E0065007200B4
:1009D000690063000000040309040A00253032584E
:1009E00020006B6579626F6172645F7265706F720F
:1009F000743A2000290A002575002F002575005D36
:100A000028002564002000256400200025640020C3
:100A1000002564007C0025303258006D6F757365C9
:100A20006B6579205B62746E7C7820792076206813
:100A30005D287265702F61636C293A205B00112478
:100A40001FBECFEFDAE0DEBFCDBF04B603FE27C086
:100A50008091AE029091AF02A091B002B091B1022C
:100A60008730904BA740B04BD1F41092AE02109259
:100A7000AF021092B0021092B10214BE84B7877F09
:100A800084BF0FB6F894A895809160008861809328
:100A90006000109260000FBEE0E0F8E3099511E0FD
:100AA000A0E0B1E0E4E3F2E502C005900D92A239C6
:100AB000B107D9F722E0A2E9B1E001C01D92AE3A38
:100AC000B207E1F70E94BF160C9418290C9400009D
:100AD000FF93EF93E0919201F0919301309709F029
:100AE0000995EF91FF910895FC018591803011F0F7
:100AF000EFDFFBCF0895FF27E0E230E247FF0CC0B5
:100B0000419597FF09C0EDE26095709580959095AD
:100B1000611D711D811D911D27FF02C0219530E3CC
:100B200050E2AA27660F771F881F991FAA1FA417D4
:100B300010F0A41B63955A95A9F7AA3008F0A95F95
:100B4000A05DAF93F395611571058105910541F79E
:100B5000ED3211F4EF93F395F21718F43F93F395F8
:100B6000FBCF8F91B5DFFA95E1F70895E991F991FF
:100B70008591803021F0853219F0AADFF9CF0895F0
:100B800020E0E89455915532C1F3503311F4689444
:100B900055915A3348F4505390F3220F022E220FEE
:100BA000220F200D250FF4CF0EF4219589919991F4
:100BB000533619F3533729F1533559F1BC018827BE
:100BC0009927E8945C3621F489919991689455911C
:100BD000543639F446EF7EF077FF0DC08FEF9FEF6C
:100BE0000AC055374AE039F0583540E121F0523615
:100BF00042E009F00895FF93EF937DDFEF91FF91BD
:100C0000B7CFFF93EF93FC0181918030B9F360DFA0
:100C1000FBCFFF93EF9368DFF1CFDF93CF93CDB797
:100C2000DEB72596A3DFCF91DF9108950895BF9297
:100C3000CF92DF92EF92FF920F931F93CF93DF93A8
:100C4000E82EF62EE901E42FF0E0611106C0E45E23
:100C5000FE4F8491B82EE82F71C0262F30E0E45E5D
:100C6000FE4FE491FE2FCE2ED12C46E0849FC00192
:100C700011240FEF10E0B8010E94DD284BEA460373
:100C8000C001479F900D11248E0D911D8E0D911D59
:100C9000982F990F890FD801A21BB30BAC9DA0010F
:100CA000AD9D500DBC9D500D1124B52EF89ED00168
:100CB0001124AB2FBB277801EA1AFB0AEC9CD00168
:100CC000ED9CB00DFC9CB00D11247801E81AF108E0
:100CD000E29EC001E39E900DF29E900D1124892F9B
:100CE0009927081B190B0C9D90010D9D300D1C9D23
:100CF000300D1124832F6230710591F048F4611595
:100D00007105E1F061307105B9F48E2FEB2F16C03B
:100D10006430710569F040F06630710579F00CC0FF
:100D20008E2FE52FB32E0AC0E52FBF2E8B2F06C0C6
:100D3000852FBE2EE32F02C0852FBB2EE98388832B
:100D4000BA82DF91CF911F910F91FF90EF90DF90CA
:100D5000CF90BF9008959091DF0192FF0DC0282F92
:100D60002871283019F4877F846006C0282F2471E9
:100D7000243011F48B7F886093FF0DC0282F2871D9
:100D8000283119F4877E846106C0282F247124310C
:100D900011F48B7E88612091E00120FF0DC0382F77
:100DA0003871383019F4877F816006C0382F31716F
:100DB000313011F48E7F886021FF0DC0282F2871FB
:100DC000283119F4877E816106C0282F21712131D5
:100DD00011F48E7E886194FD877E08951F93CF93D2
:100DE000DF93CDB7DEB767970FB6F894DEBF0FBEBF
:100DF000CDBF4B8B5C8B6D8B7E8B8F8B86E09E018A
:100E0000235F3F4FD901E82F1D92EA95E9F795E05E
:100E1000FE017396D90101900D929A95E1F7F901BF
:100E2000DE01179601900D928A95E1F7CE010796A3
:100E30000E94B82181113EC086E0FE013796DE0196
:100E4000119601900D928A95E1F7FF81E8856A85F8
:100E50007B856115710531F0EF3F31F481E0FF3F93
:100E600019F403C081E001C080E080FD23C020911F
:100E7000380230E0C90101968770992740916902D4
:100E800050E08417950779F1F983EA837D836C83B9
:100E900096E0929FD001939FB00D1124A75CBD4FA7
:100EA000FE01319601900D929A95E1F780933802F8
:100EB0000E94462116E080916902909138028917BC
:100EC000F9F0189FC0011124875C9D4F0E94B82142
:100ED0008823B1F08091690290E00196877099278C
:100EE00080936902E8CF0E94752710923802109211
:100EF0006902E2E3F2E086E0DF011D928A95E9F7FC
:100F000067960FB6F894DEBF0FBECDBFDF91CF91CD
:100F10001F9108952091CE013091CF0128173907F4
:100F200071F09093CF018093CE01E091E201F091B6
:100F3000E301309721F00084F185E02D09940895B4
:100F40002091CC013091CD012817390771F0909391
:100F5000CD018093CC01E091E201F091E301309763
:100F600021F00680F781E02D09940895E091E201D7
:100F7000F091E301309721F00190F081E02D099488
:100F800080E008950F931F93CF93DF93C62FD42F44
:100F9000122FFC0182818823C9F06093D0010E9446
:100FA000B1259093CB018093CA0180E28C0F8830E9
:100FB00008F05EC0C77081E001C0880FCA95EAF7EB
:100FC000DF91CF911F910F910C948B278091D001CD
:100FD00068133EC08091CA019091CB010E94872581
:100FE000883C9105A8F500E20D0FCD17B9F080E21D
:100FF0008C0F883040F4C77081E001C0880FCA951B
:10100000EAF70E948027083048F481E09D2F97700E
:1010100001C0880F9A95EAF70E948B27812F0E94C2
:10102000FC27193349F4FFEF27EE83E0F15020400D
:101030008040E1F700C00000812F0E949527083012
:10104000B8F4D77081E001C0880FDA95EAF70AC0DA
:1010500080E28C0F883060F4C77081E001C0880F97
:10106000CA95EAF7DF91CF911F910F910C948027D9
:10107000DF91CF911F910F910895882311F0FA010C
:1010800001C0FB0109941092FB018091060280FFD0
:1010900008C087EE92E09F938F930E940D060F90F9
:1010A0000F9008958091F50180FF0AC0809A81B366
:1010B0008E7F91B391602FB7F894EAE9F1E00BC00D
:1010C000EAE9F1E0118210821282339631E0EA3CC3
:1010D000F307C1F7EBCF31E0EA3CF30789F0319138
:1010E00048E091BB000000C037FF81BB330F000018
:1010F00000C000C000C081BB00C04A9591F7EBCF93
:101100002FBF87EC90E00197F1F700C00000089531
:10111000EF92FF920F931F93CF93DF938C01CAE955
:10112000D1E0E12CF12CF8018481F8E0EF16F10414
:101130001CF4882339F002C0811104C09E01409143
:10114000F80102C09E0140E06091F7018091F60134
:101150000E9417068FEFE81AF80A239690E1E91625
:10116000F10409F70E945208F801848190E0019689
:10117000817099278483DF91CF911F910F91FF9008
:10118000EF900895EF92FF920F931F93CF93DF9309
:10119000EC018C819D810196817099279D838C83C0
:1011A0008AE9E82E81E0F82E10E005E5212F26954A
:1011B0008C819D81820F911D817097014091F80172
:1011C0006091F701809F802D11240E9417061F5FF8
:1011D00083E0E80EF11C103149F7DF91CF911F91A8
:1011E0000F91FF90EF900C9452080F931F93CF93A1
:1011F000DF93CAE9D1E0FE01118210821282339698
:1012000081E0EA3CF807C1F700E010E08091980126
:10121000082E000C990B0817190794F080910C0107
:10122000082E000C990B8017910754F09E014091F5
:10123000F8016091F7018091F6010E94170603C042
:10124000198218821A820F5F1F4F239600311105F1
:10125000E9F60E94520880910B0190919801980F35
:101260009093980120910C01280F20930C011216E5
:1012700014F49F301CF0819580930B01DF91CF9186
:101280001F910F910895CF92DF92EF92FF920F93EB
:101290001F93CF93DF93FC01828180FF03C0DD2485
:1012A000DA9402C0DD24D394CAE9D1E000E010E072
:1012B000198218821A8294E0E92EF12CC12C8091B7
:1012C00097018C0D813114F08F7002C087FD805F13
:1012D000082E000C990B0817190791F48091F8015A
:1012E0008E9DA0018F9D500D1124559547955595C4
:1012F00047959E016091F7018091F6010E941706C3
:10130000CD0CF1E0EF1AF108D1F60F5F1F4F2396D5
:101310000031110569F60E9452088091970191E011
:10132000D91206C0811102C08FE006C0815004C0EE
:1013300090E001968F70992780939701DF91CF916C
:101340001F910F91FF90EF90DF90CF900895EF9253
:10135000FF921F93CF93DF93EC018AE9E82E81E09F
:10136000F82E10E08C8197014091F8016091F7010F
:10137000810F0E941706115F83E0E80EF11C103FF9
:1013800089F70E9452089A818C8190FF02C08F5F7A
:1013900001C081508C83DF91CF911F91FF90EF901E
:1013A00008959091F50190FF0CC0EAE9F1E0818386
:1013B00060834283339691E0EA3CF907C1F70C94CD
:1013C000520808950F931F93CF93DF9300D01F927D
:1013D000CDB7DEB78C018091990181110AC09E01C1
:1013E0002F5F3F4F4FEF6FEF0E9417068A81809368
:1013F0009901F8018481813051F028F0823061F444
:10140000409199010AC08091990140E007C0609124
:10141000990140E080E003C040E080E060E00E948D
:10142000D109F801848190E0019663E070E00E94A8
:10143000F12884830F900F900F90DF91CF911F912F
:101440000F910895CF93DF9300D01F92CDB7DEB7F1
:101450009091F50190FF0AC09E012F5F3F4F0E94BF
:1014600017064B8169818A810E94D1090F900F90E4
:101470000F90DF91CF910895CF93DF93EC01E5EFCB
:10148000F1E0438162818C810E94220A8C818F5F0E
:101490008C83DF91CF910895CF93DF93EC01EC81A2
:1014A000F0E0E050FD4F4491E5EFF1E06281818191
:1014B0000E94220A8C818F5F8C83DF91CF910895E7
:1014C0008091F501282F269530E02115310519F47A
:1014D0008170826005C02532310524F081708864F6
:1014E0008093F5010895CF92DF92EF92FF926B0106
:1014F0007C010E94600AB701A60188E090E0FF909D
:10150000EF90DF90CF900C94AF283F924F925F9274
:101510006F927F928F929F92AF92BF92CF92DF9203
:10152000EF92FF920F931F93CF93DF9300D01F9200
:10153000CDB7DEB7182F762E042F422E9091F501ED
:1015400090FFB2C0E92FE695AE2FB0E0A85EBE4F87
:101550008C918093FA019E7F923061F49E012F5FFF
:101560003F4F812F0E9417064B8169818A810E941B
:10157000D10960C0823019F40091F8015BC0863057
:1015800019F41091F60156C08930D9F3893109F068
:1015900051C0E9518E2F8170582E81E0652C68264C
:1015A000E695F0E0EE51FD4FC590D4903AE9A32EB8
:1015B00031E0B32EE12CF12CDD244BEB842E42E004
:1015C000942EEC9CC001ED9C900DFC9C900D112480
:1015D00024E0969587952A95E1F7312E511002C0A7
:1015E000380E01C0381A8091060280FF11C0DF92C8
:1015F000CF921F926F921F923F92FF92EF929F9213
:101600008F920E940D060FB6F894DEBF0FBECDBFBD
:101610009501402F672D832D0E9417069FEFE91A31
:10162000F90A83E0A80EB11C90E1E916F10449F62D
:101630000E9452081093F6017092F7010093F8018E
:101640004420E9F06091F5017091F6018091F70175
:101650009091F8010E94730A8091060280FF24C0D5
:101660008091F8011F928F938091F7011F928F93C1
:101670008091F6011F928F9386E992E00CC08091D1
:10168000060280FF11C01F920F931F927F921F923C
:101690001F938FE692E09F938F930E940D060FB6E3
:1016A000F894DEBF0FBECDBF0F900F900F90DF916B
:1016B000CF911F910F91FF90EF90DF90CF90BF904F
:1016C000AF909F908F907F906F905F904F903F90E2
:1016D0000895E5EFF1E0438128E0421B08F440E083
:1016E00021E0628181810C94850AE5EFF1E043817C
:1016F00028E0420F08F44FEF21E0628181810C94D1
:10170000850AE5EFF1E0628128E0621B08F460E001
:1017100021E0438181810C94850AE5EFF1E062814B
:1017200028E0620F08F46FEF21E0438181810C947F
:10173000850AE5EFF1E0818121E0438162818850F3
:101740000C94850AE5EFF1E0818121E0438162811B
:10175000885F0C94850A8091F901882319F08150E3
:101760008093F9016091F5017091F6018091F70184
:101770009091F8010C94730A8091F901833018F468
:101780008F5F8093F9016091F5017091F60180916E
:10179000F7019091F8010C94730A9091F50190FF74
:1017A00068C09170811102C0926006C0853210F04D
:1017B000986402C0880F982B9093F5016623B1F0CE
:1017C0006091F5017091F6018091F7019091F80117
:1017D0000E94730A8091060280FF1BC08091F50170
:1017E00086951F928F9383E592E00BC0809106024D
:1017F00080FF0FC08091F50186951F928F9385E33E
:1018000092E09F938F930E940D060F900F900F9080
:101810000F906091F501669570E04BE050E080E03C
:1018200091E00E940B29892B19F00E94430815C0F2
:1018300081E08093FB010E94B1259093F001809399
:10184000EF018091060280FF08C08CE192E09F9337
:101850008F930E940D060F900F9081E08093F2010C
:1018600020E04091F8016091F7018091F6010C941D
:10187000850A08958091F5018695815009F484E2E6
:1018800061E00C94CD0B8091F50186958F5F8532D8
:1018900008F081E061E00C94CD0B9091F50190FF90
:1018A00004C09695981740F003C0811105C090E0E0
:1018B000961710F40C94430C61E00C94CD0BE5EFFB
:1018C000F1E083E0808311828FEF8283838314822F
:1018D00060817181828193810C94730A5F926F920F
:1018E0007F928F929F92AF92BF92CF92DF92EF92B0
:1018F000FF920F931F93CF93DF936DE371E0A5EDFC
:10190000B1E0612C01E010E05D018D909C90119799
:1019100011961C921E92EB018991BE01E82FE2956F
:10192000EF70F0E021A18F70A80102C0440F551F95
:101930008A95E2F7CA01242B21A322A1542E5094A8
:10194000252122A350EA5A95F1F792E4E92E91E07D
:10195000F92E40E050E0E70179907E01272D229595
:101960002F7030E0E90128A1CD90DC90119730E094
:10197000D72DDF7002C035952795DA95E2F720FD67
:1019800008C09801042E02C0220F331F0A94E2F708
:1019900002C020E030E0C22AD32A1196DC92CE9217
:1019A0004F5F5F4F4F305105B1F691A1D52DD9232F
:1019B000D1A392A1892B82A3129681E0F501208107
:1019C00031812815390509F480E0682AF1E0AF3D3E
:1019D000BF0709F099CF662049F081E08093960116
:1019E0000E94B12590939501809394018091960176
:1019F000882391F180919401909195010E9487250F
:101A0000069750F18091D5019091D6019093E6010F
:101A10008093E5018091D7019091D8019093E801DE
:101A20008093E7018091D9019091DA019093EA01C6
:101A30008093E9018091DB019091DC019093EC01AE
:101A40008093EB018091DD019091DE019093EE0196
:101A50008093ED0110929601862DDF91CF911F9119
:101A60000F91FF90EF90DF90CF90BF90AF909F903D
:101A70008F907F906F905F900895CF93DF932BE4CA
:101A8000829FC0011124FC013FE0739FE00DF11D16
:101A90001124E60FF11DEE0FFF1FE050FC4FC59122
:101AA000D491CE01C238D10569F1B0F4C133D1056A
:101AB00009F475C048F4C932D10509F469C0CA32C5
:101AC000D10509F473C085C0C533D10509F459C0E7
:101AD000C933D105B9F07DC0C33ED10571F138F4E9
:101AE000C03ED105B1F0C23ED10511F172C0C63E73
:101AF000D105B9F1C73ED105C9F1C43ED10509F000
:101B000068C024C02091DF0120FD5DC021FD5BC0C5
:101B100060C02091DF0120FD50C02091E00120FF36
:101B200067C18091DF0184FD61C183EE90E060C1F7
:101B30002091DF0122FF5CC1F4CF8091DF0182FDA3
:101B40003FC08091E00180FD3EC0EBCF2091E001DD
:101B500021FF4EC18091DF0184FD48C187EE90E0F6
:101B600047C12091DF0123FF43C1F4CF8091DF0102
:101B700083FD2CC08091E00181FFECCF84EE90E0EA
:101B800037C12091DF0125FF33C189E290E030C1E8
:101B90002091DF0125FF2CC185E390E029C1209130
:101BA000DF0126FF25C18AE290E022C12091DF01FA
:101BB00026FF1EC181E390E01BC189E390E018C1BC
:101BC00082EE90E015C180EE90E012C186EE90E0CA
:101BD0000FC1C11530E5D30708F067C0C11540E457
:101BE000D40720F0CE019F70906A02C1C83ED10593
:101BF000B8F5C03ED10508F0FBC0C83AD105B8F42D
:101C0000C53AD10550F08C2F855AE82FF0E0E05A04
:101C1000FE4F808190E09064EBC0C130D10509F4A3
:101C2000E7C008F4E3C0249708F4E0C0E1C0CF3B6C
:101C3000D10560F48C2F885AE82FF0E0EE0FFF1FDB
:101C4000ED59FE4F808191819464D2C0C03CD10592
:101C500008F4CCC0FE01EE0FFF1FE456F0400EC0AA
:101C6000C11520E2D20768F0C11540E3D407A8F4FB
:101C7000FE01FF70EE0FFF1FE45EFE4F8591949111
:101C8000B7C0C11531E0D30708F0B2C0C03FD105DD
:101C900008F4ACC0CE019065ABC0CE019927D3FF4C
:101CA00002C0986CA5C0906CA3C0C11585E5D8078B
:101CB00008F05BC0C11524E5D20728F09C2F8827C7
:101CC000846F906A95C0C11532E5D30738F5C11508
:101CD00041E5D407F0F4CE0174E0969587957A95A6
:101CE000E1F7282F23703C2F337081E090E002C091
:101CF000880F991F3A95E2F79C68922BEC2FEF70B2
:101D0000E695E69540E2E49FF00111248E2B9F2B8F
:101D10006FC09C2F8827816F906A6AC0AE014370A4
:101D200055272C2F26952695C115D34578F481E0AB
:101D300090E002C0880F991F4A95E2F740E2249F85
:101D400090011124822B932B9C6852C081E090E07B
:101D500002C0880F991F4A95E2F740E2249F900144
:101D60001124822B932B9A6843C0C11529E5D20711
:101D7000B0F4C11538E5D30728F09C2F8827806F71
:101D8000906A36C0C11546E5D40780F58C2F0E94B5
:101D9000AB068F7190E0982F8827906229C0C115FB
:101DA0008AE5D80790F48C2F8F700E94AB06FE0155
:101DB00094E0F695E7959A95E1F7EF70F0E0FE2F45
:101DC000EE27F0699F01282B0FC0CE019056811598
:101DD000904260F48D2F8F710E94AB06FE01FF27A9
:101DE000F0628F719F01382BC90102C080E090E042
:101DF000DF91CF9108958F929F92AF92BF92CF9231
:101E0000DF92EF92FF920F931F93CF93DF9300D057
:101E100000D01F92CDB7DEB7FC010081D180838155
:101E20009481892B39F01FEFD11206C091E00F3F4A
:101E300019F403C091E001C090E090FD3EC67F011F
:101E400085E0DE01119601900D928A95E1F7F70188
:101E5000228189819A81222349F00E942F20182F04
:101E6000682F89819A810E94A82003C00E947C204B
:101E7000182F2BE4129FF00111243FE0D39EE00DB8
:101E8000F11D1124E00FF11DEE0FFF1FE050FC4F7C
:101E900005911491033F8CE51807A9F180F4083DE2
:101EA000ECE51E07C9F0093DFCE51F07C1F1073D40
:101EB0002CE51207B9F526E241EE61EE10C0053FB0
:101EC0003CE5130741F118F1063F9CE5190751F570
:101ED00027E245EE66EE03C027E245EE65EEC70158
:101EE0000F900F900F900F900F90DF91CF911F9157
:101EF0000F91FF90EF90DF90CF90BF90AF909F90A9
:101F00008F900C94C20726E241EE60EEE8CF27E204
:101F100045EE64EEE4CF26E241EE62EEE0CF28E249
:101F200041E0DCCFF7019281992309F44FC110926F
:101F3000D0010230FCE51F0708F432C106312CE560
:101F4000120738F098012A5F3C452930310508F026
:101F500027C10E94A5269093E0018093DF01003104
:101F60003CE5130709F4C3C008F041C008309CE504
:101F7000190709F49AC0F0F40430FCE51F0709F4CE
:101F800087C068F402303CE5130709F477C00330DA
:101F90001C4509F0E5C08091DF01826076C0063003
:101FA0009CE5190709F46EC008F07BC08091DF0141
:101FB00088606BC00C30FCE51F0709F485C068F42D
:101FC0000A303CE5130709F474C008F079C00E9498
:101FD00075278091DF01806858C00E309CE5190795
:101FE00009F476C008F07FC08091DF018BC00B3F01
:101FF000FCE51F0709F44FC018F503313CE5130752
:1020000009F47DC078F401319CE5190709F473C027
:1020100002311C4509F0A4C00E9475278091DF01A0
:102020008F7733C00531FCE51F0709F472C008F44F
:1020300086C00A3F1C4509F093C08091E0013EC074
:102040000F3F8CE5180709F45FC058F40D3FECE52D
:102050001E0709F444C008F43FC08091E00182608B
:102060002DC001302DE5120709F475C008F45DC0DC
:1020700002301D4509F074C060E06EC08091DF0140
:10208000816003C08091DF0180618093DF0168C0BF
:102090008091DF0111C08091E00182608093E001B6
:1020A0005FC08091DF018062F0CF8091DF018064AA
:1020B000ECCF8091DF0188608460E7CF8160EECF54
:1020C0008091DF018E7FE1CF8091DF018D7FDDCFB9
:1020D0008091DF01877FD9CF8091E00118C0809186
:1020E000E0018D7FDBCF8091DF018F7ECECF8091AD
:1020F000DF018F7DCACF8091DF018F7BC6CF8091BA
:10210000DF01877F8B7FC1CF8091E0018D7F8E7F44
:10211000C5CF8091DF0182FB222720F991E0922731
:1021200090FB82F990FB83F9B0CF8091E001982F6A
:10213000909591708E7F892B90FB81F9AFCF0E9493
:1021400075278091DF0187FB222720F991E09227F4
:1021500090FB87F99ACF61E08EE090E00E949D2885
:102160006091DF011091E00184E090E00E949D28E1
:10217000612F81E290E00E949D280F900F900F90B8
:102180000F900F90DF91CF911F910F91FF90EF90E3
:10219000DF90CF90BF90AF909F908F900C94752759
:1021A0008091A3020631FCE51F0789F58A7A91E048
:1021B00009F490E09093D101882311F065E301C008
:1021C00069E28AE292E00E948B260EC006311C452D
:1021D00009F08DC18091D101882309F46CC465E3B5
:1021E0008AE292E00E947E260F900F900F900F904F
:1021F0000F90DF91CF911F910F91FF90EF90DF90A3
:10220000CF90BF90AF909F908F900C94C51F82721B
:10221000F801E25CFC45E431F10508F0F6C0EA5A49
:10222000FF4F0C9405298091060280FF10C0809119
:10223000F501809581701F928F9381E396E09F93C3
:102240008F930E940D060F900F900F900F9080912A
:10225000F50180FF3EC08E7F8093F5016091F5010E
:102260007091F6018091F7019091F8010E94730A34
:102270008091060280FF0FC08091F50181701F924E
:102280008F9382EC95E09F938F930E940D060F90A1
:102290000F900F900F900E9443089FEFE0E7F2E04D
:1022A0009150E040F040E1F700C000000F900F9027
:1022B0000F900F900F90DF91CF911F910F91FF9092
:1022C000EF90DF90CF90BF90AF909F908F900C9445
:1022D000520881608093F5018091060280FF0DC055
:1022E0001F9281E08F938AEF95E09F938F930E94D6
:1022F0000D060F900F900F900F908091F50161E007
:10230000869570C04AE35CE063E47CE02CC043E463
:102310005CE06AE37CE027C049E95BE062EA7BE0DD
:1023200022C042EA5BE069E97BE01DC041E85BE076
:102330006DE87BE018C04DE85BE061E87BE013C02E
:1023400049E65BE065E77BE00EC045E75BE069E6F8
:102350007BE009C04BEA5BE06CEB7BE004C04CEB3C
:102360005BE06BEA7BE00F900F900F900F900F9067
:10237000DF91CF911F910F91FF90EF90DF90CF9061
:10238000BF90AF909F908F900C943D0861E081E0EA
:1023900029C065E082E011C068E086E00EC06EE012
:1023A00089E00BC064E18FE008C067E185E105C00A
:1023B00061E088E117C062E289E10F900F900F9011
:1023C0000F900F90DF91CF911F910F91FF90EF90A1
:1023D000DF90CF90BF90AF909F908F900C944D0C5A
:1023E00061E083E20F900F900F900F900F90DF91BC
:1023F000CF911F910F91FF90EF90DF90CF90BF9002
:10240000AF909F908F900C94CD0B01302CE512076C
:10241000C1F10E3D3CE5130709F456C001151C45FA
:1024200009F065C00E9475279FEFE4E3FCE091503E
:10243000E040F040E1F700C0000081E08093E00060
:1024400080E28093D8001092C9008FE19EE401974A
:10245000F1F700C0000087E090EBDC018093AE0252
:102460009093AF02A093B002B093B1029CE088E1D8
:102470000FB6F894A895809360000FBE909360000B
:10248000FFCF80910602982F9095917090FB80F974
:1024900080930602992319F08AE796E002C088E645
:1024A00096E00F900F900F900F900F90DF91CF91CB
:1024B0001F910F91FF90EF90DF90CF90BF90AF9062
:1024C0009F908F900C9474050F900F900F900F9029
:1024D0000F90DF91CF911F910F91FF90EF90DF90C0
:1024E000CF90BF90AF909F908F900C94B626F7013D
:1024F00000811181992349F0C8010E942F20D82E14
:10250000682FC8010E94A82004C0C8010E947C2036
:10251000D82EB8018D2D0E943D0D8C01982EF7010B
:10252000A580A2949FE0A922D280D1101092A2028D
:102530008091A002877079F0DD2069F080E2800F41
:10254000883048F082E00E9402218091A0028770CA
:10255000CC24C3948111C12CB12EB2948FE0B82247
:102560008B2D90E08C30910508F077C2FC01E65984
:10257000FF4F0C940529812F807F1F70882311F055
:102580001295107FDD20B9F0112309F451C280E2C9
:10259000800F883010F0911006C08091A302182B94
:1025A0001093A30205C08091A202182B1093A202DF
:1025B0000E94C51F3DC2802F0E949527112309F458
:1025C0004CC2005E1095083010F0911006C080914A
:1025D000A30218231093A30205C08091A20218231E
:1025E0001093A2020E94C51F38C2812F807F1F70E6
:1025F000803211F01295107F992021F0F1E09F16A2
:10260000E1F02AC0DD2081F08091A402AA2051F0DF
:1026100001E0A01207C0182B181709F41EC210936E
:10262000A4021BC2812B10C0AA2021F021E0A21617
:1026300009F413C20E942B2727C0DD2041F035E0AA
:102640003A1508F40AC2812F0E948B2706C284E043
:102650008A1508F402C218C0DD2049F0AA2099F3B7
:10266000F701858180FFE4C18F708583ECCFAA20BC
:1026700059F0093309F0EEC1FFEF17EE23E0F150F6
:1026800010402040E1F7E4C1812F0E948027E5C17E
:10269000812F86958695837019F0813059F0DDC1C0
:1026A000DD2019F0C801937002C080E090E00E9424
:1026B000A007D9C1DD2019F0C801937002C080E0E5
:1026C00090E00E948A07CFC1DD20F9F0053F51F06C
:1026D000063F71F0043FA9F48091D2019091D3019B
:1026E00081600BC08091D2019091D301826005C0BE
:1026F0008091D2019091D30184609093D301809313
:10270000D201802F0E94F9241EC0053F51F0063FE0
:1027100071F0043FA9F48091D2019091D3018E7F92
:102720000BC08091D2019091D3018D7F05C0809123
:10273000D2019091D3018B7F9093D3018093D201EA
:10274000802F0E9432240E94BD258DC1812F83706D
:1027500009F069C0D11085C1902F92959695977018
:10276000990F990F802F8F70882E912CA12CB12C4E
:10277000092E04C0880C991CAA1CBB1C0A94D2F711
:1027800004FF12C04FE050E060E070E004C0440F6E
:10279000551F661F771F9A95D2F7DB01CA018095F6
:1027A0009095A095B09503C080E090E0DC0116956F
:1027B0001695412F4370423019F1C8F40091A502DB
:1027C0001091A6022091A7023091A802413059F041
:1027D00088299929AA29BB29BC01CD01602371232D
:1027E000822393230AC0802A912AA22AB32ABC01F9
:1027F000CD01682979298A299B290E943C2131C170
:1028000088299929AA29BB290091A5021091A6021D
:102810002091A7023091A802BC01CD016027712749
:1028200082279327EACFDD2019F0812F817001C024
:102830008695882309F415C1902F929596959770E7
:10284000990F990F802F8F70882E912CA12CB12C6D
:10285000092E04C0880C991CAA1CBB1C0A94D2F730
:1028600004FF12C04FE050E060E070E004C0440F8D
:10287000551F661F771F9A95D2F7DB01CA01809515
:102880009095A095B09503C080E090E0DC0116958E
:102890001695412F43704230D9F068F500919C02A3
:1028A00010919D0220919E0230919F02413059F07B
:1028B00088299929AA29BB29BC01CD01602371234C
:1028C000822393231EC0802A912AA22AB32A13C0EE
:1028D00088299929AA29BB2900919C0210919D025F
:1028E00020919E0230919F02BC01CD01602771278B
:1028F0008227932706C0BC01CD01682979298A293E
:102900009B290E94D320ADC01F70DD2039F0812F9C
:102910000E941B21802F0E948B27A3C0802F0E9422
:102920008027812F0E94DD209CC0802F32EF9316DC
:1029300009F440C0391538F090EF991661F0E1EFD5
:102940009E1699F170C0F3EF9F16D9F124EF9216FD
:1029500009F44EC068C0DD2019F134E03A1508F4DE
:102960007CC01F7181E090E0A0E0B0E0AC01BD014F
:1029700004C0440F551F661F771F1A95D2F7809128
:102980009C0290919D02A0919E02B0919F028A01AB
:102990009B01082719272A273B27C901B80125C011
:1029A00025E02A1508F459C0DCCFDD2029F0812F5D
:1029B0008F712CC0DD20D9F3812F8F710E94DD2013
:1029C0004CC0DD2079F01F7181E090E0A0E0B0E024
:1029D000BC01CD0104C0660F771F881F991F1A958F
:1029E000D2F703C060E070E0CB010E94D32035C075
:1029F000DD2079F01F71812F0E941B2138E0139F89
:102A0000C001112483608093A002812F0E941B21AA
:102A100024C081E00E94022181E08A15F0F482E066
:102A20000E9402211AC0DD2039F0AA2009F4BFCF8C
:102A3000802F0E94FC2711C0AA2009F4BDCF893342
:102A400049F49FEFE7EEF3E09150E040F040E1F70A
:102A500000C00000802F0E94952788EF8B0D8430E6
:102A600010F40E94B607CC2041F18091A00280FDB5
:102A700024C0F70112828595859585950E941B21BA
:102A8000C7010E94FB0E8091A002859585958595D2
:102A90000F900F900F900F900F90DF91CF911F919B
:102AA0000F91FF90EF90DF90CF90BF90AF909F90ED
:102AB0008F900C94DD2069E293CB0F900F900F90D4
:102AC0000F900F90DF91CF911F910F91FF90EF909A
:102AD000DF90CF90BF90AF909F908F9008959FB759
:102AE000F894109211029FBF90912002943009F047
:102AF00057C09091E9009F703091EC00232F217016
:102B000030FD20E8922B23E02093E9002091EB0098
:102B100020FF43C02091EE0027FF3FC02091D40149
:102B2000222321F02091E80025FF37C01092D40124
:102B300026E03091E80035FD15C030912002343098
:102B400061F53091EB0035FD28C0215021F481E082
:102B50008093D40122C0EFE9FFE03197F1F700C084
:102B60000000E7CF8093F1008091E80085FD0AC066
:102B70008091E80080FFFCCF8091E8008E77809301
:102B8000E80006C08FB7F89421E0209311028FBFB0
:102B90009F709093E90080E008959F709093E90002
:102BA0008FEF08952091E4003091E50095E6409183
:102BB000EC00842F817040FF23C08091E80080FDED
:102BC0001DC080912002882399F0853099F0809172
:102BD000EB0085FD11C04091E4005091E500241701
:102BE000350729F3915011F09A01E1CF84E008955F
:102BF00082E0089583E0089581E0089580E00895DB
:102C00004091E80042FFDDCF08958091220287FFC6
:102C100011C08091E80082FD05C0809120028111E1
:102C2000F8CF11C08091E8008B770BC08091200213
:102C3000882349F08091E80080FFF8CF8091E80078
:102C40008E778093E8000895982F973068F59093D9
:102C5000E900981739F07091EC002091ED00509147
:102C6000F00003C0242F762F50E021FD02C09F5FAB
:102C7000ECCF3091EB003E7F3093EB003091ED00D4
:102C80003D7F3093ED003091EB0031603093EB00ED
:102C90007093EC002093ED005093F0002091EE0033
:102CA00027FDE5CF80E008958F708093E90081E0F3
:102CB000089520912802309129022617370748F0FD
:102CC0006115710539F42091E8002E772093E80012
:102CD00001C0B901FC0120E06115710579F1809115
:102CE00020028823F1F18530F1F18091E80083FD25
:102CF0003CC08091E80082FD2EC08091E80080FFFA
:102D0000EBCF2091F3008091F20090E0922B6115BF
:102D1000710551F08830910538F421912093F1002C
:102D2000615071090196F3CF21E0089709F020E086
:102D30008091E8008E778093E800CECF2111CFCF2D
:102D40000AC080912002882361F0853061F0809173
:102D5000E80083FD0AC08091E80082FFF2CF80E0A6
:102D6000089582E0089583E0089581E008958091B8
:102D70002002843011F081E0089582E00895CF931D
:102D8000DF93CDB7DEB72B970FB6F894DEBF0FBE3B
:102D9000CDBF84B7877F84BF0FB6F894A895809184
:102DA0006000886180936000109260000FBE90E028
:102DB00080E80FB6F89480936100909361000FBE95
:102DC00085B7806885BF85B7806885BF0E94181E5B
:102DD0000E94371E8091E20084608093E2008FE6BB
:102DE00095E19093930180939201789480912002D1
:102DF0008823A1F01091E9001F709091EC00892FB9
:102E0000817090FD80E8182B1092E9008091E80015
:102E100083FD0E94FD1A1F701093E90082E084BDBB
:102E200093E095BD9AEF97BD80936E00ADE3B1E05E
:102E300041E050E08D91E82FE295EF70F0E021A1A4
:102E40008F70BA0102C0660F771F8A95E2F7CB0137
:102E5000962F9095922391A392A1892B82A371E042
:102E6000A234B70739F7A2E4B1E041E050E08D9118
:102E7000E82FE295EF70F0E021A18F70BA0102C057
:102E8000660F771F8A95E2F7CB01962F90959223D4
:102E900091A392A1892B82A371E0A135B70739F7DD
:102EA000E5EDF1E08FED91E0A5EEB1E01192119228
:102EB0001D921D928E179F07C9F780E090E00E9437
:102EC00097288C3E9E4F11F00E94B62680E090E03D
:102ED0000E9497288C3E9E4F11F00E94B62682E0F9
:102EE00090E00E948928809306020E94A526909374
:102EF000E0018093DF0183E090E00E948928682F41
:102F000070E080E090E00E943C218091E10181111D
:102F1000E0C08091060280FF08C08DEC97E09F938F
:102F20008F930E940D060F900F908091060280FFF4
:102F300008C087EB97E09F938F930E940D060F9038
:102F40000F9080E090E00E9497288C3E9E4F81F089
:102F50008091060280FF08C08FE897E09F938F93CF
:102F60000E940D060F900F900E94B6260E945F0CE3
:102F700088E090E00E9491286093F5017093F6013B
:102F80008093F7019093F8016E7FD1F4809106024F
:102F900080FF08C086E497E09F938F930E940D0600
:102FA0000F900F900E945F0C88E090E00E949128A3
:102FB0006093F5017093F6018093F7019093F80107
:102FC0000E94600A8091060280FF08C08DE297E0AF
:102FD0009F938F930E940D060F900F908091060291
:102FE00080FF0FC08091F50181701F928F9380E167
:102FF00097E09F938F930E940D060F900F900F9074
:103000000F908091060280FF0FC08091F501869598
:103010001F928F9385EF96E09F938F930E940D06EA
:103020000F900F900F900F908091060280FF0EC0BE
:103030008091F6011F928F938BED96E09F938F9373
:103040000E940D060F900F900F900F908091060236
:1030500080FF0EC08091F7011F928F9381EC96E064
:103060009F938F930E940D060F900F900F900F90DB
:103070008091060280FF0EC08091F8011F928F930D
:1030800087EA96E09F938F930E940D060F900F9012
:103090000F900F908091060280FF0EC08091F90181
:1030A0001F928F938BE896E09F938F930E940D065B
:1030B0000F900F900F900F901092FB018091F501EF
:1030C00080FF04C060E086950E94CD0B81E0809374
:1030D000E1018DE091E09093E3018093E2018BE3C5
:1030E00098E00E94740580912002853009F040C06C
:1030F00087E398E00E94740580912002843021F1DA
:103100001092E40120E488E190E00FB6F894A895CD
:10311000809360000FBE2093600083B7817F84603E
:1031200083BF83B7816083BF7894889583B78E7F90
:1031300083BF0FB6F894A895809160008861809352
:103140006000109260000FBE80911F02882309F476
:10315000CACF0E946E0C8FEE91E0E5EEF1E0219176
:103160003191232B09F003C28E179F07C1F7BBCF04
:103170000E946E0C27E0422E22E0522E35EE632E86
:1031800031E0732E00E010E00B87F301A190B190C5
:103190003F01F201C190D1902F01CA24DB24C11458
:1031A000D104B1F40F5F1F4F0530110569F78FEFA0
:1031B0008E838F8318860E94B1258160782F9A872D
:1031C00089874E815F8168858A850E94EE0677C077
:1031D0008091060281FD05C080E0EE24E394F12C8D
:1031E00048C084EF97E00E94740585EE882E81E048
:1031F000982EE12CF12CFF92EF922FEE37E03F93C7
:103200002F930E940D068CEE97E00E947405F40146
:1032100080812180F2E08F0E911C0E941927382EA8
:10322000822D0E941927232D30E0322F2227A90159
:10323000482BCA019F938F9366EE77E07F936F933D
:103240000E940D0684EE97E00E9474059FEFE91A34
:10325000F90A0FB6F894DEBF0FBECDBFF5E0EF164A
:10326000F10449F6B9CF8F5FEE0CFF1C8F3009F4E3
:1032700099CF96012E213F21232BA9F389832B85FA
:103280002A83AE20BF2081E0AB2809F480E08B8345
:103290000E94B1258160782F9D838C8349815A815A
:1032A0006B818D810E94EE06000F111FF801E95F0E
:1032B000FD4F80819181E826F926F182E08280919C
:1032C000FB01882309F49AC08091FA01E091F5018D
:1032D000E695E81BE093F101823059F4F0E0E75EF7
:1032E000F74FE4910E2F10E0ECE4EE2EEAE0FE2E14
:1032F00059C0863059F4F0E0EA5EF74FE4910E2FA2
:1033000010E07CE3E72E7AE0F72E4CC0893061F4C0
:10331000E695F0E0ED5EF74FE4910E2F10E067EADE
:10332000E62E69E0F62E3EC08F3061F4E695F0E0BF
:10333000E05FF74FE4910E2F10E053E4E52E59E0E3
:10334000F52E30C0853159F4F0E0E35FF74FE4919A
:103350000E2F10E045EFE42E48E0F42E23C0883114
:10336000A1F0833249F4EBE0F8E00591149132EEDC
:10337000E32E39E0F32E16C0843271F404EF11E02D
:1033800028E8E22E28E0F22E0DC008EE13E092ECC1
:10339000E92E98E0F92E06C000ED17E086E1E82E50
:1033A00086E0F82E8091F201882389F01092F201D4
:1033B0000E94B125980120953095820F931F90931C
:1033C000F0018093EF011092F4011092F3018091CB
:1033D000EF019091F0010E9487258017910770F00E
:1033E000E091EF01F091F0010E0F1F1F1093F0011B
:1033F0000093EF018FEE91E0F701099580910302B0
:10340000909104020E948725AC01909102029111D3
:1034100003C02CE231E002C022E330E04217530740
:1034200008F478C08091FE011091FF0181110BC05A
:103430001111B3C0209100022111AFC020910102EF
:103440002111ABC067C09F3F19F09F5F90930202AC
:10345000181624F40E94D9248093FE018091FE0165
:1034600087FF05C00E94D92481958093FE01111623
:1034700024F40E94D9248093FF018091FF0187FFEB
:1034800005C00E94D92481958093FF013091FE01EF
:103490003323E1F02091FF012223C1F045EB3403F7
:1034A000C0011124992319F09093FE0103C081E01B
:1034B0008093FE0155EB2503C0011124992319F0D7
:1034C0009093FF0103C081E08093FF01809100028F
:1034D000181624F40E94B724809300028091000201
:1034E00087FF05C00E94B7248195809300028091D8
:1034F0000102181624F40E94B724809301028091DF
:10350000010287FF05C00E94B724819580930102C4
:103510000E94BD250E94B60790910502891709F403
:10352000E2CD0E94B607182F809305028091060213
:1035300082FFD9CD80FF04C084E298E00E94740528
:103540008091060280FF0CC01F921F936FE178E00C
:103550007F936F930E940D060F900F900F900F9026
:103560008091060280FFBFCD8DE198E0BACD80E169
:1035700089BD82E189BD09B400FEFDCF8091D800EC
:103580008F7D8093D8008091E00082608093E0007E
:103590008091E00081FDFCCFA6CD9F3F09F055CF83
:1035A00066CFEF92FF920F931F93CF93DF937C012F
:1035B0008B010E94D215811119C0E7010115110577
:1035C000A1F08091E80085FD0AC08091E8008E7727
:1035D0008093E8000E94D215882381F307C0899167
:1035E0008093F10001501109E9CF80E0DF91CF9184
:1035F0001F910F91FF90EF9008951F93CF93DF934A
:10360000CDB7DEB7AA970FB6F894DEBF0FBECDBF19
:10361000E2E2F2E08AE292E02091F10021938E173B
:103620009F07D1F780912302833009F460C030F402
:10363000813071F0823009F49AC0B1C08A3009F447
:1036400086C08B3009F46BC0893009F0A8C020C057
:1036500080912202813A09F0A2C08091E800877F20
:103660008093E8008091260290912702892B21F413
:1036700068E086E192E003C060E080E090E070E006
:103680000E9459168091E8008B778093E80087C0EC
:1036900080912202813209F082C0809126029091AD
:1036A0002702029708F07BC08091E800877F809313
:1036B000E8008091E80082FD05C080912002811120
:1036C000F8CF6DC02091F3008091F20090E0922B32
:1036D000029729F48091F1008B7F813021F4809151
:1036E000F100809315028091E8008B7754C080919F
:1036F0002202813A09F053C080912602909127025C
:10370000892B09F04CC08091E800877F8093E80006
:103710008091E80080FFFCCF8091170137C0809135
:1037200022028132E1F58091260290912702892BB5
:10373000B1F58091E800877F8093E8000E9405162C
:1037400080912402809317010E94752728C08091E0
:103750002202813221F58091E800877F8093E80082
:103760000E940516809125028093140218C0809152
:103770002202813AA1F48091E800877F8093E800DB
:103780008091E80080FFFCCF809114028093F100CB
:103790008091E8008E778093E8000E940516809162
:1037A000E80083FFE3C18091220290912302492F18
:1037B00050E04A30510508F0D9C1FA01EA58FF4FEC
:1037C0000C940529803821F0823809F0CFC108C057
:1037D00080911E0290911F02992389F082600FC090
:1037E000809126028F70873008F0C0C18093E90075
:1037F0008091EB0085FB882780F91092E900909179
:10380000E800977F9093E8008093F1001092F10018
:103810007BC1282F2D7F09F0A9C1882319F08230A0
:1038200061F0A4C180912402813009F09FC19330DE
:1038300009F080E080931F022EC080912402811144
:103840002AC0809126028F702FEF280F263008F0B3
:103850008DC18093E9002091EB0020FF1CC09330C4
:1038600021F48091EB00806214C09091EB00906194
:103870009093EB0021E030E0A90102C0440F551FF6
:103880008A95E2F74093EA001092EA008091EB00FB
:1038900088608093EB001092E9008091E800877FB8
:1038A0008093E8000E94051661C181115FC11091EB
:1038B00024021F778091E3008078812B8093E300BE
:1038C0008091E800877F8093E8000E940516809130
:1038D000E80080FFFCCF8091E30080688093E300E4
:1038E000111102C082E001C083E0809320023EC13A
:1038F0008058823008F03AC120912402309125028C
:103900002C3D53E0350779F583E08A838AE2898389
:103910004FB7F894DE01139620E03EE051E2E32F2A
:10392000F0E050935700E49120FF03C0E295EF7060
:103930003F5FEF708E2F90E0EA3010F0C79601C025
:10394000C0968D939D932F5F243149F74FBF80918F
:10395000E800877F8093E8006AE270E0CE0101967C
:103960000E945916C0C08091260290912702432FD1
:10397000552743305105B1F068F44130510509F441
:1039800004C14230510509F0F1C08BE590E0E3E459
:10399000F9E057C04132510589F14232510509F42D
:1039A0003CC0E4C0C901992781309105B9F070F09D
:1039B00082309105D9F0039709F0D8C0E0EBF9E027
:1039C000E4918E2F90E0E0EBF9E038C0E6EDF9E00D
:1039D000E4918E2F90E0E6EDF9E030C0E4ECF9E000
:1039E000E4918E2F90E0E4ECF9E028C0E6EBF9E0FA
:1039F000E4918E2F90E0E6EBF9E020C08330910552
:103A000008F0B4C0880F991FFC01E65AFE4F0190E0
:103A1000F081E02D89E090E014C08330910508F03A
:103A2000A5C0FC01EE0FFF1FEC5AFE4F0190F08184
:103A3000E02DDC01AF5ABE4F8C9190E0009709F465
:103A400095C02091E800277F2093E800209128026C
:103A5000309129022817390708F4C90140E000977E
:103A600089F120912002222309F43DC02530D9F1AB
:103A70002091E80023FD37C02091E80022FD2FC0EF
:103A80002091E80020FFEBCF4091F3002091F2005D
:103A900030E0342B009759F02830310540F4449140
:103AA0004093F100319601972F5F3F4FF3CF41E0F4
:103AB0002830310509F040E02091E8002E7720936E
:103AC000E800CDCF4111CDCF0AC0809120028823DC
:103AD00051F0853041F08091E80083FD04C0809171
:103AE000E80082FFF2CF8091E8008B778093E800B6
:103AF0003DC08038D9F58091E800877F8093E80049
:103B0000809121028093F1008091E8008E77C8CEE9
:103B100081112CC08091240290912502992702974F
:103B20002CF58091E800877F8093E80010912402B3
:103B3000109321020E940516111106C08091E30026
:103B400087FD02C081E001C084E08093200242E052
:103B500061EC81E00E94241642E261EC82E00E9466
:103B6000241642E261EC83E00E9424168091E80072
:103B700083FF10C08091E800877F8093E8008091E8
:103B8000EB0080628093EB0005C082E190E0EEE9FB
:103B9000F9E057CFAA960FB6F894DEBF0FBECDBF9F
:103BA000DF91CF911F9108951F920F920FB60F9240
:103BB00011242F933F934F935F936F937F938F9332
:103BC0009F93AF93BF93CF93DF93EF93FF93C091F6
:103BD000E900CF708091EC00D82FD17080FDD0E843
:103BE0001092E9008091F000877F8093F000789434
:103BF0000E94FD1A1092E9008091F0008860809385
:103C0000F000CD2BCF70C093E900FF91EF91DF91D1
:103C1000CF91BF91AF919F918F917F916F915F9164
:103C20004F913F912F910F900FBE0F901F901895BD
:103C3000E8EDF0E080818E7F80831092E2001092A8
:103C4000DA001092E100A0EEB0E08C9181608C93DC
:103C500080818F77808319BCA7EDB0E08C918E7F37
:103C60008C9380818F7E8083109213020895CF926F
:103C7000DF92EF92FF920F931F93CF93DF93C8EDE4
:103C8000D0E088818F7E8883E7EDF0E080818160DD
:103C9000808384E082BF81E08093130288818E7FDD
:103CA000888302EE10E0F80110821092DA0081EEB3
:103CB000C82ED12CF601108288818F778883888165
:103CC0008068888388818F7D888319BC1092200248
:103CD0001092210210921F0210921E0290EEE92E05
:103CE000F12CF70180818B7F8083888181608883BC
:103CF00042E060E080E00E942416F60180818E7F21
:103D00008083F801808181608083808188608083E6
:103D1000F70180818E7F8083888180618883DF9135
:103D2000CF911F910F91FF90EF90DF90CF9008956A
:103D30001F920F920FB60F9211242F933F934F9320
:103D40005F936F937F938F939F93AF93BF93EF9303
:103D5000FF938091E10082FF49C08091E20082FFE1
:103D600045C08091E1008B7F8093E1002091120299
:103D70002F5F822F62E30E94D128992319F02093AC
:103D8000120234C01092120280911102882371F144
:103D900080912002843041F58091E9008F7020915C
:103DA000EC00922F917020FD90E8892B93E0909386
:103DB000E9009091EB0090FF14C09091EE0097FF06
:103DC00010C09091E80095FF03C01092F100F9CF68
:103DD0009091E80090FF05C09091E8009E77909345
:103DE000E8008F708093E900109211028091DA0050
:103DF00080FF32C08091D80080FF2EC08091DA0011
:103E00008E7F8093DA008091D90080FF1CC080E112
:103E100089BD82E189BD09B400FEFDCF81E08093B8
:103E200020028FE299E00E947405809113028111B3
:103E300013C00E94181E0E94371E8091E200846009
:103E40008093E20009C019BC1092200283E399E03C
:103E50000E947405109213028091E10080FF1BC044
:103E60008091E20080FF17C08091E2008E7F8093F6
:103E7000E2008091E20080618093E2008091D800AE
:103E800080628093D80019BC85E08093200287E38C
:103E900099E00E9474058091E10084FF36C0809112
:103EA000E20084FF32C080E189BD82E189BD09B4AE
:103EB00000FEFDCF8091D8008F7D8093D800809147
:103EC000E1008F7E8093E1008091E2008F7E8093FD
:103ED000E2008091E20081608093E2008091210203
:103EE000882311F084E007C08091E30087FD02C0C1
:103EF00081E001C083E0809320028BE399E00E947F
:103F000074050E9475270E94B6078091E10083FF27
:103F10002BC08091E20083FF27C08091E100877F62
:103F20008093E10082E08093200210922102809130
:103F3000E1008E7F8093E1008091E2008E7F80938C
:103F4000E2008091E20080618093E20042E060E064
:103F500080E00E9424168091F00088608093F00039
:103F60008FE399E00E947405FF91EF91BF91AF91AB
:103F70009F918F917F916F915F914F913F912F9181
:103F80000F900FBE0F901F901895EF92FF920F9316
:103F90001F93CF939091A3028091A202892B20912D
:103FA000A102982F922B90932A028091A402882339
:103FB00089F0892B80932A02ECE2F2E097E080E01E
:103FC000915029F021912223D9F38F5FF9CF8111EC
:103FD0000E942B27E091E201F091E3013097C9F1B3
:103FE0000280F381E02D8AE292E009958091060239
:103FF00082FF2FC080FF04C082EE99E00E9474050A
:104000000AE212E0C8E08CEDE82E89E0F82E8091FB
:10401000060280FF0CC0F80180811F928F93FF92EF
:10402000EF920E940D060F900F900F900F90C150CD
:104030000F5F1F4FC111EBCF8091060280FF09C0B7
:104040008AED99E0CF911F910F91FF90EF900C9422
:104050007405CF911F910F91FF90EF900895BF923B
:10406000CF92DF92EF92FF920F931F93CF93DF9344
:104070008C01C0909C02D0909D02E0909E02F09036
:104080009F028091A5029091A602A091A702B091F3
:10409000A802C82AD92AEA2AFB2ACFE1D0E0D70110
:1040A000C6010C2E04C0B695A795979587950A94DE
:1040B000D2F780FD04C0219790F7B12C07C0BC2E29
:1040C000B8018C2F0E943D0D0197A9F38B2DDF9134
:1040D000CF911F910F91FF90EF90DF90CF90BF9005
:1040E0000895CF93DF93EC010E942F20BE010E9420
:1040F0003D0DDF91CF9108952FE0929F800D112407
:10410000682F669566956695982F977085E0689FED
:10411000B001112440E050E080E0FB01E40FF51F06
:10412000E659FD4F208130E0092E02C036952795D3
:104130000A94E2F721703327042E01C0220F0A945B
:10414000EAF7822B4F5F5F4F4530510531F70895F5
:104150002FE0929F800D1124E82FE695E695E695D5
:10416000877051E001C0550F8A95EAF785E0E89F16
:10417000F0011124E659FD4F20E030E070E040816D
:10418000CB01022E02C0969587950A94E2F78170C2
:10419000819584278523842781932F5F3F4F253086
:1041A000310569F7089560939C0270939D02809396
:1041B0009E0290939F020C945A270F931F9341E005
:1041C00050E060E070E004C0440F551F661F771F89
:1041D0008A95D2F7409550956095709580919C0294
:1041E00090919D02A0919E02B0919F028A019B0135
:1041F000082319232A233B23C901B8011F910F91DA
:104200000C94D3202091A002809582238093A00259
:10421000982F977079F430E0482F082E000C550B3A
:104220002417350739F08595859585950E94DD2001
:104230001092A00208950F931F9341E050E060E0B8
:1042400070E004C0440F551F661F771F8A95D2F790
:1042500080919C0290919D02A0919E02B0919F023C
:104260008A019B01082B192B2A2B3B2BC901B80172
:104270001F910F910C94D3206093A5027093A60216
:104280008093A7029093A8020C945A278091690208
:1042900090913802891719F08F5F8770FBCF0895CE
:1042A000CF938091370282958F7009F05FC0809123
:1042B0003402882309F45AC080916902B09138020F
:1042C00070913202A0913302409135025091360232
:1042D00091E07F3F09F090E0692FC6E08B1709F469
:1042E00045C04115510521F0AF3F21F020E003C04A
:1042F00021E001C0262F90E020FD35C0C89FF001CD
:10430000C99FF00D1124E75CFD4F21812A132BC0BA
:104310002081271328C02281211125C023813481C7
:104320002417350710F421503109241B350B283C84
:104330003105C8F4209137022F7020612093370295
:1043400026E0289FF001299FF00D1124E25CFD4F2B
:1043500080818F708061808382E392E00E94FB0EF7
:10436000CF910C94462101968770B8CFCF910895D4
:10437000AF92BF92CF92DF92EF92FF920F931F9373
:10438000CF93DF93CDB7DEB761970FB6F894DEBF5A
:104390000FBECDBF8C0185E0F801DE011D960190B6
:1043A0000D928A95E1F7D8013C9111962C911197C5
:1043B0001296EC9050913202609133028091350256
:1043C00090913602009731F06F3F31F441E05F3F4A
:1043D00019F403C041E001C040E0B42FB170BB2E1E
:1043E00040FD43C1F801C380D480A0903402AA20CC
:1043F00009F4E2C040913702C816D90628F0D60168
:10440000A81BB90BCD0104C0809590958C0D9D1D06
:10441000FF24F394883C910548F0F12C407F09F08B
:1044200090C082E392E00E94FB0E17C1842F807F30
:1044300009F052C0621312C0531310C0FE2CE110D9
:104440000DC04F7040614093370282E392E00E94BA
:10445000FB0E80913702F801858348C1CD2831F0E9
:104460002F3F31F481E03F3F19F403C081E001C0E8
:1044700080E080FD03C081E08E2502C080E090E0F6
:10448000F82FF170FF2E80FF1CC0809169024091CF
:10449000380256E0841709F406C190E0589FF001F5
:1044A000599FF00D1124E75CFD4F6181261306C072
:1044B0006081361303C06281E61203C001968770E3
:1044C000E9CFFE2CEE2009F411C180913702816002
:1044D00080933702F12C0AC1621308C0531306C03F
:1044E000E11004C080913702F80199C03D872E8702
:1044F0008D859E850E943127882369F1EE2059F130
:1045000020913702822F82958F7090E0029774F08D
:10451000809132029091330298878F831986DB86CF
:10452000CA862C87CE0107960E94FB0E86E0F80112
:10453000A2E3B2E001900D928A95E1F70E9450212A
:104540000DC0621771F03D872E878D859E850E9474
:10455000312781111AC0C8010E94FB0EFF24F39479
:10456000C5C05313F0CFE110EECF80913702F801B0
:104570008583C8010E94FB0E86E0E2E3F2E0DF01E2
:104580001D928A95E9F7FA2CB1C0EE2021F3209113
:104590003702822F82958F7090E002973CF28091D3
:1045A0003202909133029A8389831B82DD82CC820E
:1045B0002E83CE010196B8CFC816D90638F0C81A96
:1045C000D90AB8ECCB16D10450F007C0809590956D
:1045D0008C0D9D1D883C910510F0F12C3EC0FE2CE9
:1045E000EE2009F4B8CF621327C0531325C02091E1
:1045F000370220FD18C0822F82958F70482F50E01F
:104600004115510581F0F80125834F30510541F0E6
:104610008F5F982F9295907F822F8F70892B858343
:10462000C8010E94FB0E86E0F801A2E3B2E001900F
:104630000D928A95E1F75AC03D872E878D859E851C
:104640000E943127811172CF80913702816080935F
:104650003702C8010E94FB0E49C0E2E3F2E086E0A7
:10466000DF011D928A95E9F741C0EE2009F473CF6E
:104670003D872E878D859E850E943127F82E8823C1
:1046800009F469CF86E0F801A2E3B2E001900D924F
:104690008A95E1F780913202909133020E94712055
:1046A0000E94502123C03D872E878D859E850E94C4
:1046B0007120292F22952F70223028F49F7039F015
:1046C000811105C00BC0243028F49F7049F4805E2E
:1046D000883020F0C8010E94FB0EBF2CFB2C06C0C6
:1046E000D80115969C91907F91F7F8CF8F2D619608
:1046F0000FB6F894DEBF0FBECDBFDF91CF911F91F3
:104700000F91FF90EF90DF90CF90BF90AF90089502
:10471000809115020895CF93DF9300D01F92CDB7FB
:10472000DEB790912002943019F589837B836A83E8
:1047300082E08093E9008FEF9091E800815095FD31
:1047400006C095ED9A95F1F700008111F5CF8091A3
:10475000E80085FF0DC040E050E063E070E0CE016E
:1047600001960E94D11A8091E8008E778093E8002C
:104770000F900F900F90DF91CF910895CF93DF931B
:10478000EC010E94B716823011F0843031F4BE0182
:1047900084E0DF91CF910C948B23DF91CF9108952A
:1047A000BC0183E00C948B23CF93DF93EC010E9438
:1047B000B716823011F08430F9F482E08093E9007A
:1047C0008FEF9091E800815095FD06C095ED9A9588
:1047D000F1F700008111F5CF8091E80085FF0CC052
:1047E00040E050E066E070E0CE010E94D11A809176
:1047F000E8008E778093E800DF91CF910895CF9302
:10480000DF93EC010E94B716823011F0843039F545
:1048100081E08093E9008FEF9091E800815095FD51
:1048200006C095ED9A95F1F700008111F5CF8091C2
:10483000E80085FF14C040E050E068E070E0CE0181
:104840000E94D11A8091E8008E778093E80088E07A
:10485000FE01A6E1B2E001900D928A95E1F7DF91A9
:10486000CF910895803F39F48091FF0187FF6CC09C
:104870001092FF0169C0813F29F48091FF01181651
:10488000BCF362C09091FE01823F29F497FF5CC0A7
:104890001092FE0159C0833F19F41916CCF354C08D
:1048A000893F41F48091000218160CF04DC010921F
:1048B00000024AC08A3F29F48091000287FF44C069
:1048C000F6CF8B3F39F48091010287FF3DC01092F3
:1048D00001023AC08C3F29F4809101021816BCF302
:1048E00033C0843F21F48091FD018E7F17C0853F46
:1048F00021F48091FD018D7F11C0863F21F48091CC
:10490000FD018B7F0BC0873F21F48091FD01877FE4
:1049100005C0883F31F48091FD018F7E8093FD01B9
:1049200013C08D3F21F48091AD028E7F0BC08E3F6E
:1049300021F48091AD028D7F05C08F3F29F48091D5
:10494000AD028B7F8093AD028091FE0181110EC07C
:104950008091FF0181110AC080910002811106C07F
:1049600080910102811102C010920202089580918B
:10497000AD0280FD16C081FD16C082FD18C0809179
:104980000202882391F0883290F428E0829FC001CF
:10499000112468E270E00E94F128862F672B29F02D
:1049A00007C082E0089584E0089581E0089588E0DA
:1049B00008958091AD0280FD14C081FD14C082FD78
:1049C00016C080910202882381F0843180F422E3B2
:1049D000829FC001112464E170E00E94F128862FBB
:1049E00008958CE0089589E1089585E0089582E3B3
:1049F0000895803F21F40E94D924819504C0813F0D
:104A000029F40E94D9248093FF010895823F21F464
:104A10000E94D924819504C0833F29F40E94D9249F
:104A20008093FE010895893F19F40E94B72405C0C0
:104A30008A3F31F40E94B724819580930002089543
:104A40008B3F21F40E94B724819504C08C3F29F448
:104A50000E94B724809301020895843F21F480913D
:104A6000FD01816017C0853F21F48091FD018260C6
:104A700011C0863F21F48091FD0184600BC0873F07
:104A800021F48091FD01886005C0883F31F4809158
:104A9000FD0180618093FD0108958D3F21F4809197
:104AA000AD0281600BC08E3F21F48091AD02826027
:104AB00005C08F3F29F48091AD0284608093AD02E0
:104AC000089578941F920F920FB60F9211248F932E
:104AD0009F93AF93BF938091A9029091AA02A09156
:104AE000AB02B091AC020196A11DB11D8093A90249
:104AF0009093AA02A093AB02B093AC02BF91AF9186
:104B00009F918F910F900FBE0F901F901895CF928D
:104B1000DF92EF92FF920F931F932FB7F89440917B
:104B2000A9025091AA026091AB027091AC022FBF12
:104B30006A017B01EE24FF248C0120E030E0C016E6
:104B4000D106E206F30610F4415051099A01281BE0
:104B5000390BC9011F910F91FF90EF90DF90CF901B
:104B600008952FB7F8948091A9029091AA02A0917C
:104B7000AB02B091AC022FBF08958091060283FF73
:104B80007EC08BE19AE00E9474058091FD011F9226
:104B90008F9386E19AE09F938F930E940D0684E1A4
:104BA0009AE00E9474058091FE01282F082E000CC7
:104BB000330B3F938F9381E19AE09F938F930E94F1
:104BC0000D068FE09AE00E9474058091FF01282F66
:104BD000082E000C330B3F938F938CE09AE09F9349
:104BE0008F930E940D068AE09AE00E9474058091DE
:104BF0000002282F082E000C330B3F938F9387E081
:104C00009AE09F938F930E940D0685E09AE00E94A0
:104C1000740580910102282F082E000C330B3F935E
:104C20008F9382E09AE09F938F930E940D068FEFFF
:104C300099E00E947405809102021F928F938CEF7D
:104C400099E09F938F930E940D068AEF99E00E944E
:104C500074058091AD021F928F9387EF99E09F9327
:104C60008F930E940D0684EF99E00E9474058DB722
:104C70009EB74C960FB6F8949EBF0FBE8DBFE091C5
:104C8000E201F091E301309749F082E08093FC016A
:104C90000480F581E02D8CEF91E009950E94B1250B
:104CA000909304028093030208951F920F920FB60F
:104CB0000F9211248F939F93AF93BF938091E40140
:104CC000811113C08091A9029091AA02A091AB0218
:104CD000B091AC024196A11DB11D8093A9029093A1
:104CE000AA02A093AB02B093AC02BF91AF919F9187
:104CF0008F910F900FBE0F901F9018959C012A5F07
:104D00003F4FFC014281461301C012820196821777
:104D10009307B9F708959C01FC0132969FEF80E05C
:104D20004191461789F09F3F19F4411101C0982F16
:104D30008F5F8630A9F79F3F39F0F901E90FF11D28
:104D400097FDFA95628308950895CF9384E090E0EB
:104D50000E948928C82F81E290E00E9489282C2F88
:104D600030E0A901582BCA01CF9108956CEE7EEF77
:104D700080E090E00E94BB2860E082E090E00E942A
:104D80009D2860E083E090E00E949D281092A5029B
:104D90001092A6021092A7021092A80260E084E08E
:104DA00090E00E949D2860E081E290E00E949D28B2
:104DB00060E085E090E00E949D2860E086E090E061
:104DC0000E949D286FEF87E090E00E949D2840E0C0
:104DD00050E0BA0188E090E00E94AF2860E08DE0EA
:104DE00090E00E949D2840E050E0BA0188E190E008
:104DF0000E94AF2860E087E190E00E949D2840E09B
:104E000050E0BA018CE190E00E94AF2860E080E2BF
:104E100090E00E949D2840E050E0BA018FE090E0D1
:104E20000E94AF2840E050E0BA0183E190E00C948A
:104E3000AF288295982F937344E0949F900111249A
:104E40008C7C86958695282B822F8575880F2A7AEB
:104E50002695822B08958091A40281111092A402BC
:104E600008950E947120292F2F70E92FE295EF708D
:104E70004E2F50E0FA013297EE30F105B8F4E058C9
:104E8000FF4F0C940529803F99F018F4883E70F488
:104E90000FC0843F59F40CC0883E50F0813F31F47C
:104EA00007C0822F869586958695089580E008959F
:104EB00081E008951092A2021092A1020E94C51FE3
:104EC000ECEFF1E086E0DF011D928A95E9F71092A0
:104ED00002021092AD020E94BD2580E090E00E9487
:104EE000A00780E090E00C948A071092A30286E06D
:104EF000ECE2F2E0DF011D928A95E9F70C945A2763
:104F0000882341F080959091A30289238093A30286
:104F10000C94C51F0895882339F09091A302892B22
:104F20008093A3020C94C51F0895882309F463C0DD
:104F3000823869F40E94B60781FF5DC069E38AE2A6
:104F400092E00E948B260E94C51F69E30EC0833841
:104F500091F40E94B60780FF4EC063E58AE292E0BA
:104F60000E948B260E94C51F63E58AE292E00E94A0
:104F70007E260C94C51F843869F40E94B60782FF10
:104F80003AC067E48AE292E00E948B260E94C51F25
:104F900067E4EBCF9CEF980F913A10F4682FE5CFC0
:104FA00090E2980F983088F4877021E030E0A901F2
:104FB00002C0440F551F8A95E2F7CA01809590916F
:104FC000A30289238093A302D4CF9BE5980F93304B
:104FD00020F480E090E00C94A00798E5980F9731BA
:104FE00020F480E090E00C948A07803F20F00E943B
:104FF00032240C94BD250895882309F489C0823891
:10500000B1F40E94B60781FD83C069E38AE292E0B1
:105010000E948B260E94C51F2FEF41EE54E02150C5
:1050200040405040E1F700C0000069E317C08338FA
:10503000D9F40E94B60780FD6BC063E58AE292E076
:105040000E948B260E94C51F8FEF91EE24E08150B5
:1050500090402040E1F700C0000063E58AE292E062
:105060000E947E260C94C51F8438B1F40E94B607B6
:1050700082FD4EC067E48AE292E00E948B260E9485
:10508000C51F4FEF51EE84E0415050408040E1F7A2
:1050900000C0000067E4E2CF9CEF980F913A30F433
:1050A000682F8AE292E00E948B26DCCF90E2980F74
:1050B000983080F4877021E030E0A90102C0440FED
:1050C000551F8A95E2F7CA019091A302892B80931C
:1050D000A302C8CFEBE5E80FE33038F4F0E0E05A84
:1050E000FE4F808190E00C94A007E8E5E80FE731DF
:1050F00048F4F0E0EE0FFF1FED59FE4F80819181E3
:105100000C948A07803F20F00E94F9240C94BD255E
:105110000895F999FECF92BD81BDF89A992780B57F
:105120000895A6E1B0E044E050E00C94C328A8E163
:10513000B0E042E050E00C94C328262FF999FECF4E
:1051400092BD81BDF89A019700B4021639F01FBADA
:1051500020BD0FB6F894FA9AF99A0FBE08950396F7
:10516000272F0E949E280E949D28252F0E949E285E
:10517000242F0C949E280196272F0E949E280C9481
:105180009D28DC01CB01FC01F999FECF06C0F2BDE0
:10519000E1BDF89A319600B40D9241505040B8F7F5
:1051A0000895991B79E004C0991F961708F0961B83
:1051B000881F7A95C9F780950895AA1BBB1B51E1FA
:1051C00007C0AA1FBB1FA617B70710F0A61BB70B77
:1051D000881F991F5A95A9F780959095BC01CD011C
:1051E000089597FB072E16F4009407D077FD09D099
:1051F0000E94DD2807FC05D03EF4909581959F4FD5
:105200000895709561957F4F0895EE0FFF1F0590EB
:10521000F491E02D0994FC014150504030F0019090
:105220000616D1F73197CF01089588279927089559
:04523000F894FFCF20
:1052340001191A1B1C1D1E1F20212201028823FF95
:1052440023D423D023BE2301000102020202060656
:10525400060909090909090F0F0F0F0F0F15151575
:105264001819191919191919191919232430336717
:105274003666F6F5F4F1C695939291909496973428
:1052840035408122EF086E084C0855096E098709DC
:10529400818283E200E900EA00B500B600B700CDE0
:1052A400008301CC008A019201940121022302248B
:1052B400022502260227022A02B300B4006F0070FE
:0252C4000000E8
:00000001FF
